{
  "contracts/PeachToken.sol": {
    "PeachToken": {
      "abi": [
        {
          "inputs": [
            {
              "internalType": "address payable",
              "name": "_liquidityPool",
              "type": "address"
            },
            {
              "internalType": "address payable",
              "name": "_rewardsPool",
              "type": "address"
            },
            {
              "internalType": "address payable",
              "name": "_treasuryPool",
              "type": "address"
            },
            {
              "internalType": "address payable",
              "name": "_teamPool",
              "type": "address"
            }
          ],
          "stateMutability": "nonpayable",
          "type": "constructor"
        },
        {
          "anonymous": false,
          "inputs": [
            {
              "indexed": true,
              "internalType": "address",
              "name": "owner",
              "type": "address"
            },
            {
              "indexed": true,
              "internalType": "address",
              "name": "spender",
              "type": "address"
            },
            {
              "indexed": false,
              "internalType": "uint256",
              "name": "value",
              "type": "uint256"
            }
          ],
          "name": "Approval",
          "type": "event"
        },
        {
          "anonymous": false,
          "inputs": [
            {
              "indexed": false,
              "internalType": "address",
              "name": "account",
              "type": "address"
            }
          ],
          "name": "ExcludeAccountFromFee",
          "type": "event"
        },
        {
          "anonymous": false,
          "inputs": [
            {
              "indexed": false,
              "internalType": "address",
              "name": "account",
              "type": "address"
            }
          ],
          "name": "IncludeAccountInFee",
          "type": "event"
        },
        {
          "anonymous": false,
          "inputs": [
            {
              "indexed": true,
              "internalType": "address",
              "name": "previousOwner",
              "type": "address"
            },
            {
              "indexed": true,
              "internalType": "address",
              "name": "newOwner",
              "type": "address"
            }
          ],
          "name": "OwnershipTransferred",
          "type": "event"
        },
        {
          "anonymous": false,
          "inputs": [
            {
              "indexed": true,
              "internalType": "address",
              "name": "from",
              "type": "address"
            },
            {
              "indexed": true,
              "internalType": "address",
              "name": "to",
              "type": "address"
            },
            {
              "indexed": false,
              "internalType": "uint256",
              "name": "value",
              "type": "uint256"
            }
          ],
          "name": "Transfer",
          "type": "event"
        },
        {
          "inputs": [
            {
              "internalType": "address",
              "name": "",
              "type": "address"
            }
          ],
          "name": "_isBlacklisted",
          "outputs": [
            {
              "internalType": "bool",
              "name": "",
              "type": "bool"
            }
          ],
          "stateMutability": "view",
          "type": "function"
        },
        {
          "inputs": [
            {
              "internalType": "address",
              "name": "owner",
              "type": "address"
            },
            {
              "internalType": "address",
              "name": "spender",
              "type": "address"
            }
          ],
          "name": "allowance",
          "outputs": [
            {
              "internalType": "uint256",
              "name": "",
              "type": "uint256"
            }
          ],
          "stateMutability": "view",
          "type": "function"
        },
        {
          "inputs": [
            {
              "internalType": "address",
              "name": "spender",
              "type": "address"
            },
            {
              "internalType": "uint256",
              "name": "amount",
              "type": "uint256"
            }
          ],
          "name": "approve",
          "outputs": [
            {
              "internalType": "bool",
              "name": "",
              "type": "bool"
            }
          ],
          "stateMutability": "nonpayable",
          "type": "function"
        },
        {
          "inputs": [
            {
              "internalType": "address",
              "name": "account",
              "type": "address"
            }
          ],
          "name": "balanceOf",
          "outputs": [
            {
              "internalType": "uint256",
              "name": "",
              "type": "uint256"
            }
          ],
          "stateMutability": "view",
          "type": "function"
        },
        {
          "inputs": [
            {
              "internalType": "address",
              "name": "account",
              "type": "address"
            },
            {
              "internalType": "bool",
              "name": "value",
              "type": "bool"
            }
          ],
          "name": "blacklistMalicious",
          "outputs": [],
          "stateMutability": "nonpayable",
          "type": "function"
        },
        {
          "inputs": [],
          "name": "decimals",
          "outputs": [
            {
              "internalType": "uint8",
              "name": "",
              "type": "uint8"
            }
          ],
          "stateMutability": "view",
          "type": "function"
        },
        {
          "inputs": [
            {
              "internalType": "address",
              "name": "spender",
              "type": "address"
            },
            {
              "internalType": "uint256",
              "name": "subtractedValue",
              "type": "uint256"
            }
          ],
          "name": "decreaseAllowance",
          "outputs": [
            {
              "internalType": "bool",
              "name": "",
              "type": "bool"
            }
          ],
          "stateMutability": "nonpayable",
          "type": "function"
        },
        {
          "inputs": [
            {
              "internalType": "address",
              "name": "account",
              "type": "address"
            }
          ],
          "name": "excludeAccountFromFee",
          "outputs": [],
          "stateMutability": "nonpayable",
          "type": "function"
        },
        {
          "inputs": [
            {
              "internalType": "address",
              "name": "account",
              "type": "address"
            }
          ],
          "name": "includeAccountInFee",
          "outputs": [],
          "stateMutability": "nonpayable",
          "type": "function"
        },
        {
          "inputs": [
            {
              "internalType": "address",
              "name": "spender",
              "type": "address"
            },
            {
              "internalType": "uint256",
              "name": "addedValue",
              "type": "uint256"
            }
          ],
          "name": "increaseAllowance",
          "outputs": [
            {
              "internalType": "bool",
              "name": "",
              "type": "bool"
            }
          ],
          "stateMutability": "nonpayable",
          "type": "function"
        },
        {
          "inputs": [
            {
              "internalType": "address",
              "name": "account",
              "type": "address"
            }
          ],
          "name": "isExcludedFromFee",
          "outputs": [
            {
              "internalType": "bool",
              "name": "",
              "type": "bool"
            }
          ],
          "stateMutability": "view",
          "type": "function"
        },
        {
          "inputs": [],
          "name": "liquidityPoolFee",
          "outputs": [
            {
              "internalType": "uint8",
              "name": "",
              "type": "uint8"
            }
          ],
          "stateMutability": "view",
          "type": "function"
        },
        {
          "inputs": [
            {
              "internalType": "address payable",
              "name": "recipient",
              "type": "address"
            }
          ],
          "name": "lockInTeamWallet",
          "outputs": [],
          "stateMutability": "nonpayable",
          "type": "function"
        },
        {
          "inputs": [],
          "name": "minTransfer",
          "outputs": [
            {
              "internalType": "uint256",
              "name": "",
              "type": "uint256"
            }
          ],
          "stateMutability": "view",
          "type": "function"
        },
        {
          "inputs": [],
          "name": "name",
          "outputs": [
            {
              "internalType": "string",
              "name": "",
              "type": "string"
            }
          ],
          "stateMutability": "view",
          "type": "function"
        },
        {
          "inputs": [],
          "name": "owner",
          "outputs": [
            {
              "internalType": "address",
              "name": "",
              "type": "address"
            }
          ],
          "stateMutability": "view",
          "type": "function"
        },
        {
          "inputs": [],
          "name": "renounceOwnership",
          "outputs": [],
          "stateMutability": "nonpayable",
          "type": "function"
        },
        {
          "inputs": [],
          "name": "rewardsFee",
          "outputs": [
            {
              "internalType": "uint8",
              "name": "",
              "type": "uint8"
            }
          ],
          "stateMutability": "view",
          "type": "function"
        },
        {
          "inputs": [],
          "name": "symbol",
          "outputs": [
            {
              "internalType": "string",
              "name": "",
              "type": "string"
            }
          ],
          "stateMutability": "view",
          "type": "function"
        },
        {
          "inputs": [],
          "name": "teamFee",
          "outputs": [
            {
              "internalType": "uint8",
              "name": "",
              "type": "uint8"
            }
          ],
          "stateMutability": "view",
          "type": "function"
        },
        {
          "inputs": [],
          "name": "totalSupply",
          "outputs": [
            {
              "internalType": "uint256",
              "name": "",
              "type": "uint256"
            }
          ],
          "stateMutability": "view",
          "type": "function"
        },
        {
          "inputs": [
            {
              "internalType": "address",
              "name": "recipient",
              "type": "address"
            },
            {
              "internalType": "uint256",
              "name": "amount",
              "type": "uint256"
            }
          ],
          "name": "transfer",
          "outputs": [
            {
              "internalType": "bool",
              "name": "",
              "type": "bool"
            }
          ],
          "stateMutability": "nonpayable",
          "type": "function"
        },
        {
          "inputs": [
            {
              "internalType": "address",
              "name": "sender",
              "type": "address"
            },
            {
              "internalType": "address",
              "name": "recipient",
              "type": "address"
            },
            {
              "internalType": "uint256",
              "name": "amount",
              "type": "uint256"
            }
          ],
          "name": "transferFrom",
          "outputs": [
            {
              "internalType": "bool",
              "name": "",
              "type": "bool"
            }
          ],
          "stateMutability": "nonpayable",
          "type": "function"
        },
        {
          "inputs": [
            {
              "internalType": "address",
              "name": "newOwner",
              "type": "address"
            }
          ],
          "name": "transferOwnership",
          "outputs": [],
          "stateMutability": "nonpayable",
          "type": "function"
        },
        {
          "inputs": [],
          "name": "treasuryFee",
          "outputs": [
            {
              "internalType": "uint8",
              "name": "",
              "type": "uint8"
            }
          ],
          "stateMutability": "view",
          "type": "function"
        },
        {
          "inputs": [
            {
              "internalType": "uint8",
              "name": "value",
              "type": "uint8"
            }
          ],
          "name": "updateLiquidityFee",
          "outputs": [],
          "stateMutability": "nonpayable",
          "type": "function"
        },
        {
          "inputs": [
            {
              "internalType": "address payable",
              "name": "pool",
              "type": "address"
            }
          ],
          "name": "updateLiquidityPool",
          "outputs": [],
          "stateMutability": "nonpayable",
          "type": "function"
        },
        {
          "inputs": [
            {
              "internalType": "uint8",
              "name": "value",
              "type": "uint8"
            }
          ],
          "name": "updateRewardsFee",
          "outputs": [],
          "stateMutability": "nonpayable",
          "type": "function"
        },
        {
          "inputs": [
            {
              "internalType": "address payable",
              "name": "pool",
              "type": "address"
            }
          ],
          "name": "updateRewardsPool",
          "outputs": [],
          "stateMutability": "nonpayable",
          "type": "function"
        },
        {
          "inputs": [
            {
              "internalType": "uint256",
              "name": "val",
              "type": "uint256"
            }
          ],
          "name": "updateTeamPoolAlloc",
          "outputs": [],
          "stateMutability": "nonpayable",
          "type": "function"
        },
        {
          "inputs": [
            {
              "internalType": "uint8",
              "name": "value",
              "type": "uint8"
            }
          ],
          "name": "updateTreasuryFee",
          "outputs": [],
          "stateMutability": "nonpayable",
          "type": "function"
        },
        {
          "inputs": [
            {
              "internalType": "address payable",
              "name": "pool",
              "type": "address"
            }
          ],
          "name": "updateTreasuryPool",
          "outputs": [],
          "stateMutability": "nonpayable",
          "type": "function"
        },
        {
          "inputs": [
            {
              "internalType": "uint8",
              "name": "value",
              "type": "uint8"
            }
          ],
          "name": "updateteamFee",
          "outputs": [],
          "stateMutability": "nonpayable",
          "type": "function"
        },
        {
          "inputs": [
            {
              "internalType": "address payable",
              "name": "pool",
              "type": "address"
            }
          ],
          "name": "updateteamPool",
          "outputs": [],
          "stateMutability": "nonpayable",
          "type": "function"
        },
        {
          "stateMutability": "payable",
          "type": "receive"
        }
      ],
      "evm": {
        "bytecode": {
          "linkReferences": {},
          "object": "6080604052621e84806008556009805460ff1916601217908190556200002a9060ff16600a620007ab565b600854620000399190620008a3565b600a908155620186a0600b55600954620000599160ff90911690620007ab565b600b54620000689190620008a3565b600c55600d805460ff191690556010805460ff60a01b1916600160a21b1760ff60a81b1916600360aa1b1760ff60b01b1916600f60b11b1760ff60b81b1916600160ba1b1790556032601155348015620000c157600080fd5b506040516200255438038062002554833981016040819052620000e491620005ca565b604080518082018252600a8152695045414348204e4f444560b01b6020808301918252835180850190945260058452640a08a8286960db1b908401528151919291620001339160039162000507565b5080516200014990600490602084019062000507565b50505062000166620001606200030460201b60201c565b62000308565b6001600655600d8054610100600160a81b0319166101006001600160a01b0387811682029290921792839055600e80546001600160a01b031990811688851617909155600f80548216878516179055601080549091168584161790559091041615801590620001df5750600e546001600160a01b031615155b8015620001f65750600f546001600160a01b031615155b80156200020d57506010546001600160a01b031615155b620002355760405162461bcd60e51b81526004016200022c906200063a565b60405180910390fd5b6200024c6200024362000304565b600a5462000349565b620002573362000411565b620002623062000411565b60105462000279906001600160a01b031662000411565b6200028362000304565b6001600160a01b031660006001600160a01b031660008051602062002534833981519152600a54604051620002b991906200073a565b60405180910390a3620002cb62000304565b6001600160a01b031660006001600160a01b03166000805160206200251483398151915260405160405180910390a35050505062000918565b3390565b600580546001600160a01b038381166001600160a01b0319831681179093556040519116919082906000805160206200251483398151915290600090a35050565b6001600160a01b038216620003725760405162461bcd60e51b81526004016200022c9062000703565b6200038060008383620004f3565b806002600082825462000394919062000743565b90915550506001600160a01b03821660009081526020819052604081208054839290620003c390849062000743565b90915550506040516001600160a01b038316906000906000805160206200253483398151915290620003f79085906200073a565b60405180910390a36200040d60008383620004f3565b5050565b6200041b62000304565b6001600160a01b03166200042e620004f8565b6001600160a01b031614620004575760405162461bcd60e51b81526004016200022c90620006ce565b6001600160a01b03811660009081526013602052604090205460ff1615620004935760405162461bcd60e51b81526004016200022c9062000697565b6001600160a01b03811660009081526013602052604090819020805460ff19166001179055517f7e35d6b74d35c333860340884eeca4e63b18cb9d73ce17a147a1952654365b5e90620004e890839062000626565b60405180910390a150565b505050565b6005546001600160a01b031690565b8280546200051590620008c5565b90600052602060002090601f01602090048101928262000539576000855562000584565b82601f106200055457805160ff191683800117855562000584565b8280016001018555821562000584579182015b828111156200058457825182559160200191906001019062000567565b506200059292915062000596565b5090565b5b8082111562000592576000815560010162000597565b80516001600160a01b0381168114620005c557600080fd5b919050565b60008060008060808587031215620005e0578384fd5b620005eb85620005ad565b9350620005fb60208601620005ad565b92506200060b60408601620005ad565b91506200061b60608601620005ad565b905092959194509250565b6001600160a01b0391909116815260200190565b6020808252603b908201527f4c49515549444954592f524557415244532f54524541535552592f5445414d2060408201527f504f4f4c20414444524553532043414e4e4f54204245205a45524f0000000000606082015260800190565b6020808252601c908201527f4163636f756e7420697320616c7265616479206578636c756465642e00000000604082015260600190565b6020808252818101527f4f776e61626c653a2063616c6c6572206973206e6f7420746865206f776e6572604082015260600190565b6020808252601f908201527f45524332303a206d696e7420746f20746865207a65726f206164647265737300604082015260600190565b90815260200190565b6000821982111562000759576200075962000902565b500190565b80825b6001808611620007725750620007a2565b81870482111562000787576200078762000902565b808616156200079557918102915b9490941c93800262000761565b94509492505050565b6000620007bf60001960ff851684620007c6565b9392505050565b600082620007d757506001620007bf565b81620007e657506000620007bf565b8160018114620007ff57600281146200080a576200083e565b6001915050620007bf565b60ff8411156200081e576200081e62000902565b6001841b91508482111562000837576200083762000902565b50620007bf565b5060208310610133831016604e8410600b841016171562000876575081810a8381111562000870576200087062000902565b620007bf565b6200088584848460016200075e565b8086048211156200089a576200089a62000902565b02949350505050565b6000816000190483118215151615620008c057620008c062000902565b500290565b600281046001821680620008da57607f821691505b60208210811415620008fc57634e487b7160e01b600052602260045260246000fd5b50919050565b634e487b7160e01b600052601160045260246000fd5b611bec80620009286000396000f3fe6080604052600436106101fd5760003560e01c80638f859c551161010d578063c76cf14a116100a0578063d89293421161006f578063d89293421461057c578063daa933411461059c578063dd3cdf6c146105bc578063dd62ed3e146105dc578063f2fde38b146105fc57610204565b8063c76cf14a14610512578063cc32d17614610532578063d6b4212b14610547578063d7c94efd1461056757610204565b8063a4f35b65116100dc578063a4f35b651461049d578063a9059cbb146104b2578063addacb9e146104d2578063b14a1e8e146104f257610204565b80638f859c5514610428578063904d8f681461044857806395d89b4114610468578063a457c2d71461047d57610204565b80632deef2841161019057806354f12f1f1161015f57806354f12f1f1461039c5780636653a340146103b157806370a08231146103d1578063715018a6146103f15780638da5cb5b1461040657610204565b80632deef28414610327578063313ce56714610347578063395093511461035c5780635342acb41461037c57610204565b806318160ddd116101cc57806318160ddd146102a35780631cdd3be3146102c557806323b872dd146102e55780632bb14e1d1461030557610204565b806306fdde0314610209578063095ea7b3146102345780631519f1f01461026157806315d957d31461028357610204565b3661020457005b600080fd5b34801561021557600080fd5b5061021e61061c565b60405161022b91906116b2565b60405180910390f35b34801561024057600080fd5b5061025461024f36600461162f565b6106ae565b60405161022b91906116a7565b34801561026d57600080fd5b5061028161027c366004611672565b6106d0565b005b34801561028f57600080fd5b5061028161029e36600461156a565b610738565b3480156102af57600080fd5b506102b86107ef565b60405161022b91906119b4565b3480156102d157600080fd5b506102546102e036600461156a565b6107f5565b3480156102f157600080fd5b506102546103003660046115be565b61080a565b34801561031157600080fd5b5061031a610843565b60405161022b91906119bd565b34801561033357600080fd5b50610281610342366004611672565b610853565b34801561035357600080fd5b5061031a6108b2565b34801561036857600080fd5b5061025461037736600461162f565b6108b7565b34801561038857600080fd5b5061025461039736600461156a565b610903565b3480156103a857600080fd5b5061031a610921565b3480156103bd57600080fd5b506102816103cc36600461156a565b610931565b3480156103dd57600080fd5b506102b86103ec36600461156a565b610992565b3480156103fd57600080fd5b506102816109ad565b34801561041257600080fd5b5061041b6109f8565b60405161022b9190611693565b34801561043457600080fd5b5061028161044336600461165a565b610a07565b34801561045457600080fd5b50610281610463366004611672565b610a4b565b34801561047457600080fd5b5061021e610aaa565b34801561048957600080fd5b5061025461049836600461162f565b610ab9565b3480156104a957600080fd5b506102b8610b25565b3480156104be57600080fd5b506102546104cd36600461162f565b610b2b565b3480156104de57600080fd5b506102816104ed366004611672565b610b48565b3480156104fe57600080fd5b5061028161050d36600461156a565b610ba7565b34801561051e57600080fd5b5061028161052d36600461156a565b610c08565b34801561053e57600080fd5b5061031a610c69565b34801561055357600080fd5b5061028161056236600461156a565b610c79565b34801561057357600080fd5b5061031a610d4f565b34801561058857600080fd5b506102816105973660046115fe565b610d5f565b3480156105a857600080fd5b506102816105b736600461156a565b610dc9565b3480156105c857600080fd5b506102816105d736600461156a565b610e90565b3480156105e857600080fd5b506102b86105f7366004611586565b610ef7565b34801561060857600080fd5b5061028161061736600461156a565b610f22565b60606003805461062b90611b50565b80601f016020809104026020016040519081016040528092919081815260200182805461065790611b50565b80156106a45780601f10610679576101008083540402835291602001916106a4565b820191906000526020600020905b81548152906001019060200180831161068757829003601f168201915b5050505050905090565b6000806106b9610f93565b90506106c6818585610f97565b5060019392505050565b6106d8610f93565b6001600160a01b03166106e96109f8565b6001600160a01b0316146107185760405162461bcd60e51b815260040161070f906118b1565b60405180910390fd5b6010805460ff909216600160a01b0260ff60a01b19909216919091179055565b610740610f93565b6001600160a01b03166107516109f8565b6001600160a01b0316146107775760405162461bcd60e51b815260040161070f906118b1565b6001600160a01b03811661079d5760405162461bcd60e51b815260040161070f90611705565b600d5460ff16156107ad57600080fd5b601080546001600160a01b0319166001600160a01b038381169190911791829055600c546107de9290911690610b2b565b5050600d805460ff19166001179055565b600a5490565b60126020526000908152604090205460ff1681565b6000610814610f93565b6001600160a01b0316846001600160a01b03161461083157600080fd5b6106c684848461104b565b9392505050565b601054600160a81b900460ff1681565b61085b610f93565b6001600160a01b031661086c6109f8565b6001600160a01b0316146108925760405162461bcd60e51b815260040161070f906118b1565b6010805460ff909216600160b01b0260ff60b01b19909216919091179055565b601290565b6000806108c2610f93565b6001600160a01b038082166000908152600160209081526040808320938916835292905220549091506106c690829086906108fe9087906119cb565b610f97565b6001600160a01b031660009081526013602052604090205460ff1690565b601054600160a01b900460ff1681565b610939610f93565b6001600160a01b031661094a6109f8565b6001600160a01b0316146109705760405162461bcd60e51b815260040161070f906118b1565b600e80546001600160a01b0319166001600160a01b0392909216919091179055565b6001600160a01b031660009081526020819052604090205490565b6109b5610f93565b6001600160a01b03166109c66109f8565b6001600160a01b0316146109ec5760405162461bcd60e51b815260040161070f906118b1565b6109f66000611287565b565b6005546001600160a01b031690565b610a0f610f93565b6001600160a01b0316610a206109f8565b6001600160a01b031614610a465760405162461bcd60e51b815260040161070f906118b1565b600b55565b610a53610f93565b6001600160a01b0316610a646109f8565b6001600160a01b031614610a8a5760405162461bcd60e51b815260040161070f906118b1565b6010805460ff909216600160b81b0260ff60b81b19909216919091179055565b60606004805461062b90611b50565b600080610ac4610f93565b6001600160a01b0380821660009081526001602090815260408083209389168352929052205490915083811015610b0d5760405162461bcd60e51b815260040161070f9061196f565b610b1a8286868403610f97565b506001949350505050565b60115481565b6000610b3f610b38610f93565b848461104b565b50600192915050565b610b50610f93565b6001600160a01b0316610b616109f8565b6001600160a01b031614610b875760405162461bcd60e51b815260040161070f906118b1565b6010805460ff909216600160a81b0260ff60a81b19909216919091179055565b610baf610f93565b6001600160a01b0316610bc06109f8565b6001600160a01b031614610be65760405162461bcd60e51b815260040161070f906118b1565b600f80546001600160a01b0319166001600160a01b0392909216919091179055565b610c10610f93565b6001600160a01b0316610c216109f8565b6001600160a01b031614610c475760405162461bcd60e51b815260040161070f906118b1565b601080546001600160a01b0319166001600160a01b0392909216919091179055565b601054600160b01b900460ff1681565b610c81610f93565b6001600160a01b0316610c926109f8565b6001600160a01b031614610cb85760405162461bcd60e51b815260040161070f906118b1565b6001600160a01b03811660009081526013602052604090205460ff1615610cf15760405162461bcd60e51b815260040161070f9061184d565b6001600160a01b03811660009081526013602052604090819020805460ff19166001179055517f7e35d6b74d35c333860340884eeca4e63b18cb9d73ce17a147a1952654365b5e90610d44908390611693565b60405180910390a150565b601054600160b81b900460ff1681565b610d67610f93565b6001600160a01b0316610d786109f8565b6001600160a01b031614610d9e5760405162461bcd60e51b815260040161070f906118b1565b6001600160a01b03919091166000908152601260205260409020805460ff1916911515919091179055565b610dd1610f93565b6001600160a01b0316610de26109f8565b6001600160a01b031614610e085760405162461bcd60e51b815260040161070f906118b1565b6001600160a01b03811660009081526013602052604090205460ff16610e405760405162461bcd60e51b815260040161070f906117d0565b6001600160a01b03811660009081526013602052604090819020805460ff19169055517fc782889d4eb26c6effaa6305a7075c22c2a6e2919ddf49a4a851fecf59cfc75f90610d44908390611693565b610e98610f93565b6001600160a01b0316610ea96109f8565b6001600160a01b031614610ecf5760405162461bcd60e51b815260040161070f906118b1565b600d80546001600160a01b0390921661010002610100600160a81b0319909216919091179055565b6001600160a01b03918216600090815260016020908152604080832093909416825291909152205490565b610f2a610f93565b6001600160a01b0316610f3b6109f8565b6001600160a01b031614610f615760405162461bcd60e51b815260040161070f906118b1565b6001600160a01b038116610f875760405162461bcd60e51b815260040161070f90611748565b610f9081611287565b50565b3390565b6001600160a01b038316610fbd5760405162461bcd60e51b815260040161070f9061192b565b6001600160a01b038216610fe35760405162461bcd60e51b815260040161070f9061178e565b6001600160a01b0380841660008181526001602090815260408083209487168084529490915290819020849055517f8c5be1e5ebec7d5bd14f71427d1e84f3dd0314c0f7b2291e5b200ac8c7c3b9259061103e9085906119b4565b60405180910390a3505050565b6001600160a01b0383166110715760405162461bcd60e51b815260040161070f906118e6565b6001600160a01b0382166110975760405162461bcd60e51b815260040161070f90611705565b6001600160a01b03831660009081526012602052604090205460ff161580156110d957506001600160a01b03821660009081526012602052604090205460ff16155b6110f55760405162461bcd60e51b815260040161070f90611884565b6001600160a01b03831660009081526013602052604090205460ff166111245760115481101561112457600080fd5b6001600160a01b0383166000908152601360205260408120546001919061114f90849060ff166112d9565b6001600160a01b03861660009081526013602052604090205490915060ff168061119157506001600160a01b03841660009081526013602052604090205460ff165b1561119b57600091505b828215611229575060a0810151600f5460608301516111c79188916001600160a01b03909116906112f6565b600e5460408301516111e69188916001600160a01b03909116906112f6565b60105460808301516112059188916001600160a01b03909116906112f6565b61122986600d60019054906101000a90046001600160a01b031684602001516112f6565b6112348686836112f6565b846001600160a01b0316866001600160a01b03167fddf252ad1be2c89b69c2b068fc378daa952ba7f163c4a11628f55a4df523b3ef8360405161127791906119b4565b60405180910390a3505050505050565b600580546001600160a01b038381166001600160a01b0319831681179093556040519116919082907f8be0079c531659141344cd1fd0a4f28419497f9722a3daafe3b4186f6b6457e090600090a35050565b6112e1611534565b6112e9611534565b83815261083c8184611420565b6001600160a01b03831661131c5760405162461bcd60e51b815260040161070f906118e6565b6001600160a01b0382166113425760405162461bcd60e51b815260040161070f90611705565b61134d8383836114f7565b6001600160a01b038316600090815260208190526040902054818110156113865760405162461bcd60e51b815260040161070f90611807565b6001600160a01b038085166000908152602081905260408082208585039055918516815290812080548492906113bd9084906119cb565b92505081905550826001600160a01b0316846001600160a01b03167fddf252ad1be2c89b69c2b068fc378daa952ba7f163c4a11628f55a4df523b3ef8460405161140791906119b4565b60405180910390a361141a8484846114f7565b50505050565b801561143257815160a08301526114f3565b815160105461144d9190600160a81b900460ff1660006114fc565b6040830152815160105461146d9190600160a01b900460ff1660006114fc565b6020830152815160105461148d9190600160b01b900460ff1660006114fc565b606083015281516010546114ad9190600160b81b900460ff1660006114fc565b6080830181905260608301516020840151604085015185516114cf9190611b39565b6114d99190611b39565b6114e39190611b39565b6114ed9190611b39565b60a08301525b5050565b505050565b6000606461150b83600a611a49565b61151860ff861687611b1a565b61152291906119e3565b61152c91906119e3565b949350505050565b6040518060c001604052806000815260200160008152602001600081526020016000815260200160008152602001600081525090565b60006020828403121561157b578081fd5b813561083c81611ba1565b60008060408385031215611598578081fd5b82356115a381611ba1565b915060208301356115b381611ba1565b809150509250929050565b6000806000606084860312156115d2578081fd5b83356115dd81611ba1565b925060208401356115ed81611ba1565b929592945050506040919091013590565b60008060408385031215611610578182fd5b823561161b81611ba1565b9150602083013580151581146115b3578182fd5b60008060408385031215611641578182fd5b823561164c81611ba1565b946020939093013593505050565b60006020828403121561166b578081fd5b5035919050565b600060208284031215611683578081fd5b813560ff8116811461083c578182fd5b6001600160a01b0391909116815260200190565b901515815260200190565b6000602080835283518082850152825b818110156116de578581018301518582016040015282016116c2565b818111156116ef5783604083870101525b50601f01601f1916929092016040019392505050565b60208082526023908201527f45524332303a207472616e7366657220746f20746865207a65726f206164647260408201526265737360e81b606082015260800190565b60208082526026908201527f4f776e61626c653a206e6577206f776e657220697320746865207a65726f206160408201526564647265737360d01b606082015260800190565b60208082526022908201527f45524332303a20617070726f766520746f20746865207a65726f206164647265604082015261737360f01b606082015260800190565b6020808252601c908201527f4163636f756e7420697320616c726561647920696e636c756465642e00000000604082015260600190565b60208082526026908201527f45524332303a207472616e7366657220616d6f756e7420657863656564732062604082015265616c616e636560d01b606082015260800190565b6020808252601c908201527f4163636f756e7420697320616c7265616479206578636c756465642e00000000604082015260600190565b602080825260139082015272426c61636b6c6973746564206164647265737360681b604082015260600190565b6020808252818101527f4f776e61626c653a2063616c6c6572206973206e6f7420746865206f776e6572604082015260600190565b60208082526025908201527f45524332303a207472616e736665722066726f6d20746865207a65726f206164604082015264647265737360d81b606082015260800190565b60208082526024908201527f45524332303a20617070726f76652066726f6d20746865207a65726f206164646040820152637265737360e01b606082015260800190565b60208082526025908201527f45524332303a2064656372656173656420616c6c6f77616e63652062656c6f77604082015264207a65726f60d81b606082015260800190565b90815260200190565b60ff91909116815260200190565b600082198211156119de576119de611b8b565b500190565b6000826119fe57634e487b7160e01b81526012600452602481fd5b500490565b80825b6001808611611a155750611a40565b818704821115611a2757611a27611b8b565b80861615611a3457918102915b9490941c938002611a06565b94509492505050565b600061083c60001960ff851684600082611a655750600161083c565b81611a725750600061083c565b8160018114611a885760028114611a9257611abf565b600191505061083c565b60ff841115611aa357611aa3611b8b565b6001841b915084821115611ab957611ab9611b8b565b5061083c565b5060208310610133831016604e8410600b8410161715611af2575081810a83811115611aed57611aed611b8b565b61083c565b611aff8484846001611a03565b808604821115611b1157611b11611b8b565b02949350505050565b6000816000190483118215151615611b3457611b34611b8b565b500290565b600082821015611b4b57611b4b611b8b565b500390565b600281046001821680611b6457607f821691505b60208210811415611b8557634e487b7160e01b600052602260045260246000fd5b50919050565b634e487b7160e01b600052601160045260246000fd5b6001600160a01b0381168114610f9057600080fdfea264697066735822122043fad39100e79b586d6bb6799ddda81ea37dad0d163e1fa1dd14f2096504fd0764736f6c634300080000338be0079c531659141344cd1fd0a4f28419497f9722a3daafe3b4186f6b6457e0ddf252ad1be2c89b69c2b068fc378daa952ba7f163c4a11628f55a4df523b3ef",
          "opcodes": "PUSH1 0x80 PUSH1 0x40 MSTORE PUSH3 0x1E8480 PUSH1 0x8 SSTORE PUSH1 0x9 DUP1 SLOAD PUSH1 0xFF NOT AND PUSH1 0x12 OR SWAP1 DUP2 SWAP1 SSTORE PUSH3 0x2A SWAP1 PUSH1 0xFF AND PUSH1 0xA PUSH3 0x7AB JUMP JUMPDEST PUSH1 0x8 SLOAD PUSH3 0x39 SWAP2 SWAP1 PUSH3 0x8A3 JUMP JUMPDEST PUSH1 0xA SWAP1 DUP2 SSTORE PUSH3 0x186A0 PUSH1 0xB SSTORE PUSH1 0x9 SLOAD PUSH3 0x59 SWAP2 PUSH1 0xFF SWAP1 SWAP2 AND SWAP1 PUSH3 0x7AB JUMP JUMPDEST PUSH1 0xB SLOAD PUSH3 0x68 SWAP2 SWAP1 PUSH3 0x8A3 JUMP JUMPDEST PUSH1 0xC SSTORE PUSH1 0xD DUP1 SLOAD PUSH1 0xFF NOT AND SWAP1 SSTORE PUSH1 0x10 DUP1 SLOAD PUSH1 0xFF PUSH1 0xA0 SHL NOT AND PUSH1 0x1 PUSH1 0xA2 SHL OR PUSH1 0xFF PUSH1 0xA8 SHL NOT AND PUSH1 0x3 PUSH1 0xAA SHL OR PUSH1 0xFF PUSH1 0xB0 SHL NOT AND PUSH1 0xF PUSH1 0xB1 SHL OR PUSH1 0xFF PUSH1 0xB8 SHL NOT AND PUSH1 0x1 PUSH1 0xBA SHL OR SWAP1 SSTORE PUSH1 0x32 PUSH1 0x11 SSTORE CALLVALUE DUP1 ISZERO PUSH3 0xC1 JUMPI PUSH1 0x0 DUP1 REVERT JUMPDEST POP PUSH1 0x40 MLOAD PUSH3 0x2554 CODESIZE SUB DUP1 PUSH3 0x2554 DUP4 CODECOPY DUP2 ADD PUSH1 0x40 DUP2 SWAP1 MSTORE PUSH3 0xE4 SWAP2 PUSH3 0x5CA JUMP JUMPDEST PUSH1 0x40 DUP1 MLOAD DUP1 DUP3 ADD DUP3 MSTORE PUSH1 0xA DUP2 MSTORE PUSH10 0x5045414348204E4F4445 PUSH1 0xB0 SHL PUSH1 0x20 DUP1 DUP4 ADD SWAP2 DUP3 MSTORE DUP4 MLOAD DUP1 DUP6 ADD SWAP1 SWAP5 MSTORE PUSH1 0x5 DUP5 MSTORE PUSH5 0xA08A82869 PUSH1 0xDB SHL SWAP1 DUP5 ADD MSTORE DUP2 MLOAD SWAP2 SWAP3 SWAP2 PUSH3 0x133 SWAP2 PUSH1 0x3 SWAP2 PUSH3 0x507 JUMP JUMPDEST POP DUP1 MLOAD PUSH3 0x149 SWAP1 PUSH1 0x4 SWAP1 PUSH1 0x20 DUP5 ADD SWAP1 PUSH3 0x507 JUMP JUMPDEST POP POP POP PUSH3 0x166 PUSH3 0x160 PUSH3 0x304 PUSH1 0x20 SHL PUSH1 0x20 SHR JUMP JUMPDEST PUSH3 0x308 JUMP JUMPDEST PUSH1 0x1 PUSH1 0x6 SSTORE PUSH1 0xD DUP1 SLOAD PUSH2 0x100 PUSH1 0x1 PUSH1 0xA8 SHL SUB NOT AND PUSH2 0x100 PUSH1 0x1 PUSH1 0x1 PUSH1 0xA0 SHL SUB DUP8 DUP2 AND DUP3 MUL SWAP3 SWAP1 SWAP3 OR SWAP3 DUP4 SWAP1 SSTORE PUSH1 0xE DUP1 SLOAD PUSH1 0x1 PUSH1 0x1 PUSH1 0xA0 SHL SUB NOT SWAP1 DUP2 AND DUP9 DUP6 AND OR SWAP1 SWAP2 SSTORE PUSH1 0xF DUP1 SLOAD DUP3 AND DUP8 DUP6 AND OR SWAP1 SSTORE PUSH1 0x10 DUP1 SLOAD SWAP1 SWAP2 AND DUP6 DUP5 AND OR SWAP1 SSTORE SWAP1 SWAP2 DIV AND ISZERO DUP1 ISZERO SWAP1 PUSH3 0x1DF JUMPI POP PUSH1 0xE SLOAD PUSH1 0x1 PUSH1 0x1 PUSH1 0xA0 SHL SUB AND ISZERO ISZERO JUMPDEST DUP1 ISZERO PUSH3 0x1F6 JUMPI POP PUSH1 0xF SLOAD PUSH1 0x1 PUSH1 0x1 PUSH1 0xA0 SHL SUB AND ISZERO ISZERO JUMPDEST DUP1 ISZERO PUSH3 0x20D JUMPI POP PUSH1 0x10 SLOAD PUSH1 0x1 PUSH1 0x1 PUSH1 0xA0 SHL SUB AND ISZERO ISZERO JUMPDEST PUSH3 0x235 JUMPI PUSH1 0x40 MLOAD PUSH3 0x461BCD PUSH1 0xE5 SHL DUP2 MSTORE PUSH1 0x4 ADD PUSH3 0x22C SWAP1 PUSH3 0x63A JUMP JUMPDEST PUSH1 0x40 MLOAD DUP1 SWAP2 SUB SWAP1 REVERT JUMPDEST PUSH3 0x24C PUSH3 0x243 PUSH3 0x304 JUMP JUMPDEST PUSH1 0xA SLOAD PUSH3 0x349 JUMP JUMPDEST PUSH3 0x257 CALLER PUSH3 0x411 JUMP JUMPDEST PUSH3 0x262 ADDRESS PUSH3 0x411 JUMP JUMPDEST PUSH1 0x10 SLOAD PUSH3 0x279 SWAP1 PUSH1 0x1 PUSH1 0x1 PUSH1 0xA0 SHL SUB AND PUSH3 0x411 JUMP JUMPDEST PUSH3 0x283 PUSH3 0x304 JUMP JUMPDEST PUSH1 0x1 PUSH1 0x1 PUSH1 0xA0 SHL SUB AND PUSH1 0x0 PUSH1 0x1 PUSH1 0x1 PUSH1 0xA0 SHL SUB AND PUSH1 0x0 DUP1 MLOAD PUSH1 0x20 PUSH3 0x2534 DUP4 CODECOPY DUP2 MLOAD SWAP2 MSTORE PUSH1 0xA SLOAD PUSH1 0x40 MLOAD PUSH3 0x2B9 SWAP2 SWAP1 PUSH3 0x73A JUMP JUMPDEST PUSH1 0x40 MLOAD DUP1 SWAP2 SUB SWAP1 LOG3 PUSH3 0x2CB PUSH3 0x304 JUMP JUMPDEST PUSH1 0x1 PUSH1 0x1 PUSH1 0xA0 SHL SUB AND PUSH1 0x0 PUSH1 0x1 PUSH1 0x1 PUSH1 0xA0 SHL SUB AND PUSH1 0x0 DUP1 MLOAD PUSH1 0x20 PUSH3 0x2514 DUP4 CODECOPY DUP2 MLOAD SWAP2 MSTORE PUSH1 0x40 MLOAD PUSH1 0x40 MLOAD DUP1 SWAP2 SUB SWAP1 LOG3 POP POP POP POP PUSH3 0x918 JUMP JUMPDEST CALLER SWAP1 JUMP JUMPDEST PUSH1 0x5 DUP1 SLOAD PUSH1 0x1 PUSH1 0x1 PUSH1 0xA0 SHL SUB DUP4 DUP2 AND PUSH1 0x1 PUSH1 0x1 PUSH1 0xA0 SHL SUB NOT DUP4 AND DUP2 OR SWAP1 SWAP4 SSTORE PUSH1 0x40 MLOAD SWAP2 AND SWAP2 SWAP1 DUP3 SWAP1 PUSH1 0x0 DUP1 MLOAD PUSH1 0x20 PUSH3 0x2514 DUP4 CODECOPY DUP2 MLOAD SWAP2 MSTORE SWAP1 PUSH1 0x0 SWAP1 LOG3 POP POP JUMP JUMPDEST PUSH1 0x1 PUSH1 0x1 PUSH1 0xA0 SHL SUB DUP3 AND PUSH3 0x372 JUMPI PUSH1 0x40 MLOAD PUSH3 0x461BCD PUSH1 0xE5 SHL DUP2 MSTORE PUSH1 0x4 ADD PUSH3 0x22C SWAP1 PUSH3 0x703 JUMP JUMPDEST PUSH3 0x380 PUSH1 0x0 DUP4 DUP4 PUSH3 0x4F3 JUMP JUMPDEST DUP1 PUSH1 0x2 PUSH1 0x0 DUP3 DUP3 SLOAD PUSH3 0x394 SWAP2 SWAP1 PUSH3 0x743 JUMP JUMPDEST SWAP1 SWAP2 SSTORE POP POP PUSH1 0x1 PUSH1 0x1 PUSH1 0xA0 SHL SUB DUP3 AND PUSH1 0x0 SWAP1 DUP2 MSTORE PUSH1 0x20 DUP2 SWAP1 MSTORE PUSH1 0x40 DUP2 KECCAK256 DUP1 SLOAD DUP4 SWAP3 SWAP1 PUSH3 0x3C3 SWAP1 DUP5 SWAP1 PUSH3 0x743 JUMP JUMPDEST SWAP1 SWAP2 SSTORE POP POP PUSH1 0x40 MLOAD PUSH1 0x1 PUSH1 0x1 PUSH1 0xA0 SHL SUB DUP4 AND SWAP1 PUSH1 0x0 SWAP1 PUSH1 0x0 DUP1 MLOAD PUSH1 0x20 PUSH3 0x2534 DUP4 CODECOPY DUP2 MLOAD SWAP2 MSTORE SWAP1 PUSH3 0x3F7 SWAP1 DUP6 SWAP1 PUSH3 0x73A JUMP JUMPDEST PUSH1 0x40 MLOAD DUP1 SWAP2 SUB SWAP1 LOG3 PUSH3 0x40D PUSH1 0x0 DUP4 DUP4 PUSH3 0x4F3 JUMP JUMPDEST POP POP JUMP JUMPDEST PUSH3 0x41B PUSH3 0x304 JUMP JUMPDEST PUSH1 0x1 PUSH1 0x1 PUSH1 0xA0 SHL SUB AND PUSH3 0x42E PUSH3 0x4F8 JUMP JUMPDEST PUSH1 0x1 PUSH1 0x1 PUSH1 0xA0 SHL SUB AND EQ PUSH3 0x457 JUMPI PUSH1 0x40 MLOAD PUSH3 0x461BCD PUSH1 0xE5 SHL DUP2 MSTORE PUSH1 0x4 ADD PUSH3 0x22C SWAP1 PUSH3 0x6CE JUMP JUMPDEST PUSH1 0x1 PUSH1 0x1 PUSH1 0xA0 SHL SUB DUP2 AND PUSH1 0x0 SWAP1 DUP2 MSTORE PUSH1 0x13 PUSH1 0x20 MSTORE PUSH1 0x40 SWAP1 KECCAK256 SLOAD PUSH1 0xFF AND ISZERO PUSH3 0x493 JUMPI PUSH1 0x40 MLOAD PUSH3 0x461BCD PUSH1 0xE5 SHL DUP2 MSTORE PUSH1 0x4 ADD PUSH3 0x22C SWAP1 PUSH3 0x697 JUMP JUMPDEST PUSH1 0x1 PUSH1 0x1 PUSH1 0xA0 SHL SUB DUP2 AND PUSH1 0x0 SWAP1 DUP2 MSTORE PUSH1 0x13 PUSH1 0x20 MSTORE PUSH1 0x40 SWAP1 DUP2 SWAP1 KECCAK256 DUP1 SLOAD PUSH1 0xFF NOT AND PUSH1 0x1 OR SWAP1 SSTORE MLOAD PUSH32 0x7E35D6B74D35C333860340884EECA4E63B18CB9D73CE17A147A1952654365B5E SWAP1 PUSH3 0x4E8 SWAP1 DUP4 SWAP1 PUSH3 0x626 JUMP JUMPDEST PUSH1 0x40 MLOAD DUP1 SWAP2 SUB SWAP1 LOG1 POP JUMP JUMPDEST POP POP POP JUMP JUMPDEST PUSH1 0x5 SLOAD PUSH1 0x1 PUSH1 0x1 PUSH1 0xA0 SHL SUB AND SWAP1 JUMP JUMPDEST DUP3 DUP1 SLOAD PUSH3 0x515 SWAP1 PUSH3 0x8C5 JUMP JUMPDEST SWAP1 PUSH1 0x0 MSTORE PUSH1 0x20 PUSH1 0x0 KECCAK256 SWAP1 PUSH1 0x1F ADD PUSH1 0x20 SWAP1 DIV DUP2 ADD SWAP3 DUP3 PUSH3 0x539 JUMPI PUSH1 0x0 DUP6 SSTORE PUSH3 0x584 JUMP JUMPDEST DUP3 PUSH1 0x1F LT PUSH3 0x554 JUMPI DUP1 MLOAD PUSH1 0xFF NOT AND DUP4 DUP1 ADD OR DUP6 SSTORE PUSH3 0x584 JUMP JUMPDEST DUP3 DUP1 ADD PUSH1 0x1 ADD DUP6 SSTORE DUP3 ISZERO PUSH3 0x584 JUMPI SWAP2 DUP3 ADD JUMPDEST DUP3 DUP2 GT ISZERO PUSH3 0x584 JUMPI DUP3 MLOAD DUP3 SSTORE SWAP2 PUSH1 0x20 ADD SWAP2 SWAP1 PUSH1 0x1 ADD SWAP1 PUSH3 0x567 JUMP JUMPDEST POP PUSH3 0x592 SWAP3 SWAP2 POP PUSH3 0x596 JUMP JUMPDEST POP SWAP1 JUMP JUMPDEST JUMPDEST DUP1 DUP3 GT ISZERO PUSH3 0x592 JUMPI PUSH1 0x0 DUP2 SSTORE PUSH1 0x1 ADD PUSH3 0x597 JUMP JUMPDEST DUP1 MLOAD PUSH1 0x1 PUSH1 0x1 PUSH1 0xA0 SHL SUB DUP2 AND DUP2 EQ PUSH3 0x5C5 JUMPI PUSH1 0x0 DUP1 REVERT JUMPDEST SWAP2 SWAP1 POP JUMP JUMPDEST PUSH1 0x0 DUP1 PUSH1 0x0 DUP1 PUSH1 0x80 DUP6 DUP8 SUB SLT ISZERO PUSH3 0x5E0 JUMPI DUP4 DUP5 REVERT JUMPDEST PUSH3 0x5EB DUP6 PUSH3 0x5AD JUMP JUMPDEST SWAP4 POP PUSH3 0x5FB PUSH1 0x20 DUP7 ADD PUSH3 0x5AD JUMP JUMPDEST SWAP3 POP PUSH3 0x60B PUSH1 0x40 DUP7 ADD PUSH3 0x5AD JUMP JUMPDEST SWAP2 POP PUSH3 0x61B PUSH1 0x60 DUP7 ADD PUSH3 0x5AD JUMP JUMPDEST SWAP1 POP SWAP3 SWAP6 SWAP2 SWAP5 POP SWAP3 POP JUMP JUMPDEST PUSH1 0x1 PUSH1 0x1 PUSH1 0xA0 SHL SUB SWAP2 SWAP1 SWAP2 AND DUP2 MSTORE PUSH1 0x20 ADD SWAP1 JUMP JUMPDEST PUSH1 0x20 DUP1 DUP3 MSTORE PUSH1 0x3B SWAP1 DUP3 ADD MSTORE PUSH32 0x4C49515549444954592F524557415244532F54524541535552592F5445414D20 PUSH1 0x40 DUP3 ADD MSTORE PUSH32 0x504F4F4C20414444524553532043414E4E4F54204245205A45524F0000000000 PUSH1 0x60 DUP3 ADD MSTORE PUSH1 0x80 ADD SWAP1 JUMP JUMPDEST PUSH1 0x20 DUP1 DUP3 MSTORE PUSH1 0x1C SWAP1 DUP3 ADD MSTORE PUSH32 0x4163636F756E7420697320616C7265616479206578636C756465642E00000000 PUSH1 0x40 DUP3 ADD MSTORE PUSH1 0x60 ADD SWAP1 JUMP JUMPDEST PUSH1 0x20 DUP1 DUP3 MSTORE DUP2 DUP2 ADD MSTORE PUSH32 0x4F776E61626C653A2063616C6C6572206973206E6F7420746865206F776E6572 PUSH1 0x40 DUP3 ADD MSTORE PUSH1 0x60 ADD SWAP1 JUMP JUMPDEST PUSH1 0x20 DUP1 DUP3 MSTORE PUSH1 0x1F SWAP1 DUP3 ADD MSTORE PUSH32 0x45524332303A206D696E7420746F20746865207A65726F206164647265737300 PUSH1 0x40 DUP3 ADD MSTORE PUSH1 0x60 ADD SWAP1 JUMP JUMPDEST SWAP1 DUP2 MSTORE PUSH1 0x20 ADD SWAP1 JUMP JUMPDEST PUSH1 0x0 DUP3 NOT DUP3 GT ISZERO PUSH3 0x759 JUMPI PUSH3 0x759 PUSH3 0x902 JUMP JUMPDEST POP ADD SWAP1 JUMP JUMPDEST DUP1 DUP3 JUMPDEST PUSH1 0x1 DUP1 DUP7 GT PUSH3 0x772 JUMPI POP PUSH3 0x7A2 JUMP JUMPDEST DUP2 DUP8 DIV DUP3 GT ISZERO PUSH3 0x787 JUMPI PUSH3 0x787 PUSH3 0x902 JUMP JUMPDEST DUP1 DUP7 AND ISZERO PUSH3 0x795 JUMPI SWAP2 DUP2 MUL SWAP2 JUMPDEST SWAP5 SWAP1 SWAP5 SHR SWAP4 DUP1 MUL PUSH3 0x761 JUMP JUMPDEST SWAP5 POP SWAP5 SWAP3 POP POP POP JUMP JUMPDEST PUSH1 0x0 PUSH3 0x7BF PUSH1 0x0 NOT PUSH1 0xFF DUP6 AND DUP5 PUSH3 0x7C6 JUMP JUMPDEST SWAP4 SWAP3 POP POP POP JUMP JUMPDEST PUSH1 0x0 DUP3 PUSH3 0x7D7 JUMPI POP PUSH1 0x1 PUSH3 0x7BF JUMP JUMPDEST DUP2 PUSH3 0x7E6 JUMPI POP PUSH1 0x0 PUSH3 0x7BF JUMP JUMPDEST DUP2 PUSH1 0x1 DUP2 EQ PUSH3 0x7FF JUMPI PUSH1 0x2 DUP2 EQ PUSH3 0x80A JUMPI PUSH3 0x83E JUMP JUMPDEST PUSH1 0x1 SWAP2 POP POP PUSH3 0x7BF JUMP JUMPDEST PUSH1 0xFF DUP5 GT ISZERO PUSH3 0x81E JUMPI PUSH3 0x81E PUSH3 0x902 JUMP JUMPDEST PUSH1 0x1 DUP5 SHL SWAP2 POP DUP5 DUP3 GT ISZERO PUSH3 0x837 JUMPI PUSH3 0x837 PUSH3 0x902 JUMP JUMPDEST POP PUSH3 0x7BF JUMP JUMPDEST POP PUSH1 0x20 DUP4 LT PUSH2 0x133 DUP4 LT AND PUSH1 0x4E DUP5 LT PUSH1 0xB DUP5 LT AND OR ISZERO PUSH3 0x876 JUMPI POP DUP2 DUP2 EXP DUP4 DUP2 GT ISZERO PUSH3 0x870 JUMPI PUSH3 0x870 PUSH3 0x902 JUMP JUMPDEST PUSH3 0x7BF JUMP JUMPDEST PUSH3 0x885 DUP5 DUP5 DUP5 PUSH1 0x1 PUSH3 0x75E JUMP JUMPDEST DUP1 DUP7 DIV DUP3 GT ISZERO PUSH3 0x89A JUMPI PUSH3 0x89A PUSH3 0x902 JUMP JUMPDEST MUL SWAP5 SWAP4 POP POP POP POP JUMP JUMPDEST PUSH1 0x0 DUP2 PUSH1 0x0 NOT DIV DUP4 GT DUP3 ISZERO ISZERO AND ISZERO PUSH3 0x8C0 JUMPI PUSH3 0x8C0 PUSH3 0x902 JUMP JUMPDEST POP MUL SWAP1 JUMP JUMPDEST PUSH1 0x2 DUP2 DIV PUSH1 0x1 DUP3 AND DUP1 PUSH3 0x8DA JUMPI PUSH1 0x7F DUP3 AND SWAP2 POP JUMPDEST PUSH1 0x20 DUP3 LT DUP2 EQ ISZERO PUSH3 0x8FC JUMPI PUSH4 0x4E487B71 PUSH1 0xE0 SHL PUSH1 0x0 MSTORE PUSH1 0x22 PUSH1 0x4 MSTORE PUSH1 0x24 PUSH1 0x0 REVERT JUMPDEST POP SWAP2 SWAP1 POP JUMP JUMPDEST PUSH4 0x4E487B71 PUSH1 0xE0 SHL PUSH1 0x0 MSTORE PUSH1 0x11 PUSH1 0x4 MSTORE PUSH1 0x24 PUSH1 0x0 REVERT JUMPDEST PUSH2 0x1BEC DUP1 PUSH3 0x928 PUSH1 0x0 CODECOPY PUSH1 0x0 RETURN INVALID PUSH1 0x80 PUSH1 0x40 MSTORE PUSH1 0x4 CALLDATASIZE LT PUSH2 0x1FD JUMPI PUSH1 0x0 CALLDATALOAD PUSH1 0xE0 SHR DUP1 PUSH4 0x8F859C55 GT PUSH2 0x10D JUMPI DUP1 PUSH4 0xC76CF14A GT PUSH2 0xA0 JUMPI DUP1 PUSH4 0xD8929342 GT PUSH2 0x6F JUMPI DUP1 PUSH4 0xD8929342 EQ PUSH2 0x57C JUMPI DUP1 PUSH4 0xDAA93341 EQ PUSH2 0x59C JUMPI DUP1 PUSH4 0xDD3CDF6C EQ PUSH2 0x5BC JUMPI DUP1 PUSH4 0xDD62ED3E EQ PUSH2 0x5DC JUMPI DUP1 PUSH4 0xF2FDE38B EQ PUSH2 0x5FC JUMPI PUSH2 0x204 JUMP JUMPDEST DUP1 PUSH4 0xC76CF14A EQ PUSH2 0x512 JUMPI DUP1 PUSH4 0xCC32D176 EQ PUSH2 0x532 JUMPI DUP1 PUSH4 0xD6B4212B EQ PUSH2 0x547 JUMPI DUP1 PUSH4 0xD7C94EFD EQ PUSH2 0x567 JUMPI PUSH2 0x204 JUMP JUMPDEST DUP1 PUSH4 0xA4F35B65 GT PUSH2 0xDC JUMPI DUP1 PUSH4 0xA4F35B65 EQ PUSH2 0x49D JUMPI DUP1 PUSH4 0xA9059CBB EQ PUSH2 0x4B2 JUMPI DUP1 PUSH4 0xADDACB9E EQ PUSH2 0x4D2 JUMPI DUP1 PUSH4 0xB14A1E8E EQ PUSH2 0x4F2 JUMPI PUSH2 0x204 JUMP JUMPDEST DUP1 PUSH4 0x8F859C55 EQ PUSH2 0x428 JUMPI DUP1 PUSH4 0x904D8F68 EQ PUSH2 0x448 JUMPI DUP1 PUSH4 0x95D89B41 EQ PUSH2 0x468 JUMPI DUP1 PUSH4 0xA457C2D7 EQ PUSH2 0x47D JUMPI PUSH2 0x204 JUMP JUMPDEST DUP1 PUSH4 0x2DEEF284 GT PUSH2 0x190 JUMPI DUP1 PUSH4 0x54F12F1F GT PUSH2 0x15F JUMPI DUP1 PUSH4 0x54F12F1F EQ PUSH2 0x39C JUMPI DUP1 PUSH4 0x6653A340 EQ PUSH2 0x3B1 JUMPI DUP1 PUSH4 0x70A08231 EQ PUSH2 0x3D1 JUMPI DUP1 PUSH4 0x715018A6 EQ PUSH2 0x3F1 JUMPI DUP1 PUSH4 0x8DA5CB5B EQ PUSH2 0x406 JUMPI PUSH2 0x204 JUMP JUMPDEST DUP1 PUSH4 0x2DEEF284 EQ PUSH2 0x327 JUMPI DUP1 PUSH4 0x313CE567 EQ PUSH2 0x347 JUMPI DUP1 PUSH4 0x39509351 EQ PUSH2 0x35C JUMPI DUP1 PUSH4 0x5342ACB4 EQ PUSH2 0x37C JUMPI PUSH2 0x204 JUMP JUMPDEST DUP1 PUSH4 0x18160DDD GT PUSH2 0x1CC JUMPI DUP1 PUSH4 0x18160DDD EQ PUSH2 0x2A3 JUMPI DUP1 PUSH4 0x1CDD3BE3 EQ PUSH2 0x2C5 JUMPI DUP1 PUSH4 0x23B872DD EQ PUSH2 0x2E5 JUMPI DUP1 PUSH4 0x2BB14E1D EQ PUSH2 0x305 JUMPI PUSH2 0x204 JUMP JUMPDEST DUP1 PUSH4 0x6FDDE03 EQ PUSH2 0x209 JUMPI DUP1 PUSH4 0x95EA7B3 EQ PUSH2 0x234 JUMPI DUP1 PUSH4 0x1519F1F0 EQ PUSH2 0x261 JUMPI DUP1 PUSH4 0x15D957D3 EQ PUSH2 0x283 JUMPI PUSH2 0x204 JUMP JUMPDEST CALLDATASIZE PUSH2 0x204 JUMPI STOP JUMPDEST PUSH1 0x0 DUP1 REVERT JUMPDEST CALLVALUE DUP1 ISZERO PUSH2 0x215 JUMPI PUSH1 0x0 DUP1 REVERT JUMPDEST POP PUSH2 0x21E PUSH2 0x61C JUMP JUMPDEST PUSH1 0x40 MLOAD PUSH2 0x22B SWAP2 SWAP1 PUSH2 0x16B2 JUMP JUMPDEST PUSH1 0x40 MLOAD DUP1 SWAP2 SUB SWAP1 RETURN JUMPDEST CALLVALUE DUP1 ISZERO PUSH2 0x240 JUMPI PUSH1 0x0 DUP1 REVERT JUMPDEST POP PUSH2 0x254 PUSH2 0x24F CALLDATASIZE PUSH1 0x4 PUSH2 0x162F JUMP JUMPDEST PUSH2 0x6AE JUMP JUMPDEST PUSH1 0x40 MLOAD PUSH2 0x22B SWAP2 SWAP1 PUSH2 0x16A7 JUMP JUMPDEST CALLVALUE DUP1 ISZERO PUSH2 0x26D JUMPI PUSH1 0x0 DUP1 REVERT JUMPDEST POP PUSH2 0x281 PUSH2 0x27C CALLDATASIZE PUSH1 0x4 PUSH2 0x1672 JUMP JUMPDEST PUSH2 0x6D0 JUMP JUMPDEST STOP JUMPDEST CALLVALUE DUP1 ISZERO PUSH2 0x28F JUMPI PUSH1 0x0 DUP1 REVERT JUMPDEST POP PUSH2 0x281 PUSH2 0x29E CALLDATASIZE PUSH1 0x4 PUSH2 0x156A JUMP JUMPDEST PUSH2 0x738 JUMP JUMPDEST CALLVALUE DUP1 ISZERO PUSH2 0x2AF JUMPI PUSH1 0x0 DUP1 REVERT JUMPDEST POP PUSH2 0x2B8 PUSH2 0x7EF JUMP JUMPDEST PUSH1 0x40 MLOAD PUSH2 0x22B SWAP2 SWAP1 PUSH2 0x19B4 JUMP JUMPDEST CALLVALUE DUP1 ISZERO PUSH2 0x2D1 JUMPI PUSH1 0x0 DUP1 REVERT JUMPDEST POP PUSH2 0x254 PUSH2 0x2E0 CALLDATASIZE PUSH1 0x4 PUSH2 0x156A JUMP JUMPDEST PUSH2 0x7F5 JUMP JUMPDEST CALLVALUE DUP1 ISZERO PUSH2 0x2F1 JUMPI PUSH1 0x0 DUP1 REVERT JUMPDEST POP PUSH2 0x254 PUSH2 0x300 CALLDATASIZE PUSH1 0x4 PUSH2 0x15BE JUMP JUMPDEST PUSH2 0x80A JUMP JUMPDEST CALLVALUE DUP1 ISZERO PUSH2 0x311 JUMPI PUSH1 0x0 DUP1 REVERT JUMPDEST POP PUSH2 0x31A PUSH2 0x843 JUMP JUMPDEST PUSH1 0x40 MLOAD PUSH2 0x22B SWAP2 SWAP1 PUSH2 0x19BD JUMP JUMPDEST CALLVALUE DUP1 ISZERO PUSH2 0x333 JUMPI PUSH1 0x0 DUP1 REVERT JUMPDEST POP PUSH2 0x281 PUSH2 0x342 CALLDATASIZE PUSH1 0x4 PUSH2 0x1672 JUMP JUMPDEST PUSH2 0x853 JUMP JUMPDEST CALLVALUE DUP1 ISZERO PUSH2 0x353 JUMPI PUSH1 0x0 DUP1 REVERT JUMPDEST POP PUSH2 0x31A PUSH2 0x8B2 JUMP JUMPDEST CALLVALUE DUP1 ISZERO PUSH2 0x368 JUMPI PUSH1 0x0 DUP1 REVERT JUMPDEST POP PUSH2 0x254 PUSH2 0x377 CALLDATASIZE PUSH1 0x4 PUSH2 0x162F JUMP JUMPDEST PUSH2 0x8B7 JUMP JUMPDEST CALLVALUE DUP1 ISZERO PUSH2 0x388 JUMPI PUSH1 0x0 DUP1 REVERT JUMPDEST POP PUSH2 0x254 PUSH2 0x397 CALLDATASIZE PUSH1 0x4 PUSH2 0x156A JUMP JUMPDEST PUSH2 0x903 JUMP JUMPDEST CALLVALUE DUP1 ISZERO PUSH2 0x3A8 JUMPI PUSH1 0x0 DUP1 REVERT JUMPDEST POP PUSH2 0x31A PUSH2 0x921 JUMP JUMPDEST CALLVALUE DUP1 ISZERO PUSH2 0x3BD JUMPI PUSH1 0x0 DUP1 REVERT JUMPDEST POP PUSH2 0x281 PUSH2 0x3CC CALLDATASIZE PUSH1 0x4 PUSH2 0x156A JUMP JUMPDEST PUSH2 0x931 JUMP JUMPDEST CALLVALUE DUP1 ISZERO PUSH2 0x3DD JUMPI PUSH1 0x0 DUP1 REVERT JUMPDEST POP PUSH2 0x2B8 PUSH2 0x3EC CALLDATASIZE PUSH1 0x4 PUSH2 0x156A JUMP JUMPDEST PUSH2 0x992 JUMP JUMPDEST CALLVALUE DUP1 ISZERO PUSH2 0x3FD JUMPI PUSH1 0x0 DUP1 REVERT JUMPDEST POP PUSH2 0x281 PUSH2 0x9AD JUMP JUMPDEST CALLVALUE DUP1 ISZERO PUSH2 0x412 JUMPI PUSH1 0x0 DUP1 REVERT JUMPDEST POP PUSH2 0x41B PUSH2 0x9F8 JUMP JUMPDEST PUSH1 0x40 MLOAD PUSH2 0x22B SWAP2 SWAP1 PUSH2 0x1693 JUMP JUMPDEST CALLVALUE DUP1 ISZERO PUSH2 0x434 JUMPI PUSH1 0x0 DUP1 REVERT JUMPDEST POP PUSH2 0x281 PUSH2 0x443 CALLDATASIZE PUSH1 0x4 PUSH2 0x165A JUMP JUMPDEST PUSH2 0xA07 JUMP JUMPDEST CALLVALUE DUP1 ISZERO PUSH2 0x454 JUMPI PUSH1 0x0 DUP1 REVERT JUMPDEST POP PUSH2 0x281 PUSH2 0x463 CALLDATASIZE PUSH1 0x4 PUSH2 0x1672 JUMP JUMPDEST PUSH2 0xA4B JUMP JUMPDEST CALLVALUE DUP1 ISZERO PUSH2 0x474 JUMPI PUSH1 0x0 DUP1 REVERT JUMPDEST POP PUSH2 0x21E PUSH2 0xAAA JUMP JUMPDEST CALLVALUE DUP1 ISZERO PUSH2 0x489 JUMPI PUSH1 0x0 DUP1 REVERT JUMPDEST POP PUSH2 0x254 PUSH2 0x498 CALLDATASIZE PUSH1 0x4 PUSH2 0x162F JUMP JUMPDEST PUSH2 0xAB9 JUMP JUMPDEST CALLVALUE DUP1 ISZERO PUSH2 0x4A9 JUMPI PUSH1 0x0 DUP1 REVERT JUMPDEST POP PUSH2 0x2B8 PUSH2 0xB25 JUMP JUMPDEST CALLVALUE DUP1 ISZERO PUSH2 0x4BE JUMPI PUSH1 0x0 DUP1 REVERT JUMPDEST POP PUSH2 0x254 PUSH2 0x4CD CALLDATASIZE PUSH1 0x4 PUSH2 0x162F JUMP JUMPDEST PUSH2 0xB2B JUMP JUMPDEST CALLVALUE DUP1 ISZERO PUSH2 0x4DE JUMPI PUSH1 0x0 DUP1 REVERT JUMPDEST POP PUSH2 0x281 PUSH2 0x4ED CALLDATASIZE PUSH1 0x4 PUSH2 0x1672 JUMP JUMPDEST PUSH2 0xB48 JUMP JUMPDEST CALLVALUE DUP1 ISZERO PUSH2 0x4FE JUMPI PUSH1 0x0 DUP1 REVERT JUMPDEST POP PUSH2 0x281 PUSH2 0x50D CALLDATASIZE PUSH1 0x4 PUSH2 0x156A JUMP JUMPDEST PUSH2 0xBA7 JUMP JUMPDEST CALLVALUE DUP1 ISZERO PUSH2 0x51E JUMPI PUSH1 0x0 DUP1 REVERT JUMPDEST POP PUSH2 0x281 PUSH2 0x52D CALLDATASIZE PUSH1 0x4 PUSH2 0x156A JUMP JUMPDEST PUSH2 0xC08 JUMP JUMPDEST CALLVALUE DUP1 ISZERO PUSH2 0x53E JUMPI PUSH1 0x0 DUP1 REVERT JUMPDEST POP PUSH2 0x31A PUSH2 0xC69 JUMP JUMPDEST CALLVALUE DUP1 ISZERO PUSH2 0x553 JUMPI PUSH1 0x0 DUP1 REVERT JUMPDEST POP PUSH2 0x281 PUSH2 0x562 CALLDATASIZE PUSH1 0x4 PUSH2 0x156A JUMP JUMPDEST PUSH2 0xC79 JUMP JUMPDEST CALLVALUE DUP1 ISZERO PUSH2 0x573 JUMPI PUSH1 0x0 DUP1 REVERT JUMPDEST POP PUSH2 0x31A PUSH2 0xD4F JUMP JUMPDEST CALLVALUE DUP1 ISZERO PUSH2 0x588 JUMPI PUSH1 0x0 DUP1 REVERT JUMPDEST POP PUSH2 0x281 PUSH2 0x597 CALLDATASIZE PUSH1 0x4 PUSH2 0x15FE JUMP JUMPDEST PUSH2 0xD5F JUMP JUMPDEST CALLVALUE DUP1 ISZERO PUSH2 0x5A8 JUMPI PUSH1 0x0 DUP1 REVERT JUMPDEST POP PUSH2 0x281 PUSH2 0x5B7 CALLDATASIZE PUSH1 0x4 PUSH2 0x156A JUMP JUMPDEST PUSH2 0xDC9 JUMP JUMPDEST CALLVALUE DUP1 ISZERO PUSH2 0x5C8 JUMPI PUSH1 0x0 DUP1 REVERT JUMPDEST POP PUSH2 0x281 PUSH2 0x5D7 CALLDATASIZE PUSH1 0x4 PUSH2 0x156A JUMP JUMPDEST PUSH2 0xE90 JUMP JUMPDEST CALLVALUE DUP1 ISZERO PUSH2 0x5E8 JUMPI PUSH1 0x0 DUP1 REVERT JUMPDEST POP PUSH2 0x2B8 PUSH2 0x5F7 CALLDATASIZE PUSH1 0x4 PUSH2 0x1586 JUMP JUMPDEST PUSH2 0xEF7 JUMP JUMPDEST CALLVALUE DUP1 ISZERO PUSH2 0x608 JUMPI PUSH1 0x0 DUP1 REVERT JUMPDEST POP PUSH2 0x281 PUSH2 0x617 CALLDATASIZE PUSH1 0x4 PUSH2 0x156A JUMP JUMPDEST PUSH2 0xF22 JUMP JUMPDEST PUSH1 0x60 PUSH1 0x3 DUP1 SLOAD PUSH2 0x62B SWAP1 PUSH2 0x1B50 JUMP JUMPDEST DUP1 PUSH1 0x1F ADD PUSH1 0x20 DUP1 SWAP2 DIV MUL PUSH1 0x20 ADD PUSH1 0x40 MLOAD SWAP1 DUP2 ADD PUSH1 0x40 MSTORE DUP1 SWAP3 SWAP2 SWAP1 DUP2 DUP2 MSTORE PUSH1 0x20 ADD DUP3 DUP1 SLOAD PUSH2 0x657 SWAP1 PUSH2 0x1B50 JUMP JUMPDEST DUP1 ISZERO PUSH2 0x6A4 JUMPI DUP1 PUSH1 0x1F LT PUSH2 0x679 JUMPI PUSH2 0x100 DUP1 DUP4 SLOAD DIV MUL DUP4 MSTORE SWAP2 PUSH1 0x20 ADD SWAP2 PUSH2 0x6A4 JUMP JUMPDEST DUP3 ADD SWAP2 SWAP1 PUSH1 0x0 MSTORE PUSH1 0x20 PUSH1 0x0 KECCAK256 SWAP1 JUMPDEST DUP2 SLOAD DUP2 MSTORE SWAP1 PUSH1 0x1 ADD SWAP1 PUSH1 0x20 ADD DUP1 DUP4 GT PUSH2 0x687 JUMPI DUP3 SWAP1 SUB PUSH1 0x1F AND DUP3 ADD SWAP2 JUMPDEST POP POP POP POP POP SWAP1 POP SWAP1 JUMP JUMPDEST PUSH1 0x0 DUP1 PUSH2 0x6B9 PUSH2 0xF93 JUMP JUMPDEST SWAP1 POP PUSH2 0x6C6 DUP2 DUP6 DUP6 PUSH2 0xF97 JUMP JUMPDEST POP PUSH1 0x1 SWAP4 SWAP3 POP POP POP JUMP JUMPDEST PUSH2 0x6D8 PUSH2 0xF93 JUMP JUMPDEST PUSH1 0x1 PUSH1 0x1 PUSH1 0xA0 SHL SUB AND PUSH2 0x6E9 PUSH2 0x9F8 JUMP JUMPDEST PUSH1 0x1 PUSH1 0x1 PUSH1 0xA0 SHL SUB AND EQ PUSH2 0x718 JUMPI PUSH1 0x40 MLOAD PUSH3 0x461BCD PUSH1 0xE5 SHL DUP2 MSTORE PUSH1 0x4 ADD PUSH2 0x70F SWAP1 PUSH2 0x18B1 JUMP JUMPDEST PUSH1 0x40 MLOAD DUP1 SWAP2 SUB SWAP1 REVERT JUMPDEST PUSH1 0x10 DUP1 SLOAD PUSH1 0xFF SWAP1 SWAP3 AND PUSH1 0x1 PUSH1 0xA0 SHL MUL PUSH1 0xFF PUSH1 0xA0 SHL NOT SWAP1 SWAP3 AND SWAP2 SWAP1 SWAP2 OR SWAP1 SSTORE JUMP JUMPDEST PUSH2 0x740 PUSH2 0xF93 JUMP JUMPDEST PUSH1 0x1 PUSH1 0x1 PUSH1 0xA0 SHL SUB AND PUSH2 0x751 PUSH2 0x9F8 JUMP JUMPDEST PUSH1 0x1 PUSH1 0x1 PUSH1 0xA0 SHL SUB AND EQ PUSH2 0x777 JUMPI PUSH1 0x40 MLOAD PUSH3 0x461BCD PUSH1 0xE5 SHL DUP2 MSTORE PUSH1 0x4 ADD PUSH2 0x70F SWAP1 PUSH2 0x18B1 JUMP JUMPDEST PUSH1 0x1 PUSH1 0x1 PUSH1 0xA0 SHL SUB DUP2 AND PUSH2 0x79D JUMPI PUSH1 0x40 MLOAD PUSH3 0x461BCD PUSH1 0xE5 SHL DUP2 MSTORE PUSH1 0x4 ADD PUSH2 0x70F SWAP1 PUSH2 0x1705 JUMP JUMPDEST PUSH1 0xD SLOAD PUSH1 0xFF AND ISZERO PUSH2 0x7AD JUMPI PUSH1 0x0 DUP1 REVERT JUMPDEST PUSH1 0x10 DUP1 SLOAD PUSH1 0x1 PUSH1 0x1 PUSH1 0xA0 SHL SUB NOT AND PUSH1 0x1 PUSH1 0x1 PUSH1 0xA0 SHL SUB DUP4 DUP2 AND SWAP2 SWAP1 SWAP2 OR SWAP2 DUP3 SWAP1 SSTORE PUSH1 0xC SLOAD PUSH2 0x7DE SWAP3 SWAP1 SWAP2 AND SWAP1 PUSH2 0xB2B JUMP JUMPDEST POP POP PUSH1 0xD DUP1 SLOAD PUSH1 0xFF NOT AND PUSH1 0x1 OR SWAP1 SSTORE JUMP JUMPDEST PUSH1 0xA SLOAD SWAP1 JUMP JUMPDEST PUSH1 0x12 PUSH1 0x20 MSTORE PUSH1 0x0 SWAP1 DUP2 MSTORE PUSH1 0x40 SWAP1 KECCAK256 SLOAD PUSH1 0xFF AND DUP2 JUMP JUMPDEST PUSH1 0x0 PUSH2 0x814 PUSH2 0xF93 JUMP JUMPDEST PUSH1 0x1 PUSH1 0x1 PUSH1 0xA0 SHL SUB AND DUP5 PUSH1 0x1 PUSH1 0x1 PUSH1 0xA0 SHL SUB AND EQ PUSH2 0x831 JUMPI PUSH1 0x0 DUP1 REVERT JUMPDEST PUSH2 0x6C6 DUP5 DUP5 DUP5 PUSH2 0x104B JUMP JUMPDEST SWAP4 SWAP3 POP POP POP JUMP JUMPDEST PUSH1 0x10 SLOAD PUSH1 0x1 PUSH1 0xA8 SHL SWAP1 DIV PUSH1 0xFF AND DUP2 JUMP JUMPDEST PUSH2 0x85B PUSH2 0xF93 JUMP JUMPDEST PUSH1 0x1 PUSH1 0x1 PUSH1 0xA0 SHL SUB AND PUSH2 0x86C PUSH2 0x9F8 JUMP JUMPDEST PUSH1 0x1 PUSH1 0x1 PUSH1 0xA0 SHL SUB AND EQ PUSH2 0x892 JUMPI PUSH1 0x40 MLOAD PUSH3 0x461BCD PUSH1 0xE5 SHL DUP2 MSTORE PUSH1 0x4 ADD PUSH2 0x70F SWAP1 PUSH2 0x18B1 JUMP JUMPDEST PUSH1 0x10 DUP1 SLOAD PUSH1 0xFF SWAP1 SWAP3 AND PUSH1 0x1 PUSH1 0xB0 SHL MUL PUSH1 0xFF PUSH1 0xB0 SHL NOT SWAP1 SWAP3 AND SWAP2 SWAP1 SWAP2 OR SWAP1 SSTORE JUMP JUMPDEST PUSH1 0x12 SWAP1 JUMP JUMPDEST PUSH1 0x0 DUP1 PUSH2 0x8C2 PUSH2 0xF93 JUMP JUMPDEST PUSH1 0x1 PUSH1 0x1 PUSH1 0xA0 SHL SUB DUP1 DUP3 AND PUSH1 0x0 SWAP1 DUP2 MSTORE PUSH1 0x1 PUSH1 0x20 SWAP1 DUP2 MSTORE PUSH1 0x40 DUP1 DUP4 KECCAK256 SWAP4 DUP10 AND DUP4 MSTORE SWAP3 SWAP1 MSTORE KECCAK256 SLOAD SWAP1 SWAP2 POP PUSH2 0x6C6 SWAP1 DUP3 SWAP1 DUP7 SWAP1 PUSH2 0x8FE SWAP1 DUP8 SWAP1 PUSH2 0x19CB JUMP JUMPDEST PUSH2 0xF97 JUMP JUMPDEST PUSH1 0x1 PUSH1 0x1 PUSH1 0xA0 SHL SUB AND PUSH1 0x0 SWAP1 DUP2 MSTORE PUSH1 0x13 PUSH1 0x20 MSTORE PUSH1 0x40 SWAP1 KECCAK256 SLOAD PUSH1 0xFF AND SWAP1 JUMP JUMPDEST PUSH1 0x10 SLOAD PUSH1 0x1 PUSH1 0xA0 SHL SWAP1 DIV PUSH1 0xFF AND DUP2 JUMP JUMPDEST PUSH2 0x939 PUSH2 0xF93 JUMP JUMPDEST PUSH1 0x1 PUSH1 0x1 PUSH1 0xA0 SHL SUB AND PUSH2 0x94A PUSH2 0x9F8 JUMP JUMPDEST PUSH1 0x1 PUSH1 0x1 PUSH1 0xA0 SHL SUB AND EQ PUSH2 0x970 JUMPI PUSH1 0x40 MLOAD PUSH3 0x461BCD PUSH1 0xE5 SHL DUP2 MSTORE PUSH1 0x4 ADD PUSH2 0x70F SWAP1 PUSH2 0x18B1 JUMP JUMPDEST PUSH1 0xE DUP1 SLOAD PUSH1 0x1 PUSH1 0x1 PUSH1 0xA0 SHL SUB NOT AND PUSH1 0x1 PUSH1 0x1 PUSH1 0xA0 SHL SUB SWAP3 SWAP1 SWAP3 AND SWAP2 SWAP1 SWAP2 OR SWAP1 SSTORE JUMP JUMPDEST PUSH1 0x1 PUSH1 0x1 PUSH1 0xA0 SHL SUB AND PUSH1 0x0 SWAP1 DUP2 MSTORE PUSH1 0x20 DUP2 SWAP1 MSTORE PUSH1 0x40 SWAP1 KECCAK256 SLOAD SWAP1 JUMP JUMPDEST PUSH2 0x9B5 PUSH2 0xF93 JUMP JUMPDEST PUSH1 0x1 PUSH1 0x1 PUSH1 0xA0 SHL SUB AND PUSH2 0x9C6 PUSH2 0x9F8 JUMP JUMPDEST PUSH1 0x1 PUSH1 0x1 PUSH1 0xA0 SHL SUB AND EQ PUSH2 0x9EC JUMPI PUSH1 0x40 MLOAD PUSH3 0x461BCD PUSH1 0xE5 SHL DUP2 MSTORE PUSH1 0x4 ADD PUSH2 0x70F SWAP1 PUSH2 0x18B1 JUMP JUMPDEST PUSH2 0x9F6 PUSH1 0x0 PUSH2 0x1287 JUMP JUMPDEST JUMP JUMPDEST PUSH1 0x5 SLOAD PUSH1 0x1 PUSH1 0x1 PUSH1 0xA0 SHL SUB AND SWAP1 JUMP JUMPDEST PUSH2 0xA0F PUSH2 0xF93 JUMP JUMPDEST PUSH1 0x1 PUSH1 0x1 PUSH1 0xA0 SHL SUB AND PUSH2 0xA20 PUSH2 0x9F8 JUMP JUMPDEST PUSH1 0x1 PUSH1 0x1 PUSH1 0xA0 SHL SUB AND EQ PUSH2 0xA46 JUMPI PUSH1 0x40 MLOAD PUSH3 0x461BCD PUSH1 0xE5 SHL DUP2 MSTORE PUSH1 0x4 ADD PUSH2 0x70F SWAP1 PUSH2 0x18B1 JUMP JUMPDEST PUSH1 0xB SSTORE JUMP JUMPDEST PUSH2 0xA53 PUSH2 0xF93 JUMP JUMPDEST PUSH1 0x1 PUSH1 0x1 PUSH1 0xA0 SHL SUB AND PUSH2 0xA64 PUSH2 0x9F8 JUMP JUMPDEST PUSH1 0x1 PUSH1 0x1 PUSH1 0xA0 SHL SUB AND EQ PUSH2 0xA8A JUMPI PUSH1 0x40 MLOAD PUSH3 0x461BCD PUSH1 0xE5 SHL DUP2 MSTORE PUSH1 0x4 ADD PUSH2 0x70F SWAP1 PUSH2 0x18B1 JUMP JUMPDEST PUSH1 0x10 DUP1 SLOAD PUSH1 0xFF SWAP1 SWAP3 AND PUSH1 0x1 PUSH1 0xB8 SHL MUL PUSH1 0xFF PUSH1 0xB8 SHL NOT SWAP1 SWAP3 AND SWAP2 SWAP1 SWAP2 OR SWAP1 SSTORE JUMP JUMPDEST PUSH1 0x60 PUSH1 0x4 DUP1 SLOAD PUSH2 0x62B SWAP1 PUSH2 0x1B50 JUMP JUMPDEST PUSH1 0x0 DUP1 PUSH2 0xAC4 PUSH2 0xF93 JUMP JUMPDEST PUSH1 0x1 PUSH1 0x1 PUSH1 0xA0 SHL SUB DUP1 DUP3 AND PUSH1 0x0 SWAP1 DUP2 MSTORE PUSH1 0x1 PUSH1 0x20 SWAP1 DUP2 MSTORE PUSH1 0x40 DUP1 DUP4 KECCAK256 SWAP4 DUP10 AND DUP4 MSTORE SWAP3 SWAP1 MSTORE KECCAK256 SLOAD SWAP1 SWAP2 POP DUP4 DUP2 LT ISZERO PUSH2 0xB0D JUMPI PUSH1 0x40 MLOAD PUSH3 0x461BCD PUSH1 0xE5 SHL DUP2 MSTORE PUSH1 0x4 ADD PUSH2 0x70F SWAP1 PUSH2 0x196F JUMP JUMPDEST PUSH2 0xB1A DUP3 DUP7 DUP7 DUP5 SUB PUSH2 0xF97 JUMP JUMPDEST POP PUSH1 0x1 SWAP5 SWAP4 POP POP POP POP JUMP JUMPDEST PUSH1 0x11 SLOAD DUP2 JUMP JUMPDEST PUSH1 0x0 PUSH2 0xB3F PUSH2 0xB38 PUSH2 0xF93 JUMP JUMPDEST DUP5 DUP5 PUSH2 0x104B JUMP JUMPDEST POP PUSH1 0x1 SWAP3 SWAP2 POP POP JUMP JUMPDEST PUSH2 0xB50 PUSH2 0xF93 JUMP JUMPDEST PUSH1 0x1 PUSH1 0x1 PUSH1 0xA0 SHL SUB AND PUSH2 0xB61 PUSH2 0x9F8 JUMP JUMPDEST PUSH1 0x1 PUSH1 0x1 PUSH1 0xA0 SHL SUB AND EQ PUSH2 0xB87 JUMPI PUSH1 0x40 MLOAD PUSH3 0x461BCD PUSH1 0xE5 SHL DUP2 MSTORE PUSH1 0x4 ADD PUSH2 0x70F SWAP1 PUSH2 0x18B1 JUMP JUMPDEST PUSH1 0x10 DUP1 SLOAD PUSH1 0xFF SWAP1 SWAP3 AND PUSH1 0x1 PUSH1 0xA8 SHL MUL PUSH1 0xFF PUSH1 0xA8 SHL NOT SWAP1 SWAP3 AND SWAP2 SWAP1 SWAP2 OR SWAP1 SSTORE JUMP JUMPDEST PUSH2 0xBAF PUSH2 0xF93 JUMP JUMPDEST PUSH1 0x1 PUSH1 0x1 PUSH1 0xA0 SHL SUB AND PUSH2 0xBC0 PUSH2 0x9F8 JUMP JUMPDEST PUSH1 0x1 PUSH1 0x1 PUSH1 0xA0 SHL SUB AND EQ PUSH2 0xBE6 JUMPI PUSH1 0x40 MLOAD PUSH3 0x461BCD PUSH1 0xE5 SHL DUP2 MSTORE PUSH1 0x4 ADD PUSH2 0x70F SWAP1 PUSH2 0x18B1 JUMP JUMPDEST PUSH1 0xF DUP1 SLOAD PUSH1 0x1 PUSH1 0x1 PUSH1 0xA0 SHL SUB NOT AND PUSH1 0x1 PUSH1 0x1 PUSH1 0xA0 SHL SUB SWAP3 SWAP1 SWAP3 AND SWAP2 SWAP1 SWAP2 OR SWAP1 SSTORE JUMP JUMPDEST PUSH2 0xC10 PUSH2 0xF93 JUMP JUMPDEST PUSH1 0x1 PUSH1 0x1 PUSH1 0xA0 SHL SUB AND PUSH2 0xC21 PUSH2 0x9F8 JUMP JUMPDEST PUSH1 0x1 PUSH1 0x1 PUSH1 0xA0 SHL SUB AND EQ PUSH2 0xC47 JUMPI PUSH1 0x40 MLOAD PUSH3 0x461BCD PUSH1 0xE5 SHL DUP2 MSTORE PUSH1 0x4 ADD PUSH2 0x70F SWAP1 PUSH2 0x18B1 JUMP JUMPDEST PUSH1 0x10 DUP1 SLOAD PUSH1 0x1 PUSH1 0x1 PUSH1 0xA0 SHL SUB NOT AND PUSH1 0x1 PUSH1 0x1 PUSH1 0xA0 SHL SUB SWAP3 SWAP1 SWAP3 AND SWAP2 SWAP1 SWAP2 OR SWAP1 SSTORE JUMP JUMPDEST PUSH1 0x10 SLOAD PUSH1 0x1 PUSH1 0xB0 SHL SWAP1 DIV PUSH1 0xFF AND DUP2 JUMP JUMPDEST PUSH2 0xC81 PUSH2 0xF93 JUMP JUMPDEST PUSH1 0x1 PUSH1 0x1 PUSH1 0xA0 SHL SUB AND PUSH2 0xC92 PUSH2 0x9F8 JUMP JUMPDEST PUSH1 0x1 PUSH1 0x1 PUSH1 0xA0 SHL SUB AND EQ PUSH2 0xCB8 JUMPI PUSH1 0x40 MLOAD PUSH3 0x461BCD PUSH1 0xE5 SHL DUP2 MSTORE PUSH1 0x4 ADD PUSH2 0x70F SWAP1 PUSH2 0x18B1 JUMP JUMPDEST PUSH1 0x1 PUSH1 0x1 PUSH1 0xA0 SHL SUB DUP2 AND PUSH1 0x0 SWAP1 DUP2 MSTORE PUSH1 0x13 PUSH1 0x20 MSTORE PUSH1 0x40 SWAP1 KECCAK256 SLOAD PUSH1 0xFF AND ISZERO PUSH2 0xCF1 JUMPI PUSH1 0x40 MLOAD PUSH3 0x461BCD PUSH1 0xE5 SHL DUP2 MSTORE PUSH1 0x4 ADD PUSH2 0x70F SWAP1 PUSH2 0x184D JUMP JUMPDEST PUSH1 0x1 PUSH1 0x1 PUSH1 0xA0 SHL SUB DUP2 AND PUSH1 0x0 SWAP1 DUP2 MSTORE PUSH1 0x13 PUSH1 0x20 MSTORE PUSH1 0x40 SWAP1 DUP2 SWAP1 KECCAK256 DUP1 SLOAD PUSH1 0xFF NOT AND PUSH1 0x1 OR SWAP1 SSTORE MLOAD PUSH32 0x7E35D6B74D35C333860340884EECA4E63B18CB9D73CE17A147A1952654365B5E SWAP1 PUSH2 0xD44 SWAP1 DUP4 SWAP1 PUSH2 0x1693 JUMP JUMPDEST PUSH1 0x40 MLOAD DUP1 SWAP2 SUB SWAP1 LOG1 POP JUMP JUMPDEST PUSH1 0x10 SLOAD PUSH1 0x1 PUSH1 0xB8 SHL SWAP1 DIV PUSH1 0xFF AND DUP2 JUMP JUMPDEST PUSH2 0xD67 PUSH2 0xF93 JUMP JUMPDEST PUSH1 0x1 PUSH1 0x1 PUSH1 0xA0 SHL SUB AND PUSH2 0xD78 PUSH2 0x9F8 JUMP JUMPDEST PUSH1 0x1 PUSH1 0x1 PUSH1 0xA0 SHL SUB AND EQ PUSH2 0xD9E JUMPI PUSH1 0x40 MLOAD PUSH3 0x461BCD PUSH1 0xE5 SHL DUP2 MSTORE PUSH1 0x4 ADD PUSH2 0x70F SWAP1 PUSH2 0x18B1 JUMP JUMPDEST PUSH1 0x1 PUSH1 0x1 PUSH1 0xA0 SHL SUB SWAP2 SWAP1 SWAP2 AND PUSH1 0x0 SWAP1 DUP2 MSTORE PUSH1 0x12 PUSH1 0x20 MSTORE PUSH1 0x40 SWAP1 KECCAK256 DUP1 SLOAD PUSH1 0xFF NOT AND SWAP2 ISZERO ISZERO SWAP2 SWAP1 SWAP2 OR SWAP1 SSTORE JUMP JUMPDEST PUSH2 0xDD1 PUSH2 0xF93 JUMP JUMPDEST PUSH1 0x1 PUSH1 0x1 PUSH1 0xA0 SHL SUB AND PUSH2 0xDE2 PUSH2 0x9F8 JUMP JUMPDEST PUSH1 0x1 PUSH1 0x1 PUSH1 0xA0 SHL SUB AND EQ PUSH2 0xE08 JUMPI PUSH1 0x40 MLOAD PUSH3 0x461BCD PUSH1 0xE5 SHL DUP2 MSTORE PUSH1 0x4 ADD PUSH2 0x70F SWAP1 PUSH2 0x18B1 JUMP JUMPDEST PUSH1 0x1 PUSH1 0x1 PUSH1 0xA0 SHL SUB DUP2 AND PUSH1 0x0 SWAP1 DUP2 MSTORE PUSH1 0x13 PUSH1 0x20 MSTORE PUSH1 0x40 SWAP1 KECCAK256 SLOAD PUSH1 0xFF AND PUSH2 0xE40 JUMPI PUSH1 0x40 MLOAD PUSH3 0x461BCD PUSH1 0xE5 SHL DUP2 MSTORE PUSH1 0x4 ADD PUSH2 0x70F SWAP1 PUSH2 0x17D0 JUMP JUMPDEST PUSH1 0x1 PUSH1 0x1 PUSH1 0xA0 SHL SUB DUP2 AND PUSH1 0x0 SWAP1 DUP2 MSTORE PUSH1 0x13 PUSH1 0x20 MSTORE PUSH1 0x40 SWAP1 DUP2 SWAP1 KECCAK256 DUP1 SLOAD PUSH1 0xFF NOT AND SWAP1 SSTORE MLOAD PUSH32 0xC782889D4EB26C6EFFAA6305A7075C22C2A6E2919DDF49A4A851FECF59CFC75F SWAP1 PUSH2 0xD44 SWAP1 DUP4 SWAP1 PUSH2 0x1693 JUMP JUMPDEST PUSH2 0xE98 PUSH2 0xF93 JUMP JUMPDEST PUSH1 0x1 PUSH1 0x1 PUSH1 0xA0 SHL SUB AND PUSH2 0xEA9 PUSH2 0x9F8 JUMP JUMPDEST PUSH1 0x1 PUSH1 0x1 PUSH1 0xA0 SHL SUB AND EQ PUSH2 0xECF JUMPI PUSH1 0x40 MLOAD PUSH3 0x461BCD PUSH1 0xE5 SHL DUP2 MSTORE PUSH1 0x4 ADD PUSH2 0x70F SWAP1 PUSH2 0x18B1 JUMP JUMPDEST PUSH1 0xD DUP1 SLOAD PUSH1 0x1 PUSH1 0x1 PUSH1 0xA0 SHL SUB SWAP1 SWAP3 AND PUSH2 0x100 MUL PUSH2 0x100 PUSH1 0x1 PUSH1 0xA8 SHL SUB NOT SWAP1 SWAP3 AND SWAP2 SWAP1 SWAP2 OR SWAP1 SSTORE JUMP JUMPDEST PUSH1 0x1 PUSH1 0x1 PUSH1 0xA0 SHL SUB SWAP2 DUP3 AND PUSH1 0x0 SWAP1 DUP2 MSTORE PUSH1 0x1 PUSH1 0x20 SWAP1 DUP2 MSTORE PUSH1 0x40 DUP1 DUP4 KECCAK256 SWAP4 SWAP1 SWAP5 AND DUP3 MSTORE SWAP2 SWAP1 SWAP2 MSTORE KECCAK256 SLOAD SWAP1 JUMP JUMPDEST PUSH2 0xF2A PUSH2 0xF93 JUMP JUMPDEST PUSH1 0x1 PUSH1 0x1 PUSH1 0xA0 SHL SUB AND PUSH2 0xF3B PUSH2 0x9F8 JUMP JUMPDEST PUSH1 0x1 PUSH1 0x1 PUSH1 0xA0 SHL SUB AND EQ PUSH2 0xF61 JUMPI PUSH1 0x40 MLOAD PUSH3 0x461BCD PUSH1 0xE5 SHL DUP2 MSTORE PUSH1 0x4 ADD PUSH2 0x70F SWAP1 PUSH2 0x18B1 JUMP JUMPDEST PUSH1 0x1 PUSH1 0x1 PUSH1 0xA0 SHL SUB DUP2 AND PUSH2 0xF87 JUMPI PUSH1 0x40 MLOAD PUSH3 0x461BCD PUSH1 0xE5 SHL DUP2 MSTORE PUSH1 0x4 ADD PUSH2 0x70F SWAP1 PUSH2 0x1748 JUMP JUMPDEST PUSH2 0xF90 DUP2 PUSH2 0x1287 JUMP JUMPDEST POP JUMP JUMPDEST CALLER SWAP1 JUMP JUMPDEST PUSH1 0x1 PUSH1 0x1 PUSH1 0xA0 SHL SUB DUP4 AND PUSH2 0xFBD JUMPI PUSH1 0x40 MLOAD PUSH3 0x461BCD PUSH1 0xE5 SHL DUP2 MSTORE PUSH1 0x4 ADD PUSH2 0x70F SWAP1 PUSH2 0x192B JUMP JUMPDEST PUSH1 0x1 PUSH1 0x1 PUSH1 0xA0 SHL SUB DUP3 AND PUSH2 0xFE3 JUMPI PUSH1 0x40 MLOAD PUSH3 0x461BCD PUSH1 0xE5 SHL DUP2 MSTORE PUSH1 0x4 ADD PUSH2 0x70F SWAP1 PUSH2 0x178E JUMP JUMPDEST PUSH1 0x1 PUSH1 0x1 PUSH1 0xA0 SHL SUB DUP1 DUP5 AND PUSH1 0x0 DUP2 DUP2 MSTORE PUSH1 0x1 PUSH1 0x20 SWAP1 DUP2 MSTORE PUSH1 0x40 DUP1 DUP4 KECCAK256 SWAP5 DUP8 AND DUP1 DUP5 MSTORE SWAP5 SWAP1 SWAP2 MSTORE SWAP1 DUP2 SWAP1 KECCAK256 DUP5 SWAP1 SSTORE MLOAD PUSH32 0x8C5BE1E5EBEC7D5BD14F71427D1E84F3DD0314C0F7B2291E5B200AC8C7C3B925 SWAP1 PUSH2 0x103E SWAP1 DUP6 SWAP1 PUSH2 0x19B4 JUMP JUMPDEST PUSH1 0x40 MLOAD DUP1 SWAP2 SUB SWAP1 LOG3 POP POP POP JUMP JUMPDEST PUSH1 0x1 PUSH1 0x1 PUSH1 0xA0 SHL SUB DUP4 AND PUSH2 0x1071 JUMPI PUSH1 0x40 MLOAD PUSH3 0x461BCD PUSH1 0xE5 SHL DUP2 MSTORE PUSH1 0x4 ADD PUSH2 0x70F SWAP1 PUSH2 0x18E6 JUMP JUMPDEST PUSH1 0x1 PUSH1 0x1 PUSH1 0xA0 SHL SUB DUP3 AND PUSH2 0x1097 JUMPI PUSH1 0x40 MLOAD PUSH3 0x461BCD PUSH1 0xE5 SHL DUP2 MSTORE PUSH1 0x4 ADD PUSH2 0x70F SWAP1 PUSH2 0x1705 JUMP JUMPDEST PUSH1 0x1 PUSH1 0x1 PUSH1 0xA0 SHL SUB DUP4 AND PUSH1 0x0 SWAP1 DUP2 MSTORE PUSH1 0x12 PUSH1 0x20 MSTORE PUSH1 0x40 SWAP1 KECCAK256 SLOAD PUSH1 0xFF AND ISZERO DUP1 ISZERO PUSH2 0x10D9 JUMPI POP PUSH1 0x1 PUSH1 0x1 PUSH1 0xA0 SHL SUB DUP3 AND PUSH1 0x0 SWAP1 DUP2 MSTORE PUSH1 0x12 PUSH1 0x20 MSTORE PUSH1 0x40 SWAP1 KECCAK256 SLOAD PUSH1 0xFF AND ISZERO JUMPDEST PUSH2 0x10F5 JUMPI PUSH1 0x40 MLOAD PUSH3 0x461BCD PUSH1 0xE5 SHL DUP2 MSTORE PUSH1 0x4 ADD PUSH2 0x70F SWAP1 PUSH2 0x1884 JUMP JUMPDEST PUSH1 0x1 PUSH1 0x1 PUSH1 0xA0 SHL SUB DUP4 AND PUSH1 0x0 SWAP1 DUP2 MSTORE PUSH1 0x13 PUSH1 0x20 MSTORE PUSH1 0x40 SWAP1 KECCAK256 SLOAD PUSH1 0xFF AND PUSH2 0x1124 JUMPI PUSH1 0x11 SLOAD DUP2 LT ISZERO PUSH2 0x1124 JUMPI PUSH1 0x0 DUP1 REVERT JUMPDEST PUSH1 0x1 PUSH1 0x1 PUSH1 0xA0 SHL SUB DUP4 AND PUSH1 0x0 SWAP1 DUP2 MSTORE PUSH1 0x13 PUSH1 0x20 MSTORE PUSH1 0x40 DUP2 KECCAK256 SLOAD PUSH1 0x1 SWAP2 SWAP1 PUSH2 0x114F SWAP1 DUP5 SWAP1 PUSH1 0xFF AND PUSH2 0x12D9 JUMP JUMPDEST PUSH1 0x1 PUSH1 0x1 PUSH1 0xA0 SHL SUB DUP7 AND PUSH1 0x0 SWAP1 DUP2 MSTORE PUSH1 0x13 PUSH1 0x20 MSTORE PUSH1 0x40 SWAP1 KECCAK256 SLOAD SWAP1 SWAP2 POP PUSH1 0xFF AND DUP1 PUSH2 0x1191 JUMPI POP PUSH1 0x1 PUSH1 0x1 PUSH1 0xA0 SHL SUB DUP5 AND PUSH1 0x0 SWAP1 DUP2 MSTORE PUSH1 0x13 PUSH1 0x20 MSTORE PUSH1 0x40 SWAP1 KECCAK256 SLOAD PUSH1 0xFF AND JUMPDEST ISZERO PUSH2 0x119B JUMPI PUSH1 0x0 SWAP2 POP JUMPDEST DUP3 DUP3 ISZERO PUSH2 0x1229 JUMPI POP PUSH1 0xA0 DUP2 ADD MLOAD PUSH1 0xF SLOAD PUSH1 0x60 DUP4 ADD MLOAD PUSH2 0x11C7 SWAP2 DUP9 SWAP2 PUSH1 0x1 PUSH1 0x1 PUSH1 0xA0 SHL SUB SWAP1 SWAP2 AND SWAP1 PUSH2 0x12F6 JUMP JUMPDEST PUSH1 0xE SLOAD PUSH1 0x40 DUP4 ADD MLOAD PUSH2 0x11E6 SWAP2 DUP9 SWAP2 PUSH1 0x1 PUSH1 0x1 PUSH1 0xA0 SHL SUB SWAP1 SWAP2 AND SWAP1 PUSH2 0x12F6 JUMP JUMPDEST PUSH1 0x10 SLOAD PUSH1 0x80 DUP4 ADD MLOAD PUSH2 0x1205 SWAP2 DUP9 SWAP2 PUSH1 0x1 PUSH1 0x1 PUSH1 0xA0 SHL SUB SWAP1 SWAP2 AND SWAP1 PUSH2 0x12F6 JUMP JUMPDEST PUSH2 0x1229 DUP7 PUSH1 0xD PUSH1 0x1 SWAP1 SLOAD SWAP1 PUSH2 0x100 EXP SWAP1 DIV PUSH1 0x1 PUSH1 0x1 PUSH1 0xA0 SHL SUB AND DUP5 PUSH1 0x20 ADD MLOAD PUSH2 0x12F6 JUMP JUMPDEST PUSH2 0x1234 DUP7 DUP7 DUP4 PUSH2 0x12F6 JUMP JUMPDEST DUP5 PUSH1 0x1 PUSH1 0x1 PUSH1 0xA0 SHL SUB AND DUP7 PUSH1 0x1 PUSH1 0x1 PUSH1 0xA0 SHL SUB AND PUSH32 0xDDF252AD1BE2C89B69C2B068FC378DAA952BA7F163C4A11628F55A4DF523B3EF DUP4 PUSH1 0x40 MLOAD PUSH2 0x1277 SWAP2 SWAP1 PUSH2 0x19B4 JUMP JUMPDEST PUSH1 0x40 MLOAD DUP1 SWAP2 SUB SWAP1 LOG3 POP POP POP POP POP POP JUMP JUMPDEST PUSH1 0x5 DUP1 SLOAD PUSH1 0x1 PUSH1 0x1 PUSH1 0xA0 SHL SUB DUP4 DUP2 AND PUSH1 0x1 PUSH1 0x1 PUSH1 0xA0 SHL SUB NOT DUP4 AND DUP2 OR SWAP1 SWAP4 SSTORE PUSH1 0x40 MLOAD SWAP2 AND SWAP2 SWAP1 DUP3 SWAP1 PUSH32 0x8BE0079C531659141344CD1FD0A4F28419497F9722A3DAAFE3B4186F6B6457E0 SWAP1 PUSH1 0x0 SWAP1 LOG3 POP POP JUMP JUMPDEST PUSH2 0x12E1 PUSH2 0x1534 JUMP JUMPDEST PUSH2 0x12E9 PUSH2 0x1534 JUMP JUMPDEST DUP4 DUP2 MSTORE PUSH2 0x83C DUP2 DUP5 PUSH2 0x1420 JUMP JUMPDEST PUSH1 0x1 PUSH1 0x1 PUSH1 0xA0 SHL SUB DUP4 AND PUSH2 0x131C JUMPI PUSH1 0x40 MLOAD PUSH3 0x461BCD PUSH1 0xE5 SHL DUP2 MSTORE PUSH1 0x4 ADD PUSH2 0x70F SWAP1 PUSH2 0x18E6 JUMP JUMPDEST PUSH1 0x1 PUSH1 0x1 PUSH1 0xA0 SHL SUB DUP3 AND PUSH2 0x1342 JUMPI PUSH1 0x40 MLOAD PUSH3 0x461BCD PUSH1 0xE5 SHL DUP2 MSTORE PUSH1 0x4 ADD PUSH2 0x70F SWAP1 PUSH2 0x1705 JUMP JUMPDEST PUSH2 0x134D DUP4 DUP4 DUP4 PUSH2 0x14F7 JUMP JUMPDEST PUSH1 0x1 PUSH1 0x1 PUSH1 0xA0 SHL SUB DUP4 AND PUSH1 0x0 SWAP1 DUP2 MSTORE PUSH1 0x20 DUP2 SWAP1 MSTORE PUSH1 0x40 SWAP1 KECCAK256 SLOAD DUP2 DUP2 LT ISZERO PUSH2 0x1386 JUMPI PUSH1 0x40 MLOAD PUSH3 0x461BCD PUSH1 0xE5 SHL DUP2 MSTORE PUSH1 0x4 ADD PUSH2 0x70F SWAP1 PUSH2 0x1807 JUMP JUMPDEST PUSH1 0x1 PUSH1 0x1 PUSH1 0xA0 SHL SUB DUP1 DUP6 AND PUSH1 0x0 SWAP1 DUP2 MSTORE PUSH1 0x20 DUP2 SWAP1 MSTORE PUSH1 0x40 DUP1 DUP3 KECCAK256 DUP6 DUP6 SUB SWAP1 SSTORE SWAP2 DUP6 AND DUP2 MSTORE SWAP1 DUP2 KECCAK256 DUP1 SLOAD DUP5 SWAP3 SWAP1 PUSH2 0x13BD SWAP1 DUP5 SWAP1 PUSH2 0x19CB JUMP JUMPDEST SWAP3 POP POP DUP2 SWAP1 SSTORE POP DUP3 PUSH1 0x1 PUSH1 0x1 PUSH1 0xA0 SHL SUB AND DUP5 PUSH1 0x1 PUSH1 0x1 PUSH1 0xA0 SHL SUB AND PUSH32 0xDDF252AD1BE2C89B69C2B068FC378DAA952BA7F163C4A11628F55A4DF523B3EF DUP5 PUSH1 0x40 MLOAD PUSH2 0x1407 SWAP2 SWAP1 PUSH2 0x19B4 JUMP JUMPDEST PUSH1 0x40 MLOAD DUP1 SWAP2 SUB SWAP1 LOG3 PUSH2 0x141A DUP5 DUP5 DUP5 PUSH2 0x14F7 JUMP JUMPDEST POP POP POP POP JUMP JUMPDEST DUP1 ISZERO PUSH2 0x1432 JUMPI DUP2 MLOAD PUSH1 0xA0 DUP4 ADD MSTORE PUSH2 0x14F3 JUMP JUMPDEST DUP2 MLOAD PUSH1 0x10 SLOAD PUSH2 0x144D SWAP2 SWAP1 PUSH1 0x1 PUSH1 0xA8 SHL SWAP1 DIV PUSH1 0xFF AND PUSH1 0x0 PUSH2 0x14FC JUMP JUMPDEST PUSH1 0x40 DUP4 ADD MSTORE DUP2 MLOAD PUSH1 0x10 SLOAD PUSH2 0x146D SWAP2 SWAP1 PUSH1 0x1 PUSH1 0xA0 SHL SWAP1 DIV PUSH1 0xFF AND PUSH1 0x0 PUSH2 0x14FC JUMP JUMPDEST PUSH1 0x20 DUP4 ADD MSTORE DUP2 MLOAD PUSH1 0x10 SLOAD PUSH2 0x148D SWAP2 SWAP1 PUSH1 0x1 PUSH1 0xB0 SHL SWAP1 DIV PUSH1 0xFF AND PUSH1 0x0 PUSH2 0x14FC JUMP JUMPDEST PUSH1 0x60 DUP4 ADD MSTORE DUP2 MLOAD PUSH1 0x10 SLOAD PUSH2 0x14AD SWAP2 SWAP1 PUSH1 0x1 PUSH1 0xB8 SHL SWAP1 DIV PUSH1 0xFF AND PUSH1 0x0 PUSH2 0x14FC JUMP JUMPDEST PUSH1 0x80 DUP4 ADD DUP2 SWAP1 MSTORE PUSH1 0x60 DUP4 ADD MLOAD PUSH1 0x20 DUP5 ADD MLOAD PUSH1 0x40 DUP6 ADD MLOAD DUP6 MLOAD PUSH2 0x14CF SWAP2 SWAP1 PUSH2 0x1B39 JUMP JUMPDEST PUSH2 0x14D9 SWAP2 SWAP1 PUSH2 0x1B39 JUMP JUMPDEST PUSH2 0x14E3 SWAP2 SWAP1 PUSH2 0x1B39 JUMP JUMPDEST PUSH2 0x14ED SWAP2 SWAP1 PUSH2 0x1B39 JUMP JUMPDEST PUSH1 0xA0 DUP4 ADD MSTORE JUMPDEST POP POP JUMP JUMPDEST POP POP POP JUMP JUMPDEST PUSH1 0x0 PUSH1 0x64 PUSH2 0x150B DUP4 PUSH1 0xA PUSH2 0x1A49 JUMP JUMPDEST PUSH2 0x1518 PUSH1 0xFF DUP7 AND DUP8 PUSH2 0x1B1A JUMP JUMPDEST PUSH2 0x1522 SWAP2 SWAP1 PUSH2 0x19E3 JUMP JUMPDEST PUSH2 0x152C SWAP2 SWAP1 PUSH2 0x19E3 JUMP JUMPDEST SWAP5 SWAP4 POP POP POP POP JUMP JUMPDEST PUSH1 0x40 MLOAD DUP1 PUSH1 0xC0 ADD PUSH1 0x40 MSTORE DUP1 PUSH1 0x0 DUP2 MSTORE PUSH1 0x20 ADD PUSH1 0x0 DUP2 MSTORE PUSH1 0x20 ADD PUSH1 0x0 DUP2 MSTORE PUSH1 0x20 ADD PUSH1 0x0 DUP2 MSTORE PUSH1 0x20 ADD PUSH1 0x0 DUP2 MSTORE PUSH1 0x20 ADD PUSH1 0x0 DUP2 MSTORE POP SWAP1 JUMP JUMPDEST PUSH1 0x0 PUSH1 0x20 DUP3 DUP5 SUB SLT ISZERO PUSH2 0x157B JUMPI DUP1 DUP2 REVERT JUMPDEST DUP2 CALLDATALOAD PUSH2 0x83C DUP2 PUSH2 0x1BA1 JUMP JUMPDEST PUSH1 0x0 DUP1 PUSH1 0x40 DUP4 DUP6 SUB SLT ISZERO PUSH2 0x1598 JUMPI DUP1 DUP2 REVERT JUMPDEST DUP3 CALLDATALOAD PUSH2 0x15A3 DUP2 PUSH2 0x1BA1 JUMP JUMPDEST SWAP2 POP PUSH1 0x20 DUP4 ADD CALLDATALOAD PUSH2 0x15B3 DUP2 PUSH2 0x1BA1 JUMP JUMPDEST DUP1 SWAP2 POP POP SWAP3 POP SWAP3 SWAP1 POP JUMP JUMPDEST PUSH1 0x0 DUP1 PUSH1 0x0 PUSH1 0x60 DUP5 DUP7 SUB SLT ISZERO PUSH2 0x15D2 JUMPI DUP1 DUP2 REVERT JUMPDEST DUP4 CALLDATALOAD PUSH2 0x15DD DUP2 PUSH2 0x1BA1 JUMP JUMPDEST SWAP3 POP PUSH1 0x20 DUP5 ADD CALLDATALOAD PUSH2 0x15ED DUP2 PUSH2 0x1BA1 JUMP JUMPDEST SWAP3 SWAP6 SWAP3 SWAP5 POP POP POP PUSH1 0x40 SWAP2 SWAP1 SWAP2 ADD CALLDATALOAD SWAP1 JUMP JUMPDEST PUSH1 0x0 DUP1 PUSH1 0x40 DUP4 DUP6 SUB SLT ISZERO PUSH2 0x1610 JUMPI DUP2 DUP3 REVERT JUMPDEST DUP3 CALLDATALOAD PUSH2 0x161B DUP2 PUSH2 0x1BA1 JUMP JUMPDEST SWAP2 POP PUSH1 0x20 DUP4 ADD CALLDATALOAD DUP1 ISZERO ISZERO DUP2 EQ PUSH2 0x15B3 JUMPI DUP2 DUP3 REVERT JUMPDEST PUSH1 0x0 DUP1 PUSH1 0x40 DUP4 DUP6 SUB SLT ISZERO PUSH2 0x1641 JUMPI DUP2 DUP3 REVERT JUMPDEST DUP3 CALLDATALOAD PUSH2 0x164C DUP2 PUSH2 0x1BA1 JUMP JUMPDEST SWAP5 PUSH1 0x20 SWAP4 SWAP1 SWAP4 ADD CALLDATALOAD SWAP4 POP POP POP JUMP JUMPDEST PUSH1 0x0 PUSH1 0x20 DUP3 DUP5 SUB SLT ISZERO PUSH2 0x166B JUMPI DUP1 DUP2 REVERT JUMPDEST POP CALLDATALOAD SWAP2 SWAP1 POP JUMP JUMPDEST PUSH1 0x0 PUSH1 0x20 DUP3 DUP5 SUB SLT ISZERO PUSH2 0x1683 JUMPI DUP1 DUP2 REVERT JUMPDEST DUP2 CALLDATALOAD PUSH1 0xFF DUP2 AND DUP2 EQ PUSH2 0x83C JUMPI DUP2 DUP3 REVERT JUMPDEST PUSH1 0x1 PUSH1 0x1 PUSH1 0xA0 SHL SUB SWAP2 SWAP1 SWAP2 AND DUP2 MSTORE PUSH1 0x20 ADD SWAP1 JUMP JUMPDEST SWAP1 ISZERO ISZERO DUP2 MSTORE PUSH1 0x20 ADD SWAP1 JUMP JUMPDEST PUSH1 0x0 PUSH1 0x20 DUP1 DUP4 MSTORE DUP4 MLOAD DUP1 DUP3 DUP6 ADD MSTORE DUP3 JUMPDEST DUP2 DUP2 LT ISZERO PUSH2 0x16DE JUMPI DUP6 DUP2 ADD DUP4 ADD MLOAD DUP6 DUP3 ADD PUSH1 0x40 ADD MSTORE DUP3 ADD PUSH2 0x16C2 JUMP JUMPDEST DUP2 DUP2 GT ISZERO PUSH2 0x16EF JUMPI DUP4 PUSH1 0x40 DUP4 DUP8 ADD ADD MSTORE JUMPDEST POP PUSH1 0x1F ADD PUSH1 0x1F NOT AND SWAP3 SWAP1 SWAP3 ADD PUSH1 0x40 ADD SWAP4 SWAP3 POP POP POP JUMP JUMPDEST PUSH1 0x20 DUP1 DUP3 MSTORE PUSH1 0x23 SWAP1 DUP3 ADD MSTORE PUSH32 0x45524332303A207472616E7366657220746F20746865207A65726F2061646472 PUSH1 0x40 DUP3 ADD MSTORE PUSH3 0x657373 PUSH1 0xE8 SHL PUSH1 0x60 DUP3 ADD MSTORE PUSH1 0x80 ADD SWAP1 JUMP JUMPDEST PUSH1 0x20 DUP1 DUP3 MSTORE PUSH1 0x26 SWAP1 DUP3 ADD MSTORE PUSH32 0x4F776E61626C653A206E6577206F776E657220697320746865207A65726F2061 PUSH1 0x40 DUP3 ADD MSTORE PUSH6 0x646472657373 PUSH1 0xD0 SHL PUSH1 0x60 DUP3 ADD MSTORE PUSH1 0x80 ADD SWAP1 JUMP JUMPDEST PUSH1 0x20 DUP1 DUP3 MSTORE PUSH1 0x22 SWAP1 DUP3 ADD MSTORE PUSH32 0x45524332303A20617070726F766520746F20746865207A65726F206164647265 PUSH1 0x40 DUP3 ADD MSTORE PUSH2 0x7373 PUSH1 0xF0 SHL PUSH1 0x60 DUP3 ADD MSTORE PUSH1 0x80 ADD SWAP1 JUMP JUMPDEST PUSH1 0x20 DUP1 DUP3 MSTORE PUSH1 0x1C SWAP1 DUP3 ADD MSTORE PUSH32 0x4163636F756E7420697320616C726561647920696E636C756465642E00000000 PUSH1 0x40 DUP3 ADD MSTORE PUSH1 0x60 ADD SWAP1 JUMP JUMPDEST PUSH1 0x20 DUP1 DUP3 MSTORE PUSH1 0x26 SWAP1 DUP3 ADD MSTORE PUSH32 0x45524332303A207472616E7366657220616D6F756E7420657863656564732062 PUSH1 0x40 DUP3 ADD MSTORE PUSH6 0x616C616E6365 PUSH1 0xD0 SHL PUSH1 0x60 DUP3 ADD MSTORE PUSH1 0x80 ADD SWAP1 JUMP JUMPDEST PUSH1 0x20 DUP1 DUP3 MSTORE PUSH1 0x1C SWAP1 DUP3 ADD MSTORE PUSH32 0x4163636F756E7420697320616C7265616479206578636C756465642E00000000 PUSH1 0x40 DUP3 ADD MSTORE PUSH1 0x60 ADD SWAP1 JUMP JUMPDEST PUSH1 0x20 DUP1 DUP3 MSTORE PUSH1 0x13 SWAP1 DUP3 ADD MSTORE PUSH19 0x426C61636B6C69737465642061646472657373 PUSH1 0x68 SHL PUSH1 0x40 DUP3 ADD MSTORE PUSH1 0x60 ADD SWAP1 JUMP JUMPDEST PUSH1 0x20 DUP1 DUP3 MSTORE DUP2 DUP2 ADD MSTORE PUSH32 0x4F776E61626C653A2063616C6C6572206973206E6F7420746865206F776E6572 PUSH1 0x40 DUP3 ADD MSTORE PUSH1 0x60 ADD SWAP1 JUMP JUMPDEST PUSH1 0x20 DUP1 DUP3 MSTORE PUSH1 0x25 SWAP1 DUP3 ADD MSTORE PUSH32 0x45524332303A207472616E736665722066726F6D20746865207A65726F206164 PUSH1 0x40 DUP3 ADD MSTORE PUSH5 0x6472657373 PUSH1 0xD8 SHL PUSH1 0x60 DUP3 ADD MSTORE PUSH1 0x80 ADD SWAP1 JUMP JUMPDEST PUSH1 0x20 DUP1 DUP3 MSTORE PUSH1 0x24 SWAP1 DUP3 ADD MSTORE PUSH32 0x45524332303A20617070726F76652066726F6D20746865207A65726F20616464 PUSH1 0x40 DUP3 ADD MSTORE PUSH4 0x72657373 PUSH1 0xE0 SHL PUSH1 0x60 DUP3 ADD MSTORE PUSH1 0x80 ADD SWAP1 JUMP JUMPDEST PUSH1 0x20 DUP1 DUP3 MSTORE PUSH1 0x25 SWAP1 DUP3 ADD MSTORE PUSH32 0x45524332303A2064656372656173656420616C6C6F77616E63652062656C6F77 PUSH1 0x40 DUP3 ADD MSTORE PUSH5 0x207A65726F PUSH1 0xD8 SHL PUSH1 0x60 DUP3 ADD MSTORE PUSH1 0x80 ADD SWAP1 JUMP JUMPDEST SWAP1 DUP2 MSTORE PUSH1 0x20 ADD SWAP1 JUMP JUMPDEST PUSH1 0xFF SWAP2 SWAP1 SWAP2 AND DUP2 MSTORE PUSH1 0x20 ADD SWAP1 JUMP JUMPDEST PUSH1 0x0 DUP3 NOT DUP3 GT ISZERO PUSH2 0x19DE JUMPI PUSH2 0x19DE PUSH2 0x1B8B JUMP JUMPDEST POP ADD SWAP1 JUMP JUMPDEST PUSH1 0x0 DUP3 PUSH2 0x19FE JUMPI PUSH4 0x4E487B71 PUSH1 0xE0 SHL DUP2 MSTORE PUSH1 0x12 PUSH1 0x4 MSTORE PUSH1 0x24 DUP2 REVERT JUMPDEST POP DIV SWAP1 JUMP JUMPDEST DUP1 DUP3 JUMPDEST PUSH1 0x1 DUP1 DUP7 GT PUSH2 0x1A15 JUMPI POP PUSH2 0x1A40 JUMP JUMPDEST DUP2 DUP8 DIV DUP3 GT ISZERO PUSH2 0x1A27 JUMPI PUSH2 0x1A27 PUSH2 0x1B8B JUMP JUMPDEST DUP1 DUP7 AND ISZERO PUSH2 0x1A34 JUMPI SWAP2 DUP2 MUL SWAP2 JUMPDEST SWAP5 SWAP1 SWAP5 SHR SWAP4 DUP1 MUL PUSH2 0x1A06 JUMP JUMPDEST SWAP5 POP SWAP5 SWAP3 POP POP POP JUMP JUMPDEST PUSH1 0x0 PUSH2 0x83C PUSH1 0x0 NOT PUSH1 0xFF DUP6 AND DUP5 PUSH1 0x0 DUP3 PUSH2 0x1A65 JUMPI POP PUSH1 0x1 PUSH2 0x83C JUMP JUMPDEST DUP2 PUSH2 0x1A72 JUMPI POP PUSH1 0x0 PUSH2 0x83C JUMP JUMPDEST DUP2 PUSH1 0x1 DUP2 EQ PUSH2 0x1A88 JUMPI PUSH1 0x2 DUP2 EQ PUSH2 0x1A92 JUMPI PUSH2 0x1ABF JUMP JUMPDEST PUSH1 0x1 SWAP2 POP POP PUSH2 0x83C JUMP JUMPDEST PUSH1 0xFF DUP5 GT ISZERO PUSH2 0x1AA3 JUMPI PUSH2 0x1AA3 PUSH2 0x1B8B JUMP JUMPDEST PUSH1 0x1 DUP5 SHL SWAP2 POP DUP5 DUP3 GT ISZERO PUSH2 0x1AB9 JUMPI PUSH2 0x1AB9 PUSH2 0x1B8B JUMP JUMPDEST POP PUSH2 0x83C JUMP JUMPDEST POP PUSH1 0x20 DUP4 LT PUSH2 0x133 DUP4 LT AND PUSH1 0x4E DUP5 LT PUSH1 0xB DUP5 LT AND OR ISZERO PUSH2 0x1AF2 JUMPI POP DUP2 DUP2 EXP DUP4 DUP2 GT ISZERO PUSH2 0x1AED JUMPI PUSH2 0x1AED PUSH2 0x1B8B JUMP JUMPDEST PUSH2 0x83C JUMP JUMPDEST PUSH2 0x1AFF DUP5 DUP5 DUP5 PUSH1 0x1 PUSH2 0x1A03 JUMP JUMPDEST DUP1 DUP7 DIV DUP3 GT ISZERO PUSH2 0x1B11 JUMPI PUSH2 0x1B11 PUSH2 0x1B8B JUMP JUMPDEST MUL SWAP5 SWAP4 POP POP POP POP JUMP JUMPDEST PUSH1 0x0 DUP2 PUSH1 0x0 NOT DIV DUP4 GT DUP3 ISZERO ISZERO AND ISZERO PUSH2 0x1B34 JUMPI PUSH2 0x1B34 PUSH2 0x1B8B JUMP JUMPDEST POP MUL SWAP1 JUMP JUMPDEST PUSH1 0x0 DUP3 DUP3 LT ISZERO PUSH2 0x1B4B JUMPI PUSH2 0x1B4B PUSH2 0x1B8B JUMP JUMPDEST POP SUB SWAP1 JUMP JUMPDEST PUSH1 0x2 DUP2 DIV PUSH1 0x1 DUP3 AND DUP1 PUSH2 0x1B64 JUMPI PUSH1 0x7F DUP3 AND SWAP2 POP JUMPDEST PUSH1 0x20 DUP3 LT DUP2 EQ ISZERO PUSH2 0x1B85 JUMPI PUSH4 0x4E487B71 PUSH1 0xE0 SHL PUSH1 0x0 MSTORE PUSH1 0x22 PUSH1 0x4 MSTORE PUSH1 0x24 PUSH1 0x0 REVERT JUMPDEST POP SWAP2 SWAP1 POP JUMP JUMPDEST PUSH4 0x4E487B71 PUSH1 0xE0 SHL PUSH1 0x0 MSTORE PUSH1 0x11 PUSH1 0x4 MSTORE PUSH1 0x24 PUSH1 0x0 REVERT JUMPDEST PUSH1 0x1 PUSH1 0x1 PUSH1 0xA0 SHL SUB DUP2 AND DUP2 EQ PUSH2 0xF90 JUMPI PUSH1 0x0 DUP1 REVERT INVALID LOG2 PUSH5 0x6970667358 0x22 SLT KECCAK256 NUMBER STATICCALL 0xD3 SWAP2 STOP 0xE7 SWAP12 PC PUSH14 0x6BB6799DDDA81EA37DAD0D163E1F LOG1 0xDD EQ CALLCODE MULMOD PUSH6 0x4FD0764736F PUSH13 0x634300080000338BE0079C5316 MSIZE EQ SGT DIFFICULTY 0xCD 0x1F 0xD0 LOG4 CALLCODE DUP5 NOT 0x49 PUSH32 0x9722A3DAAFE3B4186F6B6457E0DDF252AD1BE2C89B69C2B068FC378DAA952BA7 CALL PUSH4 0xC4A11628 CREATE2 GAS 0x4D CREATE2 0x23 0xB3 0xEF "
        },
        "methodIdentifiers": {
          "_isBlacklisted(address)": "1cdd3be3",
          "allowance(address,address)": "dd62ed3e",
          "approve(address,uint256)": "095ea7b3",
          "balanceOf(address)": "70a08231",
          "blacklistMalicious(address,bool)": "d8929342",
          "decimals()": "313ce567",
          "decreaseAllowance(address,uint256)": "a457c2d7",
          "excludeAccountFromFee(address)": "d6b4212b",
          "includeAccountInFee(address)": "daa93341",
          "increaseAllowance(address,uint256)": "39509351",
          "isExcludedFromFee(address)": "5342acb4",
          "liquidityPoolFee()": "54f12f1f",
          "lockInTeamWallet(address)": "15d957d3",
          "minTransfer()": "a4f35b65",
          "name()": "06fdde03",
          "owner()": "8da5cb5b",
          "renounceOwnership()": "715018a6",
          "rewardsFee()": "2bb14e1d",
          "symbol()": "95d89b41",
          "teamFee()": "d7c94efd",
          "totalSupply()": "18160ddd",
          "transfer(address,uint256)": "a9059cbb",
          "transferFrom(address,address,uint256)": "23b872dd",
          "transferOwnership(address)": "f2fde38b",
          "treasuryFee()": "cc32d176",
          "updateLiquidityFee(uint8)": "1519f1f0",
          "updateLiquidityPool(address)": "dd3cdf6c",
          "updateRewardsFee(uint8)": "addacb9e",
          "updateRewardsPool(address)": "6653a340",
          "updateTeamPoolAlloc(uint256)": "8f859c55",
          "updateTreasuryFee(uint8)": "2deef284",
          "updateTreasuryPool(address)": "b14a1e8e",
          "updateteamFee(uint8)": "904d8f68",
          "updateteamPool(address)": "c76cf14a"
        }
      }
    }
  }
}