{
  "contracts/PeachToken.sol": {
    "PeachToken": {
      "abi": [
        {
          "inputs": [
            {
              "internalType": "address payable",
              "name": "_liquidityPool",
              "type": "address"
            },
            {
              "internalType": "address payable",
              "name": "_rewardsPool",
              "type": "address"
            },
            {
              "internalType": "address payable",
              "name": "_treasuryPool",
              "type": "address"
            },
            {
              "internalType": "address payable",
              "name": "_teamPool",
              "type": "address"
            }
          ],
          "stateMutability": "nonpayable",
          "type": "constructor"
        },
        {
          "anonymous": false,
          "inputs": [
            {
              "indexed": true,
              "internalType": "address",
              "name": "owner",
              "type": "address"
            },
            {
              "indexed": true,
              "internalType": "address",
              "name": "spender",
              "type": "address"
            },
            {
              "indexed": false,
              "internalType": "uint256",
              "name": "value",
              "type": "uint256"
            }
          ],
          "name": "Approval",
          "type": "event"
        },
        {
          "anonymous": false,
          "inputs": [
            {
              "indexed": false,
              "internalType": "address",
              "name": "account",
              "type": "address"
            }
          ],
          "name": "ExcludeAccountFromFee",
          "type": "event"
        },
        {
          "anonymous": false,
          "inputs": [
            {
              "indexed": false,
              "internalType": "address",
              "name": "account",
              "type": "address"
            }
          ],
          "name": "IncludeAccountInFee",
          "type": "event"
        },
        {
          "anonymous": false,
          "inputs": [
            {
              "indexed": true,
              "internalType": "address",
              "name": "previousOwner",
              "type": "address"
            },
            {
              "indexed": true,
              "internalType": "address",
              "name": "newOwner",
              "type": "address"
            }
          ],
          "name": "OwnershipTransferred",
          "type": "event"
        },
        {
          "anonymous": false,
          "inputs": [
            {
              "indexed": true,
              "internalType": "address",
              "name": "from",
              "type": "address"
            },
            {
              "indexed": true,
              "internalType": "address",
              "name": "to",
              "type": "address"
            },
            {
              "indexed": false,
              "internalType": "uint256",
              "name": "value",
              "type": "uint256"
            }
          ],
          "name": "Transfer",
          "type": "event"
        },
        {
          "inputs": [
            {
              "internalType": "address",
              "name": "",
              "type": "address"
            }
          ],
          "name": "_isBlacklisted",
          "outputs": [
            {
              "internalType": "bool",
              "name": "",
              "type": "bool"
            }
          ],
          "stateMutability": "view",
          "type": "function"
        },
        {
          "inputs": [
            {
              "internalType": "address",
              "name": "owner",
              "type": "address"
            },
            {
              "internalType": "address",
              "name": "spender",
              "type": "address"
            }
          ],
          "name": "allowance",
          "outputs": [
            {
              "internalType": "uint256",
              "name": "",
              "type": "uint256"
            }
          ],
          "stateMutability": "view",
          "type": "function"
        },
        {
          "inputs": [
            {
              "internalType": "address",
              "name": "spender",
              "type": "address"
            },
            {
              "internalType": "uint256",
              "name": "amount",
              "type": "uint256"
            }
          ],
          "name": "approve",
          "outputs": [
            {
              "internalType": "bool",
              "name": "",
              "type": "bool"
            }
          ],
          "stateMutability": "nonpayable",
          "type": "function"
        },
        {
          "inputs": [
            {
              "internalType": "address",
              "name": "account",
              "type": "address"
            }
          ],
          "name": "balanceOf",
          "outputs": [
            {
              "internalType": "uint256",
              "name": "",
              "type": "uint256"
            }
          ],
          "stateMutability": "view",
          "type": "function"
        },
        {
          "inputs": [
            {
              "internalType": "address",
              "name": "account",
              "type": "address"
            },
            {
              "internalType": "bool",
              "name": "value",
              "type": "bool"
            }
          ],
          "name": "blacklistMalicious",
          "outputs": [],
          "stateMutability": "nonpayable",
          "type": "function"
        },
        {
          "inputs": [],
          "name": "decimals",
          "outputs": [
            {
              "internalType": "uint8",
              "name": "",
              "type": "uint8"
            }
          ],
          "stateMutability": "view",
          "type": "function"
        },
        {
          "inputs": [
            {
              "internalType": "address",
              "name": "spender",
              "type": "address"
            },
            {
              "internalType": "uint256",
              "name": "subtractedValue",
              "type": "uint256"
            }
          ],
          "name": "decreaseAllowance",
          "outputs": [
            {
              "internalType": "bool",
              "name": "",
              "type": "bool"
            }
          ],
          "stateMutability": "nonpayable",
          "type": "function"
        },
        {
          "inputs": [
            {
              "internalType": "address",
              "name": "account",
              "type": "address"
            }
          ],
          "name": "excludeAccountFromFee",
          "outputs": [],
          "stateMutability": "nonpayable",
          "type": "function"
        },
        {
          "inputs": [
            {
              "internalType": "address",
              "name": "account",
              "type": "address"
            }
          ],
          "name": "includeAccountInFee",
          "outputs": [],
          "stateMutability": "nonpayable",
          "type": "function"
        },
        {
          "inputs": [
            {
              "internalType": "address",
              "name": "spender",
              "type": "address"
            },
            {
              "internalType": "uint256",
              "name": "addedValue",
              "type": "uint256"
            }
          ],
          "name": "increaseAllowance",
          "outputs": [
            {
              "internalType": "bool",
              "name": "",
              "type": "bool"
            }
          ],
          "stateMutability": "nonpayable",
          "type": "function"
        },
        {
          "inputs": [
            {
              "internalType": "address",
              "name": "account",
              "type": "address"
            }
          ],
          "name": "isExcludedFromFee",
          "outputs": [
            {
              "internalType": "bool",
              "name": "",
              "type": "bool"
            }
          ],
          "stateMutability": "view",
          "type": "function"
        },
        {
          "inputs": [],
          "name": "liquidityPoolFee",
          "outputs": [
            {
              "internalType": "uint8",
              "name": "",
              "type": "uint8"
            }
          ],
          "stateMutability": "view",
          "type": "function"
        },
        {
          "inputs": [
            {
              "internalType": "address payable",
              "name": "recipient",
              "type": "address"
            }
          ],
          "name": "lockInTeamWallet",
          "outputs": [],
          "stateMutability": "nonpayable",
          "type": "function"
        },
        {
          "inputs": [],
          "name": "name",
          "outputs": [
            {
              "internalType": "string",
              "name": "",
              "type": "string"
            }
          ],
          "stateMutability": "view",
          "type": "function"
        },
        {
          "inputs": [],
          "name": "owner",
          "outputs": [
            {
              "internalType": "address",
              "name": "",
              "type": "address"
            }
          ],
          "stateMutability": "view",
          "type": "function"
        },
        {
          "inputs": [],
          "name": "renounceOwnership",
          "outputs": [],
          "stateMutability": "nonpayable",
          "type": "function"
        },
        {
          "inputs": [],
          "name": "rewardsFee",
          "outputs": [
            {
              "internalType": "uint8",
              "name": "",
              "type": "uint8"
            }
          ],
          "stateMutability": "view",
          "type": "function"
        },
        {
          "inputs": [],
          "name": "symbol",
          "outputs": [
            {
              "internalType": "string",
              "name": "",
              "type": "string"
            }
          ],
          "stateMutability": "view",
          "type": "function"
        },
        {
          "inputs": [],
          "name": "teamFee",
          "outputs": [
            {
              "internalType": "uint8",
              "name": "",
              "type": "uint8"
            }
          ],
          "stateMutability": "view",
          "type": "function"
        },
        {
          "inputs": [],
          "name": "totalSupply",
          "outputs": [
            {
              "internalType": "uint256",
              "name": "",
              "type": "uint256"
            }
          ],
          "stateMutability": "view",
          "type": "function"
        },
        {
          "inputs": [
            {
              "internalType": "address",
              "name": "recipient",
              "type": "address"
            },
            {
              "internalType": "uint256",
              "name": "amount",
              "type": "uint256"
            }
          ],
          "name": "transfer",
          "outputs": [
            {
              "internalType": "bool",
              "name": "",
              "type": "bool"
            }
          ],
          "stateMutability": "nonpayable",
          "type": "function"
        },
        {
          "inputs": [
            {
              "internalType": "address",
              "name": "sender",
              "type": "address"
            },
            {
              "internalType": "address",
              "name": "recipient",
              "type": "address"
            },
            {
              "internalType": "uint256",
              "name": "amount",
              "type": "uint256"
            }
          ],
          "name": "transferFrom",
          "outputs": [
            {
              "internalType": "bool",
              "name": "",
              "type": "bool"
            }
          ],
          "stateMutability": "nonpayable",
          "type": "function"
        },
        {
          "inputs": [
            {
              "internalType": "address",
              "name": "newOwner",
              "type": "address"
            }
          ],
          "name": "transferOwnership",
          "outputs": [],
          "stateMutability": "nonpayable",
          "type": "function"
        },
        {
          "inputs": [],
          "name": "treasuryFee",
          "outputs": [
            {
              "internalType": "uint8",
              "name": "",
              "type": "uint8"
            }
          ],
          "stateMutability": "view",
          "type": "function"
        },
        {
          "inputs": [
            {
              "internalType": "uint8",
              "name": "value",
              "type": "uint8"
            }
          ],
          "name": "updateLiquidityFee",
          "outputs": [],
          "stateMutability": "nonpayable",
          "type": "function"
        },
        {
          "inputs": [
            {
              "internalType": "address payable",
              "name": "pool",
              "type": "address"
            }
          ],
          "name": "updateLiquidityPool",
          "outputs": [],
          "stateMutability": "nonpayable",
          "type": "function"
        },
        {
          "inputs": [
            {
              "internalType": "uint8",
              "name": "value",
              "type": "uint8"
            }
          ],
          "name": "updateRewardsFee",
          "outputs": [],
          "stateMutability": "nonpayable",
          "type": "function"
        },
        {
          "inputs": [
            {
              "internalType": "address payable",
              "name": "pool",
              "type": "address"
            }
          ],
          "name": "updateRewardsPool",
          "outputs": [],
          "stateMutability": "nonpayable",
          "type": "function"
        },
        {
          "inputs": [
            {
              "internalType": "uint256",
              "name": "val",
              "type": "uint256"
            }
          ],
          "name": "updateTeamPoolAlloc",
          "outputs": [],
          "stateMutability": "nonpayable",
          "type": "function"
        },
        {
          "inputs": [
            {
              "internalType": "uint8",
              "name": "value",
              "type": "uint8"
            }
          ],
          "name": "updateTreasuryFee",
          "outputs": [],
          "stateMutability": "nonpayable",
          "type": "function"
        },
        {
          "inputs": [
            {
              "internalType": "address payable",
              "name": "pool",
              "type": "address"
            }
          ],
          "name": "updateTreasuryPool",
          "outputs": [],
          "stateMutability": "nonpayable",
          "type": "function"
        },
        {
          "inputs": [
            {
              "internalType": "uint8",
              "name": "value",
              "type": "uint8"
            }
          ],
          "name": "updateteamFee",
          "outputs": [],
          "stateMutability": "nonpayable",
          "type": "function"
        },
        {
          "inputs": [
            {
              "internalType": "address payable",
              "name": "pool",
              "type": "address"
            }
          ],
          "name": "updateteamPool",
          "outputs": [],
          "stateMutability": "nonpayable",
          "type": "function"
        },
        {
          "stateMutability": "payable",
          "type": "receive"
        }
      ],
      "evm": {
        "bytecode": {
          "linkReferences": {},
          "object": "6080604052621e84806008556009805460ff1916601217908190556200002a9060ff16600a62000691565b60085462000039919062000789565b600a908155620186a0600b55600954620000599160ff9091169062000691565b600b5462000068919062000789565b600c556010805460ff60a01b1916600160a21b1760ff60a81b1916600360aa1b1760ff60b01b1916600f60b11b1760ff60b81b1916600160ba1b179055348015620000b257600080fd5b50604051620022e9380380620022e9833981016040819052620000d59162000502565b604080518082018252600a8152695045414348204e4f444560b01b6020808301918252835180850190945260058452640a08a8286960db1b90840152815191929162000124916003916200043f565b5080516200013a9060049060208401906200043f565b50505062000157620001516200030960201b60201c565b6200030d565b6001600655600d80546001600160a01b03199081166001600160a01b038781169190911792839055600e80548316878316179055600f8054831686831617905560108054909216848216179091551615801590620001bf5750600e546001600160a01b031615155b8015620001d65750600f546001600160a01b031615155b8015620001ed57506010546001600160a01b031615155b620002155760405162461bcd60e51b81526004016200020c9062000572565b60405180910390fd5b600a54600760006200022662000309565b6001600160a01b031681526020810191909152604001600020556200024b336200034e565b62000256306200034e565b6010546200026d906001600160a01b03166200034e565b6200027762000309565b6001600160a01b031660006001600160a01b03167fddf252ad1be2c89b69c2b068fc378daa952ba7f163c4a11628f55a4df523b3ef600a54604051620002be91906200063b565b60405180910390a3620002d062000309565b6001600160a01b031660006001600160a01b0316600080516020620022c983398151915260405160405180910390a350505050620007fe565b3390565b600580546001600160a01b038381166001600160a01b031983168117909355604051911691908290600080516020620022c983398151915290600090a35050565b6200035862000309565b6001600160a01b03166200036b62000430565b6001600160a01b031614620003945760405162461bcd60e51b81526004016200020c9062000606565b6001600160a01b03811660009081526012602052604090205460ff1615620003d05760405162461bcd60e51b81526004016200020c90620005cf565b6001600160a01b03811660009081526012602052604090819020805460ff19166001179055517f7e35d6b74d35c333860340884eeca4e63b18cb9d73ce17a147a1952654365b5e90620004259083906200055e565b60405180910390a150565b6005546001600160a01b031690565b8280546200044d90620007ab565b90600052602060002090601f016020900481019282620004715760008555620004bc565b82601f106200048c57805160ff1916838001178555620004bc565b82800160010185558215620004bc579182015b82811115620004bc5782518255916020019190600101906200049f565b50620004ca929150620004ce565b5090565b5b80821115620004ca5760008155600101620004cf565b80516001600160a01b0381168114620004fd57600080fd5b919050565b6000806000806080858703121562000518578384fd5b6200052385620004e5565b93506200053360208601620004e5565b92506200054360408601620004e5565b91506200055360608601620004e5565b905092959194509250565b6001600160a01b0391909116815260200190565b6020808252603b908201527f4c49515549444954592f524557415244532f54524541535552592f5445414d2060408201527f504f4f4c20414444524553532043414e4e4f54204245205a45524f0000000000606082015260800190565b6020808252601c908201527f4163636f756e7420697320616c7265616479206578636c756465642e00000000604082015260600190565b6020808252818101527f4f776e61626c653a2063616c6c6572206973206e6f7420746865206f776e6572604082015260600190565b90815260200190565b80825b600180861162000658575062000688565b8187048211156200066d576200066d620007e8565b808616156200067b57918102915b9490941c93800262000647565b94509492505050565b6000620006a560001960ff851684620006ac565b9392505050565b600082620006bd57506001620006a5565b81620006cc57506000620006a5565b8160018114620006e55760028114620006f05762000724565b6001915050620006a5565b60ff841115620007045762000704620007e8565b6001841b9150848211156200071d576200071d620007e8565b50620006a5565b5060208310610133831016604e8410600b84101617156200075c575081810a83811115620007565762000756620007e8565b620006a5565b6200076b848484600162000644565b808604821115620007805762000780620007e8565b02949350505050565b6000816000190483118215151615620007a657620007a6620007e8565b500290565b600281046001821680620007c057607f821691505b60208210811415620007e257634e487b7160e01b600052602260045260246000fd5b50919050565b634e487b7160e01b600052601160045260246000fd5b611abb806200080e6000396000f3fe6080604052600436106101f25760003560e01c80638da5cb5b1161010d578063c76cf14a116100a0578063d89293421161006f578063d89293421461055c578063daa933411461057c578063dd3cdf6c1461059c578063dd62ed3e146105bc578063f2fde38b146105dc576101f9565b8063c76cf14a146104f2578063cc32d17614610512578063d6b4212b14610527578063d7c94efd14610547576101f9565b8063a457c2d7116100dc578063a457c2d714610472578063a9059cbb14610492578063addacb9e146104b2578063b14a1e8e146104d2576101f9565b80638da5cb5b146103fb5780638f859c551461041d578063904d8f681461043d57806395d89b411461045d576101f9565b80632deef2841161018557806354f12f1f1161015457806354f12f1f146103915780636653a340146103a657806370a08231146103c6578063715018a6146103e6576101f9565b80632deef2841461031c578063313ce5671461033c57806339509351146103515780635342acb414610371576101f9565b806318160ddd116101c157806318160ddd146102985780631cdd3be3146102ba57806323b872dd146102da5780632bb14e1d146102fa576101f9565b806306fdde03146101fe578063095ea7b3146102295780631519f1f01461025657806315d957d314610278576101f9565b366101f957005b600080fd5b34801561020a57600080fd5b506102136105fc565b60405161022091906115c7565b60405180910390f35b34801561023557600080fd5b50610249610244366004611544565b61068e565b60405161022091906115bc565b34801561026257600080fd5b50610276610271366004611587565b6106b0565b005b34801561028457600080fd5b5061027661029336600461147f565b610718565b3480156102a457600080fd5b506102ad6107f4565b6040516102209190611883565b3480156102c657600080fd5b506102496102d536600461147f565b6107fa565b3480156102e657600080fd5b506102496102f53660046114d3565b61080f565b34801561030657600080fd5b5061030f610823565b604051610220919061188c565b34801561032857600080fd5b50610276610337366004611587565b610833565b34801561034857600080fd5b5061030f610892565b34801561035d57600080fd5b5061024961036c366004611544565b610897565b34801561037d57600080fd5b5061024961038c36600461147f565b6108e3565b34801561039d57600080fd5b5061030f610901565b3480156103b257600080fd5b506102766103c136600461147f565b610911565b3480156103d257600080fd5b506102ad6103e136600461147f565b610972565b3480156103f257600080fd5b5061027661098d565b34801561040757600080fd5b506104106109d8565b60405161022091906115a8565b34801561042957600080fd5b5061027661043836600461156f565b6109e7565b34801561044957600080fd5b50610276610458366004611587565b610a2b565b34801561046957600080fd5b50610213610a8a565b34801561047e57600080fd5b5061024961048d366004611544565b610a99565b34801561049e57600080fd5b506102496104ad366004611544565b610b05565b3480156104be57600080fd5b506102766104cd366004611587565b610b22565b3480156104de57600080fd5b506102766104ed36600461147f565b610b81565b3480156104fe57600080fd5b5061027661050d36600461147f565b610be2565b34801561051e57600080fd5b5061030f610c43565b34801561053357600080fd5b5061027661054236600461147f565b610c53565b34801561055357600080fd5b5061030f610d29565b34801561056857600080fd5b50610276610577366004611513565b610d39565b34801561058857600080fd5b5061027661059736600461147f565b610da3565b3480156105a857600080fd5b506102766105b736600461147f565b610e6a565b3480156105c857600080fd5b506102ad6105d736600461149b565b610ecb565b3480156105e857600080fd5b506102766105f736600461147f565b610ef6565b60606003805461060b90611a1f565b80601f016020809104026020016040519081016040528092919081815260200182805461063790611a1f565b80156106845780601f1061065957610100808354040283529160200191610684565b820191906000526020600020905b81548152906001019060200180831161066757829003601f168201915b5050505050905090565b600080610699610f67565b90506106a6818585610f6b565b5060019392505050565b6106b8610f67565b6001600160a01b03166106c96109d8565b6001600160a01b0316146106f85760405162461bcd60e51b81526004016106ef90611780565b60405180910390fd5b6010805460ff909216600160a01b0260ff60a01b19909216919091179055565b610720610f67565b6001600160a01b03166107316109d8565b6001600160a01b0316146107575760405162461bcd60e51b81526004016106ef90611780565b6001600160a01b03811661077d5760405162461bcd60e51b81526004016106ef9061161a565b601080546001600160a01b0319166001600160a01b038316179055600c5433600090815260076020526040812080549091906107ba908490611a08565b9091555050600c546010546001600160a01b0316600090815260076020526040812080549091906107ec90849061189a565b909155505050565b600a5490565b60116020526000908152604090205460ff1681565b60006106a684848461101f565b9392505050565b601054600160a81b900460ff1681565b61083b610f67565b6001600160a01b031661084c6109d8565b6001600160a01b0316146108725760405162461bcd60e51b81526004016106ef90611780565b6010805460ff909216600160b01b0260ff60b01b19909216919091179055565b601290565b6000806108a2610f67565b6001600160a01b038082166000908152600160209081526040808320938916835292905220549091506106a690829086906108de90879061189a565b610f6b565b6001600160a01b031660009081526012602052604090205460ff1690565b601054600160a01b900460ff1681565b610919610f67565b6001600160a01b031661092a6109d8565b6001600160a01b0316146109505760405162461bcd60e51b81526004016106ef90611780565b600e80546001600160a01b0319166001600160a01b0392909216919091179055565b6001600160a01b031660009081526007602052604090205490565b610995610f67565b6001600160a01b03166109a66109d8565b6001600160a01b0316146109cc5760405162461bcd60e51b81526004016106ef90611780565b6109d660006112d0565b565b6005546001600160a01b031690565b6109ef610f67565b6001600160a01b0316610a006109d8565b6001600160a01b031614610a265760405162461bcd60e51b81526004016106ef90611780565b600b55565b610a33610f67565b6001600160a01b0316610a446109d8565b6001600160a01b031614610a6a5760405162461bcd60e51b81526004016106ef90611780565b6010805460ff909216600160b81b0260ff60b81b19909216919091179055565b60606004805461060b90611a1f565b600080610aa4610f67565b6001600160a01b0380821660009081526001602090815260408083209389168352929052205490915083811015610aed5760405162461bcd60e51b81526004016106ef9061183e565b610afa8286868403610f6b565b506001949350505050565b6000610b19610b12610f67565b848461101f565b50600192915050565b610b2a610f67565b6001600160a01b0316610b3b6109d8565b6001600160a01b031614610b615760405162461bcd60e51b81526004016106ef90611780565b6010805460ff909216600160a81b0260ff60a81b19909216919091179055565b610b89610f67565b6001600160a01b0316610b9a6109d8565b6001600160a01b031614610bc05760405162461bcd60e51b81526004016106ef90611780565b600f80546001600160a01b0319166001600160a01b0392909216919091179055565b610bea610f67565b6001600160a01b0316610bfb6109d8565b6001600160a01b031614610c215760405162461bcd60e51b81526004016106ef90611780565b601080546001600160a01b0319166001600160a01b0392909216919091179055565b601054600160b01b900460ff1681565b610c5b610f67565b6001600160a01b0316610c6c6109d8565b6001600160a01b031614610c925760405162461bcd60e51b81526004016106ef90611780565b6001600160a01b03811660009081526012602052604090205460ff1615610ccb5760405162461bcd60e51b81526004016106ef9061171c565b6001600160a01b03811660009081526012602052604090819020805460ff19166001179055517f7e35d6b74d35c333860340884eeca4e63b18cb9d73ce17a147a1952654365b5e90610d1e9083906115a8565b60405180910390a150565b601054600160b81b900460ff1681565b610d41610f67565b6001600160a01b0316610d526109d8565b6001600160a01b031614610d785760405162461bcd60e51b81526004016106ef90611780565b6001600160a01b03919091166000908152601160205260409020805460ff1916911515919091179055565b610dab610f67565b6001600160a01b0316610dbc6109d8565b6001600160a01b031614610de25760405162461bcd60e51b81526004016106ef90611780565b6001600160a01b03811660009081526012602052604090205460ff16610e1a5760405162461bcd60e51b81526004016106ef906116e5565b6001600160a01b03811660009081526012602052604090819020805460ff19169055517fc782889d4eb26c6effaa6305a7075c22c2a6e2919ddf49a4a851fecf59cfc75f90610d1e9083906115a8565b610e72610f67565b6001600160a01b0316610e836109d8565b6001600160a01b031614610ea95760405162461bcd60e51b81526004016106ef90611780565b600d80546001600160a01b0319166001600160a01b0392909216919091179055565b6001600160a01b03918216600090815260016020908152604080832093909416825291909152205490565b610efe610f67565b6001600160a01b0316610f0f6109d8565b6001600160a01b031614610f355760405162461bcd60e51b81526004016106ef90611780565b6001600160a01b038116610f5b5760405162461bcd60e51b81526004016106ef9061165d565b610f64816112d0565b50565b3390565b6001600160a01b038316610f915760405162461bcd60e51b81526004016106ef906117fa565b6001600160a01b038216610fb75760405162461bcd60e51b81526004016106ef906116a3565b6001600160a01b0380841660008181526001602090815260408083209487168084529490915290819020849055517f8c5be1e5ebec7d5bd14f71427d1e84f3dd0314c0f7b2291e5b200ac8c7c3b92590611012908590611883565b60405180910390a3505050565b6001600160a01b0383166110455760405162461bcd60e51b81526004016106ef906117b5565b6001600160a01b03821661106b5760405162461bcd60e51b81526004016106ef9061161a565b6001600160a01b03831660009081526011602052604090205460ff161580156110ad57506001600160a01b03821660009081526011602052604090205460ff16155b6110c95760405162461bcd60e51b81526004016106ef90611753565b6001600160a01b038316600090815260126020526040812054600191906110f490849060ff16611322565b6001600160a01b03861660009081526012602052604090205490915060ff168061113657506001600160a01b03841660009081526012602052604090205460ff165b1561114057600091505b828215611221575060a08101516060820151600f546001600160a01b03166000908152600760205260408120805490919061117c90849061189a565b9091555050604080830151600e546001600160a01b0316600090815260076020529182208054919290916111b190849061189a565b909155505060808201516010546001600160a01b0316600090815260076020526040812080549091906111e590849061189a565b9091555050602080830151600d546001600160a01b0316600090815260079092526040822080549192909161121b90849061189a565b90915550505b6001600160a01b03861660009081526007602052604081208054869290611249908490611a08565b90915550506001600160a01b0385166000908152600760205260408120805483929061127690849061189a565b92505081905550846001600160a01b0316866001600160a01b03167fddf252ad1be2c89b69c2b068fc378daa952ba7f163c4a11628f55a4df523b3ef836040516112c09190611883565b60405180910390a3505050505050565b600580546001600160a01b038381166001600160a01b0319831681179093556040519116919082907f8be0079c531659141344cd1fd0a4f28419497f9722a3daafe3b4186f6b6457e090600090a35050565b61132a611449565b611332611449565b83815261081c8184801561134c57815160a083015261140d565b81516010546113679190600160a81b900460ff166000611411565b604083015281516010546113879190600160a01b900460ff166000611411565b602083015281516010546113a79190600160b01b900460ff166000611411565b606083015281516010546113c79190600160b81b900460ff166000611411565b6080830181905260608301516020840151604085015185516113e99190611a08565b6113f39190611a08565b6113fd9190611a08565b6114079190611a08565b60a08301525b5050565b6000606461142083600a611918565b61142d60ff8616876119e9565b61143791906118b2565b61144191906118b2565b949350505050565b6040518060c001604052806000815260200160008152602001600081526020016000815260200160008152602001600081525090565b600060208284031215611490578081fd5b813561081c81611a70565b600080604083850312156114ad578081fd5b82356114b881611a70565b915060208301356114c881611a70565b809150509250929050565b6000806000606084860312156114e7578081fd5b83356114f281611a70565b9250602084013561150281611a70565b929592945050506040919091013590565b60008060408385031215611525578182fd5b823561153081611a70565b9150602083013580151581146114c8578182fd5b60008060408385031215611556578182fd5b823561156181611a70565b946020939093013593505050565b600060208284031215611580578081fd5b5035919050565b600060208284031215611598578081fd5b813560ff8116811461081c578182fd5b6001600160a01b0391909116815260200190565b901515815260200190565b6000602080835283518082850152825b818110156115f3578581018301518582016040015282016115d7565b818111156116045783604083870101525b50601f01601f1916929092016040019392505050565b60208082526023908201527f45524332303a207472616e7366657220746f20746865207a65726f206164647260408201526265737360e81b606082015260800190565b60208082526026908201527f4f776e61626c653a206e6577206f776e657220697320746865207a65726f206160408201526564647265737360d01b606082015260800190565b60208082526022908201527f45524332303a20617070726f766520746f20746865207a65726f206164647265604082015261737360f01b606082015260800190565b6020808252601c908201527f4163636f756e7420697320616c726561647920696e636c756465642e00000000604082015260600190565b6020808252601c908201527f4163636f756e7420697320616c7265616479206578636c756465642e00000000604082015260600190565b602080825260139082015272426c61636b6c6973746564206164647265737360681b604082015260600190565b6020808252818101527f4f776e61626c653a2063616c6c6572206973206e6f7420746865206f776e6572604082015260600190565b60208082526025908201527f45524332303a207472616e736665722066726f6d20746865207a65726f206164604082015264647265737360d81b606082015260800190565b60208082526024908201527f45524332303a20617070726f76652066726f6d20746865207a65726f206164646040820152637265737360e01b606082015260800190565b60208082526025908201527f45524332303a2064656372656173656420616c6c6f77616e63652062656c6f77604082015264207a65726f60d81b606082015260800190565b90815260200190565b60ff91909116815260200190565b600082198211156118ad576118ad611a5a565b500190565b6000826118cd57634e487b7160e01b81526012600452602481fd5b500490565b80825b60018086116118e4575061190f565b8187048211156118f6576118f6611a5a565b8086161561190357918102915b9490941c9380026118d5565b94509492505050565b600061081c60001960ff8516846000826119345750600161081c565b816119415750600061081c565b816001811461195757600281146119615761198e565b600191505061081c565b60ff84111561197257611972611a5a565b6001841b91508482111561198857611988611a5a565b5061081c565b5060208310610133831016604e8410600b84101617156119c1575081810a838111156119bc576119bc611a5a565b61081c565b6119ce84848460016118d2565b8086048211156119e0576119e0611a5a565b02949350505050565b6000816000190483118215151615611a0357611a03611a5a565b500290565b600082821015611a1a57611a1a611a5a565b500390565b600281046001821680611a3357607f821691505b60208210811415611a5457634e487b7160e01b600052602260045260246000fd5b50919050565b634e487b7160e01b600052601160045260246000fd5b6001600160a01b0381168114610f6457600080fdfea2646970667358221220a6df3e76adfe8b5b7f69c8d8d8720b9842094068d0f6ec8a0d0c31f20866b2cb64736f6c634300080000338be0079c531659141344cd1fd0a4f28419497f9722a3daafe3b4186f6b6457e0",
          "opcodes": "PUSH1 0x80 PUSH1 0x40 MSTORE PUSH3 0x1E8480 PUSH1 0x8 SSTORE PUSH1 0x9 DUP1 SLOAD PUSH1 0xFF NOT AND PUSH1 0x12 OR SWAP1 DUP2 SWAP1 SSTORE PUSH3 0x2A SWAP1 PUSH1 0xFF AND PUSH1 0xA PUSH3 0x691 JUMP JUMPDEST PUSH1 0x8 SLOAD PUSH3 0x39 SWAP2 SWAP1 PUSH3 0x789 JUMP JUMPDEST PUSH1 0xA SWAP1 DUP2 SSTORE PUSH3 0x186A0 PUSH1 0xB SSTORE PUSH1 0x9 SLOAD PUSH3 0x59 SWAP2 PUSH1 0xFF SWAP1 SWAP2 AND SWAP1 PUSH3 0x691 JUMP JUMPDEST PUSH1 0xB SLOAD PUSH3 0x68 SWAP2 SWAP1 PUSH3 0x789 JUMP JUMPDEST PUSH1 0xC SSTORE PUSH1 0x10 DUP1 SLOAD PUSH1 0xFF PUSH1 0xA0 SHL NOT AND PUSH1 0x1 PUSH1 0xA2 SHL OR PUSH1 0xFF PUSH1 0xA8 SHL NOT AND PUSH1 0x3 PUSH1 0xAA SHL OR PUSH1 0xFF PUSH1 0xB0 SHL NOT AND PUSH1 0xF PUSH1 0xB1 SHL OR PUSH1 0xFF PUSH1 0xB8 SHL NOT AND PUSH1 0x1 PUSH1 0xBA SHL OR SWAP1 SSTORE CALLVALUE DUP1 ISZERO PUSH3 0xB2 JUMPI PUSH1 0x0 DUP1 REVERT JUMPDEST POP PUSH1 0x40 MLOAD PUSH3 0x22E9 CODESIZE SUB DUP1 PUSH3 0x22E9 DUP4 CODECOPY DUP2 ADD PUSH1 0x40 DUP2 SWAP1 MSTORE PUSH3 0xD5 SWAP2 PUSH3 0x502 JUMP JUMPDEST PUSH1 0x40 DUP1 MLOAD DUP1 DUP3 ADD DUP3 MSTORE PUSH1 0xA DUP2 MSTORE PUSH10 0x5045414348204E4F4445 PUSH1 0xB0 SHL PUSH1 0x20 DUP1 DUP4 ADD SWAP2 DUP3 MSTORE DUP4 MLOAD DUP1 DUP6 ADD SWAP1 SWAP5 MSTORE PUSH1 0x5 DUP5 MSTORE PUSH5 0xA08A82869 PUSH1 0xDB SHL SWAP1 DUP5 ADD MSTORE DUP2 MLOAD SWAP2 SWAP3 SWAP2 PUSH3 0x124 SWAP2 PUSH1 0x3 SWAP2 PUSH3 0x43F JUMP JUMPDEST POP DUP1 MLOAD PUSH3 0x13A SWAP1 PUSH1 0x4 SWAP1 PUSH1 0x20 DUP5 ADD SWAP1 PUSH3 0x43F JUMP JUMPDEST POP POP POP PUSH3 0x157 PUSH3 0x151 PUSH3 0x309 PUSH1 0x20 SHL PUSH1 0x20 SHR JUMP JUMPDEST PUSH3 0x30D JUMP JUMPDEST PUSH1 0x1 PUSH1 0x6 SSTORE PUSH1 0xD DUP1 SLOAD PUSH1 0x1 PUSH1 0x1 PUSH1 0xA0 SHL SUB NOT SWAP1 DUP2 AND PUSH1 0x1 PUSH1 0x1 PUSH1 0xA0 SHL SUB DUP8 DUP2 AND SWAP2 SWAP1 SWAP2 OR SWAP3 DUP4 SWAP1 SSTORE PUSH1 0xE DUP1 SLOAD DUP4 AND DUP8 DUP4 AND OR SWAP1 SSTORE PUSH1 0xF DUP1 SLOAD DUP4 AND DUP7 DUP4 AND OR SWAP1 SSTORE PUSH1 0x10 DUP1 SLOAD SWAP1 SWAP3 AND DUP5 DUP3 AND OR SWAP1 SWAP2 SSTORE AND ISZERO DUP1 ISZERO SWAP1 PUSH3 0x1BF JUMPI POP PUSH1 0xE SLOAD PUSH1 0x1 PUSH1 0x1 PUSH1 0xA0 SHL SUB AND ISZERO ISZERO JUMPDEST DUP1 ISZERO PUSH3 0x1D6 JUMPI POP PUSH1 0xF SLOAD PUSH1 0x1 PUSH1 0x1 PUSH1 0xA0 SHL SUB AND ISZERO ISZERO JUMPDEST DUP1 ISZERO PUSH3 0x1ED JUMPI POP PUSH1 0x10 SLOAD PUSH1 0x1 PUSH1 0x1 PUSH1 0xA0 SHL SUB AND ISZERO ISZERO JUMPDEST PUSH3 0x215 JUMPI PUSH1 0x40 MLOAD PUSH3 0x461BCD PUSH1 0xE5 SHL DUP2 MSTORE PUSH1 0x4 ADD PUSH3 0x20C SWAP1 PUSH3 0x572 JUMP JUMPDEST PUSH1 0x40 MLOAD DUP1 SWAP2 SUB SWAP1 REVERT JUMPDEST PUSH1 0xA SLOAD PUSH1 0x7 PUSH1 0x0 PUSH3 0x226 PUSH3 0x309 JUMP JUMPDEST PUSH1 0x1 PUSH1 0x1 PUSH1 0xA0 SHL SUB AND DUP2 MSTORE PUSH1 0x20 DUP2 ADD SWAP2 SWAP1 SWAP2 MSTORE PUSH1 0x40 ADD PUSH1 0x0 KECCAK256 SSTORE PUSH3 0x24B CALLER PUSH3 0x34E JUMP JUMPDEST PUSH3 0x256 ADDRESS PUSH3 0x34E JUMP JUMPDEST PUSH1 0x10 SLOAD PUSH3 0x26D SWAP1 PUSH1 0x1 PUSH1 0x1 PUSH1 0xA0 SHL SUB AND PUSH3 0x34E JUMP JUMPDEST PUSH3 0x277 PUSH3 0x309 JUMP JUMPDEST PUSH1 0x1 PUSH1 0x1 PUSH1 0xA0 SHL SUB AND PUSH1 0x0 PUSH1 0x1 PUSH1 0x1 PUSH1 0xA0 SHL SUB AND PUSH32 0xDDF252AD1BE2C89B69C2B068FC378DAA952BA7F163C4A11628F55A4DF523B3EF PUSH1 0xA SLOAD PUSH1 0x40 MLOAD PUSH3 0x2BE SWAP2 SWAP1 PUSH3 0x63B JUMP JUMPDEST PUSH1 0x40 MLOAD DUP1 SWAP2 SUB SWAP1 LOG3 PUSH3 0x2D0 PUSH3 0x309 JUMP JUMPDEST PUSH1 0x1 PUSH1 0x1 PUSH1 0xA0 SHL SUB AND PUSH1 0x0 PUSH1 0x1 PUSH1 0x1 PUSH1 0xA0 SHL SUB AND PUSH1 0x0 DUP1 MLOAD PUSH1 0x20 PUSH3 0x22C9 DUP4 CODECOPY DUP2 MLOAD SWAP2 MSTORE PUSH1 0x40 MLOAD PUSH1 0x40 MLOAD DUP1 SWAP2 SUB SWAP1 LOG3 POP POP POP POP PUSH3 0x7FE JUMP JUMPDEST CALLER SWAP1 JUMP JUMPDEST PUSH1 0x5 DUP1 SLOAD PUSH1 0x1 PUSH1 0x1 PUSH1 0xA0 SHL SUB DUP4 DUP2 AND PUSH1 0x1 PUSH1 0x1 PUSH1 0xA0 SHL SUB NOT DUP4 AND DUP2 OR SWAP1 SWAP4 SSTORE PUSH1 0x40 MLOAD SWAP2 AND SWAP2 SWAP1 DUP3 SWAP1 PUSH1 0x0 DUP1 MLOAD PUSH1 0x20 PUSH3 0x22C9 DUP4 CODECOPY DUP2 MLOAD SWAP2 MSTORE SWAP1 PUSH1 0x0 SWAP1 LOG3 POP POP JUMP JUMPDEST PUSH3 0x358 PUSH3 0x309 JUMP JUMPDEST PUSH1 0x1 PUSH1 0x1 PUSH1 0xA0 SHL SUB AND PUSH3 0x36B PUSH3 0x430 JUMP JUMPDEST PUSH1 0x1 PUSH1 0x1 PUSH1 0xA0 SHL SUB AND EQ PUSH3 0x394 JUMPI PUSH1 0x40 MLOAD PUSH3 0x461BCD PUSH1 0xE5 SHL DUP2 MSTORE PUSH1 0x4 ADD PUSH3 0x20C SWAP1 PUSH3 0x606 JUMP JUMPDEST PUSH1 0x1 PUSH1 0x1 PUSH1 0xA0 SHL SUB DUP2 AND PUSH1 0x0 SWAP1 DUP2 MSTORE PUSH1 0x12 PUSH1 0x20 MSTORE PUSH1 0x40 SWAP1 KECCAK256 SLOAD PUSH1 0xFF AND ISZERO PUSH3 0x3D0 JUMPI PUSH1 0x40 MLOAD PUSH3 0x461BCD PUSH1 0xE5 SHL DUP2 MSTORE PUSH1 0x4 ADD PUSH3 0x20C SWAP1 PUSH3 0x5CF JUMP JUMPDEST PUSH1 0x1 PUSH1 0x1 PUSH1 0xA0 SHL SUB DUP2 AND PUSH1 0x0 SWAP1 DUP2 MSTORE PUSH1 0x12 PUSH1 0x20 MSTORE PUSH1 0x40 SWAP1 DUP2 SWAP1 KECCAK256 DUP1 SLOAD PUSH1 0xFF NOT AND PUSH1 0x1 OR SWAP1 SSTORE MLOAD PUSH32 0x7E35D6B74D35C333860340884EECA4E63B18CB9D73CE17A147A1952654365B5E SWAP1 PUSH3 0x425 SWAP1 DUP4 SWAP1 PUSH3 0x55E JUMP JUMPDEST PUSH1 0x40 MLOAD DUP1 SWAP2 SUB SWAP1 LOG1 POP JUMP JUMPDEST PUSH1 0x5 SLOAD PUSH1 0x1 PUSH1 0x1 PUSH1 0xA0 SHL SUB AND SWAP1 JUMP JUMPDEST DUP3 DUP1 SLOAD PUSH3 0x44D SWAP1 PUSH3 0x7AB JUMP JUMPDEST SWAP1 PUSH1 0x0 MSTORE PUSH1 0x20 PUSH1 0x0 KECCAK256 SWAP1 PUSH1 0x1F ADD PUSH1 0x20 SWAP1 DIV DUP2 ADD SWAP3 DUP3 PUSH3 0x471 JUMPI PUSH1 0x0 DUP6 SSTORE PUSH3 0x4BC JUMP JUMPDEST DUP3 PUSH1 0x1F LT PUSH3 0x48C JUMPI DUP1 MLOAD PUSH1 0xFF NOT AND DUP4 DUP1 ADD OR DUP6 SSTORE PUSH3 0x4BC JUMP JUMPDEST DUP3 DUP1 ADD PUSH1 0x1 ADD DUP6 SSTORE DUP3 ISZERO PUSH3 0x4BC JUMPI SWAP2 DUP3 ADD JUMPDEST DUP3 DUP2 GT ISZERO PUSH3 0x4BC JUMPI DUP3 MLOAD DUP3 SSTORE SWAP2 PUSH1 0x20 ADD SWAP2 SWAP1 PUSH1 0x1 ADD SWAP1 PUSH3 0x49F JUMP JUMPDEST POP PUSH3 0x4CA SWAP3 SWAP2 POP PUSH3 0x4CE JUMP JUMPDEST POP SWAP1 JUMP JUMPDEST JUMPDEST DUP1 DUP3 GT ISZERO PUSH3 0x4CA JUMPI PUSH1 0x0 DUP2 SSTORE PUSH1 0x1 ADD PUSH3 0x4CF JUMP JUMPDEST DUP1 MLOAD PUSH1 0x1 PUSH1 0x1 PUSH1 0xA0 SHL SUB DUP2 AND DUP2 EQ PUSH3 0x4FD JUMPI PUSH1 0x0 DUP1 REVERT JUMPDEST SWAP2 SWAP1 POP JUMP JUMPDEST PUSH1 0x0 DUP1 PUSH1 0x0 DUP1 PUSH1 0x80 DUP6 DUP8 SUB SLT ISZERO PUSH3 0x518 JUMPI DUP4 DUP5 REVERT JUMPDEST PUSH3 0x523 DUP6 PUSH3 0x4E5 JUMP JUMPDEST SWAP4 POP PUSH3 0x533 PUSH1 0x20 DUP7 ADD PUSH3 0x4E5 JUMP JUMPDEST SWAP3 POP PUSH3 0x543 PUSH1 0x40 DUP7 ADD PUSH3 0x4E5 JUMP JUMPDEST SWAP2 POP PUSH3 0x553 PUSH1 0x60 DUP7 ADD PUSH3 0x4E5 JUMP JUMPDEST SWAP1 POP SWAP3 SWAP6 SWAP2 SWAP5 POP SWAP3 POP JUMP JUMPDEST PUSH1 0x1 PUSH1 0x1 PUSH1 0xA0 SHL SUB SWAP2 SWAP1 SWAP2 AND DUP2 MSTORE PUSH1 0x20 ADD SWAP1 JUMP JUMPDEST PUSH1 0x20 DUP1 DUP3 MSTORE PUSH1 0x3B SWAP1 DUP3 ADD MSTORE PUSH32 0x4C49515549444954592F524557415244532F54524541535552592F5445414D20 PUSH1 0x40 DUP3 ADD MSTORE PUSH32 0x504F4F4C20414444524553532043414E4E4F54204245205A45524F0000000000 PUSH1 0x60 DUP3 ADD MSTORE PUSH1 0x80 ADD SWAP1 JUMP JUMPDEST PUSH1 0x20 DUP1 DUP3 MSTORE PUSH1 0x1C SWAP1 DUP3 ADD MSTORE PUSH32 0x4163636F756E7420697320616C7265616479206578636C756465642E00000000 PUSH1 0x40 DUP3 ADD MSTORE PUSH1 0x60 ADD SWAP1 JUMP JUMPDEST PUSH1 0x20 DUP1 DUP3 MSTORE DUP2 DUP2 ADD MSTORE PUSH32 0x4F776E61626C653A2063616C6C6572206973206E6F7420746865206F776E6572 PUSH1 0x40 DUP3 ADD MSTORE PUSH1 0x60 ADD SWAP1 JUMP JUMPDEST SWAP1 DUP2 MSTORE PUSH1 0x20 ADD SWAP1 JUMP JUMPDEST DUP1 DUP3 JUMPDEST PUSH1 0x1 DUP1 DUP7 GT PUSH3 0x658 JUMPI POP PUSH3 0x688 JUMP JUMPDEST DUP2 DUP8 DIV DUP3 GT ISZERO PUSH3 0x66D JUMPI PUSH3 0x66D PUSH3 0x7E8 JUMP JUMPDEST DUP1 DUP7 AND ISZERO PUSH3 0x67B JUMPI SWAP2 DUP2 MUL SWAP2 JUMPDEST SWAP5 SWAP1 SWAP5 SHR SWAP4 DUP1 MUL PUSH3 0x647 JUMP JUMPDEST SWAP5 POP SWAP5 SWAP3 POP POP POP JUMP JUMPDEST PUSH1 0x0 PUSH3 0x6A5 PUSH1 0x0 NOT PUSH1 0xFF DUP6 AND DUP5 PUSH3 0x6AC JUMP JUMPDEST SWAP4 SWAP3 POP POP POP JUMP JUMPDEST PUSH1 0x0 DUP3 PUSH3 0x6BD JUMPI POP PUSH1 0x1 PUSH3 0x6A5 JUMP JUMPDEST DUP2 PUSH3 0x6CC JUMPI POP PUSH1 0x0 PUSH3 0x6A5 JUMP JUMPDEST DUP2 PUSH1 0x1 DUP2 EQ PUSH3 0x6E5 JUMPI PUSH1 0x2 DUP2 EQ PUSH3 0x6F0 JUMPI PUSH3 0x724 JUMP JUMPDEST PUSH1 0x1 SWAP2 POP POP PUSH3 0x6A5 JUMP JUMPDEST PUSH1 0xFF DUP5 GT ISZERO PUSH3 0x704 JUMPI PUSH3 0x704 PUSH3 0x7E8 JUMP JUMPDEST PUSH1 0x1 DUP5 SHL SWAP2 POP DUP5 DUP3 GT ISZERO PUSH3 0x71D JUMPI PUSH3 0x71D PUSH3 0x7E8 JUMP JUMPDEST POP PUSH3 0x6A5 JUMP JUMPDEST POP PUSH1 0x20 DUP4 LT PUSH2 0x133 DUP4 LT AND PUSH1 0x4E DUP5 LT PUSH1 0xB DUP5 LT AND OR ISZERO PUSH3 0x75C JUMPI POP DUP2 DUP2 EXP DUP4 DUP2 GT ISZERO PUSH3 0x756 JUMPI PUSH3 0x756 PUSH3 0x7E8 JUMP JUMPDEST PUSH3 0x6A5 JUMP JUMPDEST PUSH3 0x76B DUP5 DUP5 DUP5 PUSH1 0x1 PUSH3 0x644 JUMP JUMPDEST DUP1 DUP7 DIV DUP3 GT ISZERO PUSH3 0x780 JUMPI PUSH3 0x780 PUSH3 0x7E8 JUMP JUMPDEST MUL SWAP5 SWAP4 POP POP POP POP JUMP JUMPDEST PUSH1 0x0 DUP2 PUSH1 0x0 NOT DIV DUP4 GT DUP3 ISZERO ISZERO AND ISZERO PUSH3 0x7A6 JUMPI PUSH3 0x7A6 PUSH3 0x7E8 JUMP JUMPDEST POP MUL SWAP1 JUMP JUMPDEST PUSH1 0x2 DUP2 DIV PUSH1 0x1 DUP3 AND DUP1 PUSH3 0x7C0 JUMPI PUSH1 0x7F DUP3 AND SWAP2 POP JUMPDEST PUSH1 0x20 DUP3 LT DUP2 EQ ISZERO PUSH3 0x7E2 JUMPI PUSH4 0x4E487B71 PUSH1 0xE0 SHL PUSH1 0x0 MSTORE PUSH1 0x22 PUSH1 0x4 MSTORE PUSH1 0x24 PUSH1 0x0 REVERT JUMPDEST POP SWAP2 SWAP1 POP JUMP JUMPDEST PUSH4 0x4E487B71 PUSH1 0xE0 SHL PUSH1 0x0 MSTORE PUSH1 0x11 PUSH1 0x4 MSTORE PUSH1 0x24 PUSH1 0x0 REVERT JUMPDEST PUSH2 0x1ABB DUP1 PUSH3 0x80E PUSH1 0x0 CODECOPY PUSH1 0x0 RETURN INVALID PUSH1 0x80 PUSH1 0x40 MSTORE PUSH1 0x4 CALLDATASIZE LT PUSH2 0x1F2 JUMPI PUSH1 0x0 CALLDATALOAD PUSH1 0xE0 SHR DUP1 PUSH4 0x8DA5CB5B GT PUSH2 0x10D JUMPI DUP1 PUSH4 0xC76CF14A GT PUSH2 0xA0 JUMPI DUP1 PUSH4 0xD8929342 GT PUSH2 0x6F JUMPI DUP1 PUSH4 0xD8929342 EQ PUSH2 0x55C JUMPI DUP1 PUSH4 0xDAA93341 EQ PUSH2 0x57C JUMPI DUP1 PUSH4 0xDD3CDF6C EQ PUSH2 0x59C JUMPI DUP1 PUSH4 0xDD62ED3E EQ PUSH2 0x5BC JUMPI DUP1 PUSH4 0xF2FDE38B EQ PUSH2 0x5DC JUMPI PUSH2 0x1F9 JUMP JUMPDEST DUP1 PUSH4 0xC76CF14A EQ PUSH2 0x4F2 JUMPI DUP1 PUSH4 0xCC32D176 EQ PUSH2 0x512 JUMPI DUP1 PUSH4 0xD6B4212B EQ PUSH2 0x527 JUMPI DUP1 PUSH4 0xD7C94EFD EQ PUSH2 0x547 JUMPI PUSH2 0x1F9 JUMP JUMPDEST DUP1 PUSH4 0xA457C2D7 GT PUSH2 0xDC JUMPI DUP1 PUSH4 0xA457C2D7 EQ PUSH2 0x472 JUMPI DUP1 PUSH4 0xA9059CBB EQ PUSH2 0x492 JUMPI DUP1 PUSH4 0xADDACB9E EQ PUSH2 0x4B2 JUMPI DUP1 PUSH4 0xB14A1E8E EQ PUSH2 0x4D2 JUMPI PUSH2 0x1F9 JUMP JUMPDEST DUP1 PUSH4 0x8DA5CB5B EQ PUSH2 0x3FB JUMPI DUP1 PUSH4 0x8F859C55 EQ PUSH2 0x41D JUMPI DUP1 PUSH4 0x904D8F68 EQ PUSH2 0x43D JUMPI DUP1 PUSH4 0x95D89B41 EQ PUSH2 0x45D JUMPI PUSH2 0x1F9 JUMP JUMPDEST DUP1 PUSH4 0x2DEEF284 GT PUSH2 0x185 JUMPI DUP1 PUSH4 0x54F12F1F GT PUSH2 0x154 JUMPI DUP1 PUSH4 0x54F12F1F EQ PUSH2 0x391 JUMPI DUP1 PUSH4 0x6653A340 EQ PUSH2 0x3A6 JUMPI DUP1 PUSH4 0x70A08231 EQ PUSH2 0x3C6 JUMPI DUP1 PUSH4 0x715018A6 EQ PUSH2 0x3E6 JUMPI PUSH2 0x1F9 JUMP JUMPDEST DUP1 PUSH4 0x2DEEF284 EQ PUSH2 0x31C JUMPI DUP1 PUSH4 0x313CE567 EQ PUSH2 0x33C JUMPI DUP1 PUSH4 0x39509351 EQ PUSH2 0x351 JUMPI DUP1 PUSH4 0x5342ACB4 EQ PUSH2 0x371 JUMPI PUSH2 0x1F9 JUMP JUMPDEST DUP1 PUSH4 0x18160DDD GT PUSH2 0x1C1 JUMPI DUP1 PUSH4 0x18160DDD EQ PUSH2 0x298 JUMPI DUP1 PUSH4 0x1CDD3BE3 EQ PUSH2 0x2BA JUMPI DUP1 PUSH4 0x23B872DD EQ PUSH2 0x2DA JUMPI DUP1 PUSH4 0x2BB14E1D EQ PUSH2 0x2FA JUMPI PUSH2 0x1F9 JUMP JUMPDEST DUP1 PUSH4 0x6FDDE03 EQ PUSH2 0x1FE JUMPI DUP1 PUSH4 0x95EA7B3 EQ PUSH2 0x229 JUMPI DUP1 PUSH4 0x1519F1F0 EQ PUSH2 0x256 JUMPI DUP1 PUSH4 0x15D957D3 EQ PUSH2 0x278 JUMPI PUSH2 0x1F9 JUMP JUMPDEST CALLDATASIZE PUSH2 0x1F9 JUMPI STOP JUMPDEST PUSH1 0x0 DUP1 REVERT JUMPDEST CALLVALUE DUP1 ISZERO PUSH2 0x20A JUMPI PUSH1 0x0 DUP1 REVERT JUMPDEST POP PUSH2 0x213 PUSH2 0x5FC JUMP JUMPDEST PUSH1 0x40 MLOAD PUSH2 0x220 SWAP2 SWAP1 PUSH2 0x15C7 JUMP JUMPDEST PUSH1 0x40 MLOAD DUP1 SWAP2 SUB SWAP1 RETURN JUMPDEST CALLVALUE DUP1 ISZERO PUSH2 0x235 JUMPI PUSH1 0x0 DUP1 REVERT JUMPDEST POP PUSH2 0x249 PUSH2 0x244 CALLDATASIZE PUSH1 0x4 PUSH2 0x1544 JUMP JUMPDEST PUSH2 0x68E JUMP JUMPDEST PUSH1 0x40 MLOAD PUSH2 0x220 SWAP2 SWAP1 PUSH2 0x15BC JUMP JUMPDEST CALLVALUE DUP1 ISZERO PUSH2 0x262 JUMPI PUSH1 0x0 DUP1 REVERT JUMPDEST POP PUSH2 0x276 PUSH2 0x271 CALLDATASIZE PUSH1 0x4 PUSH2 0x1587 JUMP JUMPDEST PUSH2 0x6B0 JUMP JUMPDEST STOP JUMPDEST CALLVALUE DUP1 ISZERO PUSH2 0x284 JUMPI PUSH1 0x0 DUP1 REVERT JUMPDEST POP PUSH2 0x276 PUSH2 0x293 CALLDATASIZE PUSH1 0x4 PUSH2 0x147F JUMP JUMPDEST PUSH2 0x718 JUMP JUMPDEST CALLVALUE DUP1 ISZERO PUSH2 0x2A4 JUMPI PUSH1 0x0 DUP1 REVERT JUMPDEST POP PUSH2 0x2AD PUSH2 0x7F4 JUMP JUMPDEST PUSH1 0x40 MLOAD PUSH2 0x220 SWAP2 SWAP1 PUSH2 0x1883 JUMP JUMPDEST CALLVALUE DUP1 ISZERO PUSH2 0x2C6 JUMPI PUSH1 0x0 DUP1 REVERT JUMPDEST POP PUSH2 0x249 PUSH2 0x2D5 CALLDATASIZE PUSH1 0x4 PUSH2 0x147F JUMP JUMPDEST PUSH2 0x7FA JUMP JUMPDEST CALLVALUE DUP1 ISZERO PUSH2 0x2E6 JUMPI PUSH1 0x0 DUP1 REVERT JUMPDEST POP PUSH2 0x249 PUSH2 0x2F5 CALLDATASIZE PUSH1 0x4 PUSH2 0x14D3 JUMP JUMPDEST PUSH2 0x80F JUMP JUMPDEST CALLVALUE DUP1 ISZERO PUSH2 0x306 JUMPI PUSH1 0x0 DUP1 REVERT JUMPDEST POP PUSH2 0x30F PUSH2 0x823 JUMP JUMPDEST PUSH1 0x40 MLOAD PUSH2 0x220 SWAP2 SWAP1 PUSH2 0x188C JUMP JUMPDEST CALLVALUE DUP1 ISZERO PUSH2 0x328 JUMPI PUSH1 0x0 DUP1 REVERT JUMPDEST POP PUSH2 0x276 PUSH2 0x337 CALLDATASIZE PUSH1 0x4 PUSH2 0x1587 JUMP JUMPDEST PUSH2 0x833 JUMP JUMPDEST CALLVALUE DUP1 ISZERO PUSH2 0x348 JUMPI PUSH1 0x0 DUP1 REVERT JUMPDEST POP PUSH2 0x30F PUSH2 0x892 JUMP JUMPDEST CALLVALUE DUP1 ISZERO PUSH2 0x35D JUMPI PUSH1 0x0 DUP1 REVERT JUMPDEST POP PUSH2 0x249 PUSH2 0x36C CALLDATASIZE PUSH1 0x4 PUSH2 0x1544 JUMP JUMPDEST PUSH2 0x897 JUMP JUMPDEST CALLVALUE DUP1 ISZERO PUSH2 0x37D JUMPI PUSH1 0x0 DUP1 REVERT JUMPDEST POP PUSH2 0x249 PUSH2 0x38C CALLDATASIZE PUSH1 0x4 PUSH2 0x147F JUMP JUMPDEST PUSH2 0x8E3 JUMP JUMPDEST CALLVALUE DUP1 ISZERO PUSH2 0x39D JUMPI PUSH1 0x0 DUP1 REVERT JUMPDEST POP PUSH2 0x30F PUSH2 0x901 JUMP JUMPDEST CALLVALUE DUP1 ISZERO PUSH2 0x3B2 JUMPI PUSH1 0x0 DUP1 REVERT JUMPDEST POP PUSH2 0x276 PUSH2 0x3C1 CALLDATASIZE PUSH1 0x4 PUSH2 0x147F JUMP JUMPDEST PUSH2 0x911 JUMP JUMPDEST CALLVALUE DUP1 ISZERO PUSH2 0x3D2 JUMPI PUSH1 0x0 DUP1 REVERT JUMPDEST POP PUSH2 0x2AD PUSH2 0x3E1 CALLDATASIZE PUSH1 0x4 PUSH2 0x147F JUMP JUMPDEST PUSH2 0x972 JUMP JUMPDEST CALLVALUE DUP1 ISZERO PUSH2 0x3F2 JUMPI PUSH1 0x0 DUP1 REVERT JUMPDEST POP PUSH2 0x276 PUSH2 0x98D JUMP JUMPDEST CALLVALUE DUP1 ISZERO PUSH2 0x407 JUMPI PUSH1 0x0 DUP1 REVERT JUMPDEST POP PUSH2 0x410 PUSH2 0x9D8 JUMP JUMPDEST PUSH1 0x40 MLOAD PUSH2 0x220 SWAP2 SWAP1 PUSH2 0x15A8 JUMP JUMPDEST CALLVALUE DUP1 ISZERO PUSH2 0x429 JUMPI PUSH1 0x0 DUP1 REVERT JUMPDEST POP PUSH2 0x276 PUSH2 0x438 CALLDATASIZE PUSH1 0x4 PUSH2 0x156F JUMP JUMPDEST PUSH2 0x9E7 JUMP JUMPDEST CALLVALUE DUP1 ISZERO PUSH2 0x449 JUMPI PUSH1 0x0 DUP1 REVERT JUMPDEST POP PUSH2 0x276 PUSH2 0x458 CALLDATASIZE PUSH1 0x4 PUSH2 0x1587 JUMP JUMPDEST PUSH2 0xA2B JUMP JUMPDEST CALLVALUE DUP1 ISZERO PUSH2 0x469 JUMPI PUSH1 0x0 DUP1 REVERT JUMPDEST POP PUSH2 0x213 PUSH2 0xA8A JUMP JUMPDEST CALLVALUE DUP1 ISZERO PUSH2 0x47E JUMPI PUSH1 0x0 DUP1 REVERT JUMPDEST POP PUSH2 0x249 PUSH2 0x48D CALLDATASIZE PUSH1 0x4 PUSH2 0x1544 JUMP JUMPDEST PUSH2 0xA99 JUMP JUMPDEST CALLVALUE DUP1 ISZERO PUSH2 0x49E JUMPI PUSH1 0x0 DUP1 REVERT JUMPDEST POP PUSH2 0x249 PUSH2 0x4AD CALLDATASIZE PUSH1 0x4 PUSH2 0x1544 JUMP JUMPDEST PUSH2 0xB05 JUMP JUMPDEST CALLVALUE DUP1 ISZERO PUSH2 0x4BE JUMPI PUSH1 0x0 DUP1 REVERT JUMPDEST POP PUSH2 0x276 PUSH2 0x4CD CALLDATASIZE PUSH1 0x4 PUSH2 0x1587 JUMP JUMPDEST PUSH2 0xB22 JUMP JUMPDEST CALLVALUE DUP1 ISZERO PUSH2 0x4DE JUMPI PUSH1 0x0 DUP1 REVERT JUMPDEST POP PUSH2 0x276 PUSH2 0x4ED CALLDATASIZE PUSH1 0x4 PUSH2 0x147F JUMP JUMPDEST PUSH2 0xB81 JUMP JUMPDEST CALLVALUE DUP1 ISZERO PUSH2 0x4FE JUMPI PUSH1 0x0 DUP1 REVERT JUMPDEST POP PUSH2 0x276 PUSH2 0x50D CALLDATASIZE PUSH1 0x4 PUSH2 0x147F JUMP JUMPDEST PUSH2 0xBE2 JUMP JUMPDEST CALLVALUE DUP1 ISZERO PUSH2 0x51E JUMPI PUSH1 0x0 DUP1 REVERT JUMPDEST POP PUSH2 0x30F PUSH2 0xC43 JUMP JUMPDEST CALLVALUE DUP1 ISZERO PUSH2 0x533 JUMPI PUSH1 0x0 DUP1 REVERT JUMPDEST POP PUSH2 0x276 PUSH2 0x542 CALLDATASIZE PUSH1 0x4 PUSH2 0x147F JUMP JUMPDEST PUSH2 0xC53 JUMP JUMPDEST CALLVALUE DUP1 ISZERO PUSH2 0x553 JUMPI PUSH1 0x0 DUP1 REVERT JUMPDEST POP PUSH2 0x30F PUSH2 0xD29 JUMP JUMPDEST CALLVALUE DUP1 ISZERO PUSH2 0x568 JUMPI PUSH1 0x0 DUP1 REVERT JUMPDEST POP PUSH2 0x276 PUSH2 0x577 CALLDATASIZE PUSH1 0x4 PUSH2 0x1513 JUMP JUMPDEST PUSH2 0xD39 JUMP JUMPDEST CALLVALUE DUP1 ISZERO PUSH2 0x588 JUMPI PUSH1 0x0 DUP1 REVERT JUMPDEST POP PUSH2 0x276 PUSH2 0x597 CALLDATASIZE PUSH1 0x4 PUSH2 0x147F JUMP JUMPDEST PUSH2 0xDA3 JUMP JUMPDEST CALLVALUE DUP1 ISZERO PUSH2 0x5A8 JUMPI PUSH1 0x0 DUP1 REVERT JUMPDEST POP PUSH2 0x276 PUSH2 0x5B7 CALLDATASIZE PUSH1 0x4 PUSH2 0x147F JUMP JUMPDEST PUSH2 0xE6A JUMP JUMPDEST CALLVALUE DUP1 ISZERO PUSH2 0x5C8 JUMPI PUSH1 0x0 DUP1 REVERT JUMPDEST POP PUSH2 0x2AD PUSH2 0x5D7 CALLDATASIZE PUSH1 0x4 PUSH2 0x149B JUMP JUMPDEST PUSH2 0xECB JUMP JUMPDEST CALLVALUE DUP1 ISZERO PUSH2 0x5E8 JUMPI PUSH1 0x0 DUP1 REVERT JUMPDEST POP PUSH2 0x276 PUSH2 0x5F7 CALLDATASIZE PUSH1 0x4 PUSH2 0x147F JUMP JUMPDEST PUSH2 0xEF6 JUMP JUMPDEST PUSH1 0x60 PUSH1 0x3 DUP1 SLOAD PUSH2 0x60B SWAP1 PUSH2 0x1A1F JUMP JUMPDEST DUP1 PUSH1 0x1F ADD PUSH1 0x20 DUP1 SWAP2 DIV MUL PUSH1 0x20 ADD PUSH1 0x40 MLOAD SWAP1 DUP2 ADD PUSH1 0x40 MSTORE DUP1 SWAP3 SWAP2 SWAP1 DUP2 DUP2 MSTORE PUSH1 0x20 ADD DUP3 DUP1 SLOAD PUSH2 0x637 SWAP1 PUSH2 0x1A1F JUMP JUMPDEST DUP1 ISZERO PUSH2 0x684 JUMPI DUP1 PUSH1 0x1F LT PUSH2 0x659 JUMPI PUSH2 0x100 DUP1 DUP4 SLOAD DIV MUL DUP4 MSTORE SWAP2 PUSH1 0x20 ADD SWAP2 PUSH2 0x684 JUMP JUMPDEST DUP3 ADD SWAP2 SWAP1 PUSH1 0x0 MSTORE PUSH1 0x20 PUSH1 0x0 KECCAK256 SWAP1 JUMPDEST DUP2 SLOAD DUP2 MSTORE SWAP1 PUSH1 0x1 ADD SWAP1 PUSH1 0x20 ADD DUP1 DUP4 GT PUSH2 0x667 JUMPI DUP3 SWAP1 SUB PUSH1 0x1F AND DUP3 ADD SWAP2 JUMPDEST POP POP POP POP POP SWAP1 POP SWAP1 JUMP JUMPDEST PUSH1 0x0 DUP1 PUSH2 0x699 PUSH2 0xF67 JUMP JUMPDEST SWAP1 POP PUSH2 0x6A6 DUP2 DUP6 DUP6 PUSH2 0xF6B JUMP JUMPDEST POP PUSH1 0x1 SWAP4 SWAP3 POP POP POP JUMP JUMPDEST PUSH2 0x6B8 PUSH2 0xF67 JUMP JUMPDEST PUSH1 0x1 PUSH1 0x1 PUSH1 0xA0 SHL SUB AND PUSH2 0x6C9 PUSH2 0x9D8 JUMP JUMPDEST PUSH1 0x1 PUSH1 0x1 PUSH1 0xA0 SHL SUB AND EQ PUSH2 0x6F8 JUMPI PUSH1 0x40 MLOAD PUSH3 0x461BCD PUSH1 0xE5 SHL DUP2 MSTORE PUSH1 0x4 ADD PUSH2 0x6EF SWAP1 PUSH2 0x1780 JUMP JUMPDEST PUSH1 0x40 MLOAD DUP1 SWAP2 SUB SWAP1 REVERT JUMPDEST PUSH1 0x10 DUP1 SLOAD PUSH1 0xFF SWAP1 SWAP3 AND PUSH1 0x1 PUSH1 0xA0 SHL MUL PUSH1 0xFF PUSH1 0xA0 SHL NOT SWAP1 SWAP3 AND SWAP2 SWAP1 SWAP2 OR SWAP1 SSTORE JUMP JUMPDEST PUSH2 0x720 PUSH2 0xF67 JUMP JUMPDEST PUSH1 0x1 PUSH1 0x1 PUSH1 0xA0 SHL SUB AND PUSH2 0x731 PUSH2 0x9D8 JUMP JUMPDEST PUSH1 0x1 PUSH1 0x1 PUSH1 0xA0 SHL SUB AND EQ PUSH2 0x757 JUMPI PUSH1 0x40 MLOAD PUSH3 0x461BCD PUSH1 0xE5 SHL DUP2 MSTORE PUSH1 0x4 ADD PUSH2 0x6EF SWAP1 PUSH2 0x1780 JUMP JUMPDEST PUSH1 0x1 PUSH1 0x1 PUSH1 0xA0 SHL SUB DUP2 AND PUSH2 0x77D JUMPI PUSH1 0x40 MLOAD PUSH3 0x461BCD PUSH1 0xE5 SHL DUP2 MSTORE PUSH1 0x4 ADD PUSH2 0x6EF SWAP1 PUSH2 0x161A JUMP JUMPDEST PUSH1 0x10 DUP1 SLOAD PUSH1 0x1 PUSH1 0x1 PUSH1 0xA0 SHL SUB NOT AND PUSH1 0x1 PUSH1 0x1 PUSH1 0xA0 SHL SUB DUP4 AND OR SWAP1 SSTORE PUSH1 0xC SLOAD CALLER PUSH1 0x0 SWAP1 DUP2 MSTORE PUSH1 0x7 PUSH1 0x20 MSTORE PUSH1 0x40 DUP2 KECCAK256 DUP1 SLOAD SWAP1 SWAP2 SWAP1 PUSH2 0x7BA SWAP1 DUP5 SWAP1 PUSH2 0x1A08 JUMP JUMPDEST SWAP1 SWAP2 SSTORE POP POP PUSH1 0xC SLOAD PUSH1 0x10 SLOAD PUSH1 0x1 PUSH1 0x1 PUSH1 0xA0 SHL SUB AND PUSH1 0x0 SWAP1 DUP2 MSTORE PUSH1 0x7 PUSH1 0x20 MSTORE PUSH1 0x40 DUP2 KECCAK256 DUP1 SLOAD SWAP1 SWAP2 SWAP1 PUSH2 0x7EC SWAP1 DUP5 SWAP1 PUSH2 0x189A JUMP JUMPDEST SWAP1 SWAP2 SSTORE POP POP POP JUMP JUMPDEST PUSH1 0xA SLOAD SWAP1 JUMP JUMPDEST PUSH1 0x11 PUSH1 0x20 MSTORE PUSH1 0x0 SWAP1 DUP2 MSTORE PUSH1 0x40 SWAP1 KECCAK256 SLOAD PUSH1 0xFF AND DUP2 JUMP JUMPDEST PUSH1 0x0 PUSH2 0x6A6 DUP5 DUP5 DUP5 PUSH2 0x101F JUMP JUMPDEST SWAP4 SWAP3 POP POP POP JUMP JUMPDEST PUSH1 0x10 SLOAD PUSH1 0x1 PUSH1 0xA8 SHL SWAP1 DIV PUSH1 0xFF AND DUP2 JUMP JUMPDEST PUSH2 0x83B PUSH2 0xF67 JUMP JUMPDEST PUSH1 0x1 PUSH1 0x1 PUSH1 0xA0 SHL SUB AND PUSH2 0x84C PUSH2 0x9D8 JUMP JUMPDEST PUSH1 0x1 PUSH1 0x1 PUSH1 0xA0 SHL SUB AND EQ PUSH2 0x872 JUMPI PUSH1 0x40 MLOAD PUSH3 0x461BCD PUSH1 0xE5 SHL DUP2 MSTORE PUSH1 0x4 ADD PUSH2 0x6EF SWAP1 PUSH2 0x1780 JUMP JUMPDEST PUSH1 0x10 DUP1 SLOAD PUSH1 0xFF SWAP1 SWAP3 AND PUSH1 0x1 PUSH1 0xB0 SHL MUL PUSH1 0xFF PUSH1 0xB0 SHL NOT SWAP1 SWAP3 AND SWAP2 SWAP1 SWAP2 OR SWAP1 SSTORE JUMP JUMPDEST PUSH1 0x12 SWAP1 JUMP JUMPDEST PUSH1 0x0 DUP1 PUSH2 0x8A2 PUSH2 0xF67 JUMP JUMPDEST PUSH1 0x1 PUSH1 0x1 PUSH1 0xA0 SHL SUB DUP1 DUP3 AND PUSH1 0x0 SWAP1 DUP2 MSTORE PUSH1 0x1 PUSH1 0x20 SWAP1 DUP2 MSTORE PUSH1 0x40 DUP1 DUP4 KECCAK256 SWAP4 DUP10 AND DUP4 MSTORE SWAP3 SWAP1 MSTORE KECCAK256 SLOAD SWAP1 SWAP2 POP PUSH2 0x6A6 SWAP1 DUP3 SWAP1 DUP7 SWAP1 PUSH2 0x8DE SWAP1 DUP8 SWAP1 PUSH2 0x189A JUMP JUMPDEST PUSH2 0xF6B JUMP JUMPDEST PUSH1 0x1 PUSH1 0x1 PUSH1 0xA0 SHL SUB AND PUSH1 0x0 SWAP1 DUP2 MSTORE PUSH1 0x12 PUSH1 0x20 MSTORE PUSH1 0x40 SWAP1 KECCAK256 SLOAD PUSH1 0xFF AND SWAP1 JUMP JUMPDEST PUSH1 0x10 SLOAD PUSH1 0x1 PUSH1 0xA0 SHL SWAP1 DIV PUSH1 0xFF AND DUP2 JUMP JUMPDEST PUSH2 0x919 PUSH2 0xF67 JUMP JUMPDEST PUSH1 0x1 PUSH1 0x1 PUSH1 0xA0 SHL SUB AND PUSH2 0x92A PUSH2 0x9D8 JUMP JUMPDEST PUSH1 0x1 PUSH1 0x1 PUSH1 0xA0 SHL SUB AND EQ PUSH2 0x950 JUMPI PUSH1 0x40 MLOAD PUSH3 0x461BCD PUSH1 0xE5 SHL DUP2 MSTORE PUSH1 0x4 ADD PUSH2 0x6EF SWAP1 PUSH2 0x1780 JUMP JUMPDEST PUSH1 0xE DUP1 SLOAD PUSH1 0x1 PUSH1 0x1 PUSH1 0xA0 SHL SUB NOT AND PUSH1 0x1 PUSH1 0x1 PUSH1 0xA0 SHL SUB SWAP3 SWAP1 SWAP3 AND SWAP2 SWAP1 SWAP2 OR SWAP1 SSTORE JUMP JUMPDEST PUSH1 0x1 PUSH1 0x1 PUSH1 0xA0 SHL SUB AND PUSH1 0x0 SWAP1 DUP2 MSTORE PUSH1 0x7 PUSH1 0x20 MSTORE PUSH1 0x40 SWAP1 KECCAK256 SLOAD SWAP1 JUMP JUMPDEST PUSH2 0x995 PUSH2 0xF67 JUMP JUMPDEST PUSH1 0x1 PUSH1 0x1 PUSH1 0xA0 SHL SUB AND PUSH2 0x9A6 PUSH2 0x9D8 JUMP JUMPDEST PUSH1 0x1 PUSH1 0x1 PUSH1 0xA0 SHL SUB AND EQ PUSH2 0x9CC JUMPI PUSH1 0x40 MLOAD PUSH3 0x461BCD PUSH1 0xE5 SHL DUP2 MSTORE PUSH1 0x4 ADD PUSH2 0x6EF SWAP1 PUSH2 0x1780 JUMP JUMPDEST PUSH2 0x9D6 PUSH1 0x0 PUSH2 0x12D0 JUMP JUMPDEST JUMP JUMPDEST PUSH1 0x5 SLOAD PUSH1 0x1 PUSH1 0x1 PUSH1 0xA0 SHL SUB AND SWAP1 JUMP JUMPDEST PUSH2 0x9EF PUSH2 0xF67 JUMP JUMPDEST PUSH1 0x1 PUSH1 0x1 PUSH1 0xA0 SHL SUB AND PUSH2 0xA00 PUSH2 0x9D8 JUMP JUMPDEST PUSH1 0x1 PUSH1 0x1 PUSH1 0xA0 SHL SUB AND EQ PUSH2 0xA26 JUMPI PUSH1 0x40 MLOAD PUSH3 0x461BCD PUSH1 0xE5 SHL DUP2 MSTORE PUSH1 0x4 ADD PUSH2 0x6EF SWAP1 PUSH2 0x1780 JUMP JUMPDEST PUSH1 0xB SSTORE JUMP JUMPDEST PUSH2 0xA33 PUSH2 0xF67 JUMP JUMPDEST PUSH1 0x1 PUSH1 0x1 PUSH1 0xA0 SHL SUB AND PUSH2 0xA44 PUSH2 0x9D8 JUMP JUMPDEST PUSH1 0x1 PUSH1 0x1 PUSH1 0xA0 SHL SUB AND EQ PUSH2 0xA6A JUMPI PUSH1 0x40 MLOAD PUSH3 0x461BCD PUSH1 0xE5 SHL DUP2 MSTORE PUSH1 0x4 ADD PUSH2 0x6EF SWAP1 PUSH2 0x1780 JUMP JUMPDEST PUSH1 0x10 DUP1 SLOAD PUSH1 0xFF SWAP1 SWAP3 AND PUSH1 0x1 PUSH1 0xB8 SHL MUL PUSH1 0xFF PUSH1 0xB8 SHL NOT SWAP1 SWAP3 AND SWAP2 SWAP1 SWAP2 OR SWAP1 SSTORE JUMP JUMPDEST PUSH1 0x60 PUSH1 0x4 DUP1 SLOAD PUSH2 0x60B SWAP1 PUSH2 0x1A1F JUMP JUMPDEST PUSH1 0x0 DUP1 PUSH2 0xAA4 PUSH2 0xF67 JUMP JUMPDEST PUSH1 0x1 PUSH1 0x1 PUSH1 0xA0 SHL SUB DUP1 DUP3 AND PUSH1 0x0 SWAP1 DUP2 MSTORE PUSH1 0x1 PUSH1 0x20 SWAP1 DUP2 MSTORE PUSH1 0x40 DUP1 DUP4 KECCAK256 SWAP4 DUP10 AND DUP4 MSTORE SWAP3 SWAP1 MSTORE KECCAK256 SLOAD SWAP1 SWAP2 POP DUP4 DUP2 LT ISZERO PUSH2 0xAED JUMPI PUSH1 0x40 MLOAD PUSH3 0x461BCD PUSH1 0xE5 SHL DUP2 MSTORE PUSH1 0x4 ADD PUSH2 0x6EF SWAP1 PUSH2 0x183E JUMP JUMPDEST PUSH2 0xAFA DUP3 DUP7 DUP7 DUP5 SUB PUSH2 0xF6B JUMP JUMPDEST POP PUSH1 0x1 SWAP5 SWAP4 POP POP POP POP JUMP JUMPDEST PUSH1 0x0 PUSH2 0xB19 PUSH2 0xB12 PUSH2 0xF67 JUMP JUMPDEST DUP5 DUP5 PUSH2 0x101F JUMP JUMPDEST POP PUSH1 0x1 SWAP3 SWAP2 POP POP JUMP JUMPDEST PUSH2 0xB2A PUSH2 0xF67 JUMP JUMPDEST PUSH1 0x1 PUSH1 0x1 PUSH1 0xA0 SHL SUB AND PUSH2 0xB3B PUSH2 0x9D8 JUMP JUMPDEST PUSH1 0x1 PUSH1 0x1 PUSH1 0xA0 SHL SUB AND EQ PUSH2 0xB61 JUMPI PUSH1 0x40 MLOAD PUSH3 0x461BCD PUSH1 0xE5 SHL DUP2 MSTORE PUSH1 0x4 ADD PUSH2 0x6EF SWAP1 PUSH2 0x1780 JUMP JUMPDEST PUSH1 0x10 DUP1 SLOAD PUSH1 0xFF SWAP1 SWAP3 AND PUSH1 0x1 PUSH1 0xA8 SHL MUL PUSH1 0xFF PUSH1 0xA8 SHL NOT SWAP1 SWAP3 AND SWAP2 SWAP1 SWAP2 OR SWAP1 SSTORE JUMP JUMPDEST PUSH2 0xB89 PUSH2 0xF67 JUMP JUMPDEST PUSH1 0x1 PUSH1 0x1 PUSH1 0xA0 SHL SUB AND PUSH2 0xB9A PUSH2 0x9D8 JUMP JUMPDEST PUSH1 0x1 PUSH1 0x1 PUSH1 0xA0 SHL SUB AND EQ PUSH2 0xBC0 JUMPI PUSH1 0x40 MLOAD PUSH3 0x461BCD PUSH1 0xE5 SHL DUP2 MSTORE PUSH1 0x4 ADD PUSH2 0x6EF SWAP1 PUSH2 0x1780 JUMP JUMPDEST PUSH1 0xF DUP1 SLOAD PUSH1 0x1 PUSH1 0x1 PUSH1 0xA0 SHL SUB NOT AND PUSH1 0x1 PUSH1 0x1 PUSH1 0xA0 SHL SUB SWAP3 SWAP1 SWAP3 AND SWAP2 SWAP1 SWAP2 OR SWAP1 SSTORE JUMP JUMPDEST PUSH2 0xBEA PUSH2 0xF67 JUMP JUMPDEST PUSH1 0x1 PUSH1 0x1 PUSH1 0xA0 SHL SUB AND PUSH2 0xBFB PUSH2 0x9D8 JUMP JUMPDEST PUSH1 0x1 PUSH1 0x1 PUSH1 0xA0 SHL SUB AND EQ PUSH2 0xC21 JUMPI PUSH1 0x40 MLOAD PUSH3 0x461BCD PUSH1 0xE5 SHL DUP2 MSTORE PUSH1 0x4 ADD PUSH2 0x6EF SWAP1 PUSH2 0x1780 JUMP JUMPDEST PUSH1 0x10 DUP1 SLOAD PUSH1 0x1 PUSH1 0x1 PUSH1 0xA0 SHL SUB NOT AND PUSH1 0x1 PUSH1 0x1 PUSH1 0xA0 SHL SUB SWAP3 SWAP1 SWAP3 AND SWAP2 SWAP1 SWAP2 OR SWAP1 SSTORE JUMP JUMPDEST PUSH1 0x10 SLOAD PUSH1 0x1 PUSH1 0xB0 SHL SWAP1 DIV PUSH1 0xFF AND DUP2 JUMP JUMPDEST PUSH2 0xC5B PUSH2 0xF67 JUMP JUMPDEST PUSH1 0x1 PUSH1 0x1 PUSH1 0xA0 SHL SUB AND PUSH2 0xC6C PUSH2 0x9D8 JUMP JUMPDEST PUSH1 0x1 PUSH1 0x1 PUSH1 0xA0 SHL SUB AND EQ PUSH2 0xC92 JUMPI PUSH1 0x40 MLOAD PUSH3 0x461BCD PUSH1 0xE5 SHL DUP2 MSTORE PUSH1 0x4 ADD PUSH2 0x6EF SWAP1 PUSH2 0x1780 JUMP JUMPDEST PUSH1 0x1 PUSH1 0x1 PUSH1 0xA0 SHL SUB DUP2 AND PUSH1 0x0 SWAP1 DUP2 MSTORE PUSH1 0x12 PUSH1 0x20 MSTORE PUSH1 0x40 SWAP1 KECCAK256 SLOAD PUSH1 0xFF AND ISZERO PUSH2 0xCCB JUMPI PUSH1 0x40 MLOAD PUSH3 0x461BCD PUSH1 0xE5 SHL DUP2 MSTORE PUSH1 0x4 ADD PUSH2 0x6EF SWAP1 PUSH2 0x171C JUMP JUMPDEST PUSH1 0x1 PUSH1 0x1 PUSH1 0xA0 SHL SUB DUP2 AND PUSH1 0x0 SWAP1 DUP2 MSTORE PUSH1 0x12 PUSH1 0x20 MSTORE PUSH1 0x40 SWAP1 DUP2 SWAP1 KECCAK256 DUP1 SLOAD PUSH1 0xFF NOT AND PUSH1 0x1 OR SWAP1 SSTORE MLOAD PUSH32 0x7E35D6B74D35C333860340884EECA4E63B18CB9D73CE17A147A1952654365B5E SWAP1 PUSH2 0xD1E SWAP1 DUP4 SWAP1 PUSH2 0x15A8 JUMP JUMPDEST PUSH1 0x40 MLOAD DUP1 SWAP2 SUB SWAP1 LOG1 POP JUMP JUMPDEST PUSH1 0x10 SLOAD PUSH1 0x1 PUSH1 0xB8 SHL SWAP1 DIV PUSH1 0xFF AND DUP2 JUMP JUMPDEST PUSH2 0xD41 PUSH2 0xF67 JUMP JUMPDEST PUSH1 0x1 PUSH1 0x1 PUSH1 0xA0 SHL SUB AND PUSH2 0xD52 PUSH2 0x9D8 JUMP JUMPDEST PUSH1 0x1 PUSH1 0x1 PUSH1 0xA0 SHL SUB AND EQ PUSH2 0xD78 JUMPI PUSH1 0x40 MLOAD PUSH3 0x461BCD PUSH1 0xE5 SHL DUP2 MSTORE PUSH1 0x4 ADD PUSH2 0x6EF SWAP1 PUSH2 0x1780 JUMP JUMPDEST PUSH1 0x1 PUSH1 0x1 PUSH1 0xA0 SHL SUB SWAP2 SWAP1 SWAP2 AND PUSH1 0x0 SWAP1 DUP2 MSTORE PUSH1 0x11 PUSH1 0x20 MSTORE PUSH1 0x40 SWAP1 KECCAK256 DUP1 SLOAD PUSH1 0xFF NOT AND SWAP2 ISZERO ISZERO SWAP2 SWAP1 SWAP2 OR SWAP1 SSTORE JUMP JUMPDEST PUSH2 0xDAB PUSH2 0xF67 JUMP JUMPDEST PUSH1 0x1 PUSH1 0x1 PUSH1 0xA0 SHL SUB AND PUSH2 0xDBC PUSH2 0x9D8 JUMP JUMPDEST PUSH1 0x1 PUSH1 0x1 PUSH1 0xA0 SHL SUB AND EQ PUSH2 0xDE2 JUMPI PUSH1 0x40 MLOAD PUSH3 0x461BCD PUSH1 0xE5 SHL DUP2 MSTORE PUSH1 0x4 ADD PUSH2 0x6EF SWAP1 PUSH2 0x1780 JUMP JUMPDEST PUSH1 0x1 PUSH1 0x1 PUSH1 0xA0 SHL SUB DUP2 AND PUSH1 0x0 SWAP1 DUP2 MSTORE PUSH1 0x12 PUSH1 0x20 MSTORE PUSH1 0x40 SWAP1 KECCAK256 SLOAD PUSH1 0xFF AND PUSH2 0xE1A JUMPI PUSH1 0x40 MLOAD PUSH3 0x461BCD PUSH1 0xE5 SHL DUP2 MSTORE PUSH1 0x4 ADD PUSH2 0x6EF SWAP1 PUSH2 0x16E5 JUMP JUMPDEST PUSH1 0x1 PUSH1 0x1 PUSH1 0xA0 SHL SUB DUP2 AND PUSH1 0x0 SWAP1 DUP2 MSTORE PUSH1 0x12 PUSH1 0x20 MSTORE PUSH1 0x40 SWAP1 DUP2 SWAP1 KECCAK256 DUP1 SLOAD PUSH1 0xFF NOT AND SWAP1 SSTORE MLOAD PUSH32 0xC782889D4EB26C6EFFAA6305A7075C22C2A6E2919DDF49A4A851FECF59CFC75F SWAP1 PUSH2 0xD1E SWAP1 DUP4 SWAP1 PUSH2 0x15A8 JUMP JUMPDEST PUSH2 0xE72 PUSH2 0xF67 JUMP JUMPDEST PUSH1 0x1 PUSH1 0x1 PUSH1 0xA0 SHL SUB AND PUSH2 0xE83 PUSH2 0x9D8 JUMP JUMPDEST PUSH1 0x1 PUSH1 0x1 PUSH1 0xA0 SHL SUB AND EQ PUSH2 0xEA9 JUMPI PUSH1 0x40 MLOAD PUSH3 0x461BCD PUSH1 0xE5 SHL DUP2 MSTORE PUSH1 0x4 ADD PUSH2 0x6EF SWAP1 PUSH2 0x1780 JUMP JUMPDEST PUSH1 0xD DUP1 SLOAD PUSH1 0x1 PUSH1 0x1 PUSH1 0xA0 SHL SUB NOT AND PUSH1 0x1 PUSH1 0x1 PUSH1 0xA0 SHL SUB SWAP3 SWAP1 SWAP3 AND SWAP2 SWAP1 SWAP2 OR SWAP1 SSTORE JUMP JUMPDEST PUSH1 0x1 PUSH1 0x1 PUSH1 0xA0 SHL SUB SWAP2 DUP3 AND PUSH1 0x0 SWAP1 DUP2 MSTORE PUSH1 0x1 PUSH1 0x20 SWAP1 DUP2 MSTORE PUSH1 0x40 DUP1 DUP4 KECCAK256 SWAP4 SWAP1 SWAP5 AND DUP3 MSTORE SWAP2 SWAP1 SWAP2 MSTORE KECCAK256 SLOAD SWAP1 JUMP JUMPDEST PUSH2 0xEFE PUSH2 0xF67 JUMP JUMPDEST PUSH1 0x1 PUSH1 0x1 PUSH1 0xA0 SHL SUB AND PUSH2 0xF0F PUSH2 0x9D8 JUMP JUMPDEST PUSH1 0x1 PUSH1 0x1 PUSH1 0xA0 SHL SUB AND EQ PUSH2 0xF35 JUMPI PUSH1 0x40 MLOAD PUSH3 0x461BCD PUSH1 0xE5 SHL DUP2 MSTORE PUSH1 0x4 ADD PUSH2 0x6EF SWAP1 PUSH2 0x1780 JUMP JUMPDEST PUSH1 0x1 PUSH1 0x1 PUSH1 0xA0 SHL SUB DUP2 AND PUSH2 0xF5B JUMPI PUSH1 0x40 MLOAD PUSH3 0x461BCD PUSH1 0xE5 SHL DUP2 MSTORE PUSH1 0x4 ADD PUSH2 0x6EF SWAP1 PUSH2 0x165D JUMP JUMPDEST PUSH2 0xF64 DUP2 PUSH2 0x12D0 JUMP JUMPDEST POP JUMP JUMPDEST CALLER SWAP1 JUMP JUMPDEST PUSH1 0x1 PUSH1 0x1 PUSH1 0xA0 SHL SUB DUP4 AND PUSH2 0xF91 JUMPI PUSH1 0x40 MLOAD PUSH3 0x461BCD PUSH1 0xE5 SHL DUP2 MSTORE PUSH1 0x4 ADD PUSH2 0x6EF SWAP1 PUSH2 0x17FA JUMP JUMPDEST PUSH1 0x1 PUSH1 0x1 PUSH1 0xA0 SHL SUB DUP3 AND PUSH2 0xFB7 JUMPI PUSH1 0x40 MLOAD PUSH3 0x461BCD PUSH1 0xE5 SHL DUP2 MSTORE PUSH1 0x4 ADD PUSH2 0x6EF SWAP1 PUSH2 0x16A3 JUMP JUMPDEST PUSH1 0x1 PUSH1 0x1 PUSH1 0xA0 SHL SUB DUP1 DUP5 AND PUSH1 0x0 DUP2 DUP2 MSTORE PUSH1 0x1 PUSH1 0x20 SWAP1 DUP2 MSTORE PUSH1 0x40 DUP1 DUP4 KECCAK256 SWAP5 DUP8 AND DUP1 DUP5 MSTORE SWAP5 SWAP1 SWAP2 MSTORE SWAP1 DUP2 SWAP1 KECCAK256 DUP5 SWAP1 SSTORE MLOAD PUSH32 0x8C5BE1E5EBEC7D5BD14F71427D1E84F3DD0314C0F7B2291E5B200AC8C7C3B925 SWAP1 PUSH2 0x1012 SWAP1 DUP6 SWAP1 PUSH2 0x1883 JUMP JUMPDEST PUSH1 0x40 MLOAD DUP1 SWAP2 SUB SWAP1 LOG3 POP POP POP JUMP JUMPDEST PUSH1 0x1 PUSH1 0x1 PUSH1 0xA0 SHL SUB DUP4 AND PUSH2 0x1045 JUMPI PUSH1 0x40 MLOAD PUSH3 0x461BCD PUSH1 0xE5 SHL DUP2 MSTORE PUSH1 0x4 ADD PUSH2 0x6EF SWAP1 PUSH2 0x17B5 JUMP JUMPDEST PUSH1 0x1 PUSH1 0x1 PUSH1 0xA0 SHL SUB DUP3 AND PUSH2 0x106B JUMPI PUSH1 0x40 MLOAD PUSH3 0x461BCD PUSH1 0xE5 SHL DUP2 MSTORE PUSH1 0x4 ADD PUSH2 0x6EF SWAP1 PUSH2 0x161A JUMP JUMPDEST PUSH1 0x1 PUSH1 0x1 PUSH1 0xA0 SHL SUB DUP4 AND PUSH1 0x0 SWAP1 DUP2 MSTORE PUSH1 0x11 PUSH1 0x20 MSTORE PUSH1 0x40 SWAP1 KECCAK256 SLOAD PUSH1 0xFF AND ISZERO DUP1 ISZERO PUSH2 0x10AD JUMPI POP PUSH1 0x1 PUSH1 0x1 PUSH1 0xA0 SHL SUB DUP3 AND PUSH1 0x0 SWAP1 DUP2 MSTORE PUSH1 0x11 PUSH1 0x20 MSTORE PUSH1 0x40 SWAP1 KECCAK256 SLOAD PUSH1 0xFF AND ISZERO JUMPDEST PUSH2 0x10C9 JUMPI PUSH1 0x40 MLOAD PUSH3 0x461BCD PUSH1 0xE5 SHL DUP2 MSTORE PUSH1 0x4 ADD PUSH2 0x6EF SWAP1 PUSH2 0x1753 JUMP JUMPDEST PUSH1 0x1 PUSH1 0x1 PUSH1 0xA0 SHL SUB DUP4 AND PUSH1 0x0 SWAP1 DUP2 MSTORE PUSH1 0x12 PUSH1 0x20 MSTORE PUSH1 0x40 DUP2 KECCAK256 SLOAD PUSH1 0x1 SWAP2 SWAP1 PUSH2 0x10F4 SWAP1 DUP5 SWAP1 PUSH1 0xFF AND PUSH2 0x1322 JUMP JUMPDEST PUSH1 0x1 PUSH1 0x1 PUSH1 0xA0 SHL SUB DUP7 AND PUSH1 0x0 SWAP1 DUP2 MSTORE PUSH1 0x12 PUSH1 0x20 MSTORE PUSH1 0x40 SWAP1 KECCAK256 SLOAD SWAP1 SWAP2 POP PUSH1 0xFF AND DUP1 PUSH2 0x1136 JUMPI POP PUSH1 0x1 PUSH1 0x1 PUSH1 0xA0 SHL SUB DUP5 AND PUSH1 0x0 SWAP1 DUP2 MSTORE PUSH1 0x12 PUSH1 0x20 MSTORE PUSH1 0x40 SWAP1 KECCAK256 SLOAD PUSH1 0xFF AND JUMPDEST ISZERO PUSH2 0x1140 JUMPI PUSH1 0x0 SWAP2 POP JUMPDEST DUP3 DUP3 ISZERO PUSH2 0x1221 JUMPI POP PUSH1 0xA0 DUP2 ADD MLOAD PUSH1 0x60 DUP3 ADD MLOAD PUSH1 0xF SLOAD PUSH1 0x1 PUSH1 0x1 PUSH1 0xA0 SHL SUB AND PUSH1 0x0 SWAP1 DUP2 MSTORE PUSH1 0x7 PUSH1 0x20 MSTORE PUSH1 0x40 DUP2 KECCAK256 DUP1 SLOAD SWAP1 SWAP2 SWAP1 PUSH2 0x117C SWAP1 DUP5 SWAP1 PUSH2 0x189A JUMP JUMPDEST SWAP1 SWAP2 SSTORE POP POP PUSH1 0x40 DUP1 DUP4 ADD MLOAD PUSH1 0xE SLOAD PUSH1 0x1 PUSH1 0x1 PUSH1 0xA0 SHL SUB AND PUSH1 0x0 SWAP1 DUP2 MSTORE PUSH1 0x7 PUSH1 0x20 MSTORE SWAP2 DUP3 KECCAK256 DUP1 SLOAD SWAP2 SWAP3 SWAP1 SWAP2 PUSH2 0x11B1 SWAP1 DUP5 SWAP1 PUSH2 0x189A JUMP JUMPDEST SWAP1 SWAP2 SSTORE POP POP PUSH1 0x80 DUP3 ADD MLOAD PUSH1 0x10 SLOAD PUSH1 0x1 PUSH1 0x1 PUSH1 0xA0 SHL SUB AND PUSH1 0x0 SWAP1 DUP2 MSTORE PUSH1 0x7 PUSH1 0x20 MSTORE PUSH1 0x40 DUP2 KECCAK256 DUP1 SLOAD SWAP1 SWAP2 SWAP1 PUSH2 0x11E5 SWAP1 DUP5 SWAP1 PUSH2 0x189A JUMP JUMPDEST SWAP1 SWAP2 SSTORE POP POP PUSH1 0x20 DUP1 DUP4 ADD MLOAD PUSH1 0xD SLOAD PUSH1 0x1 PUSH1 0x1 PUSH1 0xA0 SHL SUB AND PUSH1 0x0 SWAP1 DUP2 MSTORE PUSH1 0x7 SWAP1 SWAP3 MSTORE PUSH1 0x40 DUP3 KECCAK256 DUP1 SLOAD SWAP2 SWAP3 SWAP1 SWAP2 PUSH2 0x121B SWAP1 DUP5 SWAP1 PUSH2 0x189A JUMP JUMPDEST SWAP1 SWAP2 SSTORE POP POP JUMPDEST PUSH1 0x1 PUSH1 0x1 PUSH1 0xA0 SHL SUB DUP7 AND PUSH1 0x0 SWAP1 DUP2 MSTORE PUSH1 0x7 PUSH1 0x20 MSTORE PUSH1 0x40 DUP2 KECCAK256 DUP1 SLOAD DUP7 SWAP3 SWAP1 PUSH2 0x1249 SWAP1 DUP5 SWAP1 PUSH2 0x1A08 JUMP JUMPDEST SWAP1 SWAP2 SSTORE POP POP PUSH1 0x1 PUSH1 0x1 PUSH1 0xA0 SHL SUB DUP6 AND PUSH1 0x0 SWAP1 DUP2 MSTORE PUSH1 0x7 PUSH1 0x20 MSTORE PUSH1 0x40 DUP2 KECCAK256 DUP1 SLOAD DUP4 SWAP3 SWAP1 PUSH2 0x1276 SWAP1 DUP5 SWAP1 PUSH2 0x189A JUMP JUMPDEST SWAP3 POP POP DUP2 SWAP1 SSTORE POP DUP5 PUSH1 0x1 PUSH1 0x1 PUSH1 0xA0 SHL SUB AND DUP7 PUSH1 0x1 PUSH1 0x1 PUSH1 0xA0 SHL SUB AND PUSH32 0xDDF252AD1BE2C89B69C2B068FC378DAA952BA7F163C4A11628F55A4DF523B3EF DUP4 PUSH1 0x40 MLOAD PUSH2 0x12C0 SWAP2 SWAP1 PUSH2 0x1883 JUMP JUMPDEST PUSH1 0x40 MLOAD DUP1 SWAP2 SUB SWAP1 LOG3 POP POP POP POP POP POP JUMP JUMPDEST PUSH1 0x5 DUP1 SLOAD PUSH1 0x1 PUSH1 0x1 PUSH1 0xA0 SHL SUB DUP4 DUP2 AND PUSH1 0x1 PUSH1 0x1 PUSH1 0xA0 SHL SUB NOT DUP4 AND DUP2 OR SWAP1 SWAP4 SSTORE PUSH1 0x40 MLOAD SWAP2 AND SWAP2 SWAP1 DUP3 SWAP1 PUSH32 0x8BE0079C531659141344CD1FD0A4F28419497F9722A3DAAFE3B4186F6B6457E0 SWAP1 PUSH1 0x0 SWAP1 LOG3 POP POP JUMP JUMPDEST PUSH2 0x132A PUSH2 0x1449 JUMP JUMPDEST PUSH2 0x1332 PUSH2 0x1449 JUMP JUMPDEST DUP4 DUP2 MSTORE PUSH2 0x81C DUP2 DUP5 DUP1 ISZERO PUSH2 0x134C JUMPI DUP2 MLOAD PUSH1 0xA0 DUP4 ADD MSTORE PUSH2 0x140D JUMP JUMPDEST DUP2 MLOAD PUSH1 0x10 SLOAD PUSH2 0x1367 SWAP2 SWAP1 PUSH1 0x1 PUSH1 0xA8 SHL SWAP1 DIV PUSH1 0xFF AND PUSH1 0x0 PUSH2 0x1411 JUMP JUMPDEST PUSH1 0x40 DUP4 ADD MSTORE DUP2 MLOAD PUSH1 0x10 SLOAD PUSH2 0x1387 SWAP2 SWAP1 PUSH1 0x1 PUSH1 0xA0 SHL SWAP1 DIV PUSH1 0xFF AND PUSH1 0x0 PUSH2 0x1411 JUMP JUMPDEST PUSH1 0x20 DUP4 ADD MSTORE DUP2 MLOAD PUSH1 0x10 SLOAD PUSH2 0x13A7 SWAP2 SWAP1 PUSH1 0x1 PUSH1 0xB0 SHL SWAP1 DIV PUSH1 0xFF AND PUSH1 0x0 PUSH2 0x1411 JUMP JUMPDEST PUSH1 0x60 DUP4 ADD MSTORE DUP2 MLOAD PUSH1 0x10 SLOAD PUSH2 0x13C7 SWAP2 SWAP1 PUSH1 0x1 PUSH1 0xB8 SHL SWAP1 DIV PUSH1 0xFF AND PUSH1 0x0 PUSH2 0x1411 JUMP JUMPDEST PUSH1 0x80 DUP4 ADD DUP2 SWAP1 MSTORE PUSH1 0x60 DUP4 ADD MLOAD PUSH1 0x20 DUP5 ADD MLOAD PUSH1 0x40 DUP6 ADD MLOAD DUP6 MLOAD PUSH2 0x13E9 SWAP2 SWAP1 PUSH2 0x1A08 JUMP JUMPDEST PUSH2 0x13F3 SWAP2 SWAP1 PUSH2 0x1A08 JUMP JUMPDEST PUSH2 0x13FD SWAP2 SWAP1 PUSH2 0x1A08 JUMP JUMPDEST PUSH2 0x1407 SWAP2 SWAP1 PUSH2 0x1A08 JUMP JUMPDEST PUSH1 0xA0 DUP4 ADD MSTORE JUMPDEST POP POP JUMP JUMPDEST PUSH1 0x0 PUSH1 0x64 PUSH2 0x1420 DUP4 PUSH1 0xA PUSH2 0x1918 JUMP JUMPDEST PUSH2 0x142D PUSH1 0xFF DUP7 AND DUP8 PUSH2 0x19E9 JUMP JUMPDEST PUSH2 0x1437 SWAP2 SWAP1 PUSH2 0x18B2 JUMP JUMPDEST PUSH2 0x1441 SWAP2 SWAP1 PUSH2 0x18B2 JUMP JUMPDEST SWAP5 SWAP4 POP POP POP POP JUMP JUMPDEST PUSH1 0x40 MLOAD DUP1 PUSH1 0xC0 ADD PUSH1 0x40 MSTORE DUP1 PUSH1 0x0 DUP2 MSTORE PUSH1 0x20 ADD PUSH1 0x0 DUP2 MSTORE PUSH1 0x20 ADD PUSH1 0x0 DUP2 MSTORE PUSH1 0x20 ADD PUSH1 0x0 DUP2 MSTORE PUSH1 0x20 ADD PUSH1 0x0 DUP2 MSTORE PUSH1 0x20 ADD PUSH1 0x0 DUP2 MSTORE POP SWAP1 JUMP JUMPDEST PUSH1 0x0 PUSH1 0x20 DUP3 DUP5 SUB SLT ISZERO PUSH2 0x1490 JUMPI DUP1 DUP2 REVERT JUMPDEST DUP2 CALLDATALOAD PUSH2 0x81C DUP2 PUSH2 0x1A70 JUMP JUMPDEST PUSH1 0x0 DUP1 PUSH1 0x40 DUP4 DUP6 SUB SLT ISZERO PUSH2 0x14AD JUMPI DUP1 DUP2 REVERT JUMPDEST DUP3 CALLDATALOAD PUSH2 0x14B8 DUP2 PUSH2 0x1A70 JUMP JUMPDEST SWAP2 POP PUSH1 0x20 DUP4 ADD CALLDATALOAD PUSH2 0x14C8 DUP2 PUSH2 0x1A70 JUMP JUMPDEST DUP1 SWAP2 POP POP SWAP3 POP SWAP3 SWAP1 POP JUMP JUMPDEST PUSH1 0x0 DUP1 PUSH1 0x0 PUSH1 0x60 DUP5 DUP7 SUB SLT ISZERO PUSH2 0x14E7 JUMPI DUP1 DUP2 REVERT JUMPDEST DUP4 CALLDATALOAD PUSH2 0x14F2 DUP2 PUSH2 0x1A70 JUMP JUMPDEST SWAP3 POP PUSH1 0x20 DUP5 ADD CALLDATALOAD PUSH2 0x1502 DUP2 PUSH2 0x1A70 JUMP JUMPDEST SWAP3 SWAP6 SWAP3 SWAP5 POP POP POP PUSH1 0x40 SWAP2 SWAP1 SWAP2 ADD CALLDATALOAD SWAP1 JUMP JUMPDEST PUSH1 0x0 DUP1 PUSH1 0x40 DUP4 DUP6 SUB SLT ISZERO PUSH2 0x1525 JUMPI DUP2 DUP3 REVERT JUMPDEST DUP3 CALLDATALOAD PUSH2 0x1530 DUP2 PUSH2 0x1A70 JUMP JUMPDEST SWAP2 POP PUSH1 0x20 DUP4 ADD CALLDATALOAD DUP1 ISZERO ISZERO DUP2 EQ PUSH2 0x14C8 JUMPI DUP2 DUP3 REVERT JUMPDEST PUSH1 0x0 DUP1 PUSH1 0x40 DUP4 DUP6 SUB SLT ISZERO PUSH2 0x1556 JUMPI DUP2 DUP3 REVERT JUMPDEST DUP3 CALLDATALOAD PUSH2 0x1561 DUP2 PUSH2 0x1A70 JUMP JUMPDEST SWAP5 PUSH1 0x20 SWAP4 SWAP1 SWAP4 ADD CALLDATALOAD SWAP4 POP POP POP JUMP JUMPDEST PUSH1 0x0 PUSH1 0x20 DUP3 DUP5 SUB SLT ISZERO PUSH2 0x1580 JUMPI DUP1 DUP2 REVERT JUMPDEST POP CALLDATALOAD SWAP2 SWAP1 POP JUMP JUMPDEST PUSH1 0x0 PUSH1 0x20 DUP3 DUP5 SUB SLT ISZERO PUSH2 0x1598 JUMPI DUP1 DUP2 REVERT JUMPDEST DUP2 CALLDATALOAD PUSH1 0xFF DUP2 AND DUP2 EQ PUSH2 0x81C JUMPI DUP2 DUP3 REVERT JUMPDEST PUSH1 0x1 PUSH1 0x1 PUSH1 0xA0 SHL SUB SWAP2 SWAP1 SWAP2 AND DUP2 MSTORE PUSH1 0x20 ADD SWAP1 JUMP JUMPDEST SWAP1 ISZERO ISZERO DUP2 MSTORE PUSH1 0x20 ADD SWAP1 JUMP JUMPDEST PUSH1 0x0 PUSH1 0x20 DUP1 DUP4 MSTORE DUP4 MLOAD DUP1 DUP3 DUP6 ADD MSTORE DUP3 JUMPDEST DUP2 DUP2 LT ISZERO PUSH2 0x15F3 JUMPI DUP6 DUP2 ADD DUP4 ADD MLOAD DUP6 DUP3 ADD PUSH1 0x40 ADD MSTORE DUP3 ADD PUSH2 0x15D7 JUMP JUMPDEST DUP2 DUP2 GT ISZERO PUSH2 0x1604 JUMPI DUP4 PUSH1 0x40 DUP4 DUP8 ADD ADD MSTORE JUMPDEST POP PUSH1 0x1F ADD PUSH1 0x1F NOT AND SWAP3 SWAP1 SWAP3 ADD PUSH1 0x40 ADD SWAP4 SWAP3 POP POP POP JUMP JUMPDEST PUSH1 0x20 DUP1 DUP3 MSTORE PUSH1 0x23 SWAP1 DUP3 ADD MSTORE PUSH32 0x45524332303A207472616E7366657220746F20746865207A65726F2061646472 PUSH1 0x40 DUP3 ADD MSTORE PUSH3 0x657373 PUSH1 0xE8 SHL PUSH1 0x60 DUP3 ADD MSTORE PUSH1 0x80 ADD SWAP1 JUMP JUMPDEST PUSH1 0x20 DUP1 DUP3 MSTORE PUSH1 0x26 SWAP1 DUP3 ADD MSTORE PUSH32 0x4F776E61626C653A206E6577206F776E657220697320746865207A65726F2061 PUSH1 0x40 DUP3 ADD MSTORE PUSH6 0x646472657373 PUSH1 0xD0 SHL PUSH1 0x60 DUP3 ADD MSTORE PUSH1 0x80 ADD SWAP1 JUMP JUMPDEST PUSH1 0x20 DUP1 DUP3 MSTORE PUSH1 0x22 SWAP1 DUP3 ADD MSTORE PUSH32 0x45524332303A20617070726F766520746F20746865207A65726F206164647265 PUSH1 0x40 DUP3 ADD MSTORE PUSH2 0x7373 PUSH1 0xF0 SHL PUSH1 0x60 DUP3 ADD MSTORE PUSH1 0x80 ADD SWAP1 JUMP JUMPDEST PUSH1 0x20 DUP1 DUP3 MSTORE PUSH1 0x1C SWAP1 DUP3 ADD MSTORE PUSH32 0x4163636F756E7420697320616C726561647920696E636C756465642E00000000 PUSH1 0x40 DUP3 ADD MSTORE PUSH1 0x60 ADD SWAP1 JUMP JUMPDEST PUSH1 0x20 DUP1 DUP3 MSTORE PUSH1 0x1C SWAP1 DUP3 ADD MSTORE PUSH32 0x4163636F756E7420697320616C7265616479206578636C756465642E00000000 PUSH1 0x40 DUP3 ADD MSTORE PUSH1 0x60 ADD SWAP1 JUMP JUMPDEST PUSH1 0x20 DUP1 DUP3 MSTORE PUSH1 0x13 SWAP1 DUP3 ADD MSTORE PUSH19 0x426C61636B6C69737465642061646472657373 PUSH1 0x68 SHL PUSH1 0x40 DUP3 ADD MSTORE PUSH1 0x60 ADD SWAP1 JUMP JUMPDEST PUSH1 0x20 DUP1 DUP3 MSTORE DUP2 DUP2 ADD MSTORE PUSH32 0x4F776E61626C653A2063616C6C6572206973206E6F7420746865206F776E6572 PUSH1 0x40 DUP3 ADD MSTORE PUSH1 0x60 ADD SWAP1 JUMP JUMPDEST PUSH1 0x20 DUP1 DUP3 MSTORE PUSH1 0x25 SWAP1 DUP3 ADD MSTORE PUSH32 0x45524332303A207472616E736665722066726F6D20746865207A65726F206164 PUSH1 0x40 DUP3 ADD MSTORE PUSH5 0x6472657373 PUSH1 0xD8 SHL PUSH1 0x60 DUP3 ADD MSTORE PUSH1 0x80 ADD SWAP1 JUMP JUMPDEST PUSH1 0x20 DUP1 DUP3 MSTORE PUSH1 0x24 SWAP1 DUP3 ADD MSTORE PUSH32 0x45524332303A20617070726F76652066726F6D20746865207A65726F20616464 PUSH1 0x40 DUP3 ADD MSTORE PUSH4 0x72657373 PUSH1 0xE0 SHL PUSH1 0x60 DUP3 ADD MSTORE PUSH1 0x80 ADD SWAP1 JUMP JUMPDEST PUSH1 0x20 DUP1 DUP3 MSTORE PUSH1 0x25 SWAP1 DUP3 ADD MSTORE PUSH32 0x45524332303A2064656372656173656420616C6C6F77616E63652062656C6F77 PUSH1 0x40 DUP3 ADD MSTORE PUSH5 0x207A65726F PUSH1 0xD8 SHL PUSH1 0x60 DUP3 ADD MSTORE PUSH1 0x80 ADD SWAP1 JUMP JUMPDEST SWAP1 DUP2 MSTORE PUSH1 0x20 ADD SWAP1 JUMP JUMPDEST PUSH1 0xFF SWAP2 SWAP1 SWAP2 AND DUP2 MSTORE PUSH1 0x20 ADD SWAP1 JUMP JUMPDEST PUSH1 0x0 DUP3 NOT DUP3 GT ISZERO PUSH2 0x18AD JUMPI PUSH2 0x18AD PUSH2 0x1A5A JUMP JUMPDEST POP ADD SWAP1 JUMP JUMPDEST PUSH1 0x0 DUP3 PUSH2 0x18CD JUMPI PUSH4 0x4E487B71 PUSH1 0xE0 SHL DUP2 MSTORE PUSH1 0x12 PUSH1 0x4 MSTORE PUSH1 0x24 DUP2 REVERT JUMPDEST POP DIV SWAP1 JUMP JUMPDEST DUP1 DUP3 JUMPDEST PUSH1 0x1 DUP1 DUP7 GT PUSH2 0x18E4 JUMPI POP PUSH2 0x190F JUMP JUMPDEST DUP2 DUP8 DIV DUP3 GT ISZERO PUSH2 0x18F6 JUMPI PUSH2 0x18F6 PUSH2 0x1A5A JUMP JUMPDEST DUP1 DUP7 AND ISZERO PUSH2 0x1903 JUMPI SWAP2 DUP2 MUL SWAP2 JUMPDEST SWAP5 SWAP1 SWAP5 SHR SWAP4 DUP1 MUL PUSH2 0x18D5 JUMP JUMPDEST SWAP5 POP SWAP5 SWAP3 POP POP POP JUMP JUMPDEST PUSH1 0x0 PUSH2 0x81C PUSH1 0x0 NOT PUSH1 0xFF DUP6 AND DUP5 PUSH1 0x0 DUP3 PUSH2 0x1934 JUMPI POP PUSH1 0x1 PUSH2 0x81C JUMP JUMPDEST DUP2 PUSH2 0x1941 JUMPI POP PUSH1 0x0 PUSH2 0x81C JUMP JUMPDEST DUP2 PUSH1 0x1 DUP2 EQ PUSH2 0x1957 JUMPI PUSH1 0x2 DUP2 EQ PUSH2 0x1961 JUMPI PUSH2 0x198E JUMP JUMPDEST PUSH1 0x1 SWAP2 POP POP PUSH2 0x81C JUMP JUMPDEST PUSH1 0xFF DUP5 GT ISZERO PUSH2 0x1972 JUMPI PUSH2 0x1972 PUSH2 0x1A5A JUMP JUMPDEST PUSH1 0x1 DUP5 SHL SWAP2 POP DUP5 DUP3 GT ISZERO PUSH2 0x1988 JUMPI PUSH2 0x1988 PUSH2 0x1A5A JUMP JUMPDEST POP PUSH2 0x81C JUMP JUMPDEST POP PUSH1 0x20 DUP4 LT PUSH2 0x133 DUP4 LT AND PUSH1 0x4E DUP5 LT PUSH1 0xB DUP5 LT AND OR ISZERO PUSH2 0x19C1 JUMPI POP DUP2 DUP2 EXP DUP4 DUP2 GT ISZERO PUSH2 0x19BC JUMPI PUSH2 0x19BC PUSH2 0x1A5A JUMP JUMPDEST PUSH2 0x81C JUMP JUMPDEST PUSH2 0x19CE DUP5 DUP5 DUP5 PUSH1 0x1 PUSH2 0x18D2 JUMP JUMPDEST DUP1 DUP7 DIV DUP3 GT ISZERO PUSH2 0x19E0 JUMPI PUSH2 0x19E0 PUSH2 0x1A5A JUMP JUMPDEST MUL SWAP5 SWAP4 POP POP POP POP JUMP JUMPDEST PUSH1 0x0 DUP2 PUSH1 0x0 NOT DIV DUP4 GT DUP3 ISZERO ISZERO AND ISZERO PUSH2 0x1A03 JUMPI PUSH2 0x1A03 PUSH2 0x1A5A JUMP JUMPDEST POP MUL SWAP1 JUMP JUMPDEST PUSH1 0x0 DUP3 DUP3 LT ISZERO PUSH2 0x1A1A JUMPI PUSH2 0x1A1A PUSH2 0x1A5A JUMP JUMPDEST POP SUB SWAP1 JUMP JUMPDEST PUSH1 0x2 DUP2 DIV PUSH1 0x1 DUP3 AND DUP1 PUSH2 0x1A33 JUMPI PUSH1 0x7F DUP3 AND SWAP2 POP JUMPDEST PUSH1 0x20 DUP3 LT DUP2 EQ ISZERO PUSH2 0x1A54 JUMPI PUSH4 0x4E487B71 PUSH1 0xE0 SHL PUSH1 0x0 MSTORE PUSH1 0x22 PUSH1 0x4 MSTORE PUSH1 0x24 PUSH1 0x0 REVERT JUMPDEST POP SWAP2 SWAP1 POP JUMP JUMPDEST PUSH4 0x4E487B71 PUSH1 0xE0 SHL PUSH1 0x0 MSTORE PUSH1 0x11 PUSH1 0x4 MSTORE PUSH1 0x24 PUSH1 0x0 REVERT JUMPDEST PUSH1 0x1 PUSH1 0x1 PUSH1 0xA0 SHL SUB DUP2 AND DUP2 EQ PUSH2 0xF64 JUMPI PUSH1 0x0 DUP1 REVERT INVALID LOG2 PUSH5 0x6970667358 0x22 SLT KECCAK256 0xA6 0xDF RETURNDATACOPY PUSH23 0xADFE8B5B7F69C8D8D8720B9842094068D0F6EC8A0D0C31 CALLCODE ADDMOD PUSH7 0xB2CB64736F6C63 NUMBER STOP ADDMOD STOP STOP CALLER DUP12 0xE0 SMOD SWAP13 MSTORE8 AND MSIZE EQ SGT DIFFICULTY 0xCD 0x1F 0xD0 LOG4 CALLCODE DUP5 NOT 0x49 PUSH32 0x9722A3DAAFE3B4186F6B6457E000000000000000000000000000000000000000 "
        },
        "methodIdentifiers": {
          "_isBlacklisted(address)": "1cdd3be3",
          "allowance(address,address)": "dd62ed3e",
          "approve(address,uint256)": "095ea7b3",
          "balanceOf(address)": "70a08231",
          "blacklistMalicious(address,bool)": "d8929342",
          "decimals()": "313ce567",
          "decreaseAllowance(address,uint256)": "a457c2d7",
          "excludeAccountFromFee(address)": "d6b4212b",
          "includeAccountInFee(address)": "daa93341",
          "increaseAllowance(address,uint256)": "39509351",
          "isExcludedFromFee(address)": "5342acb4",
          "liquidityPoolFee()": "54f12f1f",
          "lockInTeamWallet(address)": "15d957d3",
          "name()": "06fdde03",
          "owner()": "8da5cb5b",
          "renounceOwnership()": "715018a6",
          "rewardsFee()": "2bb14e1d",
          "symbol()": "95d89b41",
          "teamFee()": "d7c94efd",
          "totalSupply()": "18160ddd",
          "transfer(address,uint256)": "a9059cbb",
          "transferFrom(address,address,uint256)": "23b872dd",
          "transferOwnership(address)": "f2fde38b",
          "treasuryFee()": "cc32d176",
          "updateLiquidityFee(uint8)": "1519f1f0",
          "updateLiquidityPool(address)": "dd3cdf6c",
          "updateRewardsFee(uint8)": "addacb9e",
          "updateRewardsPool(address)": "6653a340",
          "updateTeamPoolAlloc(uint256)": "8f859c55",
          "updateTreasuryFee(uint8)": "2deef284",
          "updateTreasuryPool(address)": "b14a1e8e",
          "updateteamFee(uint8)": "904d8f68",
          "updateteamPool(address)": "c76cf14a"
        }
      }
    }
  }
}