{
  "contracts/NodeManager.sol": {
    "NodeManager": {
      "abi": [
        {
          "inputs": [],
          "stateMutability": "nonpayable",
          "type": "constructor"
        },
        {
          "inputs": [
            {
              "internalType": "address",
              "name": "account",
              "type": "address"
            }
          ],
          "name": "_cashoutAllNodesReward",
          "outputs": [
            {
              "internalType": "uint256",
              "name": "",
              "type": "uint256"
            }
          ],
          "stateMutability": "nonpayable",
          "type": "function"
        },
        {
          "inputs": [
            {
              "internalType": "address",
              "name": "account",
              "type": "address"
            },
            {
              "internalType": "uint256",
              "name": "_creationTime",
              "type": "uint256"
            }
          ],
          "name": "_cashoutNodeReward",
          "outputs": [
            {
              "internalType": "uint256",
              "name": "",
              "type": "uint256"
            }
          ],
          "stateMutability": "nonpayable",
          "type": "function"
        },
        {
          "inputs": [
            {
              "internalType": "bool",
              "name": "newMode",
              "type": "bool"
            }
          ],
          "name": "_changeAutoDistri",
          "outputs": [],
          "stateMutability": "nonpayable",
          "type": "function"
        },
        {
          "inputs": [
            {
              "internalType": "uint256",
              "name": "newTime",
              "type": "uint256"
            }
          ],
          "name": "_changeClaimTime",
          "outputs": [],
          "stateMutability": "nonpayable",
          "type": "function"
        },
        {
          "inputs": [
            {
              "internalType": "uint256",
              "name": "newGasDistri",
              "type": "uint256"
            }
          ],
          "name": "_changeGasDistri",
          "outputs": [],
          "stateMutability": "nonpayable",
          "type": "function"
        },
        {
          "inputs": [
            {
              "internalType": "uint256",
              "name": "newNodePrice",
              "type": "uint256"
            }
          ],
          "name": "_changeNodePrice",
          "outputs": [],
          "stateMutability": "nonpayable",
          "type": "function"
        },
        {
          "inputs": [
            {
              "internalType": "uint256",
              "name": "newPrice",
              "type": "uint256"
            }
          ],
          "name": "_changeRewardPerNode",
          "outputs": [],
          "stateMutability": "nonpayable",
          "type": "function"
        },
        {
          "inputs": [],
          "name": "_distributeRewards",
          "outputs": [
            {
              "internalType": "uint256",
              "name": "",
              "type": "uint256"
            },
            {
              "internalType": "uint256",
              "name": "",
              "type": "uint256"
            },
            {
              "internalType": "uint256",
              "name": "",
              "type": "uint256"
            }
          ],
          "stateMutability": "nonpayable",
          "type": "function"
        },
        {
          "inputs": [],
          "name": "_getClaimTime",
          "outputs": [
            {
              "internalType": "uint256",
              "name": "currentClaimTime",
              "type": "uint256"
            }
          ],
          "stateMutability": "view",
          "type": "function"
        },
        {
          "inputs": [],
          "name": "_getGasForDistri",
          "outputs": [
            {
              "internalType": "uint256",
              "name": "currentGasForDistri",
              "type": "uint256"
            }
          ],
          "stateMutability": "view",
          "type": "function"
        },
        {
          "inputs": [
            {
              "internalType": "address",
              "name": "account",
              "type": "address"
            }
          ],
          "name": "_getNodeNumberOf",
          "outputs": [
            {
              "internalType": "uint256",
              "name": "",
              "type": "uint256"
            }
          ],
          "stateMutability": "view",
          "type": "function"
        },
        {
          "inputs": [],
          "name": "_getNodePrice",
          "outputs": [
            {
              "internalType": "uint256",
              "name": "currentNodePrice",
              "type": "uint256"
            }
          ],
          "stateMutability": "view",
          "type": "function"
        },
        {
          "inputs": [
            {
              "internalType": "address",
              "name": "account",
              "type": "address"
            },
            {
              "internalType": "uint256",
              "name": "creationTime",
              "type": "uint256"
            }
          ],
          "name": "_getNodeRewardAmountOf",
          "outputs": [
            {
              "internalType": "uint256",
              "name": "",
              "type": "uint256"
            }
          ],
          "stateMutability": "view",
          "type": "function"
        },
        {
          "inputs": [
            {
              "internalType": "address",
              "name": "account",
              "type": "address"
            }
          ],
          "name": "_getNodesCreationTime",
          "outputs": [
            {
              "internalType": "string",
              "name": "",
              "type": "string"
            }
          ],
          "stateMutability": "view",
          "type": "function"
        },
        {
          "inputs": [
            {
              "internalType": "address",
              "name": "account",
              "type": "address"
            }
          ],
          "name": "_getNodesLastClaimTime",
          "outputs": [
            {
              "internalType": "string",
              "name": "",
              "type": "string"
            }
          ],
          "stateMutability": "view",
          "type": "function"
        },
        {
          "inputs": [
            {
              "internalType": "address",
              "name": "account",
              "type": "address"
            }
          ],
          "name": "_getNodesNames",
          "outputs": [
            {
              "internalType": "string",
              "name": "",
              "type": "string"
            }
          ],
          "stateMutability": "view",
          "type": "function"
        },
        {
          "inputs": [
            {
              "internalType": "address",
              "name": "account",
              "type": "address"
            }
          ],
          "name": "_getNodesRewardAvailable",
          "outputs": [
            {
              "internalType": "string",
              "name": "",
              "type": "string"
            }
          ],
          "stateMutability": "view",
          "type": "function"
        },
        {
          "inputs": [
            {
              "internalType": "address",
              "name": "account",
              "type": "address"
            }
          ],
          "name": "_getRewardAmountOf",
          "outputs": [
            {
              "internalType": "uint256",
              "name": "",
              "type": "uint256"
            }
          ],
          "stateMutability": "view",
          "type": "function"
        },
        {
          "inputs": [],
          "name": "_getRewardPerNode",
          "outputs": [
            {
              "internalType": "uint256",
              "name": "currentRewardPerNode",
              "type": "uint256"
            }
          ],
          "stateMutability": "view",
          "type": "function"
        },
        {
          "inputs": [],
          "name": "_getTotalNodesCreated",
          "outputs": [
            {
              "internalType": "uint256",
              "name": "",
              "type": "uint256"
            }
          ],
          "stateMutability": "view",
          "type": "function"
        },
        {
          "inputs": [],
          "name": "_getTotalRewardsStaked",
          "outputs": [
            {
              "internalType": "uint256",
              "name": "currentTotalRewardsStaked",
              "type": "uint256"
            }
          ],
          "stateMutability": "view",
          "type": "function"
        },
        {
          "inputs": [
            {
              "internalType": "address",
              "name": "account",
              "type": "address"
            }
          ],
          "name": "_isNodeOwner",
          "outputs": [
            {
              "internalType": "bool",
              "name": "",
              "type": "bool"
            }
          ],
          "stateMutability": "view",
          "type": "function"
        },
        {
          "inputs": [],
          "name": "autoDistri",
          "outputs": [
            {
              "internalType": "bool",
              "name": "",
              "type": "bool"
            }
          ],
          "stateMutability": "view",
          "type": "function"
        },
        {
          "inputs": [],
          "name": "claimTime",
          "outputs": [
            {
              "internalType": "uint256",
              "name": "",
              "type": "uint256"
            }
          ],
          "stateMutability": "view",
          "type": "function"
        },
        {
          "inputs": [
            {
              "internalType": "address",
              "name": "account",
              "type": "address"
            },
            {
              "internalType": "string",
              "name": "nodeName",
              "type": "string"
            }
          ],
          "name": "createNode",
          "outputs": [],
          "stateMutability": "nonpayable",
          "type": "function"
        },
        {
          "inputs": [],
          "name": "distribution",
          "outputs": [
            {
              "internalType": "bool",
              "name": "",
              "type": "bool"
            }
          ],
          "stateMutability": "view",
          "type": "function"
        },
        {
          "inputs": [],
          "name": "gasForDistribution",
          "outputs": [
            {
              "internalType": "uint256",
              "name": "",
              "type": "uint256"
            }
          ],
          "stateMutability": "view",
          "type": "function"
        },
        {
          "inputs": [],
          "name": "gateKeeper",
          "outputs": [
            {
              "internalType": "address",
              "name": "",
              "type": "address"
            }
          ],
          "stateMutability": "view",
          "type": "function"
        },
        {
          "inputs": [],
          "name": "lastDistributionCount",
          "outputs": [
            {
              "internalType": "uint256",
              "name": "",
              "type": "uint256"
            }
          ],
          "stateMutability": "view",
          "type": "function"
        },
        {
          "inputs": [],
          "name": "lastIndexProcessed",
          "outputs": [
            {
              "internalType": "uint256",
              "name": "",
              "type": "uint256"
            }
          ],
          "stateMutability": "view",
          "type": "function"
        },
        {
          "inputs": [],
          "name": "nodePrice",
          "outputs": [
            {
              "internalType": "uint256",
              "name": "",
              "type": "uint256"
            }
          ],
          "stateMutability": "view",
          "type": "function"
        },
        {
          "inputs": [],
          "name": "rewardPerNode",
          "outputs": [
            {
              "internalType": "uint256",
              "name": "",
              "type": "uint256"
            }
          ],
          "stateMutability": "view",
          "type": "function"
        },
        {
          "inputs": [
            {
              "internalType": "address",
              "name": "token_",
              "type": "address"
            }
          ],
          "name": "setToken",
          "outputs": [],
          "stateMutability": "nonpayable",
          "type": "function"
        },
        {
          "inputs": [],
          "name": "token",
          "outputs": [
            {
              "internalType": "address",
              "name": "",
              "type": "address"
            }
          ],
          "stateMutability": "view",
          "type": "function"
        },
        {
          "inputs": [],
          "name": "totalNodesCreated",
          "outputs": [
            {
              "internalType": "uint256",
              "name": "",
              "type": "uint256"
            }
          ],
          "stateMutability": "view",
          "type": "function"
        },
        {
          "inputs": [],
          "name": "totalRewardStaked",
          "outputs": [
            {
              "internalType": "uint256",
              "name": "",
              "type": "uint256"
            }
          ],
          "stateMutability": "view",
          "type": "function"
        }
      ],
      "evm": {
        "bytecode": {
          "linkReferences": {
            "contracts/NodeManager.sol": {
              "IterableMapping": [
                {
                  "length": 20,
                  "start": 1490
                },
                {
                  "length": 20,
                  "start": 2356
                },
                {
                  "length": 20,
                  "start": 6430
                }
              ]
            }
          },
          "object": "60806040526009805460ff60a81b1960ff60a01b19909116600160a01b17169055620493e0600a556000600b819055600c819055600d819055600e5534801561004757600080fd5b50600880546001600160a01b0319163317905561256e806100696000396000f3fe608060405234801561001057600080fd5b506004361061021c5760003560e01c80637247657711610125578063cece91eb116100ad578063dec147261161007c578063dec1472614610417578063ef9bb9881461041f578063f1fec2b814610432578063fb10d6fb1461043a578063fc0c546a146104425761021c565b8063cece91eb146103d6578063d1871a89146103e9578063d34bf94c146103fc578063dab0882a146104045761021c565b8063ab6b4d51116100f4578063ab6b4d5114610398578063b50cf88f146103a0578063b8527aef146103a8578063c6faedc8146103b0578063c92819ce146103c35761021c565b8063724765771461036957806385c44d9d1461037157806388fe6553146103795780638a327eaa146103905761021c565b80634cbab9c0116101a85780636067bd8d116101775780636067bd8d14610320578063613ff46f14610328578063619a635e146103305780636590c691146103435780636edb7002146103565761021c565b80634cbab9c0146102ea5780635759fb02146102f25780635c298b1c146103055780635ee58efc146103185761021c565b8063334de3a2116101ef578063334de3a21461026f57806341ac82b01461028f5780634491a7e4146102af57806345d61ded146102c25780634a389fae146102d75761021c565b806312b8603f1461022157806313804c3b14610236578063144fa6d71461025457806327b3bf1114610267575b600080fd5b61023461022f366004611f19565b61044a565b005b61023e610615565b60405161024b91906123d4565b60405180910390f35b610234610262366004611eff565b61061b565b61023e61067c565b61028261027d366004611eff565b610682565b60405161024b91906120a8565b6102a261029d366004611eff565b6108a8565b60405161024b919061209d565b61023e6102bd366004611eff565b6108b9565b6102ca610945565b60405161024b9190612089565b6102826102e5366004611eff565b610954565b61023e610b73565b610282610300366004611eff565b610b79565b61023e610313366004611eff565b610d98565b6102a2610e83565b61023e610e93565b61023e610e99565b61023e61033e366004611eff565b610e9f565b61023e610351366004611fcd565b610f47565b61023e610364366004611fcd565b610f74565b61023e61102d565b6102a2611033565b610381611043565b60405161024b939291906123dd565b61023e6110a2565b61023e6110a8565b61023e6110ae565b61023e6110b4565b6102346103be366004612016565b6110ba565b6102826103d1366004611eff565b6110fe565b6102346103e4366004612016565b61131d565b6102346103f7366004612016565b611361565b61023e6113a5565b610234610412366004611ff6565b6113ab565b61023e611408565b61023461042d366004612016565b61140e565b61023e611452565b61023e611458565b6102ca61145e565b6009546001600160a01b031633148061046d57506008546001600160a01b031633145b6104925760405162461bcd60e51b815260040161048990612190565b60405180910390fd5b61049c828261146d565b6104b85760405162461bcd60e51b815260040161048990612159565b6001600160a01b0382166000908152600460208181526040808420815160808101835286815242818501819052928101929092526006546060830152805460018101825590855293829020815180519295909402019261051c928492910190611e27565b50602082810151600183015560408084015160028401556060909301516003909201919091556001600160a01b0384166000908152600491829052828120549251632f0ad01760e21b815273__$21b48b873418f37dca126835c22e45242c$__9363bc2b405c936105919392889291016123b5565b60006040518083038186803b1580156105a957600080fd5b505af41580156105bd573d6000803e3d6000fd5b5050600d80549250905060006105d2836124f1565b9091555050600954600160a01b900460ff1680156105fa5750600954600160a81b900460ff16155b156106115761060d600a546006546115fd565b5050505b5050565b600d5490565b6009546001600160a01b031633148061063e57506008546001600160a01b031633145b61065a5760405162461bcd60e51b815260040161048990612190565b600980546001600160a01b0319166001600160a01b0392909216919091179055565b60075481565b606061068d826118a1565b6106a95760405162461bcd60e51b815260040161048990612318565b6001600160a01b038216600090815260046020908152604080832080548251818502810185019093528083529192909190849084015b828210156107c15783829060005260206000209060040201604051806080016040529081600082018054610712906124b6565b80601f016020809104026020016040519081016040528092919081815260200182805461073e906124b6565b801561078b5780601f106107605761010080835404028352916020019161078b565b820191906000526020600020905b81548152906001019060200180831161076e57829003601f168201915b505050505081526020016001820154815260200160028201548152602001600382015481525050815260200190600101906106df565b5050505090506000815190506107d5611eab565b6000836000815181106107f857634e487b7160e01b600052603260045260246000fd5b60200260200101516000015190506000604051806040016040528060018152602001602360f81b81525090506000600190505b8481101561089a5785818151811061085357634e487b7160e01b600052603260045260246000fd5b602002602001015193508282856000015160405160200161087693929190612046565b60405160208183030381529060405292508080610892906124f1565b91505061082b565b50909450505050505b919050565b60006108b3826118a1565b92915050565b60405163732a2ccf60e01b815260009073__$21b48b873418f37dca126835c22e45242c$__9063732a2ccf906108f5908490869060040161239e565b60206040518083038186803b15801561090d57600080fd5b505af4158015610921573d6000803e3d6000fd5b505050506040513d601f19601f820116820180604052508101906108b3919061202e565b6008546001600160a01b031681565b606061095f826118a1565b61097b5760405162461bcd60e51b815260040161048990612225565b6001600160a01b038216600090815260046020908152604080832080548251818502810185019093528083529192909190849084015b82821015610a9357838290600052602060002090600402016040518060800160405290816000820180546109e4906124b6565b80601f0160208091040260200160405190810160405280929190818152602001828054610a10906124b6565b8015610a5d5780601f10610a3257610100808354040283529160200191610a5d565b820191906000526020600020905b815481529060010190602001808311610a4057829003601f168201915b505050505081526020016001820154815260200160028201548152602001600382015481525050815260200190600101906109b1565b505050509050600081519050610aa7611eab565b6000610ade84600081518110610acd57634e487b7160e01b600052603260045260246000fd5b602002602001015160600151611936565b604080518082019091526001808252602360f81b6020830152919250905b8481101561089a57858181518110610b2457634e487b7160e01b600052603260045260246000fd5b602002602001015193508282610b3d8660600151611936565b604051602001610b4f93929190612046565b60405160208183030381529060405292508080610b6b906124f1565b915050610afc565b60065490565b6060610b84826118a1565b610ba05760405162461bcd60e51b8152600401610489906121b7565b6001600160a01b038216600090815260046020908152604080832080548251818502810185019093528083529192909190849084015b82821015610cb85783829060005260206000209060040201604051806080016040529081600082018054610c09906124b6565b80601f0160208091040260200160405190810160405280929190818152602001828054610c35906124b6565b8015610c825780601f10610c5757610100808354040283529160200191610c82565b820191906000526020600020905b815481529060010190602001808311610c6557829003601f168201915b50505050508152602001600182015481526020016002820154815260200160038201548152505081526020019060010190610bd6565b505050509050600081519050610ccc611eab565b6000610d0384600081518110610cf257634e487b7160e01b600052603260045260246000fd5b602002602001015160400151611936565b604080518082019091526001808252602360f81b6020830152919250905b8481101561089a57858181518110610d4957634e487b7160e01b600052603260045260246000fd5b602002602001015193508282610d628660400151611936565b604051602001610d7493929190612046565b60405160208183030381529060405292508080610d90906124f1565b915050610d21565b6009546000906001600160a01b0316331480610dbe57506008546001600160a01b031633145b610dda5760405162461bcd60e51b815260040161048990612190565b6001600160a01b0382166000908152600460205260409020805480610e115760405162461bcd60e51b815260040161048990612112565b600080805b83811015610e7957848181548110610e3e57634e487b7160e01b600052603260045260246000fd5b90600052602060002090600402019250826003015482610e5e91906123f3565b60006003850155915080610e71816124f1565b915050610e16565b5095945050505050565b600954600160a81b900460ff1681565b60075490565b60065481565b6000610eaa826118a1565b610ec65760405162461bcd60e51b8152600401610489906122e1565b6001600160a01b038216600090815260046020526040812080549190815b83811015610f3d57818181548110610f0c57634e487b7160e01b600052603260045260246000fd5b90600052602060002090600402016003015483610f2991906123f3565b925080610f35816124f1565b915050610ee4565b5090949350505050565b6001600160a01b0382166000908152600460205260408120610f699083611a7c565b600301549392505050565b6009546000906001600160a01b0316331480610f9a57506008546001600160a01b031633145b610fb65760405162461bcd60e51b815260040161048990612190565b60008211610fd65760405162461bcd60e51b815260040161048990612112565b6001600160a01b038316600090815260046020526040902080548061100d5760405162461bcd60e51b81526004016104899061234f565b60006110198386611a7c565b600301805460009091559695505050505050565b600c5481565b600954600160a01b900460ff1681565b600954600090819081906001600160a01b031633148061106d57506008546001600160a01b031633145b6110895760405162461bcd60e51b815260040161048990612190565b611097600a546006546115fd565b925092509250909192565b600e5481565b60055490565b600e5490565b600d5481565b6009546001600160a01b03163314806110dd57506008546001600160a01b031633145b6110f95760405162461bcd60e51b815260040161048990612190565b600655565b6060611109826118a1565b6111255760405162461bcd60e51b81526004016104899061225c565b6001600160a01b038216600090815260046020908152604080832080548251818502810185019093528083529192909190849084015b8282101561123d578382906000526020600020906004020160405180608001604052908160008201805461118e906124b6565b80601f01602080910402602001604051908101604052809291908181526020018280546111ba906124b6565b80156112075780601f106111dc57610100808354040283529160200191611207565b820191906000526020600020905b8154815290600101906020018083116111ea57829003601f168201915b5050505050815260200160018201548152602001600282015481526020016003820154815250508152602001906001019061115b565b505050509050600081519050611251611eab565b60006112888460008151811061127757634e487b7160e01b600052603260045260246000fd5b602002602001015160200151611936565b604080518082019091526001808252602360f81b6020830152919250905b8481101561089a578581815181106112ce57634e487b7160e01b600052603260045260246000fd5b6020026020010151935082826112e78660200151611936565b6040516020016112f993929190612046565b60405160208183030381529060405292508080611315906124f1565b9150506112a6565b6009546001600160a01b031633148061134057506008546001600160a01b031633145b61135c5760405162461bcd60e51b815260040161048990612190565b600555565b6009546001600160a01b031633148061138457506008546001600160a01b031633145b6113a05760405162461bcd60e51b815260040161048990612190565b600755565b600a5490565b6009546001600160a01b03163314806113ce57506008546001600160a01b031633145b6113ea5760405162461bcd60e51b815260040161048990612190565b60098054911515600160a01b0260ff60a01b19909216919091179055565b600a5481565b6009546001600160a01b031633148061143157506008546001600160a01b031633145b61144d5760405162461bcd60e51b815260040161048990612190565b600a55565b60055481565b600b5481565b6009546001600160a01b031681565b6001600160a01b038216600090815260046020908152604080832080548251818502810185019093528083528493849084015b8282101561158257838290600052602060002090600402016040518060800160405290816000820180546114d3906124b6565b80601f01602080910402602001604051908101604052809291908181526020018280546114ff906124b6565b801561154c5780601f106115215761010080835404028352916020019161154c565b820191906000526020600020905b81548152906001019060200180831161152f57829003601f168201915b505050505081526020016001820154815260200160028201548152602001600382015481525050815260200190600101906114a0565b50505050905060005b81518110156115f25783805190602001208282815181106115bc57634e487b7160e01b600052603260045260246000fd5b6020026020010151600001518051906020012014156115e0576000925050506108b3565b806115ea816124f1565b91505061158b565b506001949350505050565b6009805460ff60a81b1916600160a81b1790556000805481908190806116355760405162461bcd60e51b8152600401610489906121ee565b8061164b575050600c546000925082915061189a565b6000805a600c549091506000908142818080805b8f8a10801561166d57508a86105b15611876578661167c816124f1565b6000549098508810905061168f57600096505b600460008060000189815481106116b657634e487b7160e01b600052603260045260246000fd5b60009182526020808320909101546001600160a01b0316835282019290925260400181208054955092505b8481101561183e5782818154811061170957634e487b7160e01b600052603260045260246000fd5b906000526020600020906004020191506117dd82604051806080016040529081600082018054611738906124b6565b80601f0160208091040260200160405190810160405280929190818152602001828054611764906124b6565b80156117b15780601f10611786576101008083540402835291602001916117b1565b820191906000526020600020905b81548152906001019060200180831161179457829003601f168201915b505050505081526020016001820154815260200160028201548152602001600382015481525050611c1d565b1561182c578f8260030160008282546117f691906123f3565b925050819055508582600201819055508f600e600082825461181891906123f3565b90915550849050611828816124f1565b9450505b80611836816124f1565b9150506116e1565b5085611849816124f1565b9650505a97508789111561186e5761186b6118648a8a611c3a565b8b90611c83565b99505b87985061165f565b5050600c8590556009805460ff60a81b19169055929a509198509196505050505050505b9250925092565b60405163732a2ccf60e01b8152600090819073__$21b48b873418f37dca126835c22e45242c$__9063732a2ccf906118df908490879060040161239e565b60206040518083038186803b1580156118f757600080fd5b505af415801561190b573d6000803e3d6000fd5b505050506040513d601f19601f8201168201806040525081019061192f919061202e565b1192915050565b60608161195b57506040805180820190915260018152600360fc1b60208201526108a3565b8160005b8115611985578061196f816124f1565b915061197e9050600a83612430565b915061195f565b60008167ffffffffffffffff8111156119ae57634e487b7160e01b600052604160045260246000fd5b6040519080825280601f01601f1916602001820160405280156119d8576020820181803683370190505b509050815b8515611a73576119ee60018261246f565b905060006119fd600a88612430565b611a0890600a612450565b611a12908861246f565b611a1d90603061240b565b905060008160f81b905080848481518110611a4857634e487b7160e01b600052603260045260246000fd5b60200101906001600160f81b031916908160001a905350611a6a600a89612430565b975050506119dd565b50949350505050565b815460009080611a9e5760405162461bcd60e51b81526004016104899061234f565b600080611bb486805480602002602001604051908101604052809291908181526020016000905b82821015611ba75783829060005260206000209060040201604051806080016040529081600082018054611af8906124b6565b80601f0160208091040260200160405190810160405280929190818152602001828054611b24906124b6565b8015611b715780601f10611b4657610100808354040283529160200191611b71565b820191906000526020600020905b815481529060010190602001808311611b5457829003601f168201915b50505050508152602001600182015481526020016002820154815260200160038201548152505081526020019060010190611ac5565b5050505060008588611cb2565b90506000808212611bc6575060019150805b82611be35760405162461bcd60e51b815260040161048990612293565b868181548110611c0357634e487b7160e01b600052603260045260246000fd5b906000526020600020906004020194505050505092915050565b6000426007548360400151611c3291906123f3565b111592915050565b6000611c7c83836040518060400160405280601e81526020017f536166654d6174683a207375627472616374696f6e206f766572666c6f770000815250611d82565b9392505050565b600080611c9083856123f3565b905083811015611c7c5760405162461bcd60e51b8152600401610489906120db565b6000838310611d75576000611cd26002611ccc87876123f3565b90611dbc565b905082868281518110611cf557634e487b7160e01b600052603260045260246000fd5b6020026020010151602001511415611d0e579050611d7a565b82868281518110611d2f57634e487b7160e01b600052603260045260246000fd5b6020026020010151602001511115611d5f57611d578686611d5160018561246f565b86611cb2565b915050611d7a565b611d5786611d6e8360016123f3565b8686611cb2565b506000195b949350505050565b60008184841115611da65760405162461bcd60e51b815260040161048991906120a8565b506000611db3848661246f565b95945050505050565b6000611c7c83836040518060400160405280601a81526020017f536166654d6174683a206469766973696f6e206279207a65726f00000000000081525060008183611e1a5760405162461bcd60e51b815260040161048991906120a8565b506000611db38486612430565b828054611e33906124b6565b90600052602060002090601f016020900481019282611e555760008555611e9b565b82601f10611e6e57805160ff1916838001178555611e9b565b82800160010185558215611e9b579182015b82811115611e9b578251825591602001919060010190611e80565b50611ea7929150611ed3565b5090565b6040518060800160405280606081526020016000815260200160008152602001600081525090565b5b80821115611ea75760008155600101611ed4565b80356001600160a01b03811681146108a357600080fd5b600060208284031215611f10578081fd5b611c7c82611ee8565b60008060408385031215611f2b578081fd5b611f3483611ee8565b915060208084013567ffffffffffffffff80821115611f51578384fd5b818601915086601f830112611f64578384fd5b813581811115611f7657611f76612522565b604051601f8201601f1916810185018381118282101715611f9957611f99612522565b6040528181528382018501891015611faf578586fd5b81858501868301378585838301015280955050505050509250929050565b60008060408385031215611fdf578182fd5b611fe883611ee8565b946020939093013593505050565b600060208284031215612007578081fd5b81358015158114611c7c578182fd5b600060208284031215612027578081fd5b5035919050565b60006020828403121561203f578081fd5b5051919050565b60008451612058818460208901612486565b84519083019061206c818360208901612486565b845191019061207f818360208801612486565b0195945050505050565b6001600160a01b0391909116815260200190565b901515815260200190565b60006020825282518060208401526120c7816040850160208701612486565b601f01601f19169190910160400192915050565b6020808252601b908201527f536166654d6174683a206164646974696f6e206f766572666c6f770000000000604082015260600190565b60208082526027908201527f4e4f44453a204352454154494d45206d75737420626520686967686572207468604082015266616e207a65726f60c81b606082015260800190565b6020808252601f908201527f435245415445204e4f44453a204e616d65206e6f7420617661696c61626c6500604082015260600190565b6020808252600d908201526c1058d8d95cdcc811195b9a5959609a1b604082015260600190565b6020808252601f908201527f4c41535420434c41494d452054494d453a204e4f204e4f4445204f574e455200604082015260600190565b6020808252601e908201527f44495354524920524557415244533a204e4f204e4f4445204f574e4552530000604082015260600190565b60208082526019908201527f474554205245574152443a204e4f204e4f4445204f574e455200000000000000604082015260600190565b6020808252601b908201527f474554204352454154494d453a204e4f204e4f4445204f574e45520000000000604082015260600190565b6020808252602e908201527f4e4f4445205345415243483a204e6f204e4f444520466f756e6420776974682060408201526d7468697320626c6f636b74696d6560901b606082015260800190565b6020808252601c908201527f47455420524557415244204f463a204e4f204e4f4445204f574e455200000000604082015260600190565b60208082526018908201527f474554204e414d45533a204e4f204e4f4445204f574e45520000000000000000604082015260600190565b6020808252602f908201527f434153484f5554204552524f523a20596f7520646f6e27742068617665206e6f60408201526e19195cc81d1bc818d85cda0b5bdd5d608a1b606082015260800190565b9182526001600160a01b0316602082015260400190565b9283526001600160a01b03919091166020830152604082015260600190565b90815260200190565b9283526020830191909152604082015260600190565b600082198211156124065761240661250c565b500190565b600060ff821660ff84168060ff038211156124285761242861250c565b019392505050565b60008261244b57634e487b7160e01b81526012600452602481fd5b500490565b600081600019048311821515161561246a5761246a61250c565b500290565b6000828210156124815761248161250c565b500390565b60005b838110156124a1578181015183820152602001612489565b838111156124b0576000848401525b50505050565b6002810460018216806124ca57607f821691505b602082108114156124eb57634e487b7160e01b600052602260045260246000fd5b50919050565b60006000198214156125055761250561250c565b5060010190565b634e487b7160e01b600052601160045260246000fd5b634e487b7160e01b600052604160045260246000fdfea2646970667358221220429968fc1a92fed473454c058cf28dc158277276f57b4e211d7e49bd6d9ece7764736f6c63430008000033",
          "opcodes": "PUSH1 0x80 PUSH1 0x40 MSTORE PUSH1 0x9 DUP1 SLOAD PUSH1 0xFF PUSH1 0xA8 SHL NOT PUSH1 0xFF PUSH1 0xA0 SHL NOT SWAP1 SWAP2 AND PUSH1 0x1 PUSH1 0xA0 SHL OR AND SWAP1 SSTORE PUSH3 0x493E0 PUSH1 0xA SSTORE PUSH1 0x0 PUSH1 0xB DUP2 SWAP1 SSTORE PUSH1 0xC DUP2 SWAP1 SSTORE PUSH1 0xD DUP2 SWAP1 SSTORE PUSH1 0xE SSTORE CALLVALUE DUP1 ISZERO PUSH2 0x47 JUMPI PUSH1 0x0 DUP1 REVERT JUMPDEST POP PUSH1 0x8 DUP1 SLOAD PUSH1 0x1 PUSH1 0x1 PUSH1 0xA0 SHL SUB NOT AND CALLER OR SWAP1 SSTORE PUSH2 0x256E DUP1 PUSH2 0x69 PUSH1 0x0 CODECOPY PUSH1 0x0 RETURN INVALID PUSH1 0x80 PUSH1 0x40 MSTORE CALLVALUE DUP1 ISZERO PUSH2 0x10 JUMPI PUSH1 0x0 DUP1 REVERT JUMPDEST POP PUSH1 0x4 CALLDATASIZE LT PUSH2 0x21C JUMPI PUSH1 0x0 CALLDATALOAD PUSH1 0xE0 SHR DUP1 PUSH4 0x72476577 GT PUSH2 0x125 JUMPI DUP1 PUSH4 0xCECE91EB GT PUSH2 0xAD JUMPI DUP1 PUSH4 0xDEC14726 GT PUSH2 0x7C JUMPI DUP1 PUSH4 0xDEC14726 EQ PUSH2 0x417 JUMPI DUP1 PUSH4 0xEF9BB988 EQ PUSH2 0x41F JUMPI DUP1 PUSH4 0xF1FEC2B8 EQ PUSH2 0x432 JUMPI DUP1 PUSH4 0xFB10D6FB EQ PUSH2 0x43A JUMPI DUP1 PUSH4 0xFC0C546A EQ PUSH2 0x442 JUMPI PUSH2 0x21C JUMP JUMPDEST DUP1 PUSH4 0xCECE91EB EQ PUSH2 0x3D6 JUMPI DUP1 PUSH4 0xD1871A89 EQ PUSH2 0x3E9 JUMPI DUP1 PUSH4 0xD34BF94C EQ PUSH2 0x3FC JUMPI DUP1 PUSH4 0xDAB0882A EQ PUSH2 0x404 JUMPI PUSH2 0x21C JUMP JUMPDEST DUP1 PUSH4 0xAB6B4D51 GT PUSH2 0xF4 JUMPI DUP1 PUSH4 0xAB6B4D51 EQ PUSH2 0x398 JUMPI DUP1 PUSH4 0xB50CF88F EQ PUSH2 0x3A0 JUMPI DUP1 PUSH4 0xB8527AEF EQ PUSH2 0x3A8 JUMPI DUP1 PUSH4 0xC6FAEDC8 EQ PUSH2 0x3B0 JUMPI DUP1 PUSH4 0xC92819CE EQ PUSH2 0x3C3 JUMPI PUSH2 0x21C JUMP JUMPDEST DUP1 PUSH4 0x72476577 EQ PUSH2 0x369 JUMPI DUP1 PUSH4 0x85C44D9D EQ PUSH2 0x371 JUMPI DUP1 PUSH4 0x88FE6553 EQ PUSH2 0x379 JUMPI DUP1 PUSH4 0x8A327EAA EQ PUSH2 0x390 JUMPI PUSH2 0x21C JUMP JUMPDEST DUP1 PUSH4 0x4CBAB9C0 GT PUSH2 0x1A8 JUMPI DUP1 PUSH4 0x6067BD8D GT PUSH2 0x177 JUMPI DUP1 PUSH4 0x6067BD8D EQ PUSH2 0x320 JUMPI DUP1 PUSH4 0x613FF46F EQ PUSH2 0x328 JUMPI DUP1 PUSH4 0x619A635E EQ PUSH2 0x330 JUMPI DUP1 PUSH4 0x6590C691 EQ PUSH2 0x343 JUMPI DUP1 PUSH4 0x6EDB7002 EQ PUSH2 0x356 JUMPI PUSH2 0x21C JUMP JUMPDEST DUP1 PUSH4 0x4CBAB9C0 EQ PUSH2 0x2EA JUMPI DUP1 PUSH4 0x5759FB02 EQ PUSH2 0x2F2 JUMPI DUP1 PUSH4 0x5C298B1C EQ PUSH2 0x305 JUMPI DUP1 PUSH4 0x5EE58EFC EQ PUSH2 0x318 JUMPI PUSH2 0x21C JUMP JUMPDEST DUP1 PUSH4 0x334DE3A2 GT PUSH2 0x1EF JUMPI DUP1 PUSH4 0x334DE3A2 EQ PUSH2 0x26F JUMPI DUP1 PUSH4 0x41AC82B0 EQ PUSH2 0x28F JUMPI DUP1 PUSH4 0x4491A7E4 EQ PUSH2 0x2AF JUMPI DUP1 PUSH4 0x45D61DED EQ PUSH2 0x2C2 JUMPI DUP1 PUSH4 0x4A389FAE EQ PUSH2 0x2D7 JUMPI PUSH2 0x21C JUMP JUMPDEST DUP1 PUSH4 0x12B8603F EQ PUSH2 0x221 JUMPI DUP1 PUSH4 0x13804C3B EQ PUSH2 0x236 JUMPI DUP1 PUSH4 0x144FA6D7 EQ PUSH2 0x254 JUMPI DUP1 PUSH4 0x27B3BF11 EQ PUSH2 0x267 JUMPI JUMPDEST PUSH1 0x0 DUP1 REVERT JUMPDEST PUSH2 0x234 PUSH2 0x22F CALLDATASIZE PUSH1 0x4 PUSH2 0x1F19 JUMP JUMPDEST PUSH2 0x44A JUMP JUMPDEST STOP JUMPDEST PUSH2 0x23E PUSH2 0x615 JUMP JUMPDEST PUSH1 0x40 MLOAD PUSH2 0x24B SWAP2 SWAP1 PUSH2 0x23D4 JUMP JUMPDEST PUSH1 0x40 MLOAD DUP1 SWAP2 SUB SWAP1 RETURN JUMPDEST PUSH2 0x234 PUSH2 0x262 CALLDATASIZE PUSH1 0x4 PUSH2 0x1EFF JUMP JUMPDEST PUSH2 0x61B JUMP JUMPDEST PUSH2 0x23E PUSH2 0x67C JUMP JUMPDEST PUSH2 0x282 PUSH2 0x27D CALLDATASIZE PUSH1 0x4 PUSH2 0x1EFF JUMP JUMPDEST PUSH2 0x682 JUMP JUMPDEST PUSH1 0x40 MLOAD PUSH2 0x24B SWAP2 SWAP1 PUSH2 0x20A8 JUMP JUMPDEST PUSH2 0x2A2 PUSH2 0x29D CALLDATASIZE PUSH1 0x4 PUSH2 0x1EFF JUMP JUMPDEST PUSH2 0x8A8 JUMP JUMPDEST PUSH1 0x40 MLOAD PUSH2 0x24B SWAP2 SWAP1 PUSH2 0x209D JUMP JUMPDEST PUSH2 0x23E PUSH2 0x2BD CALLDATASIZE PUSH1 0x4 PUSH2 0x1EFF JUMP JUMPDEST PUSH2 0x8B9 JUMP JUMPDEST PUSH2 0x2CA PUSH2 0x945 JUMP JUMPDEST PUSH1 0x40 MLOAD PUSH2 0x24B SWAP2 SWAP1 PUSH2 0x2089 JUMP JUMPDEST PUSH2 0x282 PUSH2 0x2E5 CALLDATASIZE PUSH1 0x4 PUSH2 0x1EFF JUMP JUMPDEST PUSH2 0x954 JUMP JUMPDEST PUSH2 0x23E PUSH2 0xB73 JUMP JUMPDEST PUSH2 0x282 PUSH2 0x300 CALLDATASIZE PUSH1 0x4 PUSH2 0x1EFF JUMP JUMPDEST PUSH2 0xB79 JUMP JUMPDEST PUSH2 0x23E PUSH2 0x313 CALLDATASIZE PUSH1 0x4 PUSH2 0x1EFF JUMP JUMPDEST PUSH2 0xD98 JUMP JUMPDEST PUSH2 0x2A2 PUSH2 0xE83 JUMP JUMPDEST PUSH2 0x23E PUSH2 0xE93 JUMP JUMPDEST PUSH2 0x23E PUSH2 0xE99 JUMP JUMPDEST PUSH2 0x23E PUSH2 0x33E CALLDATASIZE PUSH1 0x4 PUSH2 0x1EFF JUMP JUMPDEST PUSH2 0xE9F JUMP JUMPDEST PUSH2 0x23E PUSH2 0x351 CALLDATASIZE PUSH1 0x4 PUSH2 0x1FCD JUMP JUMPDEST PUSH2 0xF47 JUMP JUMPDEST PUSH2 0x23E PUSH2 0x364 CALLDATASIZE PUSH1 0x4 PUSH2 0x1FCD JUMP JUMPDEST PUSH2 0xF74 JUMP JUMPDEST PUSH2 0x23E PUSH2 0x102D JUMP JUMPDEST PUSH2 0x2A2 PUSH2 0x1033 JUMP JUMPDEST PUSH2 0x381 PUSH2 0x1043 JUMP JUMPDEST PUSH1 0x40 MLOAD PUSH2 0x24B SWAP4 SWAP3 SWAP2 SWAP1 PUSH2 0x23DD JUMP JUMPDEST PUSH2 0x23E PUSH2 0x10A2 JUMP JUMPDEST PUSH2 0x23E PUSH2 0x10A8 JUMP JUMPDEST PUSH2 0x23E PUSH2 0x10AE JUMP JUMPDEST PUSH2 0x23E PUSH2 0x10B4 JUMP JUMPDEST PUSH2 0x234 PUSH2 0x3BE CALLDATASIZE PUSH1 0x4 PUSH2 0x2016 JUMP JUMPDEST PUSH2 0x10BA JUMP JUMPDEST PUSH2 0x282 PUSH2 0x3D1 CALLDATASIZE PUSH1 0x4 PUSH2 0x1EFF JUMP JUMPDEST PUSH2 0x10FE JUMP JUMPDEST PUSH2 0x234 PUSH2 0x3E4 CALLDATASIZE PUSH1 0x4 PUSH2 0x2016 JUMP JUMPDEST PUSH2 0x131D JUMP JUMPDEST PUSH2 0x234 PUSH2 0x3F7 CALLDATASIZE PUSH1 0x4 PUSH2 0x2016 JUMP JUMPDEST PUSH2 0x1361 JUMP JUMPDEST PUSH2 0x23E PUSH2 0x13A5 JUMP JUMPDEST PUSH2 0x234 PUSH2 0x412 CALLDATASIZE PUSH1 0x4 PUSH2 0x1FF6 JUMP JUMPDEST PUSH2 0x13AB JUMP JUMPDEST PUSH2 0x23E PUSH2 0x1408 JUMP JUMPDEST PUSH2 0x234 PUSH2 0x42D CALLDATASIZE PUSH1 0x4 PUSH2 0x2016 JUMP JUMPDEST PUSH2 0x140E JUMP JUMPDEST PUSH2 0x23E PUSH2 0x1452 JUMP JUMPDEST PUSH2 0x23E PUSH2 0x1458 JUMP JUMPDEST PUSH2 0x2CA PUSH2 0x145E JUMP JUMPDEST PUSH1 0x9 SLOAD PUSH1 0x1 PUSH1 0x1 PUSH1 0xA0 SHL SUB AND CALLER EQ DUP1 PUSH2 0x46D JUMPI POP PUSH1 0x8 SLOAD PUSH1 0x1 PUSH1 0x1 PUSH1 0xA0 SHL SUB AND CALLER EQ JUMPDEST PUSH2 0x492 JUMPI PUSH1 0x40 MLOAD PUSH3 0x461BCD PUSH1 0xE5 SHL DUP2 MSTORE PUSH1 0x4 ADD PUSH2 0x489 SWAP1 PUSH2 0x2190 JUMP JUMPDEST PUSH1 0x40 MLOAD DUP1 SWAP2 SUB SWAP1 REVERT JUMPDEST PUSH2 0x49C DUP3 DUP3 PUSH2 0x146D JUMP JUMPDEST PUSH2 0x4B8 JUMPI PUSH1 0x40 MLOAD PUSH3 0x461BCD PUSH1 0xE5 SHL DUP2 MSTORE PUSH1 0x4 ADD PUSH2 0x489 SWAP1 PUSH2 0x2159 JUMP JUMPDEST PUSH1 0x1 PUSH1 0x1 PUSH1 0xA0 SHL SUB DUP3 AND PUSH1 0x0 SWAP1 DUP2 MSTORE PUSH1 0x4 PUSH1 0x20 DUP2 DUP2 MSTORE PUSH1 0x40 DUP1 DUP5 KECCAK256 DUP2 MLOAD PUSH1 0x80 DUP2 ADD DUP4 MSTORE DUP7 DUP2 MSTORE TIMESTAMP DUP2 DUP6 ADD DUP2 SWAP1 MSTORE SWAP3 DUP2 ADD SWAP3 SWAP1 SWAP3 MSTORE PUSH1 0x6 SLOAD PUSH1 0x60 DUP4 ADD MSTORE DUP1 SLOAD PUSH1 0x1 DUP2 ADD DUP3 SSTORE SWAP1 DUP6 MSTORE SWAP4 DUP3 SWAP1 KECCAK256 DUP2 MLOAD DUP1 MLOAD SWAP3 SWAP6 SWAP1 SWAP5 MUL ADD SWAP3 PUSH2 0x51C SWAP3 DUP5 SWAP3 SWAP2 ADD SWAP1 PUSH2 0x1E27 JUMP JUMPDEST POP PUSH1 0x20 DUP3 DUP2 ADD MLOAD PUSH1 0x1 DUP4 ADD SSTORE PUSH1 0x40 DUP1 DUP5 ADD MLOAD PUSH1 0x2 DUP5 ADD SSTORE PUSH1 0x60 SWAP1 SWAP4 ADD MLOAD PUSH1 0x3 SWAP1 SWAP3 ADD SWAP2 SWAP1 SWAP2 SSTORE PUSH1 0x1 PUSH1 0x1 PUSH1 0xA0 SHL SUB DUP5 AND PUSH1 0x0 SWAP1 DUP2 MSTORE PUSH1 0x4 SWAP2 DUP3 SWAP1 MSTORE DUP3 DUP2 KECCAK256 SLOAD SWAP3 MLOAD PUSH4 0x2F0AD017 PUSH1 0xE2 SHL DUP2 MSTORE PUSH20 0x0 SWAP4 PUSH4 0xBC2B405C SWAP4 PUSH2 0x591 SWAP4 SWAP3 DUP9 SWAP3 SWAP2 ADD PUSH2 0x23B5 JUMP JUMPDEST PUSH1 0x0 PUSH1 0x40 MLOAD DUP1 DUP4 SUB DUP2 DUP7 DUP1 EXTCODESIZE ISZERO DUP1 ISZERO PUSH2 0x5A9 JUMPI PUSH1 0x0 DUP1 REVERT JUMPDEST POP GAS DELEGATECALL ISZERO DUP1 ISZERO PUSH2 0x5BD JUMPI RETURNDATASIZE PUSH1 0x0 DUP1 RETURNDATACOPY RETURNDATASIZE PUSH1 0x0 REVERT JUMPDEST POP POP PUSH1 0xD DUP1 SLOAD SWAP3 POP SWAP1 POP PUSH1 0x0 PUSH2 0x5D2 DUP4 PUSH2 0x24F1 JUMP JUMPDEST SWAP1 SWAP2 SSTORE POP POP PUSH1 0x9 SLOAD PUSH1 0x1 PUSH1 0xA0 SHL SWAP1 DIV PUSH1 0xFF AND DUP1 ISZERO PUSH2 0x5FA JUMPI POP PUSH1 0x9 SLOAD PUSH1 0x1 PUSH1 0xA8 SHL SWAP1 DIV PUSH1 0xFF AND ISZERO JUMPDEST ISZERO PUSH2 0x611 JUMPI PUSH2 0x60D PUSH1 0xA SLOAD PUSH1 0x6 SLOAD PUSH2 0x15FD JUMP JUMPDEST POP POP POP JUMPDEST POP POP JUMP JUMPDEST PUSH1 0xD SLOAD SWAP1 JUMP JUMPDEST PUSH1 0x9 SLOAD PUSH1 0x1 PUSH1 0x1 PUSH1 0xA0 SHL SUB AND CALLER EQ DUP1 PUSH2 0x63E JUMPI POP PUSH1 0x8 SLOAD PUSH1 0x1 PUSH1 0x1 PUSH1 0xA0 SHL SUB AND CALLER EQ JUMPDEST PUSH2 0x65A JUMPI PUSH1 0x40 MLOAD PUSH3 0x461BCD PUSH1 0xE5 SHL DUP2 MSTORE PUSH1 0x4 ADD PUSH2 0x489 SWAP1 PUSH2 0x2190 JUMP JUMPDEST PUSH1 0x9 DUP1 SLOAD PUSH1 0x1 PUSH1 0x1 PUSH1 0xA0 SHL SUB NOT AND PUSH1 0x1 PUSH1 0x1 PUSH1 0xA0 SHL SUB SWAP3 SWAP1 SWAP3 AND SWAP2 SWAP1 SWAP2 OR SWAP1 SSTORE JUMP JUMPDEST PUSH1 0x7 SLOAD DUP2 JUMP JUMPDEST PUSH1 0x60 PUSH2 0x68D DUP3 PUSH2 0x18A1 JUMP JUMPDEST PUSH2 0x6A9 JUMPI PUSH1 0x40 MLOAD PUSH3 0x461BCD PUSH1 0xE5 SHL DUP2 MSTORE PUSH1 0x4 ADD PUSH2 0x489 SWAP1 PUSH2 0x2318 JUMP JUMPDEST PUSH1 0x1 PUSH1 0x1 PUSH1 0xA0 SHL SUB DUP3 AND PUSH1 0x0 SWAP1 DUP2 MSTORE PUSH1 0x4 PUSH1 0x20 SWAP1 DUP2 MSTORE PUSH1 0x40 DUP1 DUP4 KECCAK256 DUP1 SLOAD DUP3 MLOAD DUP2 DUP6 MUL DUP2 ADD DUP6 ADD SWAP1 SWAP4 MSTORE DUP1 DUP4 MSTORE SWAP2 SWAP3 SWAP1 SWAP2 SWAP1 DUP5 SWAP1 DUP5 ADD JUMPDEST DUP3 DUP3 LT ISZERO PUSH2 0x7C1 JUMPI DUP4 DUP3 SWAP1 PUSH1 0x0 MSTORE PUSH1 0x20 PUSH1 0x0 KECCAK256 SWAP1 PUSH1 0x4 MUL ADD PUSH1 0x40 MLOAD DUP1 PUSH1 0x80 ADD PUSH1 0x40 MSTORE SWAP1 DUP2 PUSH1 0x0 DUP3 ADD DUP1 SLOAD PUSH2 0x712 SWAP1 PUSH2 0x24B6 JUMP JUMPDEST DUP1 PUSH1 0x1F ADD PUSH1 0x20 DUP1 SWAP2 DIV MUL PUSH1 0x20 ADD PUSH1 0x40 MLOAD SWAP1 DUP2 ADD PUSH1 0x40 MSTORE DUP1 SWAP3 SWAP2 SWAP1 DUP2 DUP2 MSTORE PUSH1 0x20 ADD DUP3 DUP1 SLOAD PUSH2 0x73E SWAP1 PUSH2 0x24B6 JUMP JUMPDEST DUP1 ISZERO PUSH2 0x78B JUMPI DUP1 PUSH1 0x1F LT PUSH2 0x760 JUMPI PUSH2 0x100 DUP1 DUP4 SLOAD DIV MUL DUP4 MSTORE SWAP2 PUSH1 0x20 ADD SWAP2 PUSH2 0x78B JUMP JUMPDEST DUP3 ADD SWAP2 SWAP1 PUSH1 0x0 MSTORE PUSH1 0x20 PUSH1 0x0 KECCAK256 SWAP1 JUMPDEST DUP2 SLOAD DUP2 MSTORE SWAP1 PUSH1 0x1 ADD SWAP1 PUSH1 0x20 ADD DUP1 DUP4 GT PUSH2 0x76E JUMPI DUP3 SWAP1 SUB PUSH1 0x1F AND DUP3 ADD SWAP2 JUMPDEST POP POP POP POP POP DUP2 MSTORE PUSH1 0x20 ADD PUSH1 0x1 DUP3 ADD SLOAD DUP2 MSTORE PUSH1 0x20 ADD PUSH1 0x2 DUP3 ADD SLOAD DUP2 MSTORE PUSH1 0x20 ADD PUSH1 0x3 DUP3 ADD SLOAD DUP2 MSTORE POP POP DUP2 MSTORE PUSH1 0x20 ADD SWAP1 PUSH1 0x1 ADD SWAP1 PUSH2 0x6DF JUMP JUMPDEST POP POP POP POP SWAP1 POP PUSH1 0x0 DUP2 MLOAD SWAP1 POP PUSH2 0x7D5 PUSH2 0x1EAB JUMP JUMPDEST PUSH1 0x0 DUP4 PUSH1 0x0 DUP2 MLOAD DUP2 LT PUSH2 0x7F8 JUMPI PUSH4 0x4E487B71 PUSH1 0xE0 SHL PUSH1 0x0 MSTORE PUSH1 0x32 PUSH1 0x4 MSTORE PUSH1 0x24 PUSH1 0x0 REVERT JUMPDEST PUSH1 0x20 MUL PUSH1 0x20 ADD ADD MLOAD PUSH1 0x0 ADD MLOAD SWAP1 POP PUSH1 0x0 PUSH1 0x40 MLOAD DUP1 PUSH1 0x40 ADD PUSH1 0x40 MSTORE DUP1 PUSH1 0x1 DUP2 MSTORE PUSH1 0x20 ADD PUSH1 0x23 PUSH1 0xF8 SHL DUP2 MSTORE POP SWAP1 POP PUSH1 0x0 PUSH1 0x1 SWAP1 POP JUMPDEST DUP5 DUP2 LT ISZERO PUSH2 0x89A JUMPI DUP6 DUP2 DUP2 MLOAD DUP2 LT PUSH2 0x853 JUMPI PUSH4 0x4E487B71 PUSH1 0xE0 SHL PUSH1 0x0 MSTORE PUSH1 0x32 PUSH1 0x4 MSTORE PUSH1 0x24 PUSH1 0x0 REVERT JUMPDEST PUSH1 0x20 MUL PUSH1 0x20 ADD ADD MLOAD SWAP4 POP DUP3 DUP3 DUP6 PUSH1 0x0 ADD MLOAD PUSH1 0x40 MLOAD PUSH1 0x20 ADD PUSH2 0x876 SWAP4 SWAP3 SWAP2 SWAP1 PUSH2 0x2046 JUMP JUMPDEST PUSH1 0x40 MLOAD PUSH1 0x20 DUP2 DUP4 SUB SUB DUP2 MSTORE SWAP1 PUSH1 0x40 MSTORE SWAP3 POP DUP1 DUP1 PUSH2 0x892 SWAP1 PUSH2 0x24F1 JUMP JUMPDEST SWAP2 POP POP PUSH2 0x82B JUMP JUMPDEST POP SWAP1 SWAP5 POP POP POP POP POP JUMPDEST SWAP2 SWAP1 POP JUMP JUMPDEST PUSH1 0x0 PUSH2 0x8B3 DUP3 PUSH2 0x18A1 JUMP JUMPDEST SWAP3 SWAP2 POP POP JUMP JUMPDEST PUSH1 0x40 MLOAD PUSH4 0x732A2CCF PUSH1 0xE0 SHL DUP2 MSTORE PUSH1 0x0 SWAP1 PUSH20 0x0 SWAP1 PUSH4 0x732A2CCF SWAP1 PUSH2 0x8F5 SWAP1 DUP5 SWAP1 DUP7 SWAP1 PUSH1 0x4 ADD PUSH2 0x239E JUMP JUMPDEST PUSH1 0x20 PUSH1 0x40 MLOAD DUP1 DUP4 SUB DUP2 DUP7 DUP1 EXTCODESIZE ISZERO DUP1 ISZERO PUSH2 0x90D JUMPI PUSH1 0x0 DUP1 REVERT JUMPDEST POP GAS DELEGATECALL ISZERO DUP1 ISZERO PUSH2 0x921 JUMPI RETURNDATASIZE PUSH1 0x0 DUP1 RETURNDATACOPY RETURNDATASIZE PUSH1 0x0 REVERT JUMPDEST POP POP POP POP PUSH1 0x40 MLOAD RETURNDATASIZE PUSH1 0x1F NOT PUSH1 0x1F DUP3 ADD AND DUP3 ADD DUP1 PUSH1 0x40 MSTORE POP DUP2 ADD SWAP1 PUSH2 0x8B3 SWAP2 SWAP1 PUSH2 0x202E JUMP JUMPDEST PUSH1 0x8 SLOAD PUSH1 0x1 PUSH1 0x1 PUSH1 0xA0 SHL SUB AND DUP2 JUMP JUMPDEST PUSH1 0x60 PUSH2 0x95F DUP3 PUSH2 0x18A1 JUMP JUMPDEST PUSH2 0x97B JUMPI PUSH1 0x40 MLOAD PUSH3 0x461BCD PUSH1 0xE5 SHL DUP2 MSTORE PUSH1 0x4 ADD PUSH2 0x489 SWAP1 PUSH2 0x2225 JUMP JUMPDEST PUSH1 0x1 PUSH1 0x1 PUSH1 0xA0 SHL SUB DUP3 AND PUSH1 0x0 SWAP1 DUP2 MSTORE PUSH1 0x4 PUSH1 0x20 SWAP1 DUP2 MSTORE PUSH1 0x40 DUP1 DUP4 KECCAK256 DUP1 SLOAD DUP3 MLOAD DUP2 DUP6 MUL DUP2 ADD DUP6 ADD SWAP1 SWAP4 MSTORE DUP1 DUP4 MSTORE SWAP2 SWAP3 SWAP1 SWAP2 SWAP1 DUP5 SWAP1 DUP5 ADD JUMPDEST DUP3 DUP3 LT ISZERO PUSH2 0xA93 JUMPI DUP4 DUP3 SWAP1 PUSH1 0x0 MSTORE PUSH1 0x20 PUSH1 0x0 KECCAK256 SWAP1 PUSH1 0x4 MUL ADD PUSH1 0x40 MLOAD DUP1 PUSH1 0x80 ADD PUSH1 0x40 MSTORE SWAP1 DUP2 PUSH1 0x0 DUP3 ADD DUP1 SLOAD PUSH2 0x9E4 SWAP1 PUSH2 0x24B6 JUMP JUMPDEST DUP1 PUSH1 0x1F ADD PUSH1 0x20 DUP1 SWAP2 DIV MUL PUSH1 0x20 ADD PUSH1 0x40 MLOAD SWAP1 DUP2 ADD PUSH1 0x40 MSTORE DUP1 SWAP3 SWAP2 SWAP1 DUP2 DUP2 MSTORE PUSH1 0x20 ADD DUP3 DUP1 SLOAD PUSH2 0xA10 SWAP1 PUSH2 0x24B6 JUMP JUMPDEST DUP1 ISZERO PUSH2 0xA5D JUMPI DUP1 PUSH1 0x1F LT PUSH2 0xA32 JUMPI PUSH2 0x100 DUP1 DUP4 SLOAD DIV MUL DUP4 MSTORE SWAP2 PUSH1 0x20 ADD SWAP2 PUSH2 0xA5D JUMP JUMPDEST DUP3 ADD SWAP2 SWAP1 PUSH1 0x0 MSTORE PUSH1 0x20 PUSH1 0x0 KECCAK256 SWAP1 JUMPDEST DUP2 SLOAD DUP2 MSTORE SWAP1 PUSH1 0x1 ADD SWAP1 PUSH1 0x20 ADD DUP1 DUP4 GT PUSH2 0xA40 JUMPI DUP3 SWAP1 SUB PUSH1 0x1F AND DUP3 ADD SWAP2 JUMPDEST POP POP POP POP POP DUP2 MSTORE PUSH1 0x20 ADD PUSH1 0x1 DUP3 ADD SLOAD DUP2 MSTORE PUSH1 0x20 ADD PUSH1 0x2 DUP3 ADD SLOAD DUP2 MSTORE PUSH1 0x20 ADD PUSH1 0x3 DUP3 ADD SLOAD DUP2 MSTORE POP POP DUP2 MSTORE PUSH1 0x20 ADD SWAP1 PUSH1 0x1 ADD SWAP1 PUSH2 0x9B1 JUMP JUMPDEST POP POP POP POP SWAP1 POP PUSH1 0x0 DUP2 MLOAD SWAP1 POP PUSH2 0xAA7 PUSH2 0x1EAB JUMP JUMPDEST PUSH1 0x0 PUSH2 0xADE DUP5 PUSH1 0x0 DUP2 MLOAD DUP2 LT PUSH2 0xACD JUMPI PUSH4 0x4E487B71 PUSH1 0xE0 SHL PUSH1 0x0 MSTORE PUSH1 0x32 PUSH1 0x4 MSTORE PUSH1 0x24 PUSH1 0x0 REVERT JUMPDEST PUSH1 0x20 MUL PUSH1 0x20 ADD ADD MLOAD PUSH1 0x60 ADD MLOAD PUSH2 0x1936 JUMP JUMPDEST PUSH1 0x40 DUP1 MLOAD DUP1 DUP3 ADD SWAP1 SWAP2 MSTORE PUSH1 0x1 DUP1 DUP3 MSTORE PUSH1 0x23 PUSH1 0xF8 SHL PUSH1 0x20 DUP4 ADD MSTORE SWAP2 SWAP3 POP SWAP1 JUMPDEST DUP5 DUP2 LT ISZERO PUSH2 0x89A JUMPI DUP6 DUP2 DUP2 MLOAD DUP2 LT PUSH2 0xB24 JUMPI PUSH4 0x4E487B71 PUSH1 0xE0 SHL PUSH1 0x0 MSTORE PUSH1 0x32 PUSH1 0x4 MSTORE PUSH1 0x24 PUSH1 0x0 REVERT JUMPDEST PUSH1 0x20 MUL PUSH1 0x20 ADD ADD MLOAD SWAP4 POP DUP3 DUP3 PUSH2 0xB3D DUP7 PUSH1 0x60 ADD MLOAD PUSH2 0x1936 JUMP JUMPDEST PUSH1 0x40 MLOAD PUSH1 0x20 ADD PUSH2 0xB4F SWAP4 SWAP3 SWAP2 SWAP1 PUSH2 0x2046 JUMP JUMPDEST PUSH1 0x40 MLOAD PUSH1 0x20 DUP2 DUP4 SUB SUB DUP2 MSTORE SWAP1 PUSH1 0x40 MSTORE SWAP3 POP DUP1 DUP1 PUSH2 0xB6B SWAP1 PUSH2 0x24F1 JUMP JUMPDEST SWAP2 POP POP PUSH2 0xAFC JUMP JUMPDEST PUSH1 0x6 SLOAD SWAP1 JUMP JUMPDEST PUSH1 0x60 PUSH2 0xB84 DUP3 PUSH2 0x18A1 JUMP JUMPDEST PUSH2 0xBA0 JUMPI PUSH1 0x40 MLOAD PUSH3 0x461BCD PUSH1 0xE5 SHL DUP2 MSTORE PUSH1 0x4 ADD PUSH2 0x489 SWAP1 PUSH2 0x21B7 JUMP JUMPDEST PUSH1 0x1 PUSH1 0x1 PUSH1 0xA0 SHL SUB DUP3 AND PUSH1 0x0 SWAP1 DUP2 MSTORE PUSH1 0x4 PUSH1 0x20 SWAP1 DUP2 MSTORE PUSH1 0x40 DUP1 DUP4 KECCAK256 DUP1 SLOAD DUP3 MLOAD DUP2 DUP6 MUL DUP2 ADD DUP6 ADD SWAP1 SWAP4 MSTORE DUP1 DUP4 MSTORE SWAP2 SWAP3 SWAP1 SWAP2 SWAP1 DUP5 SWAP1 DUP5 ADD JUMPDEST DUP3 DUP3 LT ISZERO PUSH2 0xCB8 JUMPI DUP4 DUP3 SWAP1 PUSH1 0x0 MSTORE PUSH1 0x20 PUSH1 0x0 KECCAK256 SWAP1 PUSH1 0x4 MUL ADD PUSH1 0x40 MLOAD DUP1 PUSH1 0x80 ADD PUSH1 0x40 MSTORE SWAP1 DUP2 PUSH1 0x0 DUP3 ADD DUP1 SLOAD PUSH2 0xC09 SWAP1 PUSH2 0x24B6 JUMP JUMPDEST DUP1 PUSH1 0x1F ADD PUSH1 0x20 DUP1 SWAP2 DIV MUL PUSH1 0x20 ADD PUSH1 0x40 MLOAD SWAP1 DUP2 ADD PUSH1 0x40 MSTORE DUP1 SWAP3 SWAP2 SWAP1 DUP2 DUP2 MSTORE PUSH1 0x20 ADD DUP3 DUP1 SLOAD PUSH2 0xC35 SWAP1 PUSH2 0x24B6 JUMP JUMPDEST DUP1 ISZERO PUSH2 0xC82 JUMPI DUP1 PUSH1 0x1F LT PUSH2 0xC57 JUMPI PUSH2 0x100 DUP1 DUP4 SLOAD DIV MUL DUP4 MSTORE SWAP2 PUSH1 0x20 ADD SWAP2 PUSH2 0xC82 JUMP JUMPDEST DUP3 ADD SWAP2 SWAP1 PUSH1 0x0 MSTORE PUSH1 0x20 PUSH1 0x0 KECCAK256 SWAP1 JUMPDEST DUP2 SLOAD DUP2 MSTORE SWAP1 PUSH1 0x1 ADD SWAP1 PUSH1 0x20 ADD DUP1 DUP4 GT PUSH2 0xC65 JUMPI DUP3 SWAP1 SUB PUSH1 0x1F AND DUP3 ADD SWAP2 JUMPDEST POP POP POP POP POP DUP2 MSTORE PUSH1 0x20 ADD PUSH1 0x1 DUP3 ADD SLOAD DUP2 MSTORE PUSH1 0x20 ADD PUSH1 0x2 DUP3 ADD SLOAD DUP2 MSTORE PUSH1 0x20 ADD PUSH1 0x3 DUP3 ADD SLOAD DUP2 MSTORE POP POP DUP2 MSTORE PUSH1 0x20 ADD SWAP1 PUSH1 0x1 ADD SWAP1 PUSH2 0xBD6 JUMP JUMPDEST POP POP POP POP SWAP1 POP PUSH1 0x0 DUP2 MLOAD SWAP1 POP PUSH2 0xCCC PUSH2 0x1EAB JUMP JUMPDEST PUSH1 0x0 PUSH2 0xD03 DUP5 PUSH1 0x0 DUP2 MLOAD DUP2 LT PUSH2 0xCF2 JUMPI PUSH4 0x4E487B71 PUSH1 0xE0 SHL PUSH1 0x0 MSTORE PUSH1 0x32 PUSH1 0x4 MSTORE PUSH1 0x24 PUSH1 0x0 REVERT JUMPDEST PUSH1 0x20 MUL PUSH1 0x20 ADD ADD MLOAD PUSH1 0x40 ADD MLOAD PUSH2 0x1936 JUMP JUMPDEST PUSH1 0x40 DUP1 MLOAD DUP1 DUP3 ADD SWAP1 SWAP2 MSTORE PUSH1 0x1 DUP1 DUP3 MSTORE PUSH1 0x23 PUSH1 0xF8 SHL PUSH1 0x20 DUP4 ADD MSTORE SWAP2 SWAP3 POP SWAP1 JUMPDEST DUP5 DUP2 LT ISZERO PUSH2 0x89A JUMPI DUP6 DUP2 DUP2 MLOAD DUP2 LT PUSH2 0xD49 JUMPI PUSH4 0x4E487B71 PUSH1 0xE0 SHL PUSH1 0x0 MSTORE PUSH1 0x32 PUSH1 0x4 MSTORE PUSH1 0x24 PUSH1 0x0 REVERT JUMPDEST PUSH1 0x20 MUL PUSH1 0x20 ADD ADD MLOAD SWAP4 POP DUP3 DUP3 PUSH2 0xD62 DUP7 PUSH1 0x40 ADD MLOAD PUSH2 0x1936 JUMP JUMPDEST PUSH1 0x40 MLOAD PUSH1 0x20 ADD PUSH2 0xD74 SWAP4 SWAP3 SWAP2 SWAP1 PUSH2 0x2046 JUMP JUMPDEST PUSH1 0x40 MLOAD PUSH1 0x20 DUP2 DUP4 SUB SUB DUP2 MSTORE SWAP1 PUSH1 0x40 MSTORE SWAP3 POP DUP1 DUP1 PUSH2 0xD90 SWAP1 PUSH2 0x24F1 JUMP JUMPDEST SWAP2 POP POP PUSH2 0xD21 JUMP JUMPDEST PUSH1 0x9 SLOAD PUSH1 0x0 SWAP1 PUSH1 0x1 PUSH1 0x1 PUSH1 0xA0 SHL SUB AND CALLER EQ DUP1 PUSH2 0xDBE JUMPI POP PUSH1 0x8 SLOAD PUSH1 0x1 PUSH1 0x1 PUSH1 0xA0 SHL SUB AND CALLER EQ JUMPDEST PUSH2 0xDDA JUMPI PUSH1 0x40 MLOAD PUSH3 0x461BCD PUSH1 0xE5 SHL DUP2 MSTORE PUSH1 0x4 ADD PUSH2 0x489 SWAP1 PUSH2 0x2190 JUMP JUMPDEST PUSH1 0x1 PUSH1 0x1 PUSH1 0xA0 SHL SUB DUP3 AND PUSH1 0x0 SWAP1 DUP2 MSTORE PUSH1 0x4 PUSH1 0x20 MSTORE PUSH1 0x40 SWAP1 KECCAK256 DUP1 SLOAD DUP1 PUSH2 0xE11 JUMPI PUSH1 0x40 MLOAD PUSH3 0x461BCD PUSH1 0xE5 SHL DUP2 MSTORE PUSH1 0x4 ADD PUSH2 0x489 SWAP1 PUSH2 0x2112 JUMP JUMPDEST PUSH1 0x0 DUP1 DUP1 JUMPDEST DUP4 DUP2 LT ISZERO PUSH2 0xE79 JUMPI DUP5 DUP2 DUP2 SLOAD DUP2 LT PUSH2 0xE3E JUMPI PUSH4 0x4E487B71 PUSH1 0xE0 SHL PUSH1 0x0 MSTORE PUSH1 0x32 PUSH1 0x4 MSTORE PUSH1 0x24 PUSH1 0x0 REVERT JUMPDEST SWAP1 PUSH1 0x0 MSTORE PUSH1 0x20 PUSH1 0x0 KECCAK256 SWAP1 PUSH1 0x4 MUL ADD SWAP3 POP DUP3 PUSH1 0x3 ADD SLOAD DUP3 PUSH2 0xE5E SWAP2 SWAP1 PUSH2 0x23F3 JUMP JUMPDEST PUSH1 0x0 PUSH1 0x3 DUP6 ADD SSTORE SWAP2 POP DUP1 PUSH2 0xE71 DUP2 PUSH2 0x24F1 JUMP JUMPDEST SWAP2 POP POP PUSH2 0xE16 JUMP JUMPDEST POP SWAP6 SWAP5 POP POP POP POP POP JUMP JUMPDEST PUSH1 0x9 SLOAD PUSH1 0x1 PUSH1 0xA8 SHL SWAP1 DIV PUSH1 0xFF AND DUP2 JUMP JUMPDEST PUSH1 0x7 SLOAD SWAP1 JUMP JUMPDEST PUSH1 0x6 SLOAD DUP2 JUMP JUMPDEST PUSH1 0x0 PUSH2 0xEAA DUP3 PUSH2 0x18A1 JUMP JUMPDEST PUSH2 0xEC6 JUMPI PUSH1 0x40 MLOAD PUSH3 0x461BCD PUSH1 0xE5 SHL DUP2 MSTORE PUSH1 0x4 ADD PUSH2 0x489 SWAP1 PUSH2 0x22E1 JUMP JUMPDEST PUSH1 0x1 PUSH1 0x1 PUSH1 0xA0 SHL SUB DUP3 AND PUSH1 0x0 SWAP1 DUP2 MSTORE PUSH1 0x4 PUSH1 0x20 MSTORE PUSH1 0x40 DUP2 KECCAK256 DUP1 SLOAD SWAP2 SWAP1 DUP2 JUMPDEST DUP4 DUP2 LT ISZERO PUSH2 0xF3D JUMPI DUP2 DUP2 DUP2 SLOAD DUP2 LT PUSH2 0xF0C JUMPI PUSH4 0x4E487B71 PUSH1 0xE0 SHL PUSH1 0x0 MSTORE PUSH1 0x32 PUSH1 0x4 MSTORE PUSH1 0x24 PUSH1 0x0 REVERT JUMPDEST SWAP1 PUSH1 0x0 MSTORE PUSH1 0x20 PUSH1 0x0 KECCAK256 SWAP1 PUSH1 0x4 MUL ADD PUSH1 0x3 ADD SLOAD DUP4 PUSH2 0xF29 SWAP2 SWAP1 PUSH2 0x23F3 JUMP JUMPDEST SWAP3 POP DUP1 PUSH2 0xF35 DUP2 PUSH2 0x24F1 JUMP JUMPDEST SWAP2 POP POP PUSH2 0xEE4 JUMP JUMPDEST POP SWAP1 SWAP5 SWAP4 POP POP POP POP JUMP JUMPDEST PUSH1 0x1 PUSH1 0x1 PUSH1 0xA0 SHL SUB DUP3 AND PUSH1 0x0 SWAP1 DUP2 MSTORE PUSH1 0x4 PUSH1 0x20 MSTORE PUSH1 0x40 DUP2 KECCAK256 PUSH2 0xF69 SWAP1 DUP4 PUSH2 0x1A7C JUMP JUMPDEST PUSH1 0x3 ADD SLOAD SWAP4 SWAP3 POP POP POP JUMP JUMPDEST PUSH1 0x9 SLOAD PUSH1 0x0 SWAP1 PUSH1 0x1 PUSH1 0x1 PUSH1 0xA0 SHL SUB AND CALLER EQ DUP1 PUSH2 0xF9A JUMPI POP PUSH1 0x8 SLOAD PUSH1 0x1 PUSH1 0x1 PUSH1 0xA0 SHL SUB AND CALLER EQ JUMPDEST PUSH2 0xFB6 JUMPI PUSH1 0x40 MLOAD PUSH3 0x461BCD PUSH1 0xE5 SHL DUP2 MSTORE PUSH1 0x4 ADD PUSH2 0x489 SWAP1 PUSH2 0x2190 JUMP JUMPDEST PUSH1 0x0 DUP3 GT PUSH2 0xFD6 JUMPI PUSH1 0x40 MLOAD PUSH3 0x461BCD PUSH1 0xE5 SHL DUP2 MSTORE PUSH1 0x4 ADD PUSH2 0x489 SWAP1 PUSH2 0x2112 JUMP JUMPDEST PUSH1 0x1 PUSH1 0x1 PUSH1 0xA0 SHL SUB DUP4 AND PUSH1 0x0 SWAP1 DUP2 MSTORE PUSH1 0x4 PUSH1 0x20 MSTORE PUSH1 0x40 SWAP1 KECCAK256 DUP1 SLOAD DUP1 PUSH2 0x100D JUMPI PUSH1 0x40 MLOAD PUSH3 0x461BCD PUSH1 0xE5 SHL DUP2 MSTORE PUSH1 0x4 ADD PUSH2 0x489 SWAP1 PUSH2 0x234F JUMP JUMPDEST PUSH1 0x0 PUSH2 0x1019 DUP4 DUP7 PUSH2 0x1A7C JUMP JUMPDEST PUSH1 0x3 ADD DUP1 SLOAD PUSH1 0x0 SWAP1 SWAP2 SSTORE SWAP7 SWAP6 POP POP POP POP POP POP JUMP JUMPDEST PUSH1 0xC SLOAD DUP2 JUMP JUMPDEST PUSH1 0x9 SLOAD PUSH1 0x1 PUSH1 0xA0 SHL SWAP1 DIV PUSH1 0xFF AND DUP2 JUMP JUMPDEST PUSH1 0x9 SLOAD PUSH1 0x0 SWAP1 DUP2 SWAP1 DUP2 SWAP1 PUSH1 0x1 PUSH1 0x1 PUSH1 0xA0 SHL SUB AND CALLER EQ DUP1 PUSH2 0x106D JUMPI POP PUSH1 0x8 SLOAD PUSH1 0x1 PUSH1 0x1 PUSH1 0xA0 SHL SUB AND CALLER EQ JUMPDEST PUSH2 0x1089 JUMPI PUSH1 0x40 MLOAD PUSH3 0x461BCD PUSH1 0xE5 SHL DUP2 MSTORE PUSH1 0x4 ADD PUSH2 0x489 SWAP1 PUSH2 0x2190 JUMP JUMPDEST PUSH2 0x1097 PUSH1 0xA SLOAD PUSH1 0x6 SLOAD PUSH2 0x15FD JUMP JUMPDEST SWAP3 POP SWAP3 POP SWAP3 POP SWAP1 SWAP2 SWAP3 JUMP JUMPDEST PUSH1 0xE SLOAD DUP2 JUMP JUMPDEST PUSH1 0x5 SLOAD SWAP1 JUMP JUMPDEST PUSH1 0xE SLOAD SWAP1 JUMP JUMPDEST PUSH1 0xD SLOAD DUP2 JUMP JUMPDEST PUSH1 0x9 SLOAD PUSH1 0x1 PUSH1 0x1 PUSH1 0xA0 SHL SUB AND CALLER EQ DUP1 PUSH2 0x10DD JUMPI POP PUSH1 0x8 SLOAD PUSH1 0x1 PUSH1 0x1 PUSH1 0xA0 SHL SUB AND CALLER EQ JUMPDEST PUSH2 0x10F9 JUMPI PUSH1 0x40 MLOAD PUSH3 0x461BCD PUSH1 0xE5 SHL DUP2 MSTORE PUSH1 0x4 ADD PUSH2 0x489 SWAP1 PUSH2 0x2190 JUMP JUMPDEST PUSH1 0x6 SSTORE JUMP JUMPDEST PUSH1 0x60 PUSH2 0x1109 DUP3 PUSH2 0x18A1 JUMP JUMPDEST PUSH2 0x1125 JUMPI PUSH1 0x40 MLOAD PUSH3 0x461BCD PUSH1 0xE5 SHL DUP2 MSTORE PUSH1 0x4 ADD PUSH2 0x489 SWAP1 PUSH2 0x225C JUMP JUMPDEST PUSH1 0x1 PUSH1 0x1 PUSH1 0xA0 SHL SUB DUP3 AND PUSH1 0x0 SWAP1 DUP2 MSTORE PUSH1 0x4 PUSH1 0x20 SWAP1 DUP2 MSTORE PUSH1 0x40 DUP1 DUP4 KECCAK256 DUP1 SLOAD DUP3 MLOAD DUP2 DUP6 MUL DUP2 ADD DUP6 ADD SWAP1 SWAP4 MSTORE DUP1 DUP4 MSTORE SWAP2 SWAP3 SWAP1 SWAP2 SWAP1 DUP5 SWAP1 DUP5 ADD JUMPDEST DUP3 DUP3 LT ISZERO PUSH2 0x123D JUMPI DUP4 DUP3 SWAP1 PUSH1 0x0 MSTORE PUSH1 0x20 PUSH1 0x0 KECCAK256 SWAP1 PUSH1 0x4 MUL ADD PUSH1 0x40 MLOAD DUP1 PUSH1 0x80 ADD PUSH1 0x40 MSTORE SWAP1 DUP2 PUSH1 0x0 DUP3 ADD DUP1 SLOAD PUSH2 0x118E SWAP1 PUSH2 0x24B6 JUMP JUMPDEST DUP1 PUSH1 0x1F ADD PUSH1 0x20 DUP1 SWAP2 DIV MUL PUSH1 0x20 ADD PUSH1 0x40 MLOAD SWAP1 DUP2 ADD PUSH1 0x40 MSTORE DUP1 SWAP3 SWAP2 SWAP1 DUP2 DUP2 MSTORE PUSH1 0x20 ADD DUP3 DUP1 SLOAD PUSH2 0x11BA SWAP1 PUSH2 0x24B6 JUMP JUMPDEST DUP1 ISZERO PUSH2 0x1207 JUMPI DUP1 PUSH1 0x1F LT PUSH2 0x11DC JUMPI PUSH2 0x100 DUP1 DUP4 SLOAD DIV MUL DUP4 MSTORE SWAP2 PUSH1 0x20 ADD SWAP2 PUSH2 0x1207 JUMP JUMPDEST DUP3 ADD SWAP2 SWAP1 PUSH1 0x0 MSTORE PUSH1 0x20 PUSH1 0x0 KECCAK256 SWAP1 JUMPDEST DUP2 SLOAD DUP2 MSTORE SWAP1 PUSH1 0x1 ADD SWAP1 PUSH1 0x20 ADD DUP1 DUP4 GT PUSH2 0x11EA JUMPI DUP3 SWAP1 SUB PUSH1 0x1F AND DUP3 ADD SWAP2 JUMPDEST POP POP POP POP POP DUP2 MSTORE PUSH1 0x20 ADD PUSH1 0x1 DUP3 ADD SLOAD DUP2 MSTORE PUSH1 0x20 ADD PUSH1 0x2 DUP3 ADD SLOAD DUP2 MSTORE PUSH1 0x20 ADD PUSH1 0x3 DUP3 ADD SLOAD DUP2 MSTORE POP POP DUP2 MSTORE PUSH1 0x20 ADD SWAP1 PUSH1 0x1 ADD SWAP1 PUSH2 0x115B JUMP JUMPDEST POP POP POP POP SWAP1 POP PUSH1 0x0 DUP2 MLOAD SWAP1 POP PUSH2 0x1251 PUSH2 0x1EAB JUMP JUMPDEST PUSH1 0x0 PUSH2 0x1288 DUP5 PUSH1 0x0 DUP2 MLOAD DUP2 LT PUSH2 0x1277 JUMPI PUSH4 0x4E487B71 PUSH1 0xE0 SHL PUSH1 0x0 MSTORE PUSH1 0x32 PUSH1 0x4 MSTORE PUSH1 0x24 PUSH1 0x0 REVERT JUMPDEST PUSH1 0x20 MUL PUSH1 0x20 ADD ADD MLOAD PUSH1 0x20 ADD MLOAD PUSH2 0x1936 JUMP JUMPDEST PUSH1 0x40 DUP1 MLOAD DUP1 DUP3 ADD SWAP1 SWAP2 MSTORE PUSH1 0x1 DUP1 DUP3 MSTORE PUSH1 0x23 PUSH1 0xF8 SHL PUSH1 0x20 DUP4 ADD MSTORE SWAP2 SWAP3 POP SWAP1 JUMPDEST DUP5 DUP2 LT ISZERO PUSH2 0x89A JUMPI DUP6 DUP2 DUP2 MLOAD DUP2 LT PUSH2 0x12CE JUMPI PUSH4 0x4E487B71 PUSH1 0xE0 SHL PUSH1 0x0 MSTORE PUSH1 0x32 PUSH1 0x4 MSTORE PUSH1 0x24 PUSH1 0x0 REVERT JUMPDEST PUSH1 0x20 MUL PUSH1 0x20 ADD ADD MLOAD SWAP4 POP DUP3 DUP3 PUSH2 0x12E7 DUP7 PUSH1 0x20 ADD MLOAD PUSH2 0x1936 JUMP JUMPDEST PUSH1 0x40 MLOAD PUSH1 0x20 ADD PUSH2 0x12F9 SWAP4 SWAP3 SWAP2 SWAP1 PUSH2 0x2046 JUMP JUMPDEST PUSH1 0x40 MLOAD PUSH1 0x20 DUP2 DUP4 SUB SUB DUP2 MSTORE SWAP1 PUSH1 0x40 MSTORE SWAP3 POP DUP1 DUP1 PUSH2 0x1315 SWAP1 PUSH2 0x24F1 JUMP JUMPDEST SWAP2 POP POP PUSH2 0x12A6 JUMP JUMPDEST PUSH1 0x9 SLOAD PUSH1 0x1 PUSH1 0x1 PUSH1 0xA0 SHL SUB AND CALLER EQ DUP1 PUSH2 0x1340 JUMPI POP PUSH1 0x8 SLOAD PUSH1 0x1 PUSH1 0x1 PUSH1 0xA0 SHL SUB AND CALLER EQ JUMPDEST PUSH2 0x135C JUMPI PUSH1 0x40 MLOAD PUSH3 0x461BCD PUSH1 0xE5 SHL DUP2 MSTORE PUSH1 0x4 ADD PUSH2 0x489 SWAP1 PUSH2 0x2190 JUMP JUMPDEST PUSH1 0x5 SSTORE JUMP JUMPDEST PUSH1 0x9 SLOAD PUSH1 0x1 PUSH1 0x1 PUSH1 0xA0 SHL SUB AND CALLER EQ DUP1 PUSH2 0x1384 JUMPI POP PUSH1 0x8 SLOAD PUSH1 0x1 PUSH1 0x1 PUSH1 0xA0 SHL SUB AND CALLER EQ JUMPDEST PUSH2 0x13A0 JUMPI PUSH1 0x40 MLOAD PUSH3 0x461BCD PUSH1 0xE5 SHL DUP2 MSTORE PUSH1 0x4 ADD PUSH2 0x489 SWAP1 PUSH2 0x2190 JUMP JUMPDEST PUSH1 0x7 SSTORE JUMP JUMPDEST PUSH1 0xA SLOAD SWAP1 JUMP JUMPDEST PUSH1 0x9 SLOAD PUSH1 0x1 PUSH1 0x1 PUSH1 0xA0 SHL SUB AND CALLER EQ DUP1 PUSH2 0x13CE JUMPI POP PUSH1 0x8 SLOAD PUSH1 0x1 PUSH1 0x1 PUSH1 0xA0 SHL SUB AND CALLER EQ JUMPDEST PUSH2 0x13EA JUMPI PUSH1 0x40 MLOAD PUSH3 0x461BCD PUSH1 0xE5 SHL DUP2 MSTORE PUSH1 0x4 ADD PUSH2 0x489 SWAP1 PUSH2 0x2190 JUMP JUMPDEST PUSH1 0x9 DUP1 SLOAD SWAP2 ISZERO ISZERO PUSH1 0x1 PUSH1 0xA0 SHL MUL PUSH1 0xFF PUSH1 0xA0 SHL NOT SWAP1 SWAP3 AND SWAP2 SWAP1 SWAP2 OR SWAP1 SSTORE JUMP JUMPDEST PUSH1 0xA SLOAD DUP2 JUMP JUMPDEST PUSH1 0x9 SLOAD PUSH1 0x1 PUSH1 0x1 PUSH1 0xA0 SHL SUB AND CALLER EQ DUP1 PUSH2 0x1431 JUMPI POP PUSH1 0x8 SLOAD PUSH1 0x1 PUSH1 0x1 PUSH1 0xA0 SHL SUB AND CALLER EQ JUMPDEST PUSH2 0x144D JUMPI PUSH1 0x40 MLOAD PUSH3 0x461BCD PUSH1 0xE5 SHL DUP2 MSTORE PUSH1 0x4 ADD PUSH2 0x489 SWAP1 PUSH2 0x2190 JUMP JUMPDEST PUSH1 0xA SSTORE JUMP JUMPDEST PUSH1 0x5 SLOAD DUP2 JUMP JUMPDEST PUSH1 0xB SLOAD DUP2 JUMP JUMPDEST PUSH1 0x9 SLOAD PUSH1 0x1 PUSH1 0x1 PUSH1 0xA0 SHL SUB AND DUP2 JUMP JUMPDEST PUSH1 0x1 PUSH1 0x1 PUSH1 0xA0 SHL SUB DUP3 AND PUSH1 0x0 SWAP1 DUP2 MSTORE PUSH1 0x4 PUSH1 0x20 SWAP1 DUP2 MSTORE PUSH1 0x40 DUP1 DUP4 KECCAK256 DUP1 SLOAD DUP3 MLOAD DUP2 DUP6 MUL DUP2 ADD DUP6 ADD SWAP1 SWAP4 MSTORE DUP1 DUP4 MSTORE DUP5 SWAP4 DUP5 SWAP1 DUP5 ADD JUMPDEST DUP3 DUP3 LT ISZERO PUSH2 0x1582 JUMPI DUP4 DUP3 SWAP1 PUSH1 0x0 MSTORE PUSH1 0x20 PUSH1 0x0 KECCAK256 SWAP1 PUSH1 0x4 MUL ADD PUSH1 0x40 MLOAD DUP1 PUSH1 0x80 ADD PUSH1 0x40 MSTORE SWAP1 DUP2 PUSH1 0x0 DUP3 ADD DUP1 SLOAD PUSH2 0x14D3 SWAP1 PUSH2 0x24B6 JUMP JUMPDEST DUP1 PUSH1 0x1F ADD PUSH1 0x20 DUP1 SWAP2 DIV MUL PUSH1 0x20 ADD PUSH1 0x40 MLOAD SWAP1 DUP2 ADD PUSH1 0x40 MSTORE DUP1 SWAP3 SWAP2 SWAP1 DUP2 DUP2 MSTORE PUSH1 0x20 ADD DUP3 DUP1 SLOAD PUSH2 0x14FF SWAP1 PUSH2 0x24B6 JUMP JUMPDEST DUP1 ISZERO PUSH2 0x154C JUMPI DUP1 PUSH1 0x1F LT PUSH2 0x1521 JUMPI PUSH2 0x100 DUP1 DUP4 SLOAD DIV MUL DUP4 MSTORE SWAP2 PUSH1 0x20 ADD SWAP2 PUSH2 0x154C JUMP JUMPDEST DUP3 ADD SWAP2 SWAP1 PUSH1 0x0 MSTORE PUSH1 0x20 PUSH1 0x0 KECCAK256 SWAP1 JUMPDEST DUP2 SLOAD DUP2 MSTORE SWAP1 PUSH1 0x1 ADD SWAP1 PUSH1 0x20 ADD DUP1 DUP4 GT PUSH2 0x152F JUMPI DUP3 SWAP1 SUB PUSH1 0x1F AND DUP3 ADD SWAP2 JUMPDEST POP POP POP POP POP DUP2 MSTORE PUSH1 0x20 ADD PUSH1 0x1 DUP3 ADD SLOAD DUP2 MSTORE PUSH1 0x20 ADD PUSH1 0x2 DUP3 ADD SLOAD DUP2 MSTORE PUSH1 0x20 ADD PUSH1 0x3 DUP3 ADD SLOAD DUP2 MSTORE POP POP DUP2 MSTORE PUSH1 0x20 ADD SWAP1 PUSH1 0x1 ADD SWAP1 PUSH2 0x14A0 JUMP JUMPDEST POP POP POP POP SWAP1 POP PUSH1 0x0 JUMPDEST DUP2 MLOAD DUP2 LT ISZERO PUSH2 0x15F2 JUMPI DUP4 DUP1 MLOAD SWAP1 PUSH1 0x20 ADD KECCAK256 DUP3 DUP3 DUP2 MLOAD DUP2 LT PUSH2 0x15BC JUMPI PUSH4 0x4E487B71 PUSH1 0xE0 SHL PUSH1 0x0 MSTORE PUSH1 0x32 PUSH1 0x4 MSTORE PUSH1 0x24 PUSH1 0x0 REVERT JUMPDEST PUSH1 0x20 MUL PUSH1 0x20 ADD ADD MLOAD PUSH1 0x0 ADD MLOAD DUP1 MLOAD SWAP1 PUSH1 0x20 ADD KECCAK256 EQ ISZERO PUSH2 0x15E0 JUMPI PUSH1 0x0 SWAP3 POP POP POP PUSH2 0x8B3 JUMP JUMPDEST DUP1 PUSH2 0x15EA DUP2 PUSH2 0x24F1 JUMP JUMPDEST SWAP2 POP POP PUSH2 0x158B JUMP JUMPDEST POP PUSH1 0x1 SWAP5 SWAP4 POP POP POP POP JUMP JUMPDEST PUSH1 0x9 DUP1 SLOAD PUSH1 0xFF PUSH1 0xA8 SHL NOT AND PUSH1 0x1 PUSH1 0xA8 SHL OR SWAP1 SSTORE PUSH1 0x0 DUP1 SLOAD DUP2 SWAP1 DUP2 SWAP1 DUP1 PUSH2 0x1635 JUMPI PUSH1 0x40 MLOAD PUSH3 0x461BCD PUSH1 0xE5 SHL DUP2 MSTORE PUSH1 0x4 ADD PUSH2 0x489 SWAP1 PUSH2 0x21EE JUMP JUMPDEST DUP1 PUSH2 0x164B JUMPI POP POP PUSH1 0xC SLOAD PUSH1 0x0 SWAP3 POP DUP3 SWAP2 POP PUSH2 0x189A JUMP JUMPDEST PUSH1 0x0 DUP1 GAS PUSH1 0xC SLOAD SWAP1 SWAP2 POP PUSH1 0x0 SWAP1 DUP2 TIMESTAMP DUP2 DUP1 DUP1 DUP1 JUMPDEST DUP16 DUP11 LT DUP1 ISZERO PUSH2 0x166D JUMPI POP DUP11 DUP7 LT JUMPDEST ISZERO PUSH2 0x1876 JUMPI DUP7 PUSH2 0x167C DUP2 PUSH2 0x24F1 JUMP JUMPDEST PUSH1 0x0 SLOAD SWAP1 SWAP9 POP DUP9 LT SWAP1 POP PUSH2 0x168F JUMPI PUSH1 0x0 SWAP7 POP JUMPDEST PUSH1 0x4 PUSH1 0x0 DUP1 PUSH1 0x0 ADD DUP10 DUP2 SLOAD DUP2 LT PUSH2 0x16B6 JUMPI PUSH4 0x4E487B71 PUSH1 0xE0 SHL PUSH1 0x0 MSTORE PUSH1 0x32 PUSH1 0x4 MSTORE PUSH1 0x24 PUSH1 0x0 REVERT JUMPDEST PUSH1 0x0 SWAP2 DUP3 MSTORE PUSH1 0x20 DUP1 DUP4 KECCAK256 SWAP1 SWAP2 ADD SLOAD PUSH1 0x1 PUSH1 0x1 PUSH1 0xA0 SHL SUB AND DUP4 MSTORE DUP3 ADD SWAP3 SWAP1 SWAP3 MSTORE PUSH1 0x40 ADD DUP2 KECCAK256 DUP1 SLOAD SWAP6 POP SWAP3 POP JUMPDEST DUP5 DUP2 LT ISZERO PUSH2 0x183E JUMPI DUP3 DUP2 DUP2 SLOAD DUP2 LT PUSH2 0x1709 JUMPI PUSH4 0x4E487B71 PUSH1 0xE0 SHL PUSH1 0x0 MSTORE PUSH1 0x32 PUSH1 0x4 MSTORE PUSH1 0x24 PUSH1 0x0 REVERT JUMPDEST SWAP1 PUSH1 0x0 MSTORE PUSH1 0x20 PUSH1 0x0 KECCAK256 SWAP1 PUSH1 0x4 MUL ADD SWAP2 POP PUSH2 0x17DD DUP3 PUSH1 0x40 MLOAD DUP1 PUSH1 0x80 ADD PUSH1 0x40 MSTORE SWAP1 DUP2 PUSH1 0x0 DUP3 ADD DUP1 SLOAD PUSH2 0x1738 SWAP1 PUSH2 0x24B6 JUMP JUMPDEST DUP1 PUSH1 0x1F ADD PUSH1 0x20 DUP1 SWAP2 DIV MUL PUSH1 0x20 ADD PUSH1 0x40 MLOAD SWAP1 DUP2 ADD PUSH1 0x40 MSTORE DUP1 SWAP3 SWAP2 SWAP1 DUP2 DUP2 MSTORE PUSH1 0x20 ADD DUP3 DUP1 SLOAD PUSH2 0x1764 SWAP1 PUSH2 0x24B6 JUMP JUMPDEST DUP1 ISZERO PUSH2 0x17B1 JUMPI DUP1 PUSH1 0x1F LT PUSH2 0x1786 JUMPI PUSH2 0x100 DUP1 DUP4 SLOAD DIV MUL DUP4 MSTORE SWAP2 PUSH1 0x20 ADD SWAP2 PUSH2 0x17B1 JUMP JUMPDEST DUP3 ADD SWAP2 SWAP1 PUSH1 0x0 MSTORE PUSH1 0x20 PUSH1 0x0 KECCAK256 SWAP1 JUMPDEST DUP2 SLOAD DUP2 MSTORE SWAP1 PUSH1 0x1 ADD SWAP1 PUSH1 0x20 ADD DUP1 DUP4 GT PUSH2 0x1794 JUMPI DUP3 SWAP1 SUB PUSH1 0x1F AND DUP3 ADD SWAP2 JUMPDEST POP POP POP POP POP DUP2 MSTORE PUSH1 0x20 ADD PUSH1 0x1 DUP3 ADD SLOAD DUP2 MSTORE PUSH1 0x20 ADD PUSH1 0x2 DUP3 ADD SLOAD DUP2 MSTORE PUSH1 0x20 ADD PUSH1 0x3 DUP3 ADD SLOAD DUP2 MSTORE POP POP PUSH2 0x1C1D JUMP JUMPDEST ISZERO PUSH2 0x182C JUMPI DUP16 DUP3 PUSH1 0x3 ADD PUSH1 0x0 DUP3 DUP3 SLOAD PUSH2 0x17F6 SWAP2 SWAP1 PUSH2 0x23F3 JUMP JUMPDEST SWAP3 POP POP DUP2 SWAP1 SSTORE POP DUP6 DUP3 PUSH1 0x2 ADD DUP2 SWAP1 SSTORE POP DUP16 PUSH1 0xE PUSH1 0x0 DUP3 DUP3 SLOAD PUSH2 0x1818 SWAP2 SWAP1 PUSH2 0x23F3 JUMP JUMPDEST SWAP1 SWAP2 SSTORE POP DUP5 SWAP1 POP PUSH2 0x1828 DUP2 PUSH2 0x24F1 JUMP JUMPDEST SWAP5 POP POP JUMPDEST DUP1 PUSH2 0x1836 DUP2 PUSH2 0x24F1 JUMP JUMPDEST SWAP2 POP POP PUSH2 0x16E1 JUMP JUMPDEST POP DUP6 PUSH2 0x1849 DUP2 PUSH2 0x24F1 JUMP JUMPDEST SWAP7 POP POP GAS SWAP8 POP DUP8 DUP10 GT ISZERO PUSH2 0x186E JUMPI PUSH2 0x186B PUSH2 0x1864 DUP11 DUP11 PUSH2 0x1C3A JUMP JUMPDEST DUP12 SWAP1 PUSH2 0x1C83 JUMP JUMPDEST SWAP10 POP JUMPDEST DUP8 SWAP9 POP PUSH2 0x165F JUMP JUMPDEST POP POP PUSH1 0xC DUP6 SWAP1 SSTORE PUSH1 0x9 DUP1 SLOAD PUSH1 0xFF PUSH1 0xA8 SHL NOT AND SWAP1 SSTORE SWAP3 SWAP11 POP SWAP2 SWAP9 POP SWAP2 SWAP7 POP POP POP POP POP POP POP JUMPDEST SWAP3 POP SWAP3 POP SWAP3 JUMP JUMPDEST PUSH1 0x40 MLOAD PUSH4 0x732A2CCF PUSH1 0xE0 SHL DUP2 MSTORE PUSH1 0x0 SWAP1 DUP2 SWAP1 PUSH20 0x0 SWAP1 PUSH4 0x732A2CCF SWAP1 PUSH2 0x18DF SWAP1 DUP5 SWAP1 DUP8 SWAP1 PUSH1 0x4 ADD PUSH2 0x239E JUMP JUMPDEST PUSH1 0x20 PUSH1 0x40 MLOAD DUP1 DUP4 SUB DUP2 DUP7 DUP1 EXTCODESIZE ISZERO DUP1 ISZERO PUSH2 0x18F7 JUMPI PUSH1 0x0 DUP1 REVERT JUMPDEST POP GAS DELEGATECALL ISZERO DUP1 ISZERO PUSH2 0x190B JUMPI RETURNDATASIZE PUSH1 0x0 DUP1 RETURNDATACOPY RETURNDATASIZE PUSH1 0x0 REVERT JUMPDEST POP POP POP POP PUSH1 0x40 MLOAD RETURNDATASIZE PUSH1 0x1F NOT PUSH1 0x1F DUP3 ADD AND DUP3 ADD DUP1 PUSH1 0x40 MSTORE POP DUP2 ADD SWAP1 PUSH2 0x192F SWAP2 SWAP1 PUSH2 0x202E JUMP JUMPDEST GT SWAP3 SWAP2 POP POP JUMP JUMPDEST PUSH1 0x60 DUP2 PUSH2 0x195B JUMPI POP PUSH1 0x40 DUP1 MLOAD DUP1 DUP3 ADD SWAP1 SWAP2 MSTORE PUSH1 0x1 DUP2 MSTORE PUSH1 0x3 PUSH1 0xFC SHL PUSH1 0x20 DUP3 ADD MSTORE PUSH2 0x8A3 JUMP JUMPDEST DUP2 PUSH1 0x0 JUMPDEST DUP2 ISZERO PUSH2 0x1985 JUMPI DUP1 PUSH2 0x196F DUP2 PUSH2 0x24F1 JUMP JUMPDEST SWAP2 POP PUSH2 0x197E SWAP1 POP PUSH1 0xA DUP4 PUSH2 0x2430 JUMP JUMPDEST SWAP2 POP PUSH2 0x195F JUMP JUMPDEST PUSH1 0x0 DUP2 PUSH8 0xFFFFFFFFFFFFFFFF DUP2 GT ISZERO PUSH2 0x19AE JUMPI PUSH4 0x4E487B71 PUSH1 0xE0 SHL PUSH1 0x0 MSTORE PUSH1 0x41 PUSH1 0x4 MSTORE PUSH1 0x24 PUSH1 0x0 REVERT JUMPDEST PUSH1 0x40 MLOAD SWAP1 DUP1 DUP3 MSTORE DUP1 PUSH1 0x1F ADD PUSH1 0x1F NOT AND PUSH1 0x20 ADD DUP3 ADD PUSH1 0x40 MSTORE DUP1 ISZERO PUSH2 0x19D8 JUMPI PUSH1 0x20 DUP3 ADD DUP2 DUP1 CALLDATASIZE DUP4 CALLDATACOPY ADD SWAP1 POP JUMPDEST POP SWAP1 POP DUP2 JUMPDEST DUP6 ISZERO PUSH2 0x1A73 JUMPI PUSH2 0x19EE PUSH1 0x1 DUP3 PUSH2 0x246F JUMP JUMPDEST SWAP1 POP PUSH1 0x0 PUSH2 0x19FD PUSH1 0xA DUP9 PUSH2 0x2430 JUMP JUMPDEST PUSH2 0x1A08 SWAP1 PUSH1 0xA PUSH2 0x2450 JUMP JUMPDEST PUSH2 0x1A12 SWAP1 DUP9 PUSH2 0x246F JUMP JUMPDEST PUSH2 0x1A1D SWAP1 PUSH1 0x30 PUSH2 0x240B JUMP JUMPDEST SWAP1 POP PUSH1 0x0 DUP2 PUSH1 0xF8 SHL SWAP1 POP DUP1 DUP5 DUP5 DUP2 MLOAD DUP2 LT PUSH2 0x1A48 JUMPI PUSH4 0x4E487B71 PUSH1 0xE0 SHL PUSH1 0x0 MSTORE PUSH1 0x32 PUSH1 0x4 MSTORE PUSH1 0x24 PUSH1 0x0 REVERT JUMPDEST PUSH1 0x20 ADD ADD SWAP1 PUSH1 0x1 PUSH1 0x1 PUSH1 0xF8 SHL SUB NOT AND SWAP1 DUP2 PUSH1 0x0 BYTE SWAP1 MSTORE8 POP PUSH2 0x1A6A PUSH1 0xA DUP10 PUSH2 0x2430 JUMP JUMPDEST SWAP8 POP POP POP PUSH2 0x19DD JUMP JUMPDEST POP SWAP5 SWAP4 POP POP POP POP JUMP JUMPDEST DUP2 SLOAD PUSH1 0x0 SWAP1 DUP1 PUSH2 0x1A9E JUMPI PUSH1 0x40 MLOAD PUSH3 0x461BCD PUSH1 0xE5 SHL DUP2 MSTORE PUSH1 0x4 ADD PUSH2 0x489 SWAP1 PUSH2 0x234F JUMP JUMPDEST PUSH1 0x0 DUP1 PUSH2 0x1BB4 DUP7 DUP1 SLOAD DUP1 PUSH1 0x20 MUL PUSH1 0x20 ADD PUSH1 0x40 MLOAD SWAP1 DUP2 ADD PUSH1 0x40 MSTORE DUP1 SWAP3 SWAP2 SWAP1 DUP2 DUP2 MSTORE PUSH1 0x20 ADD PUSH1 0x0 SWAP1 JUMPDEST DUP3 DUP3 LT ISZERO PUSH2 0x1BA7 JUMPI DUP4 DUP3 SWAP1 PUSH1 0x0 MSTORE PUSH1 0x20 PUSH1 0x0 KECCAK256 SWAP1 PUSH1 0x4 MUL ADD PUSH1 0x40 MLOAD DUP1 PUSH1 0x80 ADD PUSH1 0x40 MSTORE SWAP1 DUP2 PUSH1 0x0 DUP3 ADD DUP1 SLOAD PUSH2 0x1AF8 SWAP1 PUSH2 0x24B6 JUMP JUMPDEST DUP1 PUSH1 0x1F ADD PUSH1 0x20 DUP1 SWAP2 DIV MUL PUSH1 0x20 ADD PUSH1 0x40 MLOAD SWAP1 DUP2 ADD PUSH1 0x40 MSTORE DUP1 SWAP3 SWAP2 SWAP1 DUP2 DUP2 MSTORE PUSH1 0x20 ADD DUP3 DUP1 SLOAD PUSH2 0x1B24 SWAP1 PUSH2 0x24B6 JUMP JUMPDEST DUP1 ISZERO PUSH2 0x1B71 JUMPI DUP1 PUSH1 0x1F LT PUSH2 0x1B46 JUMPI PUSH2 0x100 DUP1 DUP4 SLOAD DIV MUL DUP4 MSTORE SWAP2 PUSH1 0x20 ADD SWAP2 PUSH2 0x1B71 JUMP JUMPDEST DUP3 ADD SWAP2 SWAP1 PUSH1 0x0 MSTORE PUSH1 0x20 PUSH1 0x0 KECCAK256 SWAP1 JUMPDEST DUP2 SLOAD DUP2 MSTORE SWAP1 PUSH1 0x1 ADD SWAP1 PUSH1 0x20 ADD DUP1 DUP4 GT PUSH2 0x1B54 JUMPI DUP3 SWAP1 SUB PUSH1 0x1F AND DUP3 ADD SWAP2 JUMPDEST POP POP POP POP POP DUP2 MSTORE PUSH1 0x20 ADD PUSH1 0x1 DUP3 ADD SLOAD DUP2 MSTORE PUSH1 0x20 ADD PUSH1 0x2 DUP3 ADD SLOAD DUP2 MSTORE PUSH1 0x20 ADD PUSH1 0x3 DUP3 ADD SLOAD DUP2 MSTORE POP POP DUP2 MSTORE PUSH1 0x20 ADD SWAP1 PUSH1 0x1 ADD SWAP1 PUSH2 0x1AC5 JUMP JUMPDEST POP POP POP POP PUSH1 0x0 DUP6 DUP9 PUSH2 0x1CB2 JUMP JUMPDEST SWAP1 POP PUSH1 0x0 DUP1 DUP3 SLT PUSH2 0x1BC6 JUMPI POP PUSH1 0x1 SWAP2 POP DUP1 JUMPDEST DUP3 PUSH2 0x1BE3 JUMPI PUSH1 0x40 MLOAD PUSH3 0x461BCD PUSH1 0xE5 SHL DUP2 MSTORE PUSH1 0x4 ADD PUSH2 0x489 SWAP1 PUSH2 0x2293 JUMP JUMPDEST DUP7 DUP2 DUP2 SLOAD DUP2 LT PUSH2 0x1C03 JUMPI PUSH4 0x4E487B71 PUSH1 0xE0 SHL PUSH1 0x0 MSTORE PUSH1 0x32 PUSH1 0x4 MSTORE PUSH1 0x24 PUSH1 0x0 REVERT JUMPDEST SWAP1 PUSH1 0x0 MSTORE PUSH1 0x20 PUSH1 0x0 KECCAK256 SWAP1 PUSH1 0x4 MUL ADD SWAP5 POP POP POP POP POP SWAP3 SWAP2 POP POP JUMP JUMPDEST PUSH1 0x0 TIMESTAMP PUSH1 0x7 SLOAD DUP4 PUSH1 0x40 ADD MLOAD PUSH2 0x1C32 SWAP2 SWAP1 PUSH2 0x23F3 JUMP JUMPDEST GT ISZERO SWAP3 SWAP2 POP POP JUMP JUMPDEST PUSH1 0x0 PUSH2 0x1C7C DUP4 DUP4 PUSH1 0x40 MLOAD DUP1 PUSH1 0x40 ADD PUSH1 0x40 MSTORE DUP1 PUSH1 0x1E DUP2 MSTORE PUSH1 0x20 ADD PUSH32 0x536166654D6174683A207375627472616374696F6E206F766572666C6F770000 DUP2 MSTORE POP PUSH2 0x1D82 JUMP JUMPDEST SWAP4 SWAP3 POP POP POP JUMP JUMPDEST PUSH1 0x0 DUP1 PUSH2 0x1C90 DUP4 DUP6 PUSH2 0x23F3 JUMP JUMPDEST SWAP1 POP DUP4 DUP2 LT ISZERO PUSH2 0x1C7C JUMPI PUSH1 0x40 MLOAD PUSH3 0x461BCD PUSH1 0xE5 SHL DUP2 MSTORE PUSH1 0x4 ADD PUSH2 0x489 SWAP1 PUSH2 0x20DB JUMP JUMPDEST PUSH1 0x0 DUP4 DUP4 LT PUSH2 0x1D75 JUMPI PUSH1 0x0 PUSH2 0x1CD2 PUSH1 0x2 PUSH2 0x1CCC DUP8 DUP8 PUSH2 0x23F3 JUMP JUMPDEST SWAP1 PUSH2 0x1DBC JUMP JUMPDEST SWAP1 POP DUP3 DUP7 DUP3 DUP2 MLOAD DUP2 LT PUSH2 0x1CF5 JUMPI PUSH4 0x4E487B71 PUSH1 0xE0 SHL PUSH1 0x0 MSTORE PUSH1 0x32 PUSH1 0x4 MSTORE PUSH1 0x24 PUSH1 0x0 REVERT JUMPDEST PUSH1 0x20 MUL PUSH1 0x20 ADD ADD MLOAD PUSH1 0x20 ADD MLOAD EQ ISZERO PUSH2 0x1D0E JUMPI SWAP1 POP PUSH2 0x1D7A JUMP JUMPDEST DUP3 DUP7 DUP3 DUP2 MLOAD DUP2 LT PUSH2 0x1D2F JUMPI PUSH4 0x4E487B71 PUSH1 0xE0 SHL PUSH1 0x0 MSTORE PUSH1 0x32 PUSH1 0x4 MSTORE PUSH1 0x24 PUSH1 0x0 REVERT JUMPDEST PUSH1 0x20 MUL PUSH1 0x20 ADD ADD MLOAD PUSH1 0x20 ADD MLOAD GT ISZERO PUSH2 0x1D5F JUMPI PUSH2 0x1D57 DUP7 DUP7 PUSH2 0x1D51 PUSH1 0x1 DUP6 PUSH2 0x246F JUMP JUMPDEST DUP7 PUSH2 0x1CB2 JUMP JUMPDEST SWAP2 POP POP PUSH2 0x1D7A JUMP JUMPDEST PUSH2 0x1D57 DUP7 PUSH2 0x1D6E DUP4 PUSH1 0x1 PUSH2 0x23F3 JUMP JUMPDEST DUP7 DUP7 PUSH2 0x1CB2 JUMP JUMPDEST POP PUSH1 0x0 NOT JUMPDEST SWAP5 SWAP4 POP POP POP POP JUMP JUMPDEST PUSH1 0x0 DUP2 DUP5 DUP5 GT ISZERO PUSH2 0x1DA6 JUMPI PUSH1 0x40 MLOAD PUSH3 0x461BCD PUSH1 0xE5 SHL DUP2 MSTORE PUSH1 0x4 ADD PUSH2 0x489 SWAP2 SWAP1 PUSH2 0x20A8 JUMP JUMPDEST POP PUSH1 0x0 PUSH2 0x1DB3 DUP5 DUP7 PUSH2 0x246F JUMP JUMPDEST SWAP6 SWAP5 POP POP POP POP POP JUMP JUMPDEST PUSH1 0x0 PUSH2 0x1C7C DUP4 DUP4 PUSH1 0x40 MLOAD DUP1 PUSH1 0x40 ADD PUSH1 0x40 MSTORE DUP1 PUSH1 0x1A DUP2 MSTORE PUSH1 0x20 ADD PUSH32 0x536166654D6174683A206469766973696F6E206279207A65726F000000000000 DUP2 MSTORE POP PUSH1 0x0 DUP2 DUP4 PUSH2 0x1E1A JUMPI PUSH1 0x40 MLOAD PUSH3 0x461BCD PUSH1 0xE5 SHL DUP2 MSTORE PUSH1 0x4 ADD PUSH2 0x489 SWAP2 SWAP1 PUSH2 0x20A8 JUMP JUMPDEST POP PUSH1 0x0 PUSH2 0x1DB3 DUP5 DUP7 PUSH2 0x2430 JUMP JUMPDEST DUP3 DUP1 SLOAD PUSH2 0x1E33 SWAP1 PUSH2 0x24B6 JUMP JUMPDEST SWAP1 PUSH1 0x0 MSTORE PUSH1 0x20 PUSH1 0x0 KECCAK256 SWAP1 PUSH1 0x1F ADD PUSH1 0x20 SWAP1 DIV DUP2 ADD SWAP3 DUP3 PUSH2 0x1E55 JUMPI PUSH1 0x0 DUP6 SSTORE PUSH2 0x1E9B JUMP JUMPDEST DUP3 PUSH1 0x1F LT PUSH2 0x1E6E JUMPI DUP1 MLOAD PUSH1 0xFF NOT AND DUP4 DUP1 ADD OR DUP6 SSTORE PUSH2 0x1E9B JUMP JUMPDEST DUP3 DUP1 ADD PUSH1 0x1 ADD DUP6 SSTORE DUP3 ISZERO PUSH2 0x1E9B JUMPI SWAP2 DUP3 ADD JUMPDEST DUP3 DUP2 GT ISZERO PUSH2 0x1E9B JUMPI DUP3 MLOAD DUP3 SSTORE SWAP2 PUSH1 0x20 ADD SWAP2 SWAP1 PUSH1 0x1 ADD SWAP1 PUSH2 0x1E80 JUMP JUMPDEST POP PUSH2 0x1EA7 SWAP3 SWAP2 POP PUSH2 0x1ED3 JUMP JUMPDEST POP SWAP1 JUMP JUMPDEST PUSH1 0x40 MLOAD DUP1 PUSH1 0x80 ADD PUSH1 0x40 MSTORE DUP1 PUSH1 0x60 DUP2 MSTORE PUSH1 0x20 ADD PUSH1 0x0 DUP2 MSTORE PUSH1 0x20 ADD PUSH1 0x0 DUP2 MSTORE PUSH1 0x20 ADD PUSH1 0x0 DUP2 MSTORE POP SWAP1 JUMP JUMPDEST JUMPDEST DUP1 DUP3 GT ISZERO PUSH2 0x1EA7 JUMPI PUSH1 0x0 DUP2 SSTORE PUSH1 0x1 ADD PUSH2 0x1ED4 JUMP JUMPDEST DUP1 CALLDATALOAD PUSH1 0x1 PUSH1 0x1 PUSH1 0xA0 SHL SUB DUP2 AND DUP2 EQ PUSH2 0x8A3 JUMPI PUSH1 0x0 DUP1 REVERT JUMPDEST PUSH1 0x0 PUSH1 0x20 DUP3 DUP5 SUB SLT ISZERO PUSH2 0x1F10 JUMPI DUP1 DUP2 REVERT JUMPDEST PUSH2 0x1C7C DUP3 PUSH2 0x1EE8 JUMP JUMPDEST PUSH1 0x0 DUP1 PUSH1 0x40 DUP4 DUP6 SUB SLT ISZERO PUSH2 0x1F2B JUMPI DUP1 DUP2 REVERT JUMPDEST PUSH2 0x1F34 DUP4 PUSH2 0x1EE8 JUMP JUMPDEST SWAP2 POP PUSH1 0x20 DUP1 DUP5 ADD CALLDATALOAD PUSH8 0xFFFFFFFFFFFFFFFF DUP1 DUP3 GT ISZERO PUSH2 0x1F51 JUMPI DUP4 DUP5 REVERT JUMPDEST DUP2 DUP7 ADD SWAP2 POP DUP7 PUSH1 0x1F DUP4 ADD SLT PUSH2 0x1F64 JUMPI DUP4 DUP5 REVERT JUMPDEST DUP2 CALLDATALOAD DUP2 DUP2 GT ISZERO PUSH2 0x1F76 JUMPI PUSH2 0x1F76 PUSH2 0x2522 JUMP JUMPDEST PUSH1 0x40 MLOAD PUSH1 0x1F DUP3 ADD PUSH1 0x1F NOT AND DUP2 ADD DUP6 ADD DUP4 DUP2 GT DUP3 DUP3 LT OR ISZERO PUSH2 0x1F99 JUMPI PUSH2 0x1F99 PUSH2 0x2522 JUMP JUMPDEST PUSH1 0x40 MSTORE DUP2 DUP2 MSTORE DUP4 DUP3 ADD DUP6 ADD DUP10 LT ISZERO PUSH2 0x1FAF JUMPI DUP6 DUP7 REVERT JUMPDEST DUP2 DUP6 DUP6 ADD DUP7 DUP4 ADD CALLDATACOPY DUP6 DUP6 DUP4 DUP4 ADD ADD MSTORE DUP1 SWAP6 POP POP POP POP POP POP SWAP3 POP SWAP3 SWAP1 POP JUMP JUMPDEST PUSH1 0x0 DUP1 PUSH1 0x40 DUP4 DUP6 SUB SLT ISZERO PUSH2 0x1FDF JUMPI DUP2 DUP3 REVERT JUMPDEST PUSH2 0x1FE8 DUP4 PUSH2 0x1EE8 JUMP JUMPDEST SWAP5 PUSH1 0x20 SWAP4 SWAP1 SWAP4 ADD CALLDATALOAD SWAP4 POP POP POP JUMP JUMPDEST PUSH1 0x0 PUSH1 0x20 DUP3 DUP5 SUB SLT ISZERO PUSH2 0x2007 JUMPI DUP1 DUP2 REVERT JUMPDEST DUP2 CALLDATALOAD DUP1 ISZERO ISZERO DUP2 EQ PUSH2 0x1C7C JUMPI DUP2 DUP3 REVERT JUMPDEST PUSH1 0x0 PUSH1 0x20 DUP3 DUP5 SUB SLT ISZERO PUSH2 0x2027 JUMPI DUP1 DUP2 REVERT JUMPDEST POP CALLDATALOAD SWAP2 SWAP1 POP JUMP JUMPDEST PUSH1 0x0 PUSH1 0x20 DUP3 DUP5 SUB SLT ISZERO PUSH2 0x203F JUMPI DUP1 DUP2 REVERT JUMPDEST POP MLOAD SWAP2 SWAP1 POP JUMP JUMPDEST PUSH1 0x0 DUP5 MLOAD PUSH2 0x2058 DUP2 DUP5 PUSH1 0x20 DUP10 ADD PUSH2 0x2486 JUMP JUMPDEST DUP5 MLOAD SWAP1 DUP4 ADD SWAP1 PUSH2 0x206C DUP2 DUP4 PUSH1 0x20 DUP10 ADD PUSH2 0x2486 JUMP JUMPDEST DUP5 MLOAD SWAP2 ADD SWAP1 PUSH2 0x207F DUP2 DUP4 PUSH1 0x20 DUP9 ADD PUSH2 0x2486 JUMP JUMPDEST ADD SWAP6 SWAP5 POP POP POP POP POP JUMP JUMPDEST PUSH1 0x1 PUSH1 0x1 PUSH1 0xA0 SHL SUB SWAP2 SWAP1 SWAP2 AND DUP2 MSTORE PUSH1 0x20 ADD SWAP1 JUMP JUMPDEST SWAP1 ISZERO ISZERO DUP2 MSTORE PUSH1 0x20 ADD SWAP1 JUMP JUMPDEST PUSH1 0x0 PUSH1 0x20 DUP3 MSTORE DUP3 MLOAD DUP1 PUSH1 0x20 DUP5 ADD MSTORE PUSH2 0x20C7 DUP2 PUSH1 0x40 DUP6 ADD PUSH1 0x20 DUP8 ADD PUSH2 0x2486 JUMP JUMPDEST PUSH1 0x1F ADD PUSH1 0x1F NOT AND SWAP2 SWAP1 SWAP2 ADD PUSH1 0x40 ADD SWAP3 SWAP2 POP POP JUMP JUMPDEST PUSH1 0x20 DUP1 DUP3 MSTORE PUSH1 0x1B SWAP1 DUP3 ADD MSTORE PUSH32 0x536166654D6174683A206164646974696F6E206F766572666C6F770000000000 PUSH1 0x40 DUP3 ADD MSTORE PUSH1 0x60 ADD SWAP1 JUMP JUMPDEST PUSH1 0x20 DUP1 DUP3 MSTORE PUSH1 0x27 SWAP1 DUP3 ADD MSTORE PUSH32 0x4E4F44453A204352454154494D45206D75737420626520686967686572207468 PUSH1 0x40 DUP3 ADD MSTORE PUSH7 0x616E207A65726F PUSH1 0xC8 SHL PUSH1 0x60 DUP3 ADD MSTORE PUSH1 0x80 ADD SWAP1 JUMP JUMPDEST PUSH1 0x20 DUP1 DUP3 MSTORE PUSH1 0x1F SWAP1 DUP3 ADD MSTORE PUSH32 0x435245415445204E4F44453A204E616D65206E6F7420617661696C61626C6500 PUSH1 0x40 DUP3 ADD MSTORE PUSH1 0x60 ADD SWAP1 JUMP JUMPDEST PUSH1 0x20 DUP1 DUP3 MSTORE PUSH1 0xD SWAP1 DUP3 ADD MSTORE PUSH13 0x1058D8D95CDCC811195B9A5959 PUSH1 0x9A SHL PUSH1 0x40 DUP3 ADD MSTORE PUSH1 0x60 ADD SWAP1 JUMP JUMPDEST PUSH1 0x20 DUP1 DUP3 MSTORE PUSH1 0x1F SWAP1 DUP3 ADD MSTORE PUSH32 0x4C41535420434C41494D452054494D453A204E4F204E4F4445204F574E455200 PUSH1 0x40 DUP3 ADD MSTORE PUSH1 0x60 ADD SWAP1 JUMP JUMPDEST PUSH1 0x20 DUP1 DUP3 MSTORE PUSH1 0x1E SWAP1 DUP3 ADD MSTORE PUSH32 0x44495354524920524557415244533A204E4F204E4F4445204F574E4552530000 PUSH1 0x40 DUP3 ADD MSTORE PUSH1 0x60 ADD SWAP1 JUMP JUMPDEST PUSH1 0x20 DUP1 DUP3 MSTORE PUSH1 0x19 SWAP1 DUP3 ADD MSTORE PUSH32 0x474554205245574152443A204E4F204E4F4445204F574E455200000000000000 PUSH1 0x40 DUP3 ADD MSTORE PUSH1 0x60 ADD SWAP1 JUMP JUMPDEST PUSH1 0x20 DUP1 DUP3 MSTORE PUSH1 0x1B SWAP1 DUP3 ADD MSTORE PUSH32 0x474554204352454154494D453A204E4F204E4F4445204F574E45520000000000 PUSH1 0x40 DUP3 ADD MSTORE PUSH1 0x60 ADD SWAP1 JUMP JUMPDEST PUSH1 0x20 DUP1 DUP3 MSTORE PUSH1 0x2E SWAP1 DUP3 ADD MSTORE PUSH32 0x4E4F4445205345415243483A204E6F204E4F444520466F756E64207769746820 PUSH1 0x40 DUP3 ADD MSTORE PUSH14 0x7468697320626C6F636B74696D65 PUSH1 0x90 SHL PUSH1 0x60 DUP3 ADD MSTORE PUSH1 0x80 ADD SWAP1 JUMP JUMPDEST PUSH1 0x20 DUP1 DUP3 MSTORE PUSH1 0x1C SWAP1 DUP3 ADD MSTORE PUSH32 0x47455420524557415244204F463A204E4F204E4F4445204F574E455200000000 PUSH1 0x40 DUP3 ADD MSTORE PUSH1 0x60 ADD SWAP1 JUMP JUMPDEST PUSH1 0x20 DUP1 DUP3 MSTORE PUSH1 0x18 SWAP1 DUP3 ADD MSTORE PUSH32 0x474554204E414D45533A204E4F204E4F4445204F574E45520000000000000000 PUSH1 0x40 DUP3 ADD MSTORE PUSH1 0x60 ADD SWAP1 JUMP JUMPDEST PUSH1 0x20 DUP1 DUP3 MSTORE PUSH1 0x2F SWAP1 DUP3 ADD MSTORE PUSH32 0x434153484F5554204552524F523A20596F7520646F6E27742068617665206E6F PUSH1 0x40 DUP3 ADD MSTORE PUSH15 0x19195CC81D1BC818D85CDA0B5BDD5D PUSH1 0x8A SHL PUSH1 0x60 DUP3 ADD MSTORE PUSH1 0x80 ADD SWAP1 JUMP JUMPDEST SWAP2 DUP3 MSTORE PUSH1 0x1 PUSH1 0x1 PUSH1 0xA0 SHL SUB AND PUSH1 0x20 DUP3 ADD MSTORE PUSH1 0x40 ADD SWAP1 JUMP JUMPDEST SWAP3 DUP4 MSTORE PUSH1 0x1 PUSH1 0x1 PUSH1 0xA0 SHL SUB SWAP2 SWAP1 SWAP2 AND PUSH1 0x20 DUP4 ADD MSTORE PUSH1 0x40 DUP3 ADD MSTORE PUSH1 0x60 ADD SWAP1 JUMP JUMPDEST SWAP1 DUP2 MSTORE PUSH1 0x20 ADD SWAP1 JUMP JUMPDEST SWAP3 DUP4 MSTORE PUSH1 0x20 DUP4 ADD SWAP2 SWAP1 SWAP2 MSTORE PUSH1 0x40 DUP3 ADD MSTORE PUSH1 0x60 ADD SWAP1 JUMP JUMPDEST PUSH1 0x0 DUP3 NOT DUP3 GT ISZERO PUSH2 0x2406 JUMPI PUSH2 0x2406 PUSH2 0x250C JUMP JUMPDEST POP ADD SWAP1 JUMP JUMPDEST PUSH1 0x0 PUSH1 0xFF DUP3 AND PUSH1 0xFF DUP5 AND DUP1 PUSH1 0xFF SUB DUP3 GT ISZERO PUSH2 0x2428 JUMPI PUSH2 0x2428 PUSH2 0x250C JUMP JUMPDEST ADD SWAP4 SWAP3 POP POP POP JUMP JUMPDEST PUSH1 0x0 DUP3 PUSH2 0x244B JUMPI PUSH4 0x4E487B71 PUSH1 0xE0 SHL DUP2 MSTORE PUSH1 0x12 PUSH1 0x4 MSTORE PUSH1 0x24 DUP2 REVERT JUMPDEST POP DIV SWAP1 JUMP JUMPDEST PUSH1 0x0 DUP2 PUSH1 0x0 NOT DIV DUP4 GT DUP3 ISZERO ISZERO AND ISZERO PUSH2 0x246A JUMPI PUSH2 0x246A PUSH2 0x250C JUMP JUMPDEST POP MUL SWAP1 JUMP JUMPDEST PUSH1 0x0 DUP3 DUP3 LT ISZERO PUSH2 0x2481 JUMPI PUSH2 0x2481 PUSH2 0x250C JUMP JUMPDEST POP SUB SWAP1 JUMP JUMPDEST PUSH1 0x0 JUMPDEST DUP4 DUP2 LT ISZERO PUSH2 0x24A1 JUMPI DUP2 DUP2 ADD MLOAD DUP4 DUP3 ADD MSTORE PUSH1 0x20 ADD PUSH2 0x2489 JUMP JUMPDEST DUP4 DUP2 GT ISZERO PUSH2 0x24B0 JUMPI PUSH1 0x0 DUP5 DUP5 ADD MSTORE JUMPDEST POP POP POP POP JUMP JUMPDEST PUSH1 0x2 DUP2 DIV PUSH1 0x1 DUP3 AND DUP1 PUSH2 0x24CA JUMPI PUSH1 0x7F DUP3 AND SWAP2 POP JUMPDEST PUSH1 0x20 DUP3 LT DUP2 EQ ISZERO PUSH2 0x24EB JUMPI PUSH4 0x4E487B71 PUSH1 0xE0 SHL PUSH1 0x0 MSTORE PUSH1 0x22 PUSH1 0x4 MSTORE PUSH1 0x24 PUSH1 0x0 REVERT JUMPDEST POP SWAP2 SWAP1 POP JUMP JUMPDEST PUSH1 0x0 PUSH1 0x0 NOT DUP3 EQ ISZERO PUSH2 0x2505 JUMPI PUSH2 0x2505 PUSH2 0x250C JUMP JUMPDEST POP PUSH1 0x1 ADD SWAP1 JUMP JUMPDEST PUSH4 0x4E487B71 PUSH1 0xE0 SHL PUSH1 0x0 MSTORE PUSH1 0x11 PUSH1 0x4 MSTORE PUSH1 0x24 PUSH1 0x0 REVERT JUMPDEST PUSH4 0x4E487B71 PUSH1 0xE0 SHL PUSH1 0x0 MSTORE PUSH1 0x41 PUSH1 0x4 MSTORE PUSH1 0x24 PUSH1 0x0 REVERT INVALID LOG2 PUSH5 0x6970667358 0x22 SLT KECCAK256 TIMESTAMP SWAP10 PUSH9 0xFC1A92FED473454C05 DUP13 CALLCODE DUP14 0xC1 PC 0x27 PUSH19 0x76F57B4E211D7E49BD6D9ECE7764736F6C6343 STOP ADDMOD STOP STOP CALLER "
        },
        "methodIdentifiers": {
          "_cashoutAllNodesReward(address)": "5c298b1c",
          "_cashoutNodeReward(address,uint256)": "6edb7002",
          "_changeAutoDistri(bool)": "dab0882a",
          "_changeClaimTime(uint256)": "d1871a89",
          "_changeGasDistri(uint256)": "ef9bb988",
          "_changeNodePrice(uint256)": "cece91eb",
          "_changeRewardPerNode(uint256)": "c6faedc8",
          "_distributeRewards()": "88fe6553",
          "_getClaimTime()": "6067bd8d",
          "_getGasForDistri()": "d34bf94c",
          "_getNodeNumberOf(address)": "4491a7e4",
          "_getNodePrice()": "ab6b4d51",
          "_getNodeRewardAmountOf(address,uint256)": "6590c691",
          "_getNodesCreationTime(address)": "c92819ce",
          "_getNodesLastClaimTime(address)": "5759fb02",
          "_getNodesNames(address)": "334de3a2",
          "_getNodesRewardAvailable(address)": "4a389fae",
          "_getRewardAmountOf(address)": "619a635e",
          "_getRewardPerNode()": "4cbab9c0",
          "_getTotalNodesCreated()": "13804c3b",
          "_getTotalRewardsStaked()": "b50cf88f",
          "_isNodeOwner(address)": "41ac82b0",
          "autoDistri()": "85c44d9d",
          "claimTime()": "27b3bf11",
          "createNode(address,string)": "12b8603f",
          "distribution()": "5ee58efc",
          "gasForDistribution()": "dec14726",
          "gateKeeper()": "45d61ded",
          "lastDistributionCount()": "fb10d6fb",
          "lastIndexProcessed()": "72476577",
          "nodePrice()": "f1fec2b8",
          "rewardPerNode()": "613ff46f",
          "setToken(address)": "144fa6d7",
          "token()": "fc0c546a",
          "totalNodesCreated()": "b8527aef",
          "totalRewardStaked()": "8a327eaa"
        }
      }
    }
  }
}