{
  "_format": "hh-sol-artifact-1",
  "contractName": "NodeManager",
  "sourceName": "contracts/NodeManager.sol",
  "abi": [
    {
      "inputs": [],
      "stateMutability": "nonpayable",
      "type": "constructor"
    },
    {
      "inputs": [
        {
          "internalType": "address",
          "name": "account",
          "type": "address"
        }
      ],
      "name": "_cashoutAllNodesReward",
      "outputs": [
        {
          "internalType": "uint256",
          "name": "",
          "type": "uint256"
        }
      ],
      "stateMutability": "nonpayable",
      "type": "function"
    },
    {
      "inputs": [
        {
          "internalType": "address",
          "name": "account",
          "type": "address"
        },
        {
          "internalType": "uint256",
          "name": "_creationTime",
          "type": "uint256"
        }
      ],
      "name": "_cashoutNodeReward",
      "outputs": [
        {
          "internalType": "uint256",
          "name": "",
          "type": "uint256"
        }
      ],
      "stateMutability": "nonpayable",
      "type": "function"
    },
    {
      "inputs": [
        {
          "internalType": "bool",
          "name": "newMode",
          "type": "bool"
        }
      ],
      "name": "_changeAutoDistri",
      "outputs": [],
      "stateMutability": "nonpayable",
      "type": "function"
    },
    {
      "inputs": [
        {
          "internalType": "uint256",
          "name": "newTime",
          "type": "uint256"
        }
      ],
      "name": "_changeClaimTime",
      "outputs": [],
      "stateMutability": "nonpayable",
      "type": "function"
    },
    {
      "inputs": [
        {
          "internalType": "uint256",
          "name": "newGasDistri",
          "type": "uint256"
        }
      ],
      "name": "_changeGasDistri",
      "outputs": [],
      "stateMutability": "nonpayable",
      "type": "function"
    },
    {
      "inputs": [
        {
          "internalType": "uint256",
          "name": "newNodePrice",
          "type": "uint256"
        }
      ],
      "name": "_changeNodePrice",
      "outputs": [],
      "stateMutability": "nonpayable",
      "type": "function"
    },
    {
      "inputs": [
        {
          "internalType": "uint256",
          "name": "newPrice",
          "type": "uint256"
        }
      ],
      "name": "_changeRewardPerNode",
      "outputs": [],
      "stateMutability": "nonpayable",
      "type": "function"
    },
    {
      "inputs": [],
      "name": "_distributeRewards",
      "outputs": [
        {
          "internalType": "uint256",
          "name": "",
          "type": "uint256"
        },
        {
          "internalType": "uint256",
          "name": "",
          "type": "uint256"
        },
        {
          "internalType": "uint256",
          "name": "",
          "type": "uint256"
        }
      ],
      "stateMutability": "nonpayable",
      "type": "function"
    },
    {
      "inputs": [],
      "name": "_getClaimTime",
      "outputs": [
        {
          "internalType": "uint256",
          "name": "currentClaimTime",
          "type": "uint256"
        }
      ],
      "stateMutability": "view",
      "type": "function"
    },
    {
      "inputs": [],
      "name": "_getGasForDistri",
      "outputs": [
        {
          "internalType": "uint256",
          "name": "currentGasForDistri",
          "type": "uint256"
        }
      ],
      "stateMutability": "view",
      "type": "function"
    },
    {
      "inputs": [
        {
          "internalType": "address",
          "name": "account",
          "type": "address"
        }
      ],
      "name": "_getNodeNumberOf",
      "outputs": [
        {
          "internalType": "uint256",
          "name": "",
          "type": "uint256"
        }
      ],
      "stateMutability": "view",
      "type": "function"
    },
    {
      "inputs": [],
      "name": "_getNodePrice",
      "outputs": [
        {
          "internalType": "uint256",
          "name": "currentNodePrice",
          "type": "uint256"
        }
      ],
      "stateMutability": "view",
      "type": "function"
    },
    {
      "inputs": [
        {
          "internalType": "address",
          "name": "account",
          "type": "address"
        },
        {
          "internalType": "uint256",
          "name": "creationTime",
          "type": "uint256"
        }
      ],
      "name": "_getNodeRewardAmountOf",
      "outputs": [
        {
          "internalType": "uint256",
          "name": "",
          "type": "uint256"
        }
      ],
      "stateMutability": "view",
      "type": "function"
    },
    {
      "inputs": [
        {
          "internalType": "address",
          "name": "account",
          "type": "address"
        }
      ],
      "name": "_getNodesCreationTime",
      "outputs": [
        {
          "internalType": "string",
          "name": "",
          "type": "string"
        }
      ],
      "stateMutability": "view",
      "type": "function"
    },
    {
      "inputs": [
        {
          "internalType": "address",
          "name": "account",
          "type": "address"
        }
      ],
      "name": "_getNodesLastClaimTime",
      "outputs": [
        {
          "internalType": "string",
          "name": "",
          "type": "string"
        }
      ],
      "stateMutability": "view",
      "type": "function"
    },
    {
      "inputs": [
        {
          "internalType": "address",
          "name": "account",
          "type": "address"
        }
      ],
      "name": "_getNodesNames",
      "outputs": [
        {
          "internalType": "string",
          "name": "",
          "type": "string"
        }
      ],
      "stateMutability": "view",
      "type": "function"
    },
    {
      "inputs": [
        {
          "internalType": "address",
          "name": "account",
          "type": "address"
        }
      ],
      "name": "_getNodesRewardAvailable",
      "outputs": [
        {
          "internalType": "string",
          "name": "",
          "type": "string"
        }
      ],
      "stateMutability": "view",
      "type": "function"
    },
    {
      "inputs": [
        {
          "internalType": "address",
          "name": "account",
          "type": "address"
        }
      ],
      "name": "_getRewardAmountOf",
      "outputs": [
        {
          "internalType": "uint256",
          "name": "",
          "type": "uint256"
        }
      ],
      "stateMutability": "view",
      "type": "function"
    },
    {
      "inputs": [],
      "name": "_getRewardPerNode",
      "outputs": [
        {
          "internalType": "uint256",
          "name": "currentRewardPerNode",
          "type": "uint256"
        }
      ],
      "stateMutability": "view",
      "type": "function"
    },
    {
      "inputs": [],
      "name": "_getTotalNodesCreated",
      "outputs": [
        {
          "internalType": "uint256",
          "name": "",
          "type": "uint256"
        }
      ],
      "stateMutability": "view",
      "type": "function"
    },
    {
      "inputs": [],
      "name": "_getTotalRewardsStaked",
      "outputs": [
        {
          "internalType": "uint256",
          "name": "currentTotalRewardsStaked",
          "type": "uint256"
        }
      ],
      "stateMutability": "view",
      "type": "function"
    },
    {
      "inputs": [
        {
          "internalType": "address",
          "name": "account",
          "type": "address"
        }
      ],
      "name": "_isNodeOwner",
      "outputs": [
        {
          "internalType": "bool",
          "name": "",
          "type": "bool"
        }
      ],
      "stateMutability": "view",
      "type": "function"
    },
    {
      "inputs": [],
      "name": "autoDistri",
      "outputs": [
        {
          "internalType": "bool",
          "name": "",
          "type": "bool"
        }
      ],
      "stateMutability": "view",
      "type": "function"
    },
    {
      "inputs": [],
      "name": "claimTime",
      "outputs": [
        {
          "internalType": "uint256",
          "name": "",
          "type": "uint256"
        }
      ],
      "stateMutability": "view",
      "type": "function"
    },
    {
      "inputs": [
        {
          "internalType": "address",
          "name": "account",
          "type": "address"
        },
        {
          "internalType": "string",
          "name": "nodeName",
          "type": "string"
        }
      ],
      "name": "createNode",
      "outputs": [],
      "stateMutability": "nonpayable",
      "type": "function"
    },
    {
      "inputs": [],
      "name": "distribution",
      "outputs": [
        {
          "internalType": "bool",
          "name": "",
          "type": "bool"
        }
      ],
      "stateMutability": "view",
      "type": "function"
    },
    {
      "inputs": [],
      "name": "gasForDistribution",
      "outputs": [
        {
          "internalType": "uint256",
          "name": "",
          "type": "uint256"
        }
      ],
      "stateMutability": "view",
      "type": "function"
    },
    {
      "inputs": [],
      "name": "gateKeeper",
      "outputs": [
        {
          "internalType": "address",
          "name": "",
          "type": "address"
        }
      ],
      "stateMutability": "view",
      "type": "function"
    },
    {
      "inputs": [],
      "name": "lastDistributionCount",
      "outputs": [
        {
          "internalType": "uint256",
          "name": "",
          "type": "uint256"
        }
      ],
      "stateMutability": "view",
      "type": "function"
    },
    {
      "inputs": [],
      "name": "lastIndexProcessed",
      "outputs": [
        {
          "internalType": "uint256",
          "name": "",
          "type": "uint256"
        }
      ],
      "stateMutability": "view",
      "type": "function"
    },
    {
      "inputs": [],
      "name": "nodePrice",
      "outputs": [
        {
          "internalType": "uint256",
          "name": "",
          "type": "uint256"
        }
      ],
      "stateMutability": "view",
      "type": "function"
    },
    {
      "inputs": [],
      "name": "rewardPerNode",
      "outputs": [
        {
          "internalType": "uint256",
          "name": "",
          "type": "uint256"
        }
      ],
      "stateMutability": "view",
      "type": "function"
    },
    {
      "inputs": [
        {
          "internalType": "address",
          "name": "token_",
          "type": "address"
        }
      ],
      "name": "setToken",
      "outputs": [],
      "stateMutability": "nonpayable",
      "type": "function"
    },
    {
      "inputs": [],
      "name": "token",
      "outputs": [
        {
          "internalType": "address",
          "name": "",
          "type": "address"
        }
      ],
      "stateMutability": "view",
      "type": "function"
    },
    {
      "inputs": [],
      "name": "totalNodesCreated",
      "outputs": [
        {
          "internalType": "uint256",
          "name": "",
          "type": "uint256"
        }
      ],
      "stateMutability": "view",
      "type": "function"
    },
    {
      "inputs": [],
      "name": "totalRewardStaked",
      "outputs": [
        {
          "internalType": "uint256",
          "name": "",
          "type": "uint256"
        }
      ],
      "stateMutability": "view",
      "type": "function"
    }
  ],
  "bytecode": "0x60806040526009805460ff60a81b1960ff60a01b19909116600160a01b17169055620493e0600a556000600b819055600c819055600d819055600e5534801561004757600080fd5b50600880546001600160a01b0319163317905561256e806100696000396000f3fe608060405234801561001057600080fd5b506004361061021c5760003560e01c80637247657711610125578063cece91eb116100ad578063dec147261161007c578063dec1472614610417578063ef9bb9881461041f578063f1fec2b814610432578063fb10d6fb1461043a578063fc0c546a146104425761021c565b8063cece91eb146103d6578063d1871a89146103e9578063d34bf94c146103fc578063dab0882a146104045761021c565b8063ab6b4d51116100f4578063ab6b4d5114610398578063b50cf88f146103a0578063b8527aef146103a8578063c6faedc8146103b0578063c92819ce146103c35761021c565b8063724765771461036957806385c44d9d1461037157806388fe6553146103795780638a327eaa146103905761021c565b80634cbab9c0116101a85780636067bd8d116101775780636067bd8d14610320578063613ff46f14610328578063619a635e146103305780636590c691146103435780636edb7002146103565761021c565b80634cbab9c0146102ea5780635759fb02146102f25780635c298b1c146103055780635ee58efc146103185761021c565b8063334de3a2116101ef578063334de3a21461026f57806341ac82b01461028f5780634491a7e4146102af57806345d61ded146102c25780634a389fae146102d75761021c565b806312b8603f1461022157806313804c3b14610236578063144fa6d71461025457806327b3bf1114610267575b600080fd5b61023461022f366004611f19565b61044a565b005b61023e610615565b60405161024b91906123d4565b60405180910390f35b610234610262366004611eff565b61061b565b61023e61067c565b61028261027d366004611eff565b610682565b60405161024b91906120a8565b6102a261029d366004611eff565b6108a8565b60405161024b919061209d565b61023e6102bd366004611eff565b6108b9565b6102ca610945565b60405161024b9190612089565b6102826102e5366004611eff565b610954565b61023e610b73565b610282610300366004611eff565b610b79565b61023e610313366004611eff565b610d98565b6102a2610e83565b61023e610e93565b61023e610e99565b61023e61033e366004611eff565b610e9f565b61023e610351366004611fcd565b610f47565b61023e610364366004611fcd565b610f74565b61023e61102d565b6102a2611033565b610381611043565b60405161024b939291906123dd565b61023e6110a2565b61023e6110a8565b61023e6110ae565b61023e6110b4565b6102346103be366004612016565b6110ba565b6102826103d1366004611eff565b6110fe565b6102346103e4366004612016565b61131d565b6102346103f7366004612016565b611361565b61023e6113a5565b610234610412366004611ff6565b6113ab565b61023e611408565b61023461042d366004612016565b61140e565b61023e611452565b61023e611458565b6102ca61145e565b6009546001600160a01b031633148061046d57506008546001600160a01b031633145b6104925760405162461bcd60e51b815260040161048990612190565b60405180910390fd5b61049c828261146d565b6104b85760405162461bcd60e51b815260040161048990612159565b6001600160a01b0382166000908152600460208181526040808420815160808101835286815242818501819052928101929092526006546060830152805460018101825590855293829020815180519295909402019261051c928492910190611e27565b50602082810151600183015560408084015160028401556060909301516003909201919091556001600160a01b0384166000908152600491829052828120549251632f0ad01760e21b815273__$21b48b873418f37dca126835c22e45242c$__9363bc2b405c936105919392889291016123b5565b60006040518083038186803b1580156105a957600080fd5b505af41580156105bd573d6000803e3d6000fd5b5050600d80549250905060006105d2836124f1565b9091555050600954600160a01b900460ff1680156105fa5750600954600160a81b900460ff16155b156106115761060d600a546006546115fd565b5050505b5050565b600d5490565b6009546001600160a01b031633148061063e57506008546001600160a01b031633145b61065a5760405162461bcd60e51b815260040161048990612190565b600980546001600160a01b0319166001600160a01b0392909216919091179055565b60075481565b606061068d826118a1565b6106a95760405162461bcd60e51b815260040161048990612318565b6001600160a01b038216600090815260046020908152604080832080548251818502810185019093528083529192909190849084015b828210156107c15783829060005260206000209060040201604051806080016040529081600082018054610712906124b6565b80601f016020809104026020016040519081016040528092919081815260200182805461073e906124b6565b801561078b5780601f106107605761010080835404028352916020019161078b565b820191906000526020600020905b81548152906001019060200180831161076e57829003601f168201915b505050505081526020016001820154815260200160028201548152602001600382015481525050815260200190600101906106df565b5050505090506000815190506107d5611eab565b6000836000815181106107f857634e487b7160e01b600052603260045260246000fd5b60200260200101516000015190506000604051806040016040528060018152602001602360f81b81525090506000600190505b8481101561089a5785818151811061085357634e487b7160e01b600052603260045260246000fd5b602002602001015193508282856000015160405160200161087693929190612046565b60405160208183030381529060405292508080610892906124f1565b91505061082b565b50909450505050505b919050565b60006108b3826118a1565b92915050565b60405163732a2ccf60e01b815260009073__$21b48b873418f37dca126835c22e45242c$__9063732a2ccf906108f5908490869060040161239e565b60206040518083038186803b15801561090d57600080fd5b505af4158015610921573d6000803e3d6000fd5b505050506040513d601f19601f820116820180604052508101906108b3919061202e565b6008546001600160a01b031681565b606061095f826118a1565b61097b5760405162461bcd60e51b815260040161048990612225565b6001600160a01b038216600090815260046020908152604080832080548251818502810185019093528083529192909190849084015b82821015610a9357838290600052602060002090600402016040518060800160405290816000820180546109e4906124b6565b80601f0160208091040260200160405190810160405280929190818152602001828054610a10906124b6565b8015610a5d5780601f10610a3257610100808354040283529160200191610a5d565b820191906000526020600020905b815481529060010190602001808311610a4057829003601f168201915b505050505081526020016001820154815260200160028201548152602001600382015481525050815260200190600101906109b1565b505050509050600081519050610aa7611eab565b6000610ade84600081518110610acd57634e487b7160e01b600052603260045260246000fd5b602002602001015160600151611936565b604080518082019091526001808252602360f81b6020830152919250905b8481101561089a57858181518110610b2457634e487b7160e01b600052603260045260246000fd5b602002602001015193508282610b3d8660600151611936565b604051602001610b4f93929190612046565b60405160208183030381529060405292508080610b6b906124f1565b915050610afc565b60065490565b6060610b84826118a1565b610ba05760405162461bcd60e51b8152600401610489906121b7565b6001600160a01b038216600090815260046020908152604080832080548251818502810185019093528083529192909190849084015b82821015610cb85783829060005260206000209060040201604051806080016040529081600082018054610c09906124b6565b80601f0160208091040260200160405190810160405280929190818152602001828054610c35906124b6565b8015610c825780601f10610c5757610100808354040283529160200191610c82565b820191906000526020600020905b815481529060010190602001808311610c6557829003601f168201915b50505050508152602001600182015481526020016002820154815260200160038201548152505081526020019060010190610bd6565b505050509050600081519050610ccc611eab565b6000610d0384600081518110610cf257634e487b7160e01b600052603260045260246000fd5b602002602001015160400151611936565b604080518082019091526001808252602360f81b6020830152919250905b8481101561089a57858181518110610d4957634e487b7160e01b600052603260045260246000fd5b602002602001015193508282610d628660400151611936565b604051602001610d7493929190612046565b60405160208183030381529060405292508080610d90906124f1565b915050610d21565b6009546000906001600160a01b0316331480610dbe57506008546001600160a01b031633145b610dda5760405162461bcd60e51b815260040161048990612190565b6001600160a01b0382166000908152600460205260409020805480610e115760405162461bcd60e51b815260040161048990612112565b600080805b83811015610e7957848181548110610e3e57634e487b7160e01b600052603260045260246000fd5b90600052602060002090600402019250826003015482610e5e91906123f3565b60006003850155915080610e71816124f1565b915050610e16565b5095945050505050565b600954600160a81b900460ff1681565b60075490565b60065481565b6000610eaa826118a1565b610ec65760405162461bcd60e51b8152600401610489906122e1565b6001600160a01b038216600090815260046020526040812080549190815b83811015610f3d57818181548110610f0c57634e487b7160e01b600052603260045260246000fd5b90600052602060002090600402016003015483610f2991906123f3565b925080610f35816124f1565b915050610ee4565b5090949350505050565b6001600160a01b0382166000908152600460205260408120610f699083611a7c565b600301549392505050565b6009546000906001600160a01b0316331480610f9a57506008546001600160a01b031633145b610fb65760405162461bcd60e51b815260040161048990612190565b60008211610fd65760405162461bcd60e51b815260040161048990612112565b6001600160a01b038316600090815260046020526040902080548061100d5760405162461bcd60e51b81526004016104899061234f565b60006110198386611a7c565b600301805460009091559695505050505050565b600c5481565b600954600160a01b900460ff1681565b600954600090819081906001600160a01b031633148061106d57506008546001600160a01b031633145b6110895760405162461bcd60e51b815260040161048990612190565b611097600a546006546115fd565b925092509250909192565b600e5481565b60055490565b600e5490565b600d5481565b6009546001600160a01b03163314806110dd57506008546001600160a01b031633145b6110f95760405162461bcd60e51b815260040161048990612190565b600655565b6060611109826118a1565b6111255760405162461bcd60e51b81526004016104899061225c565b6001600160a01b038216600090815260046020908152604080832080548251818502810185019093528083529192909190849084015b8282101561123d578382906000526020600020906004020160405180608001604052908160008201805461118e906124b6565b80601f01602080910402602001604051908101604052809291908181526020018280546111ba906124b6565b80156112075780601f106111dc57610100808354040283529160200191611207565b820191906000526020600020905b8154815290600101906020018083116111ea57829003601f168201915b5050505050815260200160018201548152602001600282015481526020016003820154815250508152602001906001019061115b565b505050509050600081519050611251611eab565b60006112888460008151811061127757634e487b7160e01b600052603260045260246000fd5b602002602001015160200151611936565b604080518082019091526001808252602360f81b6020830152919250905b8481101561089a578581815181106112ce57634e487b7160e01b600052603260045260246000fd5b6020026020010151935082826112e78660200151611936565b6040516020016112f993929190612046565b60405160208183030381529060405292508080611315906124f1565b9150506112a6565b6009546001600160a01b031633148061134057506008546001600160a01b031633145b61135c5760405162461bcd60e51b815260040161048990612190565b600555565b6009546001600160a01b031633148061138457506008546001600160a01b031633145b6113a05760405162461bcd60e51b815260040161048990612190565b600755565b600a5490565b6009546001600160a01b03163314806113ce57506008546001600160a01b031633145b6113ea5760405162461bcd60e51b815260040161048990612190565b60098054911515600160a01b0260ff60a01b19909216919091179055565b600a5481565b6009546001600160a01b031633148061143157506008546001600160a01b031633145b61144d5760405162461bcd60e51b815260040161048990612190565b600a55565b60055481565b600b5481565b6009546001600160a01b031681565b6001600160a01b038216600090815260046020908152604080832080548251818502810185019093528083528493849084015b8282101561158257838290600052602060002090600402016040518060800160405290816000820180546114d3906124b6565b80601f01602080910402602001604051908101604052809291908181526020018280546114ff906124b6565b801561154c5780601f106115215761010080835404028352916020019161154c565b820191906000526020600020905b81548152906001019060200180831161152f57829003601f168201915b505050505081526020016001820154815260200160028201548152602001600382015481525050815260200190600101906114a0565b50505050905060005b81518110156115f25783805190602001208282815181106115bc57634e487b7160e01b600052603260045260246000fd5b6020026020010151600001518051906020012014156115e0576000925050506108b3565b806115ea816124f1565b91505061158b565b506001949350505050565b6009805460ff60a81b1916600160a81b1790556000805481908190806116355760405162461bcd60e51b8152600401610489906121ee565b8061164b575050600c546000925082915061189a565b6000805a600c549091506000908142818080805b8f8a10801561166d57508a86105b15611876578661167c816124f1565b6000549098508810905061168f57600096505b600460008060000189815481106116b657634e487b7160e01b600052603260045260246000fd5b60009182526020808320909101546001600160a01b0316835282019290925260400181208054955092505b8481101561183e5782818154811061170957634e487b7160e01b600052603260045260246000fd5b906000526020600020906004020191506117dd82604051806080016040529081600082018054611738906124b6565b80601f0160208091040260200160405190810160405280929190818152602001828054611764906124b6565b80156117b15780601f10611786576101008083540402835291602001916117b1565b820191906000526020600020905b81548152906001019060200180831161179457829003601f168201915b505050505081526020016001820154815260200160028201548152602001600382015481525050611c1d565b1561182c578f8260030160008282546117f691906123f3565b925050819055508582600201819055508f600e600082825461181891906123f3565b90915550849050611828816124f1565b9450505b80611836816124f1565b9150506116e1565b5085611849816124f1565b9650505a97508789111561186e5761186b6118648a8a611c3a565b8b90611c83565b99505b87985061165f565b5050600c8590556009805460ff60a81b19169055929a509198509196505050505050505b9250925092565b60405163732a2ccf60e01b8152600090819073__$21b48b873418f37dca126835c22e45242c$__9063732a2ccf906118df908490879060040161239e565b60206040518083038186803b1580156118f757600080fd5b505af415801561190b573d6000803e3d6000fd5b505050506040513d601f19601f8201168201806040525081019061192f919061202e565b1192915050565b60608161195b57506040805180820190915260018152600360fc1b60208201526108a3565b8160005b8115611985578061196f816124f1565b915061197e9050600a83612430565b915061195f565b60008167ffffffffffffffff8111156119ae57634e487b7160e01b600052604160045260246000fd5b6040519080825280601f01601f1916602001820160405280156119d8576020820181803683370190505b509050815b8515611a73576119ee60018261246f565b905060006119fd600a88612430565b611a0890600a612450565b611a12908861246f565b611a1d90603061240b565b905060008160f81b905080848481518110611a4857634e487b7160e01b600052603260045260246000fd5b60200101906001600160f81b031916908160001a905350611a6a600a89612430565b975050506119dd565b50949350505050565b815460009080611a9e5760405162461bcd60e51b81526004016104899061234f565b600080611bb486805480602002602001604051908101604052809291908181526020016000905b82821015611ba75783829060005260206000209060040201604051806080016040529081600082018054611af8906124b6565b80601f0160208091040260200160405190810160405280929190818152602001828054611b24906124b6565b8015611b715780601f10611b4657610100808354040283529160200191611b71565b820191906000526020600020905b815481529060010190602001808311611b5457829003601f168201915b50505050508152602001600182015481526020016002820154815260200160038201548152505081526020019060010190611ac5565b5050505060008588611cb2565b90506000808212611bc6575060019150805b82611be35760405162461bcd60e51b815260040161048990612293565b868181548110611c0357634e487b7160e01b600052603260045260246000fd5b906000526020600020906004020194505050505092915050565b6000426007548360400151611c3291906123f3565b111592915050565b6000611c7c83836040518060400160405280601e81526020017f536166654d6174683a207375627472616374696f6e206f766572666c6f770000815250611d82565b9392505050565b600080611c9083856123f3565b905083811015611c7c5760405162461bcd60e51b8152600401610489906120db565b6000838310611d75576000611cd26002611ccc87876123f3565b90611dbc565b905082868281518110611cf557634e487b7160e01b600052603260045260246000fd5b6020026020010151602001511415611d0e579050611d7a565b82868281518110611d2f57634e487b7160e01b600052603260045260246000fd5b6020026020010151602001511115611d5f57611d578686611d5160018561246f565b86611cb2565b915050611d7a565b611d5786611d6e8360016123f3565b8686611cb2565b506000195b949350505050565b60008184841115611da65760405162461bcd60e51b815260040161048991906120a8565b506000611db3848661246f565b95945050505050565b6000611c7c83836040518060400160405280601a81526020017f536166654d6174683a206469766973696f6e206279207a65726f00000000000081525060008183611e1a5760405162461bcd60e51b815260040161048991906120a8565b506000611db38486612430565b828054611e33906124b6565b90600052602060002090601f016020900481019282611e555760008555611e9b565b82601f10611e6e57805160ff1916838001178555611e9b565b82800160010185558215611e9b579182015b82811115611e9b578251825591602001919060010190611e80565b50611ea7929150611ed3565b5090565b6040518060800160405280606081526020016000815260200160008152602001600081525090565b5b80821115611ea75760008155600101611ed4565b80356001600160a01b03811681146108a357600080fd5b600060208284031215611f10578081fd5b611c7c82611ee8565b60008060408385031215611f2b578081fd5b611f3483611ee8565b915060208084013567ffffffffffffffff80821115611f51578384fd5b818601915086601f830112611f64578384fd5b813581811115611f7657611f76612522565b604051601f8201601f1916810185018381118282101715611f9957611f99612522565b6040528181528382018501891015611faf578586fd5b81858501868301378585838301015280955050505050509250929050565b60008060408385031215611fdf578182fd5b611fe883611ee8565b946020939093013593505050565b600060208284031215612007578081fd5b81358015158114611c7c578182fd5b600060208284031215612027578081fd5b5035919050565b60006020828403121561203f578081fd5b5051919050565b60008451612058818460208901612486565b84519083019061206c818360208901612486565b845191019061207f818360208801612486565b0195945050505050565b6001600160a01b0391909116815260200190565b901515815260200190565b60006020825282518060208401526120c7816040850160208701612486565b601f01601f19169190910160400192915050565b6020808252601b908201527f536166654d6174683a206164646974696f6e206f766572666c6f770000000000604082015260600190565b60208082526027908201527f4e4f44453a204352454154494d45206d75737420626520686967686572207468604082015266616e207a65726f60c81b606082015260800190565b6020808252601f908201527f435245415445204e4f44453a204e616d65206e6f7420617661696c61626c6500604082015260600190565b6020808252600d908201526c1058d8d95cdcc811195b9a5959609a1b604082015260600190565b6020808252601f908201527f4c41535420434c41494d452054494d453a204e4f204e4f4445204f574e455200604082015260600190565b6020808252601e908201527f44495354524920524557415244533a204e4f204e4f4445204f574e4552530000604082015260600190565b60208082526019908201527f474554205245574152443a204e4f204e4f4445204f574e455200000000000000604082015260600190565b6020808252601b908201527f474554204352454154494d453a204e4f204e4f4445204f574e45520000000000604082015260600190565b6020808252602e908201527f4e4f4445205345415243483a204e6f204e4f444520466f756e6420776974682060408201526d7468697320626c6f636b74696d6560901b606082015260800190565b6020808252601c908201527f47455420524557415244204f463a204e4f204e4f4445204f574e455200000000604082015260600190565b60208082526018908201527f474554204e414d45533a204e4f204e4f4445204f574e45520000000000000000604082015260600190565b6020808252602f908201527f434153484f5554204552524f523a20596f7520646f6e27742068617665206e6f60408201526e19195cc81d1bc818d85cda0b5bdd5d608a1b606082015260800190565b9182526001600160a01b0316602082015260400190565b9283526001600160a01b03919091166020830152604082015260600190565b90815260200190565b9283526020830191909152604082015260600190565b600082198211156124065761240661250c565b500190565b600060ff821660ff84168060ff038211156124285761242861250c565b019392505050565b60008261244b57634e487b7160e01b81526012600452602481fd5b500490565b600081600019048311821515161561246a5761246a61250c565b500290565b6000828210156124815761248161250c565b500390565b60005b838110156124a1578181015183820152602001612489565b838111156124b0576000848401525b50505050565b6002810460018216806124ca57607f821691505b602082108114156124eb57634e487b7160e01b600052602260045260246000fd5b50919050565b60006000198214156125055761250561250c565b5060010190565b634e487b7160e01b600052601160045260246000fd5b634e487b7160e01b600052604160045260246000fdfea2646970667358221220429968fc1a92fed473454c058cf28dc158277276f57b4e211d7e49bd6d9ece7764736f6c63430008000033",
  "linkReferences": {
    "contracts/NodeManager.sol": {
      "IterableMapping": [
        {
          "length": 20,
          "start": 1490
        },
        {
          "length": 20,
          "start": 2356
        },
        {
          "length": 20,
          "start": 6430
        }
      ]
    }
  },
  "deployedLinkReferences": {
    "contracts/NodeManager.sol": {
      "IterableMapping": [
        {
          "length": 20,
          "start": 1385
        },
        {
          "length": 20,
          "start": 2251
        },
        {
          "length": 20,
          "start": 6325
        }
      ]
    }
  }
}