{
  "_format": "hh-sol-artifact-1",
  "contractName": "Pool",
  "sourceName": "contracts/Pool.sol",
  "abi": [
    {
      "inputs": [
        {
          "internalType": "address",
          "name": "_PeachToken",
          "type": "address"
        }
      ],
      "stateMutability": "nonpayable",
      "type": "constructor"
    },
    {
      "anonymous": false,
      "inputs": [
        {
          "indexed": true,
          "internalType": "address",
          "name": "previousOwner",
          "type": "address"
        },
        {
          "indexed": true,
          "internalType": "address",
          "name": "newOwner",
          "type": "address"
        }
      ],
      "name": "OwnershipTransferred",
      "type": "event"
    },
    {
      "inputs": [],
      "name": "PeachToken",
      "outputs": [
        {
          "internalType": "contract IERC20",
          "name": "",
          "type": "address"
        }
      ],
      "stateMutability": "view",
      "type": "function"
    },
    {
      "inputs": [],
      "name": "owner",
      "outputs": [
        {
          "internalType": "address",
          "name": "",
          "type": "address"
        }
      ],
      "stateMutability": "view",
      "type": "function"
    },
    {
      "inputs": [
        {
          "internalType": "address",
          "name": "_to",
          "type": "address"
        },
        {
          "internalType": "uint256",
          "name": "_amount",
          "type": "uint256"
        }
      ],
      "name": "pay",
      "outputs": [
        {
          "internalType": "bool",
          "name": "",
          "type": "bool"
        }
      ],
      "stateMutability": "nonpayable",
      "type": "function"
    },
    {
      "inputs": [],
      "name": "renounceOwnership",
      "outputs": [],
      "stateMutability": "nonpayable",
      "type": "function"
    },
    {
      "inputs": [
        {
          "internalType": "address",
          "name": "newOwner",
          "type": "address"
        }
      ],
      "name": "transferOwnership",
      "outputs": [],
      "stateMutability": "nonpayable",
      "type": "function"
    }
  ],
  "bytecode": "0x608060405234801561001057600080fd5b5060405161051f38038061051f83398101604081905261002f916100b8565b61003f61003a610064565b610068565b600180546001600160a01b0319166001600160a01b03929092169190911790556100e6565b3390565b600080546001600160a01b038381166001600160a01b0319831681178455604051919092169283917f8be0079c531659141344cd1fd0a4f28419497f9722a3daafe3b4186f6b6457e09190a35050565b6000602082840312156100c9578081fd5b81516001600160a01b03811681146100df578182fd5b9392505050565b61042a806100f56000396000f3fe608060405234801561001057600080fd5b50600436106100575760003560e01c80630e4bbf1c1461005c578063715018a61461007a5780638da5cb5b14610084578063c40768761461008c578063f2fde38b146100ac575b600080fd5b6100646100bf565b6040516100719190610341565b60405180910390f35b6100826100ce565b005b610064610122565b61009f61009a3660046102f8565b610131565b604051610071919061036e565b6100826100ba3660046102de565b6101fd565b6001546001600160a01b031681565b6100d661026e565b6001600160a01b03166100e7610122565b6001600160a01b0316146101165760405162461bcd60e51b815260040161010d906103bf565b60405180910390fd5b6101206000610272565b565b6000546001600160a01b031690565b600061013b61026e565b6001600160a01b031661014c610122565b6001600160a01b0316146101725760405162461bcd60e51b815260040161010d906103bf565b60015460405163a9059cbb60e01b81526001600160a01b039091169063a9059cbb906101a49086908690600401610355565b602060405180830381600087803b1580156101be57600080fd5b505af11580156101d2573d6000803e3d6000fd5b505050506040513d601f19601f820116820180604052508101906101f69190610321565b9392505050565b61020561026e565b6001600160a01b0316610216610122565b6001600160a01b03161461023c5760405162461bcd60e51b815260040161010d906103bf565b6001600160a01b0381166102625760405162461bcd60e51b815260040161010d90610379565b61026b81610272565b50565b3390565b600080546001600160a01b038381166001600160a01b0319831681178455604051919092169283917f8be0079c531659141344cd1fd0a4f28419497f9722a3daafe3b4186f6b6457e09190a35050565b80356001600160a01b03811681146102d957600080fd5b919050565b6000602082840312156102ef578081fd5b6101f6826102c2565b6000806040838503121561030a578081fd5b610313836102c2565b946020939093013593505050565b600060208284031215610332578081fd5b815180151581146101f6578182fd5b6001600160a01b0391909116815260200190565b6001600160a01b03929092168252602082015260400190565b901515815260200190565b60208082526026908201527f4f776e61626c653a206e6577206f776e657220697320746865207a65726f206160408201526564647265737360d01b606082015260800190565b6020808252818101527f4f776e61626c653a2063616c6c6572206973206e6f7420746865206f776e657260408201526060019056fea2646970667358221220cad299b5d4d96080eb507d9258d6312ef55f68a4d66d69bd855f17bcaf33341464736f6c63430008000033",
  "linkReferences": {},
  "deployedLinkReferences": {}
}