{
  "_format": "hh-sol-artifact-1",
  "contractName": "PeachNode",
  "sourceName": "contracts/PeachToken.sol",
  "abi": [
    {
      "inputs": [
        {
          "internalType": "address payable",
          "name": "_liquidityPool",
          "type": "address"
        },
        {
          "internalType": "address payable",
          "name": "_rewardsPool",
          "type": "address"
        },
        {
          "internalType": "address payable",
          "name": "_treasuryPool",
          "type": "address"
        },
        {
          "internalType": "address payable",
          "name": "_marketingPool",
          "type": "address"
        }
      ],
      "stateMutability": "nonpayable",
      "type": "constructor"
    },
    {
      "anonymous": false,
      "inputs": [
        {
          "indexed": true,
          "internalType": "address",
          "name": "owner",
          "type": "address"
        },
        {
          "indexed": true,
          "internalType": "address",
          "name": "spender",
          "type": "address"
        },
        {
          "indexed": false,
          "internalType": "uint256",
          "name": "value",
          "type": "uint256"
        }
      ],
      "name": "Approval",
      "type": "event"
    },
    {
      "anonymous": false,
      "inputs": [
        {
          "indexed": false,
          "internalType": "address",
          "name": "account",
          "type": "address"
        }
      ],
      "name": "ExcludeAccountFromFee",
      "type": "event"
    },
    {
      "anonymous": false,
      "inputs": [
        {
          "indexed": false,
          "internalType": "address",
          "name": "account",
          "type": "address"
        }
      ],
      "name": "IncludeAccountInFee",
      "type": "event"
    },
    {
      "anonymous": false,
      "inputs": [
        {
          "indexed": true,
          "internalType": "address",
          "name": "previousOwner",
          "type": "address"
        },
        {
          "indexed": true,
          "internalType": "address",
          "name": "newOwner",
          "type": "address"
        }
      ],
      "name": "OwnershipTransferred",
      "type": "event"
    },
    {
      "anonymous": false,
      "inputs": [
        {
          "indexed": true,
          "internalType": "address",
          "name": "from",
          "type": "address"
        },
        {
          "indexed": true,
          "internalType": "address",
          "name": "to",
          "type": "address"
        },
        {
          "indexed": false,
          "internalType": "uint256",
          "name": "value",
          "type": "uint256"
        }
      ],
      "name": "Transfer",
      "type": "event"
    },
    {
      "inputs": [
        {
          "internalType": "address",
          "name": "",
          "type": "address"
        }
      ],
      "name": "_isBlacklisted",
      "outputs": [
        {
          "internalType": "bool",
          "name": "",
          "type": "bool"
        }
      ],
      "stateMutability": "view",
      "type": "function"
    },
    {
      "inputs": [
        {
          "internalType": "address",
          "name": "owner",
          "type": "address"
        },
        {
          "internalType": "address",
          "name": "spender",
          "type": "address"
        }
      ],
      "name": "allowance",
      "outputs": [
        {
          "internalType": "uint256",
          "name": "",
          "type": "uint256"
        }
      ],
      "stateMutability": "view",
      "type": "function"
    },
    {
      "inputs": [
        {
          "internalType": "address",
          "name": "spender",
          "type": "address"
        },
        {
          "internalType": "uint256",
          "name": "amount",
          "type": "uint256"
        }
      ],
      "name": "approve",
      "outputs": [
        {
          "internalType": "bool",
          "name": "",
          "type": "bool"
        }
      ],
      "stateMutability": "nonpayable",
      "type": "function"
    },
    {
      "inputs": [
        {
          "internalType": "address",
          "name": "account",
          "type": "address"
        }
      ],
      "name": "balanceOf",
      "outputs": [
        {
          "internalType": "uint256",
          "name": "",
          "type": "uint256"
        }
      ],
      "stateMutability": "view",
      "type": "function"
    },
    {
      "inputs": [
        {
          "internalType": "address",
          "name": "account",
          "type": "address"
        },
        {
          "internalType": "bool",
          "name": "value",
          "type": "bool"
        }
      ],
      "name": "blacklistMalicious",
      "outputs": [],
      "stateMutability": "nonpayable",
      "type": "function"
    },
    {
      "inputs": [],
      "name": "decimals",
      "outputs": [
        {
          "internalType": "uint8",
          "name": "",
          "type": "uint8"
        }
      ],
      "stateMutability": "view",
      "type": "function"
    },
    {
      "inputs": [
        {
          "internalType": "address",
          "name": "spender",
          "type": "address"
        },
        {
          "internalType": "uint256",
          "name": "subtractedValue",
          "type": "uint256"
        }
      ],
      "name": "decreaseAllowance",
      "outputs": [
        {
          "internalType": "bool",
          "name": "",
          "type": "bool"
        }
      ],
      "stateMutability": "nonpayable",
      "type": "function"
    },
    {
      "inputs": [
        {
          "internalType": "address",
          "name": "account",
          "type": "address"
        }
      ],
      "name": "excludeAccountFromFee",
      "outputs": [],
      "stateMutability": "nonpayable",
      "type": "function"
    },
    {
      "inputs": [
        {
          "internalType": "address",
          "name": "account",
          "type": "address"
        }
      ],
      "name": "includeAccountInFee",
      "outputs": [],
      "stateMutability": "nonpayable",
      "type": "function"
    },
    {
      "inputs": [
        {
          "internalType": "address",
          "name": "spender",
          "type": "address"
        },
        {
          "internalType": "uint256",
          "name": "addedValue",
          "type": "uint256"
        }
      ],
      "name": "increaseAllowance",
      "outputs": [
        {
          "internalType": "bool",
          "name": "",
          "type": "bool"
        }
      ],
      "stateMutability": "nonpayable",
      "type": "function"
    },
    {
      "inputs": [
        {
          "internalType": "address",
          "name": "account",
          "type": "address"
        }
      ],
      "name": "isExcludedFromFee",
      "outputs": [
        {
          "internalType": "bool",
          "name": "",
          "type": "bool"
        }
      ],
      "stateMutability": "view",
      "type": "function"
    },
    {
      "inputs": [],
      "name": "liquidityPoolFee",
      "outputs": [
        {
          "internalType": "uint8",
          "name": "",
          "type": "uint8"
        }
      ],
      "stateMutability": "view",
      "type": "function"
    },
    {
      "inputs": [],
      "name": "name",
      "outputs": [
        {
          "internalType": "string",
          "name": "",
          "type": "string"
        }
      ],
      "stateMutability": "view",
      "type": "function"
    },
    {
      "inputs": [],
      "name": "owner",
      "outputs": [
        {
          "internalType": "address",
          "name": "",
          "type": "address"
        }
      ],
      "stateMutability": "view",
      "type": "function"
    },
    {
      "inputs": [],
      "name": "renounceOwnership",
      "outputs": [],
      "stateMutability": "nonpayable",
      "type": "function"
    },
    {
      "inputs": [],
      "name": "rewardsFee",
      "outputs": [
        {
          "internalType": "uint8",
          "name": "",
          "type": "uint8"
        }
      ],
      "stateMutability": "view",
      "type": "function"
    },
    {
      "inputs": [],
      "name": "symbol",
      "outputs": [
        {
          "internalType": "string",
          "name": "",
          "type": "string"
        }
      ],
      "stateMutability": "view",
      "type": "function"
    },
    {
      "inputs": [],
      "name": "teamFee",
      "outputs": [
        {
          "internalType": "uint8",
          "name": "",
          "type": "uint8"
        }
      ],
      "stateMutability": "view",
      "type": "function"
    },
    {
      "inputs": [],
      "name": "totalSupply",
      "outputs": [
        {
          "internalType": "uint256",
          "name": "",
          "type": "uint256"
        }
      ],
      "stateMutability": "view",
      "type": "function"
    },
    {
      "inputs": [
        {
          "internalType": "address",
          "name": "recipient",
          "type": "address"
        },
        {
          "internalType": "uint256",
          "name": "amount",
          "type": "uint256"
        }
      ],
      "name": "transfer",
      "outputs": [
        {
          "internalType": "bool",
          "name": "",
          "type": "bool"
        }
      ],
      "stateMutability": "nonpayable",
      "type": "function"
    },
    {
      "inputs": [
        {
          "internalType": "address",
          "name": "sender",
          "type": "address"
        },
        {
          "internalType": "address",
          "name": "recipient",
          "type": "address"
        },
        {
          "internalType": "uint256",
          "name": "amount",
          "type": "uint256"
        }
      ],
      "name": "transferFrom",
      "outputs": [
        {
          "internalType": "bool",
          "name": "",
          "type": "bool"
        }
      ],
      "stateMutability": "nonpayable",
      "type": "function"
    },
    {
      "inputs": [
        {
          "internalType": "address",
          "name": "newOwner",
          "type": "address"
        }
      ],
      "name": "transferOwnership",
      "outputs": [],
      "stateMutability": "nonpayable",
      "type": "function"
    },
    {
      "inputs": [],
      "name": "treasuryFee",
      "outputs": [
        {
          "internalType": "uint8",
          "name": "",
          "type": "uint8"
        }
      ],
      "stateMutability": "view",
      "type": "function"
    },
    {
      "inputs": [
        {
          "internalType": "uint8",
          "name": "value",
          "type": "uint8"
        }
      ],
      "name": "updateLiquidityFee",
      "outputs": [],
      "stateMutability": "nonpayable",
      "type": "function"
    },
    {
      "inputs": [
        {
          "internalType": "address payable",
          "name": "pool",
          "type": "address"
        }
      ],
      "name": "updateLiquidityPool",
      "outputs": [],
      "stateMutability": "nonpayable",
      "type": "function"
    },
    {
      "inputs": [
        {
          "internalType": "uint8",
          "name": "value",
          "type": "uint8"
        }
      ],
      "name": "updateMarketingFee",
      "outputs": [],
      "stateMutability": "nonpayable",
      "type": "function"
    },
    {
      "inputs": [
        {
          "internalType": "address payable",
          "name": "pool",
          "type": "address"
        }
      ],
      "name": "updateMarketingPool",
      "outputs": [],
      "stateMutability": "nonpayable",
      "type": "function"
    },
    {
      "inputs": [
        {
          "internalType": "uint8",
          "name": "value",
          "type": "uint8"
        }
      ],
      "name": "updateRewardsFee",
      "outputs": [],
      "stateMutability": "nonpayable",
      "type": "function"
    },
    {
      "inputs": [
        {
          "internalType": "address payable",
          "name": "pool",
          "type": "address"
        }
      ],
      "name": "updateRewardsPool",
      "outputs": [],
      "stateMutability": "nonpayable",
      "type": "function"
    },
    {
      "inputs": [
        {
          "internalType": "uint8",
          "name": "value",
          "type": "uint8"
        }
      ],
      "name": "updateTreasuryFee",
      "outputs": [],
      "stateMutability": "nonpayable",
      "type": "function"
    },
    {
      "inputs": [
        {
          "internalType": "address payable",
          "name": "pool",
          "type": "address"
        }
      ],
      "name": "updateTreasuryPool",
      "outputs": [],
      "stateMutability": "nonpayable",
      "type": "function"
    },
    {
      "stateMutability": "payable",
      "type": "receive"
    }
  ],
  "bytecode": "0x6080604052621e84806007556008805460ff1916601217908190556200002a9060ff16600a62000651565b60075462000039919062000749565b600955600e805460ff60a01b1916600160a21b1760ff60a81b1916600360aa1b1760ff60b01b1916600f60b11b1760ff60b81b1916600160ba1b1790553480156200008357600080fd5b506040516200207a3803806200207a833981016040819052620000a691620004c1565b604080518082018252600a8152695045414348204e4f444560b01b6020808301918252835180850190945260058452640a08a8286960db1b908401528151919291620000f591600391620003fe565b5080516200010b906004906020840190620003fe565b5050506200012862000122620002c860201b60201c565b620002cc565b6001600655600954600a819055600f600062000143620002c8565b6001600160a01b0316815260208101919091526040016000205562000168336200030d565b62000173306200030d565b600b80546001600160a01b03199081166001600160a01b038781169190911792839055600c80548316878316179055600d80548316868316179055600e8054909216848216179091551615801590620001d65750600c546001600160a01b031615155b8015620001ed5750600d546001600160a01b031615155b8015620002045750600e546001600160a01b031615155b6200022c5760405162461bcd60e51b815260040162000223906200059d565b60405180910390fd5b62000236620002c8565b6001600160a01b031660006001600160a01b03167fddf252ad1be2c89b69c2b068fc378daa952ba7f163c4a11628f55a4df523b3ef6009546040516200027d9190620005fb565b60405180910390a36200028f620002c8565b6001600160a01b031660006001600160a01b03166000805160206200205a83398151915260405160405180910390a350505050620007be565b3390565b600580546001600160a01b038381166001600160a01b0319831681179093556040519116919082906000805160206200205a83398151915290600090a35050565b62000317620002c8565b6001600160a01b03166200032a620003ef565b6001600160a01b031614620003535760405162461bcd60e51b8152600401620002239062000568565b6001600160a01b03811660009081526011602052604090205460ff16156200038f5760405162461bcd60e51b8152600401620002239062000531565b6001600160a01b03811660009081526011602052604090819020805460ff19166001179055517f7e35d6b74d35c333860340884eeca4e63b18cb9d73ce17a147a1952654365b5e90620003e49083906200051d565b60405180910390a150565b6005546001600160a01b031690565b8280546200040c906200076b565b90600052602060002090601f0160209004810192826200043057600085556200047b565b82601f106200044b57805160ff19168380011785556200047b565b828001600101855582156200047b579182015b828111156200047b5782518255916020019190600101906200045e565b50620004899291506200048d565b5090565b5b808211156200048957600081556001016200048e565b80516001600160a01b0381168114620004bc57600080fd5b919050565b60008060008060808587031215620004d7578384fd5b620004e285620004a4565b9350620004f260208601620004a4565b92506200050260408601620004a4565b91506200051260608601620004a4565b905092959194509250565b6001600160a01b0391909116815260200190565b6020808252601c908201527f4163636f756e7420697320616c7265616479206578636c756465642e00000000604082015260600190565b6020808252818101527f4f776e61626c653a2063616c6c6572206973206e6f7420746865206f776e6572604082015260600190565b602080825260409082018190527f4c49515549444954592f524557415244532f54524541535552592f4d41524b45908201527f54494e4720504f4f4c20414444524553532043414e4e4f54204245205a45524f606082015260800190565b90815260200190565b80825b600180861162000618575062000648565b8187048211156200062d576200062d620007a8565b808616156200063b57918102915b9490941c93800262000607565b94509492505050565b60006200066560001960ff8516846200066c565b9392505050565b6000826200067d5750600162000665565b816200068c5750600062000665565b8160018114620006a55760028114620006b057620006e4565b600191505062000665565b60ff841115620006c457620006c4620007a8565b6001841b915084821115620006dd57620006dd620007a8565b5062000665565b5060208310610133831016604e8410600b84101617156200071c575081810a83811115620007165762000716620007a8565b62000665565b6200072b848484600162000604565b808604821115620007405762000740620007a8565b02949350505050565b6000816000190483118215151615620007665762000766620007a8565b500290565b6002810460018216806200078057607f821691505b60208210811415620007a257634e487b7160e01b600052602260045260246000fd5b50919050565b634e487b7160e01b600052601160045260246000fd5b61188c80620007ce6000396000f3fe6080604052600436106101dc5760003560e01c80638da5cb5b11610102578063d46d9ba111610095578063daa9334111610064578063daa9334114610526578063dd3cdf6c14610546578063dd62ed3e14610566578063f2fde38b14610586576101e3565b8063d46d9ba1146104b1578063d6b4212b146104d1578063d7c94efd146104f1578063d892934214610506576101e3565b8063addacb9e116100d1578063addacb9e1461043c578063b12bf3bf1461045c578063b14a1e8e1461047c578063cc32d1761461049c576101e3565b80638da5cb5b146103c557806395d89b41146103e7578063a457c2d7146103fc578063a9059cbb1461041c576101e3565b80632deef2841161017a57806354f12f1f1161014957806354f12f1f1461035b5780636653a3401461037057806370a0823114610390578063715018a6146103b0576101e3565b80632deef284146102e6578063313ce56714610306578063395093511461031b5780635342acb41461033b576101e3565b806318160ddd116101b657806318160ddd146102625780631cdd3be31461028457806323b872dd146102a45780632bb14e1d146102c4576101e3565b806306fdde03146101e8578063095ea7b3146102135780631519f1f014610240576101e3565b366101e357005b600080fd5b3480156101f457600080fd5b506101fd6105a6565b60405161020a9190611398565b60405180910390f35b34801561021f57600080fd5b5061023361022e36600461132d565b610638565b60405161020a919061138d565b34801561024c57600080fd5b5061026061025b366004611358565b610655565b005b34801561026e57600080fd5b506102776106bd565b60405161020a9190611654565b34801561029057600080fd5b5061023361029f366004611268565b6106c3565b3480156102b057600080fd5b506102336102bf3660046112bc565b6106d8565b3480156102d057600080fd5b506102d96106f0565b60405161020a919061165d565b3480156102f257600080fd5b50610260610301366004611358565b610700565b34801561031257600080fd5b506102d961075f565b34801561032757600080fd5b5061023361033636600461132d565b610764565b34801561034757600080fd5b50610233610356366004611268565b6107b0565b34801561036757600080fd5b506102d96107ce565b34801561037c57600080fd5b5061026061038b366004611268565b6107de565b34801561039c57600080fd5b506102776103ab366004611268565b61083f565b3480156103bc57600080fd5b5061026061085a565b3480156103d157600080fd5b506103da6108a5565b60405161020a9190611379565b3480156103f357600080fd5b506101fd6108b4565b34801561040857600080fd5b5061023361041736600461132d565b6108c3565b34801561042857600080fd5b5061023361043736600461132d565b61092f565b34801561044857600080fd5b50610260610457366004611358565b610943565b34801561046857600080fd5b50610260610477366004611268565b6109a2565b34801561048857600080fd5b50610260610497366004611268565b610a03565b3480156104a857600080fd5b506102d9610a64565b3480156104bd57600080fd5b506102606104cc366004611358565b610a74565b3480156104dd57600080fd5b506102606104ec366004611268565b610ad3565b3480156104fd57600080fd5b506102d9610ba9565b34801561051257600080fd5b506102606105213660046112fc565b610bb9565b34801561053257600080fd5b50610260610541366004611268565b610c23565b34801561055257600080fd5b50610260610561366004611268565b610cea565b34801561057257600080fd5b50610277610581366004611284565b610d4b565b34801561059257600080fd5b506102606105a1366004611268565b610d76565b6060600380546105b5906117f0565b80601f01602080910402602001604051908101604052809291908181526020018280546105e1906117f0565b801561062e5780601f106106035761010080835404028352916020019161062e565b820191906000526020600020905b81548152906001019060200180831161061157829003601f168201915b5050505050905090565b600061064c610645610de7565b8484610deb565b50600192915050565b61065d610de7565b6001600160a01b031661066e6108a5565b6001600160a01b03161461069d5760405162461bcd60e51b815260040161069490611551565b60405180910390fd5b600e805460ff909216600160a01b0260ff60a01b19909216919091179055565b60095490565b60106020526000908152604090205460ff1681565b60006106e5848484610e9f565b5060015b9392505050565b600e54600160a81b900460ff1681565b610708610de7565b6001600160a01b03166107196108a5565b6001600160a01b03161461073f5760405162461bcd60e51b815260040161069490611551565b600e805460ff909216600160b01b0260ff60b01b19909216919091179055565b601290565b60008061076f610de7565b6001600160a01b038082166000908152600160209081526040808320938916835292905220549091506106e590829086906107ab90879061166b565b610deb565b6001600160a01b031660009081526011602052604090205460ff1690565b600e54600160a01b900460ff1681565b6107e6610de7565b6001600160a01b03166107f76108a5565b6001600160a01b03161461081d5760405162461bcd60e51b815260040161069490611551565b600c80546001600160a01b0319166001600160a01b0392909216919091179055565b6001600160a01b03166000908152600f602052604090205490565b610862610de7565b6001600160a01b03166108736108a5565b6001600160a01b0316146108995760405162461bcd60e51b815260040161069490611551565b6108a360006110b9565b565b6005546001600160a01b031690565b6060600480546105b5906117f0565b6000806108ce610de7565b6001600160a01b03808216600090815260016020908152604080832093891683529290522054909150838110156109175760405162461bcd60e51b81526004016106949061160f565b6109248286868403610deb565b506001949350505050565b600061064c61093c610de7565b8484610e9f565b61094b610de7565b6001600160a01b031661095c6108a5565b6001600160a01b0316146109825760405162461bcd60e51b815260040161069490611551565b600e805460ff909216600160a81b0260ff60a81b19909216919091179055565b6109aa610de7565b6001600160a01b03166109bb6108a5565b6001600160a01b0316146109e15760405162461bcd60e51b815260040161069490611551565b600e80546001600160a01b0319166001600160a01b0392909216919091179055565b610a0b610de7565b6001600160a01b0316610a1c6108a5565b6001600160a01b031614610a425760405162461bcd60e51b815260040161069490611551565b600d80546001600160a01b0319166001600160a01b0392909216919091179055565b600e54600160b01b900460ff1681565b610a7c610de7565b6001600160a01b0316610a8d6108a5565b6001600160a01b031614610ab35760405162461bcd60e51b815260040161069490611551565b600e805460ff909216600160b81b0260ff60b81b19909216919091179055565b610adb610de7565b6001600160a01b0316610aec6108a5565b6001600160a01b031614610b125760405162461bcd60e51b815260040161069490611551565b6001600160a01b03811660009081526011602052604090205460ff1615610b4b5760405162461bcd60e51b8152600401610694906114ed565b6001600160a01b03811660009081526011602052604090819020805460ff19166001179055517f7e35d6b74d35c333860340884eeca4e63b18cb9d73ce17a147a1952654365b5e90610b9e908390611379565b60405180910390a150565b600e54600160b81b900460ff1681565b610bc1610de7565b6001600160a01b0316610bd26108a5565b6001600160a01b031614610bf85760405162461bcd60e51b815260040161069490611551565b6001600160a01b03919091166000908152601060205260409020805460ff1916911515919091179055565b610c2b610de7565b6001600160a01b0316610c3c6108a5565b6001600160a01b031614610c625760405162461bcd60e51b815260040161069490611551565b6001600160a01b03811660009081526011602052604090205460ff16610c9a5760405162461bcd60e51b8152600401610694906114b6565b6001600160a01b03811660009081526011602052604090819020805460ff19169055517fc782889d4eb26c6effaa6305a7075c22c2a6e2919ddf49a4a851fecf59cfc75f90610b9e908390611379565b610cf2610de7565b6001600160a01b0316610d036108a5565b6001600160a01b031614610d295760405162461bcd60e51b815260040161069490611551565b600b80546001600160a01b0319166001600160a01b0392909216919091179055565b6001600160a01b03918216600090815260016020908152604080832093909416825291909152205490565b610d7e610de7565b6001600160a01b0316610d8f6108a5565b6001600160a01b031614610db55760405162461bcd60e51b815260040161069490611551565b6001600160a01b038116610ddb5760405162461bcd60e51b81526004016106949061142e565b610de4816110b9565b50565b3390565b6001600160a01b038316610e115760405162461bcd60e51b8152600401610694906115cb565b6001600160a01b038216610e375760405162461bcd60e51b815260040161069490611474565b6001600160a01b0380841660008181526001602090815260408083209487168084529490915290819020849055517f8c5be1e5ebec7d5bd14f71427d1e84f3dd0314c0f7b2291e5b200ac8c7c3b92590610e92908590611654565b60405180910390a3505050565b6001600160a01b038316610ec55760405162461bcd60e51b815260040161069490611586565b6001600160a01b038216610eeb5760405162461bcd60e51b8152600401610694906113eb565b6001600160a01b03831660009081526010602052604090205460ff16158015610f2d57506001600160a01b03821660009081526010602052604090205460ff16155b610f495760405162461bcd60e51b815260040161069490611524565b6001600160a01b03831660009081526011602052604081205460019190610f7490849060ff1661110b565b6001600160a01b03861660009081526011602052604090205490915060ff1680610fb657506001600160a01b03841660009081526011602052604090205460ff165b15610fc057600091505b82821561100a575060a08101518151610fda9082906117d9565b600d546001600160a01b03166000908152600f60205260408120805490919061100490849061166b565b90915550505b6001600160a01b0386166000908152600f6020526040812080548392906110329084906117d9565b90915550506001600160a01b0385166000908152600f60205260408120805483929061105f90849061166b565b92505081905550846001600160a01b0316866001600160a01b03167fddf252ad1be2c89b69c2b068fc378daa952ba7f163c4a11628f55a4df523b3ef836040516110a99190611654565b60405180910390a3505050505050565b600580546001600160a01b038381166001600160a01b0319831681179093556040519116919082907f8be0079c531659141344cd1fd0a4f28419497f9722a3daafe3b4186f6b6457e090600090a35050565b611113611232565b61111b611232565b8381526106e98184801561113557815160a08301526111f6565b8151600e546111509190600160a81b900460ff1660006111fa565b60408301528151600e546111709190600160a01b900460ff1660006111fa565b60208301528151600e546111909190600160b01b900460ff1660006111fa565b60608301528151600e546111b09190600160b81b900460ff1660006111fa565b6080830181905260608301516020840151604085015185516111d291906117d9565b6111dc91906117d9565b6111e691906117d9565b6111f091906117d9565b60a08301525b5050565b6000606461120983600a6116e9565b61121660ff8616876117ba565b6112209190611683565b61122a9190611683565b949350505050565b6040518060c001604052806000815260200160008152602001600081526020016000815260200160008152602001600081525090565b600060208284031215611279578081fd5b81356106e981611841565b60008060408385031215611296578081fd5b82356112a181611841565b915060208301356112b181611841565b809150509250929050565b6000806000606084860312156112d0578081fd5b83356112db81611841565b925060208401356112eb81611841565b929592945050506040919091013590565b6000806040838503121561130e578182fd5b823561131981611841565b9150602083013580151581146112b1578182fd5b6000806040838503121561133f578182fd5b823561134a81611841565b946020939093013593505050565b600060208284031215611369578081fd5b813560ff811681146106e9578182fd5b6001600160a01b0391909116815260200190565b901515815260200190565b6000602080835283518082850152825b818110156113c4578581018301518582016040015282016113a8565b818111156113d55783604083870101525b50601f01601f1916929092016040019392505050565b60208082526023908201527f45524332303a207472616e7366657220746f20746865207a65726f206164647260408201526265737360e81b606082015260800190565b60208082526026908201527f4f776e61626c653a206e6577206f776e657220697320746865207a65726f206160408201526564647265737360d01b606082015260800190565b60208082526022908201527f45524332303a20617070726f766520746f20746865207a65726f206164647265604082015261737360f01b606082015260800190565b6020808252601c908201527f4163636f756e7420697320616c726561647920696e636c756465642e00000000604082015260600190565b6020808252601c908201527f4163636f756e7420697320616c7265616479206578636c756465642e00000000604082015260600190565b602080825260139082015272426c61636b6c6973746564206164647265737360681b604082015260600190565b6020808252818101527f4f776e61626c653a2063616c6c6572206973206e6f7420746865206f776e6572604082015260600190565b60208082526025908201527f45524332303a207472616e736665722066726f6d20746865207a65726f206164604082015264647265737360d81b606082015260800190565b60208082526024908201527f45524332303a20617070726f76652066726f6d20746865207a65726f206164646040820152637265737360e01b606082015260800190565b60208082526025908201527f45524332303a2064656372656173656420616c6c6f77616e63652062656c6f77604082015264207a65726f60d81b606082015260800190565b90815260200190565b60ff91909116815260200190565b6000821982111561167e5761167e61182b565b500190565b60008261169e57634e487b7160e01b81526012600452602481fd5b500490565b80825b60018086116116b557506116e0565b8187048211156116c7576116c761182b565b808616156116d457918102915b9490941c9380026116a6565b94509492505050565b60006106e960001960ff851684600082611705575060016106e9565b81611712575060006106e9565b816001811461172857600281146117325761175f565b60019150506106e9565b60ff8411156117435761174361182b565b6001841b9150848211156117595761175961182b565b506106e9565b5060208310610133831016604e8410600b8410161715611792575081810a8381111561178d5761178d61182b565b6106e9565b61179f84848460016116a3565b8086048211156117b1576117b161182b565b02949350505050565b60008160001904831182151516156117d4576117d461182b565b500290565b6000828210156117eb576117eb61182b565b500390565b60028104600182168061180457607f821691505b6020821081141561182557634e487b7160e01b600052602260045260246000fd5b50919050565b634e487b7160e01b600052601160045260246000fd5b6001600160a01b0381168114610de457600080fdfea264697066735822122015ca968c78764aeb7ef43778a40ea634a9f5367716f24dd38b4df05a7fa3b7ac64736f6c634300080000338be0079c531659141344cd1fd0a4f28419497f9722a3daafe3b4186f6b6457e0",
  "linkReferences": {},
  "deployedLinkReferences": {}
}