{
  "_format": "hh-sol-artifact-1",
  "contractName": "PeachToken",
  "sourceName": "contracts/PeachToken.sol",
  "abi": [
    {
      "inputs": [
        {
          "internalType": "address payable",
          "name": "_treasuryPool",
          "type": "address"
        },
        {
          "internalType": "address payable",
          "name": "_teamPool",
          "type": "address"
        }
      ],
      "stateMutability": "nonpayable",
      "type": "constructor"
    },
    {
      "anonymous": false,
      "inputs": [
        {
          "indexed": true,
          "internalType": "address",
          "name": "owner",
          "type": "address"
        },
        {
          "indexed": true,
          "internalType": "address",
          "name": "spender",
          "type": "address"
        },
        {
          "indexed": false,
          "internalType": "uint256",
          "name": "value",
          "type": "uint256"
        }
      ],
      "name": "Approval",
      "type": "event"
    },
    {
      "anonymous": false,
      "inputs": [
        {
          "indexed": false,
          "internalType": "address",
          "name": "account",
          "type": "address"
        }
      ],
      "name": "ExcludeAccountFromFee",
      "type": "event"
    },
    {
      "anonymous": false,
      "inputs": [
        {
          "indexed": false,
          "internalType": "address",
          "name": "account",
          "type": "address"
        }
      ],
      "name": "IncludeAccountInFee",
      "type": "event"
    },
    {
      "anonymous": false,
      "inputs": [
        {
          "indexed": true,
          "internalType": "address",
          "name": "previousOwner",
          "type": "address"
        },
        {
          "indexed": true,
          "internalType": "address",
          "name": "newOwner",
          "type": "address"
        }
      ],
      "name": "OwnershipTransferred",
      "type": "event"
    },
    {
      "anonymous": false,
      "inputs": [
        {
          "indexed": true,
          "internalType": "address",
          "name": "from",
          "type": "address"
        },
        {
          "indexed": true,
          "internalType": "address",
          "name": "to",
          "type": "address"
        },
        {
          "indexed": false,
          "internalType": "uint256",
          "name": "value",
          "type": "uint256"
        }
      ],
      "name": "Transfer",
      "type": "event"
    },
    {
      "inputs": [
        {
          "internalType": "address",
          "name": "",
          "type": "address"
        }
      ],
      "name": "_isBlacklisted",
      "outputs": [
        {
          "internalType": "bool",
          "name": "",
          "type": "bool"
        }
      ],
      "stateMutability": "view",
      "type": "function"
    },
    {
      "inputs": [
        {
          "internalType": "address",
          "name": "owner",
          "type": "address"
        },
        {
          "internalType": "address",
          "name": "spender",
          "type": "address"
        }
      ],
      "name": "allowance",
      "outputs": [
        {
          "internalType": "uint256",
          "name": "",
          "type": "uint256"
        }
      ],
      "stateMutability": "view",
      "type": "function"
    },
    {
      "inputs": [
        {
          "internalType": "address",
          "name": "spender",
          "type": "address"
        },
        {
          "internalType": "uint256",
          "name": "amount",
          "type": "uint256"
        }
      ],
      "name": "approve",
      "outputs": [
        {
          "internalType": "bool",
          "name": "",
          "type": "bool"
        }
      ],
      "stateMutability": "nonpayable",
      "type": "function"
    },
    {
      "inputs": [
        {
          "internalType": "address",
          "name": "account",
          "type": "address"
        }
      ],
      "name": "balanceOf",
      "outputs": [
        {
          "internalType": "uint256",
          "name": "",
          "type": "uint256"
        }
      ],
      "stateMutability": "view",
      "type": "function"
    },
    {
      "inputs": [
        {
          "internalType": "address",
          "name": "account",
          "type": "address"
        },
        {
          "internalType": "bool",
          "name": "value",
          "type": "bool"
        }
      ],
      "name": "blacklistMalicious",
      "outputs": [],
      "stateMutability": "nonpayable",
      "type": "function"
    },
    {
      "inputs": [],
      "name": "decimals",
      "outputs": [
        {
          "internalType": "uint8",
          "name": "",
          "type": "uint8"
        }
      ],
      "stateMutability": "view",
      "type": "function"
    },
    {
      "inputs": [
        {
          "internalType": "address",
          "name": "spender",
          "type": "address"
        },
        {
          "internalType": "uint256",
          "name": "subtractedValue",
          "type": "uint256"
        }
      ],
      "name": "decreaseAllowance",
      "outputs": [
        {
          "internalType": "bool",
          "name": "",
          "type": "bool"
        }
      ],
      "stateMutability": "nonpayable",
      "type": "function"
    },
    {
      "inputs": [
        {
          "internalType": "address",
          "name": "account",
          "type": "address"
        }
      ],
      "name": "excludeAccountFromFee",
      "outputs": [],
      "stateMutability": "nonpayable",
      "type": "function"
    },
    {
      "inputs": [
        {
          "internalType": "address",
          "name": "account",
          "type": "address"
        }
      ],
      "name": "includeAccountInFee",
      "outputs": [],
      "stateMutability": "nonpayable",
      "type": "function"
    },
    {
      "inputs": [
        {
          "internalType": "address",
          "name": "spender",
          "type": "address"
        },
        {
          "internalType": "uint256",
          "name": "addedValue",
          "type": "uint256"
        }
      ],
      "name": "increaseAllowance",
      "outputs": [
        {
          "internalType": "bool",
          "name": "",
          "type": "bool"
        }
      ],
      "stateMutability": "nonpayable",
      "type": "function"
    },
    {
      "inputs": [
        {
          "internalType": "address",
          "name": "account",
          "type": "address"
        }
      ],
      "name": "isExcludedFromFee",
      "outputs": [
        {
          "internalType": "bool",
          "name": "",
          "type": "bool"
        }
      ],
      "stateMutability": "view",
      "type": "function"
    },
    {
      "inputs": [],
      "name": "lockInTeamWallet",
      "outputs": [],
      "stateMutability": "nonpayable",
      "type": "function"
    },
    {
      "inputs": [
        {
          "internalType": "address payable",
          "name": "recipient",
          "type": "address"
        }
      ],
      "name": "lockInVaultWallet",
      "outputs": [],
      "stateMutability": "nonpayable",
      "type": "function"
    },
    {
      "inputs": [],
      "name": "name",
      "outputs": [
        {
          "internalType": "string",
          "name": "",
          "type": "string"
        }
      ],
      "stateMutability": "view",
      "type": "function"
    },
    {
      "inputs": [],
      "name": "owner",
      "outputs": [
        {
          "internalType": "address",
          "name": "",
          "type": "address"
        }
      ],
      "stateMutability": "view",
      "type": "function"
    },
    {
      "inputs": [],
      "name": "renounceOwnership",
      "outputs": [],
      "stateMutability": "nonpayable",
      "type": "function"
    },
    {
      "inputs": [],
      "name": "symbol",
      "outputs": [
        {
          "internalType": "string",
          "name": "",
          "type": "string"
        }
      ],
      "stateMutability": "view",
      "type": "function"
    },
    {
      "inputs": [],
      "name": "teamPool",
      "outputs": [
        {
          "internalType": "address payable",
          "name": "",
          "type": "address"
        }
      ],
      "stateMutability": "view",
      "type": "function"
    },
    {
      "inputs": [],
      "name": "totalSupply",
      "outputs": [
        {
          "internalType": "uint256",
          "name": "",
          "type": "uint256"
        }
      ],
      "stateMutability": "view",
      "type": "function"
    },
    {
      "inputs": [
        {
          "internalType": "address",
          "name": "recipient",
          "type": "address"
        },
        {
          "internalType": "uint256",
          "name": "amount",
          "type": "uint256"
        }
      ],
      "name": "transfer",
      "outputs": [
        {
          "internalType": "bool",
          "name": "",
          "type": "bool"
        }
      ],
      "stateMutability": "nonpayable",
      "type": "function"
    },
    {
      "inputs": [
        {
          "internalType": "address",
          "name": "from",
          "type": "address"
        },
        {
          "internalType": "address",
          "name": "to",
          "type": "address"
        },
        {
          "internalType": "uint256",
          "name": "amount",
          "type": "uint256"
        }
      ],
      "name": "transferFrom",
      "outputs": [
        {
          "internalType": "bool",
          "name": "",
          "type": "bool"
        }
      ],
      "stateMutability": "nonpayable",
      "type": "function"
    },
    {
      "inputs": [
        {
          "internalType": "address",
          "name": "newOwner",
          "type": "address"
        }
      ],
      "name": "transferOwnership",
      "outputs": [],
      "stateMutability": "nonpayable",
      "type": "function"
    },
    {
      "inputs": [],
      "name": "treasuryFee",
      "outputs": [
        {
          "internalType": "uint8",
          "name": "",
          "type": "uint8"
        }
      ],
      "stateMutability": "view",
      "type": "function"
    },
    {
      "inputs": [],
      "name": "treasuryPool",
      "outputs": [
        {
          "internalType": "address payable",
          "name": "",
          "type": "address"
        }
      ],
      "stateMutability": "view",
      "type": "function"
    },
    {
      "inputs": [
        {
          "internalType": "uint8",
          "name": "value",
          "type": "uint8"
        }
      ],
      "name": "updateTreasuryFee",
      "outputs": [],
      "stateMutability": "nonpayable",
      "type": "function"
    },
    {
      "inputs": [
        {
          "internalType": "address payable",
          "name": "pool",
          "type": "address"
        }
      ],
      "name": "updateTreasuryPool",
      "outputs": [],
      "stateMutability": "nonpayable",
      "type": "function"
    },
    {
      "inputs": [],
      "name": "vault",
      "outputs": [
        {
          "internalType": "address payable",
          "name": "",
          "type": "address"
        }
      ],
      "stateMutability": "view",
      "type": "function"
    },
    {
      "stateMutability": "payable",
      "type": "receive"
    }
  ],
  "bytecode": "0x6080604052621e84806007556008805460ff1916601217908190556200002a9060ff16600a62000741565b60075462000039919062000839565b600955620186a0600a55620f4240600b55600c805461ffff19169055600e805460ff60a01b1916601960a11b1790553480156200007557600080fd5b50604051620020a9380380620020a9833981016040819052620000989162000585565b604080518082018252600a8152695045414348204e4f444560b01b6020808301918252835180850190945260058452640a08a8286960db1b908401528151919291620000e791600391620004c2565b508051620000fd906004906020840190620004c2565b5050506200011a62000114620002bf60201b60201c565b620002c3565b600160065581816001600160a01b0382166200013557600080fd5b6001600160a01b0381166200014957600080fd5b6001600160a01b038416158015906200016a57506001600160a01b03831615155b620001925760405162461bcd60e51b81526004016200018990620005d0565b60405180910390fd5b600c805462010000600160b01b031916620100006001600160a01b038781169190910291909117909155600d80546001600160a01b031916918516919091179055620001ea620001e1620002bf565b60095462000304565b620001f533620003cc565b6200020030620003cc565b600c546200021d906201000090046001600160a01b0316620003cc565b600d5462000234906001600160a01b0316620003cc565b6200023e620002bf565b6001600160a01b031660006001600160a01b031660008051602062002089833981519152600954604051620002749190620006d0565b60405180910390a362000286620002bf565b6001600160a01b031660006001600160a01b03166000805160206200206983398151915260405160405180910390a350505050620008ae565b3390565b600580546001600160a01b038381166001600160a01b0319831681179093556040519116919082906000805160206200206983398151915290600090a35050565b6001600160a01b0382166200032d5760405162461bcd60e51b8152600401620001899062000699565b6200033b60008383620004ae565b80600260008282546200034f9190620006d9565b90915550506001600160a01b038216600090815260208190526040812080548392906200037e908490620006d9565b90915550506040516001600160a01b038316906000906000805160206200208983398151915290620003b2908590620006d0565b60405180910390a3620003c860008383620004ae565b5050565b620003d6620002bf565b6001600160a01b0316620003e9620004b3565b6001600160a01b031614620004125760405162461bcd60e51b8152600401620001899062000664565b6001600160a01b03811660009081526010602052604090205460ff16156200044e5760405162461bcd60e51b815260040162000189906200062d565b6001600160a01b03811660009081526010602052604090819020805460ff19166001179055517f7e35d6b74d35c333860340884eeca4e63b18cb9d73ce17a147a1952654365b5e90620004a3908390620005bc565b60405180910390a150565b505050565b6005546001600160a01b031690565b828054620004d0906200085b565b90600052602060002090601f016020900481019282620004f457600085556200053f565b82601f106200050f57805160ff19168380011785556200053f565b828001600101855582156200053f579182015b828111156200053f57825182559160200191906001019062000522565b506200054d92915062000551565b5090565b5b808211156200054d576000815560010162000552565b80516001600160a01b03811681146200058057600080fd5b919050565b6000806040838503121562000598578182fd5b620005a38362000568565b9150620005b36020840162000568565b90509250929050565b6001600160a01b0391909116815260200190565b6020808252603b908201527f4c49515549444954592f524557415244532f54524541535552592f5445414d2060408201527f504f4f4c20414444524553532043414e4e4f54204245205a45524f0000000000606082015260800190565b6020808252601c908201527f4163636f756e7420697320616c7265616479206578636c756465642e00000000604082015260600190565b6020808252818101527f4f776e61626c653a2063616c6c6572206973206e6f7420746865206f776e6572604082015260600190565b6020808252601f908201527f45524332303a206d696e7420746f20746865207a65726f206164647265737300604082015260600190565b90815260200190565b60008219821115620006ef57620006ef62000898565b500190565b80825b600180861162000708575062000738565b8187048211156200071d576200071d62000898565b808616156200072b57918102915b9490941c938002620006f7565b94509492505050565b60006200075560001960ff8516846200075c565b9392505050565b6000826200076d5750600162000755565b816200077c5750600062000755565b8160018114620007955760028114620007a057620007d4565b600191505062000755565b60ff841115620007b457620007b462000898565b6001841b915084821115620007cd57620007cd62000898565b5062000755565b5060208310610133831016604e8410600b84101617156200080c575081810a8381111562000806576200080662000898565b62000755565b6200081b8484846001620006f4565b80860482111562000830576200083062000898565b02949350505050565b600081600019048311821515161562000856576200085662000898565b500290565b6002810460018216806200087057607f821691505b602082108114156200089257634e487b7160e01b600052602260045260246000fd5b50919050565b634e487b7160e01b600052601160045260246000fd5b6117ab80620008be6000396000f3fe6080604052600436106101a05760003560e01c80638da5cb5b116100ec578063cc32d1761161008a578063daa9334111610064578063daa933411461046a578063dd62ed3e1461048a578063f2fde38b146104aa578063fbfa77cf146104ca576101a7565b8063cc32d17614610415578063d6b4212b1461042a578063d89293421461044a576101a7565b8063a5d13c48116100c6578063a5d13c48146103a0578063a9059cbb146103c0578063b14a1e8e146103e0578063cbf6b84d14610400576101a7565b80638da5cb5b1461035657806395d89b411461036b578063a457c2d714610380576101a7565b8063313ce5671161015957806348df58291161013357806348df5829146102ec5780635342acb41461030157806370a0823114610321578063715018a614610341576101a7565b8063313ce5671461028857806339509351146102aa57806339636504146102ca576101a7565b806306fdde03146101ac578063095ea7b3146101d757806318160ddd146102045780631cdd3be31461022657806323b872dd146102465780632deef28414610266576101a7565b366101a757005b600080fd5b3480156101b857600080fd5b506101c16104df565b6040516101ce919061123a565b60405180910390f35b3480156101e357600080fd5b506101f76101f23660046111cf565b610571565b6040516101ce919061122f565b34801561021057600080fd5b50610219610593565b6040516101ce9190611573565b34801561023257600080fd5b506101f761024136600461110a565b610599565b34801561025257600080fd5b506101f761026136600461115e565b6105ae565b34801561027257600080fd5b506102866102813660046111fa565b6105de565b005b34801561029457600080fd5b5061029d610646565b6040516101ce919061157c565b3480156102b657600080fd5b506101f76102c53660046111cf565b61064b565b3480156102d657600080fd5b506102df610697565b6040516101ce919061121b565b3480156102f857600080fd5b506102df6106a6565b34801561030d57600080fd5b506101f761031c36600461110a565b6106bb565b34801561032d57600080fd5b5061021961033c36600461110a565b6106d9565b34801561034d57600080fd5b506102866106f4565b34801561036257600080fd5b506102df61073f565b34801561037757600080fd5b506101c161074e565b34801561038c57600080fd5b506101f761039b3660046111cf565b61075d565b3480156103ac57600080fd5b506102866103bb36600461110a565b6107c9565b3480156103cc57600080fd5b506101f76103db3660046111cf565b610863565b3480156103ec57600080fd5b506102866103fb36600461110a565b610880565b34801561040c57600080fd5b506102866108e9565b34801561042157600080fd5b5061029d610961565b34801561043657600080fd5b5061028661044536600461110a565b610971565b34801561045657600080fd5b5061028661046536600461119e565b610a47565b34801561047657600080fd5b5061028661048536600461110a565b610ab1565b34801561049657600080fd5b506102196104a5366004611126565b610b78565b3480156104b657600080fd5b506102866104c536600461110a565b610ba3565b3480156104d657600080fd5b506102df610c11565b6060600380546104ee9061170f565b80601f016020809104026020016040519081016040528092919081815260200182805461051a9061170f565b80156105675780601f1061053c57610100808354040283529160200191610567565b820191906000526020600020905b81548152906001019060200180831161054a57829003601f168201915b5050505050905090565b60008061057c610c20565b9050610589818585610c24565b5060019392505050565b60025490565b600f6020526000908152604090205460ff1681565b6000806105b9610c20565b90506105c6858285610cd8565b6105d1858585610d22565b60019150505b9392505050565b6105e6610c20565b6001600160a01b03166105f761073f565b6001600160a01b0316146106265760405162461bcd60e51b815260040161061d90611470565b60405180910390fd5b600e805460ff909216600160a01b0260ff60a01b19909216919091179055565b601290565b600080610656610c20565b6001600160a01b03808216600090815260016020908152604080832093891683529290522054909150610589908290869061069290879061158a565b610c24565b600d546001600160a01b031681565b600c546201000090046001600160a01b031681565b6001600160a01b031660009081526010602052604090205460ff1690565b6001600160a01b031660009081526020819052604090205490565b6106fc610c20565b6001600160a01b031661070d61073f565b6001600160a01b0316146107335760405162461bcd60e51b815260040161061d90611470565b61073d6000610ed0565b565b6005546001600160a01b031690565b6060600480546104ee9061170f565b600080610768610c20565b6001600160a01b03808216600090815260016020908152604080832093891683529290522054909150838110156107b15760405162461bcd60e51b815260040161061d9061152e565b6107be8286868403610c24565b506001949350505050565b6107d1610c20565b6001600160a01b03166107e261073f565b6001600160a01b0316146108085760405162461bcd60e51b815260040161061d90611470565b600c54610100900460ff161561081d57600080fd5b600e80546001600160a01b038084166001600160a01b03199092169190911791829055600c805461ff001916610100179055600b5461085f9290911690610863565b5050565b6000610877610870610c20565b8484610d22565b50600192915050565b610888610c20565b6001600160a01b031661089961073f565b6001600160a01b0316146108bf5760405162461bcd60e51b815260040161061d90611470565b600c80546001600160a01b03909216620100000262010000600160b01b0319909216919091179055565b6108f1610c20565b6001600160a01b031661090261073f565b6001600160a01b0316146109285760405162461bcd60e51b815260040161061d90611470565b600c5460ff161561093857600080fd5b600c805460ff19166001179055600d54600a5461095e916001600160a01b031690610863565b50565b600e54600160a01b900460ff1681565b610979610c20565b6001600160a01b031661098a61073f565b6001600160a01b0316146109b05760405162461bcd60e51b815260040161061d90611470565b6001600160a01b03811660009081526010602052604090205460ff16156109e95760405162461bcd60e51b815260040161061d9061140c565b6001600160a01b03811660009081526010602052604090819020805460ff19166001179055517f7e35d6b74d35c333860340884eeca4e63b18cb9d73ce17a147a1952654365b5e90610a3c90839061121b565b60405180910390a150565b610a4f610c20565b6001600160a01b0316610a6061073f565b6001600160a01b031614610a865760405162461bcd60e51b815260040161061d90611470565b6001600160a01b03919091166000908152600f60205260409020805460ff1916911515919091179055565b610ab9610c20565b6001600160a01b0316610aca61073f565b6001600160a01b031614610af05760405162461bcd60e51b815260040161061d90611470565b6001600160a01b03811660009081526010602052604090205460ff16610b285760405162461bcd60e51b815260040161061d90611358565b6001600160a01b03811660009081526010602052604090819020805460ff19169055517fc782889d4eb26c6effaa6305a7075c22c2a6e2919ddf49a4a851fecf59cfc75f90610a3c90839061121b565b6001600160a01b03918216600090815260016020908152604080832093909416825291909152205490565b610bab610c20565b6001600160a01b0316610bbc61073f565b6001600160a01b031614610be25760405162461bcd60e51b815260040161061d90611470565b6001600160a01b038116610c085760405162461bcd60e51b815260040161061d906112d0565b61095e81610ed0565b600e546001600160a01b031681565b3390565b6001600160a01b038316610c4a5760405162461bcd60e51b815260040161061d906114ea565b6001600160a01b038216610c705760405162461bcd60e51b815260040161061d90611316565b6001600160a01b0380841660008181526001602090815260408083209487168084529490915290819020849055517f8c5be1e5ebec7d5bd14f71427d1e84f3dd0314c0f7b2291e5b200ac8c7c3b92590610ccb908590611573565b60405180910390a3505050565b6000610ce48484610b78565b90506000198114610d1c5781811015610d0f5760405162461bcd60e51b815260040161061d9061138f565b610d1c8484848403610c24565b50505050565b82826001600160a01b038216610d3757600080fd5b6001600160a01b038116610d4a57600080fd5b6001600160a01b0385166000908152600f602052604090205460ff16158015610d8c57506001600160a01b0384166000908152600f602052604090205460ff16155b610da85760405162461bcd60e51b815260040161061d90611443565b600854600090610dbc9060ff16600a611608565b610dc690856116d9565b6001600160a01b038716600090815260106020526040812054919250600191610df390849060ff16610f22565b6001600160a01b03891660009081526010602052604090205490915060ff1680610e3557506001600160a01b03871660009081526010602052604090205460ff165b15610e3f57600091505b8115610e705780604001519250610e7088600c60029054906101000a90046001600160a01b03168360200151610f3f565b610e7b888885610f3f565b866001600160a01b0316886001600160a01b03167fddf252ad1be2c89b69c2b068fc378daa952ba7f163c4a11628f55a4df523b3ef85604051610ebe9190611573565b60405180910390a35050505050505050565b600580546001600160a01b038381166001600160a01b0319831681179093556040519116919082907f8be0079c531659141344cd1fd0a4f28419497f9722a3daafe3b4186f6b6457e090600090a35050565b610f2a6110e9565b610f326110e9565b8381526105d78184611063565b6001600160a01b038316610f655760405162461bcd60e51b815260040161061d906114a5565b6001600160a01b038216610f8b5760405162461bcd60e51b815260040161061d9061128d565b610f968383836110ac565b6001600160a01b03831660009081526020819052604090205481811015610fcf5760405162461bcd60e51b815260040161061d906113c6565b6001600160a01b0380851660009081526020819052604080822085850390559185168152908120805484929061100690849061158a565b92505081905550826001600160a01b0316846001600160a01b03167fddf252ad1be2c89b69c2b068fc378daa952ba7f163c4a11628f55a4df523b3ef846040516110509190611573565b60405180910390a3610d1c8484846110ac565b8015611075578151604083015261085f565b8151600e546110909190600160a01b900460ff1660006110b1565b6020830181905282516110a391906116f8565b60408301525050565b505050565b600060646110c083600a611608565b6110cd60ff8616876116d9565b6110d791906115a2565b6110e191906115a2565b949350505050565b60405180606001604052806000815260200160008152602001600081525090565b60006020828403121561111b578081fd5b81356105d781611760565b60008060408385031215611138578081fd5b823561114381611760565b9150602083013561115381611760565b809150509250929050565b600080600060608486031215611172578081fd5b833561117d81611760565b9250602084013561118d81611760565b929592945050506040919091013590565b600080604083850312156111b0578182fd5b82356111bb81611760565b915060208301358015158114611153578182fd5b600080604083850312156111e1578182fd5b82356111ec81611760565b946020939093013593505050565b60006020828403121561120b578081fd5b813560ff811681146105d7578182fd5b6001600160a01b0391909116815260200190565b901515815260200190565b6000602080835283518082850152825b818110156112665785810183015185820160400152820161124a565b818111156112775783604083870101525b50601f01601f1916929092016040019392505050565b60208082526023908201527f45524332303a207472616e7366657220746f20746865207a65726f206164647260408201526265737360e81b606082015260800190565b60208082526026908201527f4f776e61626c653a206e6577206f776e657220697320746865207a65726f206160408201526564647265737360d01b606082015260800190565b60208082526022908201527f45524332303a20617070726f766520746f20746865207a65726f206164647265604082015261737360f01b606082015260800190565b6020808252601c908201527f4163636f756e7420697320616c726561647920696e636c756465642e00000000604082015260600190565b6020808252601d908201527f45524332303a20696e73756666696369656e7420616c6c6f77616e6365000000604082015260600190565b60208082526026908201527f45524332303a207472616e7366657220616d6f756e7420657863656564732062604082015265616c616e636560d01b606082015260800190565b6020808252601c908201527f4163636f756e7420697320616c7265616479206578636c756465642e00000000604082015260600190565b602080825260139082015272426c61636b6c6973746564206164647265737360681b604082015260600190565b6020808252818101527f4f776e61626c653a2063616c6c6572206973206e6f7420746865206f776e6572604082015260600190565b60208082526025908201527f45524332303a207472616e736665722066726f6d20746865207a65726f206164604082015264647265737360d81b606082015260800190565b60208082526024908201527f45524332303a20617070726f76652066726f6d20746865207a65726f206164646040820152637265737360e01b606082015260800190565b60208082526025908201527f45524332303a2064656372656173656420616c6c6f77616e63652062656c6f77604082015264207a65726f60d81b606082015260800190565b90815260200190565b60ff91909116815260200190565b6000821982111561159d5761159d61174a565b500190565b6000826115bd57634e487b7160e01b81526012600452602481fd5b500490565b80825b60018086116115d457506115ff565b8187048211156115e6576115e661174a565b808616156115f357918102915b9490941c9380026115c5565b94509492505050565b60006105d760001960ff851684600082611624575060016105d7565b81611631575060006105d7565b816001811461164757600281146116515761167e565b60019150506105d7565b60ff8411156116625761166261174a565b6001841b9150848211156116785761167861174a565b506105d7565b5060208310610133831016604e8410600b84101617156116b1575081810a838111156116ac576116ac61174a565b6105d7565b6116be84848460016115c2565b8086048211156116d0576116d061174a565b02949350505050565b60008160001904831182151516156116f3576116f361174a565b500290565b60008282101561170a5761170a61174a565b500390565b60028104600182168061172357607f821691505b6020821081141561174457634e487b7160e01b600052602260045260246000fd5b50919050565b634e487b7160e01b600052601160045260246000fd5b6001600160a01b038116811461095e57600080fdfea2646970667358221220bbad8a10e84c756baf3262772a9f6b3b0e24278155df7c60c502ff7075dc8b5664736f6c634300080000338be0079c531659141344cd1fd0a4f28419497f9722a3daafe3b4186f6b6457e0ddf252ad1be2c89b69c2b068fc378daa952ba7f163c4a11628f55a4df523b3ef",
  "linkReferences": {},
  "deployedLinkReferences": {}
}