{
  "_format": "hh-sol-artifact-1",
  "contractName": "PeachToken",
  "sourceName": "contracts/PeachToken.sol",
  "abi": [
    {
      "inputs": [
        {
          "internalType": "address payable",
          "name": "_liquidityPool",
          "type": "address"
        },
        {
          "internalType": "address payable",
          "name": "_rewardsPool",
          "type": "address"
        },
        {
          "internalType": "address payable",
          "name": "_treasuryPool",
          "type": "address"
        },
        {
          "internalType": "address payable",
          "name": "_teamPool",
          "type": "address"
        }
      ],
      "stateMutability": "nonpayable",
      "type": "constructor"
    },
    {
      "anonymous": false,
      "inputs": [
        {
          "indexed": true,
          "internalType": "address",
          "name": "owner",
          "type": "address"
        },
        {
          "indexed": true,
          "internalType": "address",
          "name": "spender",
          "type": "address"
        },
        {
          "indexed": false,
          "internalType": "uint256",
          "name": "value",
          "type": "uint256"
        }
      ],
      "name": "Approval",
      "type": "event"
    },
    {
      "anonymous": false,
      "inputs": [
        {
          "indexed": false,
          "internalType": "address",
          "name": "account",
          "type": "address"
        }
      ],
      "name": "ExcludeAccountFromFee",
      "type": "event"
    },
    {
      "anonymous": false,
      "inputs": [
        {
          "indexed": false,
          "internalType": "address",
          "name": "account",
          "type": "address"
        }
      ],
      "name": "IncludeAccountInFee",
      "type": "event"
    },
    {
      "anonymous": false,
      "inputs": [
        {
          "indexed": true,
          "internalType": "address",
          "name": "previousOwner",
          "type": "address"
        },
        {
          "indexed": true,
          "internalType": "address",
          "name": "newOwner",
          "type": "address"
        }
      ],
      "name": "OwnershipTransferred",
      "type": "event"
    },
    {
      "anonymous": false,
      "inputs": [
        {
          "indexed": true,
          "internalType": "address",
          "name": "from",
          "type": "address"
        },
        {
          "indexed": true,
          "internalType": "address",
          "name": "to",
          "type": "address"
        },
        {
          "indexed": false,
          "internalType": "uint256",
          "name": "value",
          "type": "uint256"
        }
      ],
      "name": "Transfer",
      "type": "event"
    },
    {
      "inputs": [
        {
          "internalType": "address",
          "name": "",
          "type": "address"
        }
      ],
      "name": "_isBlacklisted",
      "outputs": [
        {
          "internalType": "bool",
          "name": "",
          "type": "bool"
        }
      ],
      "stateMutability": "view",
      "type": "function"
    },
    {
      "inputs": [
        {
          "internalType": "address",
          "name": "owner",
          "type": "address"
        },
        {
          "internalType": "address",
          "name": "spender",
          "type": "address"
        }
      ],
      "name": "allowance",
      "outputs": [
        {
          "internalType": "uint256",
          "name": "",
          "type": "uint256"
        }
      ],
      "stateMutability": "view",
      "type": "function"
    },
    {
      "inputs": [
        {
          "internalType": "address",
          "name": "spender",
          "type": "address"
        },
        {
          "internalType": "uint256",
          "name": "amount",
          "type": "uint256"
        }
      ],
      "name": "approve",
      "outputs": [
        {
          "internalType": "bool",
          "name": "",
          "type": "bool"
        }
      ],
      "stateMutability": "nonpayable",
      "type": "function"
    },
    {
      "inputs": [
        {
          "internalType": "address",
          "name": "account",
          "type": "address"
        }
      ],
      "name": "balanceOf",
      "outputs": [
        {
          "internalType": "uint256",
          "name": "",
          "type": "uint256"
        }
      ],
      "stateMutability": "view",
      "type": "function"
    },
    {
      "inputs": [
        {
          "internalType": "address",
          "name": "account",
          "type": "address"
        },
        {
          "internalType": "bool",
          "name": "value",
          "type": "bool"
        }
      ],
      "name": "blacklistMalicious",
      "outputs": [],
      "stateMutability": "nonpayable",
      "type": "function"
    },
    {
      "inputs": [],
      "name": "decimals",
      "outputs": [
        {
          "internalType": "uint8",
          "name": "",
          "type": "uint8"
        }
      ],
      "stateMutability": "view",
      "type": "function"
    },
    {
      "inputs": [
        {
          "internalType": "address",
          "name": "spender",
          "type": "address"
        },
        {
          "internalType": "uint256",
          "name": "subtractedValue",
          "type": "uint256"
        }
      ],
      "name": "decreaseAllowance",
      "outputs": [
        {
          "internalType": "bool",
          "name": "",
          "type": "bool"
        }
      ],
      "stateMutability": "nonpayable",
      "type": "function"
    },
    {
      "inputs": [
        {
          "internalType": "address",
          "name": "account",
          "type": "address"
        }
      ],
      "name": "excludeAccountFromFee",
      "outputs": [],
      "stateMutability": "nonpayable",
      "type": "function"
    },
    {
      "inputs": [
        {
          "internalType": "address",
          "name": "account",
          "type": "address"
        }
      ],
      "name": "includeAccountInFee",
      "outputs": [],
      "stateMutability": "nonpayable",
      "type": "function"
    },
    {
      "inputs": [
        {
          "internalType": "address",
          "name": "spender",
          "type": "address"
        },
        {
          "internalType": "uint256",
          "name": "addedValue",
          "type": "uint256"
        }
      ],
      "name": "increaseAllowance",
      "outputs": [
        {
          "internalType": "bool",
          "name": "",
          "type": "bool"
        }
      ],
      "stateMutability": "nonpayable",
      "type": "function"
    },
    {
      "inputs": [
        {
          "internalType": "address",
          "name": "account",
          "type": "address"
        }
      ],
      "name": "isExcludedFromFee",
      "outputs": [
        {
          "internalType": "bool",
          "name": "",
          "type": "bool"
        }
      ],
      "stateMutability": "view",
      "type": "function"
    },
    {
      "inputs": [],
      "name": "liquidityPoolFee",
      "outputs": [
        {
          "internalType": "uint8",
          "name": "",
          "type": "uint8"
        }
      ],
      "stateMutability": "view",
      "type": "function"
    },
    {
      "inputs": [
        {
          "internalType": "address payable",
          "name": "recipient",
          "type": "address"
        }
      ],
      "name": "lockInTeamWallet",
      "outputs": [],
      "stateMutability": "nonpayable",
      "type": "function"
    },
    {
      "inputs": [],
      "name": "minTransfer",
      "outputs": [
        {
          "internalType": "uint256",
          "name": "",
          "type": "uint256"
        }
      ],
      "stateMutability": "view",
      "type": "function"
    },
    {
      "inputs": [],
      "name": "name",
      "outputs": [
        {
          "internalType": "string",
          "name": "",
          "type": "string"
        }
      ],
      "stateMutability": "view",
      "type": "function"
    },
    {
      "inputs": [],
      "name": "owner",
      "outputs": [
        {
          "internalType": "address",
          "name": "",
          "type": "address"
        }
      ],
      "stateMutability": "view",
      "type": "function"
    },
    {
      "inputs": [],
      "name": "renounceOwnership",
      "outputs": [],
      "stateMutability": "nonpayable",
      "type": "function"
    },
    {
      "inputs": [],
      "name": "rewardsFee",
      "outputs": [
        {
          "internalType": "uint8",
          "name": "",
          "type": "uint8"
        }
      ],
      "stateMutability": "view",
      "type": "function"
    },
    {
      "inputs": [],
      "name": "symbol",
      "outputs": [
        {
          "internalType": "string",
          "name": "",
          "type": "string"
        }
      ],
      "stateMutability": "view",
      "type": "function"
    },
    {
      "inputs": [],
      "name": "teamFee",
      "outputs": [
        {
          "internalType": "uint8",
          "name": "",
          "type": "uint8"
        }
      ],
      "stateMutability": "view",
      "type": "function"
    },
    {
      "inputs": [],
      "name": "totalSupply",
      "outputs": [
        {
          "internalType": "uint256",
          "name": "",
          "type": "uint256"
        }
      ],
      "stateMutability": "view",
      "type": "function"
    },
    {
      "inputs": [
        {
          "internalType": "address",
          "name": "recipient",
          "type": "address"
        },
        {
          "internalType": "uint256",
          "name": "amount",
          "type": "uint256"
        }
      ],
      "name": "transfer",
      "outputs": [
        {
          "internalType": "bool",
          "name": "",
          "type": "bool"
        }
      ],
      "stateMutability": "nonpayable",
      "type": "function"
    },
    {
      "inputs": [
        {
          "internalType": "address",
          "name": "sender",
          "type": "address"
        },
        {
          "internalType": "address",
          "name": "recipient",
          "type": "address"
        },
        {
          "internalType": "uint256",
          "name": "amount",
          "type": "uint256"
        }
      ],
      "name": "transferFrom",
      "outputs": [
        {
          "internalType": "bool",
          "name": "",
          "type": "bool"
        }
      ],
      "stateMutability": "nonpayable",
      "type": "function"
    },
    {
      "inputs": [
        {
          "internalType": "address",
          "name": "newOwner",
          "type": "address"
        }
      ],
      "name": "transferOwnership",
      "outputs": [],
      "stateMutability": "nonpayable",
      "type": "function"
    },
    {
      "inputs": [],
      "name": "treasuryFee",
      "outputs": [
        {
          "internalType": "uint8",
          "name": "",
          "type": "uint8"
        }
      ],
      "stateMutability": "view",
      "type": "function"
    },
    {
      "inputs": [
        {
          "internalType": "uint8",
          "name": "value",
          "type": "uint8"
        }
      ],
      "name": "updateLiquidityFee",
      "outputs": [],
      "stateMutability": "nonpayable",
      "type": "function"
    },
    {
      "inputs": [
        {
          "internalType": "address payable",
          "name": "pool",
          "type": "address"
        }
      ],
      "name": "updateLiquidityPool",
      "outputs": [],
      "stateMutability": "nonpayable",
      "type": "function"
    },
    {
      "inputs": [
        {
          "internalType": "uint8",
          "name": "value",
          "type": "uint8"
        }
      ],
      "name": "updateRewardsFee",
      "outputs": [],
      "stateMutability": "nonpayable",
      "type": "function"
    },
    {
      "inputs": [
        {
          "internalType": "address payable",
          "name": "pool",
          "type": "address"
        }
      ],
      "name": "updateRewardsPool",
      "outputs": [],
      "stateMutability": "nonpayable",
      "type": "function"
    },
    {
      "inputs": [
        {
          "internalType": "uint256",
          "name": "val",
          "type": "uint256"
        }
      ],
      "name": "updateTeamPoolAlloc",
      "outputs": [],
      "stateMutability": "nonpayable",
      "type": "function"
    },
    {
      "inputs": [
        {
          "internalType": "uint8",
          "name": "value",
          "type": "uint8"
        }
      ],
      "name": "updateTreasuryFee",
      "outputs": [],
      "stateMutability": "nonpayable",
      "type": "function"
    },
    {
      "inputs": [
        {
          "internalType": "address payable",
          "name": "pool",
          "type": "address"
        }
      ],
      "name": "updateTreasuryPool",
      "outputs": [],
      "stateMutability": "nonpayable",
      "type": "function"
    },
    {
      "inputs": [
        {
          "internalType": "uint8",
          "name": "value",
          "type": "uint8"
        }
      ],
      "name": "updateteamFee",
      "outputs": [],
      "stateMutability": "nonpayable",
      "type": "function"
    },
    {
      "inputs": [
        {
          "internalType": "address payable",
          "name": "pool",
          "type": "address"
        }
      ],
      "name": "updateteamPool",
      "outputs": [],
      "stateMutability": "nonpayable",
      "type": "function"
    },
    {
      "stateMutability": "payable",
      "type": "receive"
    }
  ],
  "bytecode": "0x6080604052621e84806008556009805460ff1916601217908190556200002a9060ff16600a620007ab565b600854620000399190620008a3565b600a908155620186a0600b55600954620000599160ff90911690620007ab565b600b54620000689190620008a3565b600c55600d805460ff191690556010805460ff60a01b1916600160a21b1760ff60a81b1916600360aa1b1760ff60b01b1916600f60b11b1760ff60b81b1916600160ba1b1790556032601155348015620000c157600080fd5b506040516200255438038062002554833981016040819052620000e491620005ca565b604080518082018252600a8152695045414348204e4f444560b01b6020808301918252835180850190945260058452640a08a8286960db1b908401528151919291620001339160039162000507565b5080516200014990600490602084019062000507565b50505062000166620001606200030460201b60201c565b62000308565b6001600655600d8054610100600160a81b0319166101006001600160a01b0387811682029290921792839055600e80546001600160a01b031990811688851617909155600f80548216878516179055601080549091168584161790559091041615801590620001df5750600e546001600160a01b031615155b8015620001f65750600f546001600160a01b031615155b80156200020d57506010546001600160a01b031615155b620002355760405162461bcd60e51b81526004016200022c906200063a565b60405180910390fd5b6200024c6200024362000304565b600a5462000349565b620002573362000411565b620002623062000411565b60105462000279906001600160a01b031662000411565b6200028362000304565b6001600160a01b031660006001600160a01b031660008051602062002534833981519152600a54604051620002b991906200073a565b60405180910390a3620002cb62000304565b6001600160a01b031660006001600160a01b03166000805160206200251483398151915260405160405180910390a35050505062000918565b3390565b600580546001600160a01b038381166001600160a01b0319831681179093556040519116919082906000805160206200251483398151915290600090a35050565b6001600160a01b038216620003725760405162461bcd60e51b81526004016200022c9062000703565b6200038060008383620004f3565b806002600082825462000394919062000743565b90915550506001600160a01b03821660009081526020819052604081208054839290620003c390849062000743565b90915550506040516001600160a01b038316906000906000805160206200253483398151915290620003f79085906200073a565b60405180910390a36200040d60008383620004f3565b5050565b6200041b62000304565b6001600160a01b03166200042e620004f8565b6001600160a01b031614620004575760405162461bcd60e51b81526004016200022c90620006ce565b6001600160a01b03811660009081526013602052604090205460ff1615620004935760405162461bcd60e51b81526004016200022c9062000697565b6001600160a01b03811660009081526013602052604090819020805460ff19166001179055517f7e35d6b74d35c333860340884eeca4e63b18cb9d73ce17a147a1952654365b5e90620004e890839062000626565b60405180910390a150565b505050565b6005546001600160a01b031690565b8280546200051590620008c5565b90600052602060002090601f01602090048101928262000539576000855562000584565b82601f106200055457805160ff191683800117855562000584565b8280016001018555821562000584579182015b828111156200058457825182559160200191906001019062000567565b506200059292915062000596565b5090565b5b8082111562000592576000815560010162000597565b80516001600160a01b0381168114620005c557600080fd5b919050565b60008060008060808587031215620005e0578384fd5b620005eb85620005ad565b9350620005fb60208601620005ad565b92506200060b60408601620005ad565b91506200061b60608601620005ad565b905092959194509250565b6001600160a01b0391909116815260200190565b6020808252603b908201527f4c49515549444954592f524557415244532f54524541535552592f5445414d2060408201527f504f4f4c20414444524553532043414e4e4f54204245205a45524f0000000000606082015260800190565b6020808252601c908201527f4163636f756e7420697320616c7265616479206578636c756465642e00000000604082015260600190565b6020808252818101527f4f776e61626c653a2063616c6c6572206973206e6f7420746865206f776e6572604082015260600190565b6020808252601f908201527f45524332303a206d696e7420746f20746865207a65726f206164647265737300604082015260600190565b90815260200190565b6000821982111562000759576200075962000902565b500190565b80825b6001808611620007725750620007a2565b81870482111562000787576200078762000902565b808616156200079557918102915b9490941c93800262000761565b94509492505050565b6000620007bf60001960ff851684620007c6565b9392505050565b600082620007d757506001620007bf565b81620007e657506000620007bf565b8160018114620007ff57600281146200080a576200083e565b6001915050620007bf565b60ff8411156200081e576200081e62000902565b6001841b91508482111562000837576200083762000902565b50620007bf565b5060208310610133831016604e8410600b841016171562000876575081810a8381111562000870576200087062000902565b620007bf565b6200088584848460016200075e565b8086048211156200089a576200089a62000902565b02949350505050565b6000816000190483118215151615620008c057620008c062000902565b500290565b600281046001821680620008da57607f821691505b60208210811415620008fc57634e487b7160e01b600052602260045260246000fd5b50919050565b634e487b7160e01b600052601160045260246000fd5b611bec80620009286000396000f3fe6080604052600436106101fd5760003560e01c80638f859c551161010d578063c76cf14a116100a0578063d89293421161006f578063d89293421461057c578063daa933411461059c578063dd3cdf6c146105bc578063dd62ed3e146105dc578063f2fde38b146105fc57610204565b8063c76cf14a14610512578063cc32d17614610532578063d6b4212b14610547578063d7c94efd1461056757610204565b8063a4f35b65116100dc578063a4f35b651461049d578063a9059cbb146104b2578063addacb9e146104d2578063b14a1e8e146104f257610204565b80638f859c5514610428578063904d8f681461044857806395d89b4114610468578063a457c2d71461047d57610204565b80632deef2841161019057806354f12f1f1161015f57806354f12f1f1461039c5780636653a340146103b157806370a08231146103d1578063715018a6146103f15780638da5cb5b1461040657610204565b80632deef28414610327578063313ce56714610347578063395093511461035c5780635342acb41461037c57610204565b806318160ddd116101cc57806318160ddd146102a35780631cdd3be3146102c557806323b872dd146102e55780632bb14e1d1461030557610204565b806306fdde0314610209578063095ea7b3146102345780631519f1f01461026157806315d957d31461028357610204565b3661020457005b600080fd5b34801561021557600080fd5b5061021e61061c565b60405161022b91906116b2565b60405180910390f35b34801561024057600080fd5b5061025461024f36600461162f565b6106ae565b60405161022b91906116a7565b34801561026d57600080fd5b5061028161027c366004611672565b6106d0565b005b34801561028f57600080fd5b5061028161029e36600461156a565b610738565b3480156102af57600080fd5b506102b86107ef565b60405161022b91906119b4565b3480156102d157600080fd5b506102546102e036600461156a565b6107f5565b3480156102f157600080fd5b506102546103003660046115be565b61080a565b34801561031157600080fd5b5061031a610843565b60405161022b91906119bd565b34801561033357600080fd5b50610281610342366004611672565b610853565b34801561035357600080fd5b5061031a6108b2565b34801561036857600080fd5b5061025461037736600461162f565b6108b7565b34801561038857600080fd5b5061025461039736600461156a565b610903565b3480156103a857600080fd5b5061031a610921565b3480156103bd57600080fd5b506102816103cc36600461156a565b610931565b3480156103dd57600080fd5b506102b86103ec36600461156a565b610992565b3480156103fd57600080fd5b506102816109ad565b34801561041257600080fd5b5061041b6109f8565b60405161022b9190611693565b34801561043457600080fd5b5061028161044336600461165a565b610a07565b34801561045457600080fd5b50610281610463366004611672565b610a4b565b34801561047457600080fd5b5061021e610aaa565b34801561048957600080fd5b5061025461049836600461162f565b610ab9565b3480156104a957600080fd5b506102b8610b25565b3480156104be57600080fd5b506102546104cd36600461162f565b610b2b565b3480156104de57600080fd5b506102816104ed366004611672565b610b48565b3480156104fe57600080fd5b5061028161050d36600461156a565b610ba7565b34801561051e57600080fd5b5061028161052d36600461156a565b610c08565b34801561053e57600080fd5b5061031a610c69565b34801561055357600080fd5b5061028161056236600461156a565b610c79565b34801561057357600080fd5b5061031a610d4f565b34801561058857600080fd5b506102816105973660046115fe565b610d5f565b3480156105a857600080fd5b506102816105b736600461156a565b610dc9565b3480156105c857600080fd5b506102816105d736600461156a565b610e90565b3480156105e857600080fd5b506102b86105f7366004611586565b610ef7565b34801561060857600080fd5b5061028161061736600461156a565b610f22565b60606003805461062b90611b50565b80601f016020809104026020016040519081016040528092919081815260200182805461065790611b50565b80156106a45780601f10610679576101008083540402835291602001916106a4565b820191906000526020600020905b81548152906001019060200180831161068757829003601f168201915b5050505050905090565b6000806106b9610f93565b90506106c6818585610f97565b5060019392505050565b6106d8610f93565b6001600160a01b03166106e96109f8565b6001600160a01b0316146107185760405162461bcd60e51b815260040161070f906118b1565b60405180910390fd5b6010805460ff909216600160a01b0260ff60a01b19909216919091179055565b610740610f93565b6001600160a01b03166107516109f8565b6001600160a01b0316146107775760405162461bcd60e51b815260040161070f906118b1565b6001600160a01b03811661079d5760405162461bcd60e51b815260040161070f90611705565b600d5460ff16156107ad57600080fd5b601080546001600160a01b0319166001600160a01b038381169190911791829055600c546107de9290911690610b2b565b5050600d805460ff19166001179055565b600a5490565b60126020526000908152604090205460ff1681565b6000610814610f93565b6001600160a01b0316846001600160a01b03161461083157600080fd5b6106c684848461104b565b9392505050565b601054600160a81b900460ff1681565b61085b610f93565b6001600160a01b031661086c6109f8565b6001600160a01b0316146108925760405162461bcd60e51b815260040161070f906118b1565b6010805460ff909216600160b01b0260ff60b01b19909216919091179055565b601290565b6000806108c2610f93565b6001600160a01b038082166000908152600160209081526040808320938916835292905220549091506106c690829086906108fe9087906119cb565b610f97565b6001600160a01b031660009081526013602052604090205460ff1690565b601054600160a01b900460ff1681565b610939610f93565b6001600160a01b031661094a6109f8565b6001600160a01b0316146109705760405162461bcd60e51b815260040161070f906118b1565b600e80546001600160a01b0319166001600160a01b0392909216919091179055565b6001600160a01b031660009081526020819052604090205490565b6109b5610f93565b6001600160a01b03166109c66109f8565b6001600160a01b0316146109ec5760405162461bcd60e51b815260040161070f906118b1565b6109f66000611287565b565b6005546001600160a01b031690565b610a0f610f93565b6001600160a01b0316610a206109f8565b6001600160a01b031614610a465760405162461bcd60e51b815260040161070f906118b1565b600b55565b610a53610f93565b6001600160a01b0316610a646109f8565b6001600160a01b031614610a8a5760405162461bcd60e51b815260040161070f906118b1565b6010805460ff909216600160b81b0260ff60b81b19909216919091179055565b60606004805461062b90611b50565b600080610ac4610f93565b6001600160a01b0380821660009081526001602090815260408083209389168352929052205490915083811015610b0d5760405162461bcd60e51b815260040161070f9061196f565b610b1a8286868403610f97565b506001949350505050565b60115481565b6000610b3f610b38610f93565b848461104b565b50600192915050565b610b50610f93565b6001600160a01b0316610b616109f8565b6001600160a01b031614610b875760405162461bcd60e51b815260040161070f906118b1565b6010805460ff909216600160a81b0260ff60a81b19909216919091179055565b610baf610f93565b6001600160a01b0316610bc06109f8565b6001600160a01b031614610be65760405162461bcd60e51b815260040161070f906118b1565b600f80546001600160a01b0319166001600160a01b0392909216919091179055565b610c10610f93565b6001600160a01b0316610c216109f8565b6001600160a01b031614610c475760405162461bcd60e51b815260040161070f906118b1565b601080546001600160a01b0319166001600160a01b0392909216919091179055565b601054600160b01b900460ff1681565b610c81610f93565b6001600160a01b0316610c926109f8565b6001600160a01b031614610cb85760405162461bcd60e51b815260040161070f906118b1565b6001600160a01b03811660009081526013602052604090205460ff1615610cf15760405162461bcd60e51b815260040161070f9061184d565b6001600160a01b03811660009081526013602052604090819020805460ff19166001179055517f7e35d6b74d35c333860340884eeca4e63b18cb9d73ce17a147a1952654365b5e90610d44908390611693565b60405180910390a150565b601054600160b81b900460ff1681565b610d67610f93565b6001600160a01b0316610d786109f8565b6001600160a01b031614610d9e5760405162461bcd60e51b815260040161070f906118b1565b6001600160a01b03919091166000908152601260205260409020805460ff1916911515919091179055565b610dd1610f93565b6001600160a01b0316610de26109f8565b6001600160a01b031614610e085760405162461bcd60e51b815260040161070f906118b1565b6001600160a01b03811660009081526013602052604090205460ff16610e405760405162461bcd60e51b815260040161070f906117d0565b6001600160a01b03811660009081526013602052604090819020805460ff19169055517fc782889d4eb26c6effaa6305a7075c22c2a6e2919ddf49a4a851fecf59cfc75f90610d44908390611693565b610e98610f93565b6001600160a01b0316610ea96109f8565b6001600160a01b031614610ecf5760405162461bcd60e51b815260040161070f906118b1565b600d80546001600160a01b0390921661010002610100600160a81b0319909216919091179055565b6001600160a01b03918216600090815260016020908152604080832093909416825291909152205490565b610f2a610f93565b6001600160a01b0316610f3b6109f8565b6001600160a01b031614610f615760405162461bcd60e51b815260040161070f906118b1565b6001600160a01b038116610f875760405162461bcd60e51b815260040161070f90611748565b610f9081611287565b50565b3390565b6001600160a01b038316610fbd5760405162461bcd60e51b815260040161070f9061192b565b6001600160a01b038216610fe35760405162461bcd60e51b815260040161070f9061178e565b6001600160a01b0380841660008181526001602090815260408083209487168084529490915290819020849055517f8c5be1e5ebec7d5bd14f71427d1e84f3dd0314c0f7b2291e5b200ac8c7c3b9259061103e9085906119b4565b60405180910390a3505050565b6001600160a01b0383166110715760405162461bcd60e51b815260040161070f906118e6565b6001600160a01b0382166110975760405162461bcd60e51b815260040161070f90611705565b6001600160a01b03831660009081526012602052604090205460ff161580156110d957506001600160a01b03821660009081526012602052604090205460ff16155b6110f55760405162461bcd60e51b815260040161070f90611884565b6001600160a01b03831660009081526013602052604090205460ff166111245760115481101561112457600080fd5b6001600160a01b0383166000908152601360205260408120546001919061114f90849060ff166112d9565b6001600160a01b03861660009081526013602052604090205490915060ff168061119157506001600160a01b03841660009081526013602052604090205460ff165b1561119b57600091505b828215611229575060a0810151600f5460608301516111c79188916001600160a01b03909116906112f6565b600e5460408301516111e69188916001600160a01b03909116906112f6565b60105460808301516112059188916001600160a01b03909116906112f6565b61122986600d60019054906101000a90046001600160a01b031684602001516112f6565b6112348686836112f6565b846001600160a01b0316866001600160a01b03167fddf252ad1be2c89b69c2b068fc378daa952ba7f163c4a11628f55a4df523b3ef8360405161127791906119b4565b60405180910390a3505050505050565b600580546001600160a01b038381166001600160a01b0319831681179093556040519116919082907f8be0079c531659141344cd1fd0a4f28419497f9722a3daafe3b4186f6b6457e090600090a35050565b6112e1611534565b6112e9611534565b83815261083c8184611420565b6001600160a01b03831661131c5760405162461bcd60e51b815260040161070f906118e6565b6001600160a01b0382166113425760405162461bcd60e51b815260040161070f90611705565b61134d8383836114f7565b6001600160a01b038316600090815260208190526040902054818110156113865760405162461bcd60e51b815260040161070f90611807565b6001600160a01b038085166000908152602081905260408082208585039055918516815290812080548492906113bd9084906119cb565b92505081905550826001600160a01b0316846001600160a01b03167fddf252ad1be2c89b69c2b068fc378daa952ba7f163c4a11628f55a4df523b3ef8460405161140791906119b4565b60405180910390a361141a8484846114f7565b50505050565b801561143257815160a08301526114f3565b815160105461144d9190600160a81b900460ff1660006114fc565b6040830152815160105461146d9190600160a01b900460ff1660006114fc565b6020830152815160105461148d9190600160b01b900460ff1660006114fc565b606083015281516010546114ad9190600160b81b900460ff1660006114fc565b6080830181905260608301516020840151604085015185516114cf9190611b39565b6114d99190611b39565b6114e39190611b39565b6114ed9190611b39565b60a08301525b5050565b505050565b6000606461150b83600a611a49565b61151860ff861687611b1a565b61152291906119e3565b61152c91906119e3565b949350505050565b6040518060c001604052806000815260200160008152602001600081526020016000815260200160008152602001600081525090565b60006020828403121561157b578081fd5b813561083c81611ba1565b60008060408385031215611598578081fd5b82356115a381611ba1565b915060208301356115b381611ba1565b809150509250929050565b6000806000606084860312156115d2578081fd5b83356115dd81611ba1565b925060208401356115ed81611ba1565b929592945050506040919091013590565b60008060408385031215611610578182fd5b823561161b81611ba1565b9150602083013580151581146115b3578182fd5b60008060408385031215611641578182fd5b823561164c81611ba1565b946020939093013593505050565b60006020828403121561166b578081fd5b5035919050565b600060208284031215611683578081fd5b813560ff8116811461083c578182fd5b6001600160a01b0391909116815260200190565b901515815260200190565b6000602080835283518082850152825b818110156116de578581018301518582016040015282016116c2565b818111156116ef5783604083870101525b50601f01601f1916929092016040019392505050565b60208082526023908201527f45524332303a207472616e7366657220746f20746865207a65726f206164647260408201526265737360e81b606082015260800190565b60208082526026908201527f4f776e61626c653a206e6577206f776e657220697320746865207a65726f206160408201526564647265737360d01b606082015260800190565b60208082526022908201527f45524332303a20617070726f766520746f20746865207a65726f206164647265604082015261737360f01b606082015260800190565b6020808252601c908201527f4163636f756e7420697320616c726561647920696e636c756465642e00000000604082015260600190565b60208082526026908201527f45524332303a207472616e7366657220616d6f756e7420657863656564732062604082015265616c616e636560d01b606082015260800190565b6020808252601c908201527f4163636f756e7420697320616c7265616479206578636c756465642e00000000604082015260600190565b602080825260139082015272426c61636b6c6973746564206164647265737360681b604082015260600190565b6020808252818101527f4f776e61626c653a2063616c6c6572206973206e6f7420746865206f776e6572604082015260600190565b60208082526025908201527f45524332303a207472616e736665722066726f6d20746865207a65726f206164604082015264647265737360d81b606082015260800190565b60208082526024908201527f45524332303a20617070726f76652066726f6d20746865207a65726f206164646040820152637265737360e01b606082015260800190565b60208082526025908201527f45524332303a2064656372656173656420616c6c6f77616e63652062656c6f77604082015264207a65726f60d81b606082015260800190565b90815260200190565b60ff91909116815260200190565b600082198211156119de576119de611b8b565b500190565b6000826119fe57634e487b7160e01b81526012600452602481fd5b500490565b80825b6001808611611a155750611a40565b818704821115611a2757611a27611b8b565b80861615611a3457918102915b9490941c938002611a06565b94509492505050565b600061083c60001960ff851684600082611a655750600161083c565b81611a725750600061083c565b8160018114611a885760028114611a9257611abf565b600191505061083c565b60ff841115611aa357611aa3611b8b565b6001841b915084821115611ab957611ab9611b8b565b5061083c565b5060208310610133831016604e8410600b8410161715611af2575081810a83811115611aed57611aed611b8b565b61083c565b611aff8484846001611a03565b808604821115611b1157611b11611b8b565b02949350505050565b6000816000190483118215151615611b3457611b34611b8b565b500290565b600082821015611b4b57611b4b611b8b565b500390565b600281046001821680611b6457607f821691505b60208210811415611b8557634e487b7160e01b600052602260045260246000fd5b50919050565b634e487b7160e01b600052601160045260246000fd5b6001600160a01b0381168114610f9057600080fdfea264697066735822122043fad39100e79b586d6bb6799ddda81ea37dad0d163e1fa1dd14f2096504fd0764736f6c634300080000338be0079c531659141344cd1fd0a4f28419497f9722a3daafe3b4186f6b6457e0ddf252ad1be2c89b69c2b068fc378daa952ba7f163c4a11628f55a4df523b3ef",
  "linkReferences": {},
  "deployedLinkReferences": {}
}