{
  "_format": "hh-sol-artifact-1",
  "contractName": "PeachToken",
  "sourceName": "contracts/PeachToken.sol",
  "abi": [
    {
      "inputs": [
        {
          "internalType": "address payable",
          "name": "_liquidityPool",
          "type": "address"
        },
        {
          "internalType": "address payable",
          "name": "_rewardsPool",
          "type": "address"
        },
        {
          "internalType": "address payable",
          "name": "_treasuryPool",
          "type": "address"
        },
        {
          "internalType": "address payable",
          "name": "_teamPool",
          "type": "address"
        }
      ],
      "stateMutability": "nonpayable",
      "type": "constructor"
    },
    {
      "anonymous": false,
      "inputs": [
        {
          "indexed": true,
          "internalType": "address",
          "name": "owner",
          "type": "address"
        },
        {
          "indexed": true,
          "internalType": "address",
          "name": "spender",
          "type": "address"
        },
        {
          "indexed": false,
          "internalType": "uint256",
          "name": "value",
          "type": "uint256"
        }
      ],
      "name": "Approval",
      "type": "event"
    },
    {
      "anonymous": false,
      "inputs": [
        {
          "indexed": false,
          "internalType": "address",
          "name": "account",
          "type": "address"
        }
      ],
      "name": "ExcludeAccountFromFee",
      "type": "event"
    },
    {
      "anonymous": false,
      "inputs": [
        {
          "indexed": false,
          "internalType": "address",
          "name": "account",
          "type": "address"
        }
      ],
      "name": "IncludeAccountInFee",
      "type": "event"
    },
    {
      "anonymous": false,
      "inputs": [
        {
          "indexed": true,
          "internalType": "address",
          "name": "previousOwner",
          "type": "address"
        },
        {
          "indexed": true,
          "internalType": "address",
          "name": "newOwner",
          "type": "address"
        }
      ],
      "name": "OwnershipTransferred",
      "type": "event"
    },
    {
      "anonymous": false,
      "inputs": [
        {
          "indexed": true,
          "internalType": "address",
          "name": "from",
          "type": "address"
        },
        {
          "indexed": true,
          "internalType": "address",
          "name": "to",
          "type": "address"
        },
        {
          "indexed": false,
          "internalType": "uint256",
          "name": "value",
          "type": "uint256"
        }
      ],
      "name": "Transfer",
      "type": "event"
    },
    {
      "inputs": [
        {
          "internalType": "address",
          "name": "",
          "type": "address"
        }
      ],
      "name": "_isBlacklisted",
      "outputs": [
        {
          "internalType": "bool",
          "name": "",
          "type": "bool"
        }
      ],
      "stateMutability": "view",
      "type": "function"
    },
    {
      "inputs": [
        {
          "internalType": "address",
          "name": "owner",
          "type": "address"
        },
        {
          "internalType": "address",
          "name": "spender",
          "type": "address"
        }
      ],
      "name": "allowance",
      "outputs": [
        {
          "internalType": "uint256",
          "name": "",
          "type": "uint256"
        }
      ],
      "stateMutability": "view",
      "type": "function"
    },
    {
      "inputs": [
        {
          "internalType": "address",
          "name": "spender",
          "type": "address"
        },
        {
          "internalType": "uint256",
          "name": "amount",
          "type": "uint256"
        }
      ],
      "name": "approve",
      "outputs": [
        {
          "internalType": "bool",
          "name": "",
          "type": "bool"
        }
      ],
      "stateMutability": "nonpayable",
      "type": "function"
    },
    {
      "inputs": [
        {
          "internalType": "address",
          "name": "account",
          "type": "address"
        }
      ],
      "name": "balanceOf",
      "outputs": [
        {
          "internalType": "uint256",
          "name": "",
          "type": "uint256"
        }
      ],
      "stateMutability": "view",
      "type": "function"
    },
    {
      "inputs": [
        {
          "internalType": "address",
          "name": "account",
          "type": "address"
        },
        {
          "internalType": "bool",
          "name": "value",
          "type": "bool"
        }
      ],
      "name": "blacklistMalicious",
      "outputs": [],
      "stateMutability": "nonpayable",
      "type": "function"
    },
    {
      "inputs": [],
      "name": "decimals",
      "outputs": [
        {
          "internalType": "uint8",
          "name": "",
          "type": "uint8"
        }
      ],
      "stateMutability": "view",
      "type": "function"
    },
    {
      "inputs": [
        {
          "internalType": "address",
          "name": "spender",
          "type": "address"
        },
        {
          "internalType": "uint256",
          "name": "subtractedValue",
          "type": "uint256"
        }
      ],
      "name": "decreaseAllowance",
      "outputs": [
        {
          "internalType": "bool",
          "name": "",
          "type": "bool"
        }
      ],
      "stateMutability": "nonpayable",
      "type": "function"
    },
    {
      "inputs": [
        {
          "internalType": "address",
          "name": "account",
          "type": "address"
        }
      ],
      "name": "excludeAccountFromFee",
      "outputs": [],
      "stateMutability": "nonpayable",
      "type": "function"
    },
    {
      "inputs": [
        {
          "internalType": "address",
          "name": "account",
          "type": "address"
        }
      ],
      "name": "includeAccountInFee",
      "outputs": [],
      "stateMutability": "nonpayable",
      "type": "function"
    },
    {
      "inputs": [
        {
          "internalType": "address",
          "name": "spender",
          "type": "address"
        },
        {
          "internalType": "uint256",
          "name": "addedValue",
          "type": "uint256"
        }
      ],
      "name": "increaseAllowance",
      "outputs": [
        {
          "internalType": "bool",
          "name": "",
          "type": "bool"
        }
      ],
      "stateMutability": "nonpayable",
      "type": "function"
    },
    {
      "inputs": [
        {
          "internalType": "address",
          "name": "account",
          "type": "address"
        }
      ],
      "name": "isExcludedFromFee",
      "outputs": [
        {
          "internalType": "bool",
          "name": "",
          "type": "bool"
        }
      ],
      "stateMutability": "view",
      "type": "function"
    },
    {
      "inputs": [],
      "name": "liquidityPoolFee",
      "outputs": [
        {
          "internalType": "uint8",
          "name": "",
          "type": "uint8"
        }
      ],
      "stateMutability": "view",
      "type": "function"
    },
    {
      "inputs": [
        {
          "internalType": "address payable",
          "name": "recipient",
          "type": "address"
        }
      ],
      "name": "lockInTeamWallet",
      "outputs": [],
      "stateMutability": "nonpayable",
      "type": "function"
    },
    {
      "inputs": [],
      "name": "name",
      "outputs": [
        {
          "internalType": "string",
          "name": "",
          "type": "string"
        }
      ],
      "stateMutability": "view",
      "type": "function"
    },
    {
      "inputs": [],
      "name": "owner",
      "outputs": [
        {
          "internalType": "address",
          "name": "",
          "type": "address"
        }
      ],
      "stateMutability": "view",
      "type": "function"
    },
    {
      "inputs": [],
      "name": "renounceOwnership",
      "outputs": [],
      "stateMutability": "nonpayable",
      "type": "function"
    },
    {
      "inputs": [],
      "name": "rewardsFee",
      "outputs": [
        {
          "internalType": "uint8",
          "name": "",
          "type": "uint8"
        }
      ],
      "stateMutability": "view",
      "type": "function"
    },
    {
      "inputs": [],
      "name": "symbol",
      "outputs": [
        {
          "internalType": "string",
          "name": "",
          "type": "string"
        }
      ],
      "stateMutability": "view",
      "type": "function"
    },
    {
      "inputs": [],
      "name": "teamFee",
      "outputs": [
        {
          "internalType": "uint8",
          "name": "",
          "type": "uint8"
        }
      ],
      "stateMutability": "view",
      "type": "function"
    },
    {
      "inputs": [],
      "name": "totalSupply",
      "outputs": [
        {
          "internalType": "uint256",
          "name": "",
          "type": "uint256"
        }
      ],
      "stateMutability": "view",
      "type": "function"
    },
    {
      "inputs": [
        {
          "internalType": "address",
          "name": "recipient",
          "type": "address"
        },
        {
          "internalType": "uint256",
          "name": "amount",
          "type": "uint256"
        }
      ],
      "name": "transfer",
      "outputs": [
        {
          "internalType": "bool",
          "name": "",
          "type": "bool"
        }
      ],
      "stateMutability": "nonpayable",
      "type": "function"
    },
    {
      "inputs": [
        {
          "internalType": "address",
          "name": "sender",
          "type": "address"
        },
        {
          "internalType": "address",
          "name": "recipient",
          "type": "address"
        },
        {
          "internalType": "uint256",
          "name": "amount",
          "type": "uint256"
        }
      ],
      "name": "transferFrom",
      "outputs": [
        {
          "internalType": "bool",
          "name": "",
          "type": "bool"
        }
      ],
      "stateMutability": "nonpayable",
      "type": "function"
    },
    {
      "inputs": [
        {
          "internalType": "address",
          "name": "newOwner",
          "type": "address"
        }
      ],
      "name": "transferOwnership",
      "outputs": [],
      "stateMutability": "nonpayable",
      "type": "function"
    },
    {
      "inputs": [],
      "name": "treasuryFee",
      "outputs": [
        {
          "internalType": "uint8",
          "name": "",
          "type": "uint8"
        }
      ],
      "stateMutability": "view",
      "type": "function"
    },
    {
      "inputs": [
        {
          "internalType": "uint8",
          "name": "value",
          "type": "uint8"
        }
      ],
      "name": "updateLiquidityFee",
      "outputs": [],
      "stateMutability": "nonpayable",
      "type": "function"
    },
    {
      "inputs": [
        {
          "internalType": "address payable",
          "name": "pool",
          "type": "address"
        }
      ],
      "name": "updateLiquidityPool",
      "outputs": [],
      "stateMutability": "nonpayable",
      "type": "function"
    },
    {
      "inputs": [
        {
          "internalType": "uint8",
          "name": "value",
          "type": "uint8"
        }
      ],
      "name": "updateRewardsFee",
      "outputs": [],
      "stateMutability": "nonpayable",
      "type": "function"
    },
    {
      "inputs": [
        {
          "internalType": "address payable",
          "name": "pool",
          "type": "address"
        }
      ],
      "name": "updateRewardsPool",
      "outputs": [],
      "stateMutability": "nonpayable",
      "type": "function"
    },
    {
      "inputs": [
        {
          "internalType": "uint256",
          "name": "val",
          "type": "uint256"
        }
      ],
      "name": "updateTeamPoolAlloc",
      "outputs": [],
      "stateMutability": "nonpayable",
      "type": "function"
    },
    {
      "inputs": [
        {
          "internalType": "uint8",
          "name": "value",
          "type": "uint8"
        }
      ],
      "name": "updateTreasuryFee",
      "outputs": [],
      "stateMutability": "nonpayable",
      "type": "function"
    },
    {
      "inputs": [
        {
          "internalType": "address payable",
          "name": "pool",
          "type": "address"
        }
      ],
      "name": "updateTreasuryPool",
      "outputs": [],
      "stateMutability": "nonpayable",
      "type": "function"
    },
    {
      "inputs": [
        {
          "internalType": "uint8",
          "name": "value",
          "type": "uint8"
        }
      ],
      "name": "updateteamFee",
      "outputs": [],
      "stateMutability": "nonpayable",
      "type": "function"
    },
    {
      "inputs": [
        {
          "internalType": "address payable",
          "name": "pool",
          "type": "address"
        }
      ],
      "name": "updateteamPool",
      "outputs": [],
      "stateMutability": "nonpayable",
      "type": "function"
    },
    {
      "stateMutability": "payable",
      "type": "receive"
    }
  ],
  "bytecode": "0x6080604052621e84806008556009805460ff1916601217908190556200002a9060ff16600a62000691565b60085462000039919062000789565b600a908155620186a0600b55600954620000599160ff9091169062000691565b600b5462000068919062000789565b600c556010805460ff60a01b1916600160a21b1760ff60a81b1916600360aa1b1760ff60b01b1916600f60b11b1760ff60b81b1916600160ba1b179055348015620000b257600080fd5b50604051620022e9380380620022e9833981016040819052620000d59162000502565b604080518082018252600a8152695045414348204e4f444560b01b6020808301918252835180850190945260058452640a08a8286960db1b90840152815191929162000124916003916200043f565b5080516200013a9060049060208401906200043f565b50505062000157620001516200030960201b60201c565b6200030d565b6001600655600d80546001600160a01b03199081166001600160a01b038781169190911792839055600e80548316878316179055600f8054831686831617905560108054909216848216179091551615801590620001bf5750600e546001600160a01b031615155b8015620001d65750600f546001600160a01b031615155b8015620001ed57506010546001600160a01b031615155b620002155760405162461bcd60e51b81526004016200020c9062000572565b60405180910390fd5b600a54600760006200022662000309565b6001600160a01b031681526020810191909152604001600020556200024b336200034e565b62000256306200034e565b6010546200026d906001600160a01b03166200034e565b6200027762000309565b6001600160a01b031660006001600160a01b03167fddf252ad1be2c89b69c2b068fc378daa952ba7f163c4a11628f55a4df523b3ef600a54604051620002be91906200063b565b60405180910390a3620002d062000309565b6001600160a01b031660006001600160a01b0316600080516020620022c983398151915260405160405180910390a350505050620007fe565b3390565b600580546001600160a01b038381166001600160a01b031983168117909355604051911691908290600080516020620022c983398151915290600090a35050565b6200035862000309565b6001600160a01b03166200036b62000430565b6001600160a01b031614620003945760405162461bcd60e51b81526004016200020c9062000606565b6001600160a01b03811660009081526012602052604090205460ff1615620003d05760405162461bcd60e51b81526004016200020c90620005cf565b6001600160a01b03811660009081526012602052604090819020805460ff19166001179055517f7e35d6b74d35c333860340884eeca4e63b18cb9d73ce17a147a1952654365b5e90620004259083906200055e565b60405180910390a150565b6005546001600160a01b031690565b8280546200044d90620007ab565b90600052602060002090601f016020900481019282620004715760008555620004bc565b82601f106200048c57805160ff1916838001178555620004bc565b82800160010185558215620004bc579182015b82811115620004bc5782518255916020019190600101906200049f565b50620004ca929150620004ce565b5090565b5b80821115620004ca5760008155600101620004cf565b80516001600160a01b0381168114620004fd57600080fd5b919050565b6000806000806080858703121562000518578384fd5b6200052385620004e5565b93506200053360208601620004e5565b92506200054360408601620004e5565b91506200055360608601620004e5565b905092959194509250565b6001600160a01b0391909116815260200190565b6020808252603b908201527f4c49515549444954592f524557415244532f54524541535552592f5445414d2060408201527f504f4f4c20414444524553532043414e4e4f54204245205a45524f0000000000606082015260800190565b6020808252601c908201527f4163636f756e7420697320616c7265616479206578636c756465642e00000000604082015260600190565b6020808252818101527f4f776e61626c653a2063616c6c6572206973206e6f7420746865206f776e6572604082015260600190565b90815260200190565b80825b600180861162000658575062000688565b8187048211156200066d576200066d620007e8565b808616156200067b57918102915b9490941c93800262000647565b94509492505050565b6000620006a560001960ff851684620006ac565b9392505050565b600082620006bd57506001620006a5565b81620006cc57506000620006a5565b8160018114620006e55760028114620006f05762000724565b6001915050620006a5565b60ff841115620007045762000704620007e8565b6001841b9150848211156200071d576200071d620007e8565b50620006a5565b5060208310610133831016604e8410600b84101617156200075c575081810a83811115620007565762000756620007e8565b620006a5565b6200076b848484600162000644565b808604821115620007805762000780620007e8565b02949350505050565b6000816000190483118215151615620007a657620007a6620007e8565b500290565b600281046001821680620007c057607f821691505b60208210811415620007e257634e487b7160e01b600052602260045260246000fd5b50919050565b634e487b7160e01b600052601160045260246000fd5b611abb806200080e6000396000f3fe6080604052600436106101f25760003560e01c80638da5cb5b1161010d578063c76cf14a116100a0578063d89293421161006f578063d89293421461055c578063daa933411461057c578063dd3cdf6c1461059c578063dd62ed3e146105bc578063f2fde38b146105dc576101f9565b8063c76cf14a146104f2578063cc32d17614610512578063d6b4212b14610527578063d7c94efd14610547576101f9565b8063a457c2d7116100dc578063a457c2d714610472578063a9059cbb14610492578063addacb9e146104b2578063b14a1e8e146104d2576101f9565b80638da5cb5b146103fb5780638f859c551461041d578063904d8f681461043d57806395d89b411461045d576101f9565b80632deef2841161018557806354f12f1f1161015457806354f12f1f146103915780636653a340146103a657806370a08231146103c6578063715018a6146103e6576101f9565b80632deef2841461031c578063313ce5671461033c57806339509351146103515780635342acb414610371576101f9565b806318160ddd116101c157806318160ddd146102985780631cdd3be3146102ba57806323b872dd146102da5780632bb14e1d146102fa576101f9565b806306fdde03146101fe578063095ea7b3146102295780631519f1f01461025657806315d957d314610278576101f9565b366101f957005b600080fd5b34801561020a57600080fd5b506102136105fc565b60405161022091906115c7565b60405180910390f35b34801561023557600080fd5b50610249610244366004611544565b61068e565b60405161022091906115bc565b34801561026257600080fd5b50610276610271366004611587565b6106b0565b005b34801561028457600080fd5b5061027661029336600461147f565b610718565b3480156102a457600080fd5b506102ad6107f4565b6040516102209190611883565b3480156102c657600080fd5b506102496102d536600461147f565b6107fa565b3480156102e657600080fd5b506102496102f53660046114d3565b61080f565b34801561030657600080fd5b5061030f610823565b604051610220919061188c565b34801561032857600080fd5b50610276610337366004611587565b610833565b34801561034857600080fd5b5061030f610892565b34801561035d57600080fd5b5061024961036c366004611544565b610897565b34801561037d57600080fd5b5061024961038c36600461147f565b6108e3565b34801561039d57600080fd5b5061030f610901565b3480156103b257600080fd5b506102766103c136600461147f565b610911565b3480156103d257600080fd5b506102ad6103e136600461147f565b610972565b3480156103f257600080fd5b5061027661098d565b34801561040757600080fd5b506104106109d8565b60405161022091906115a8565b34801561042957600080fd5b5061027661043836600461156f565b6109e7565b34801561044957600080fd5b50610276610458366004611587565b610a2b565b34801561046957600080fd5b50610213610a8a565b34801561047e57600080fd5b5061024961048d366004611544565b610a99565b34801561049e57600080fd5b506102496104ad366004611544565b610b05565b3480156104be57600080fd5b506102766104cd366004611587565b610b22565b3480156104de57600080fd5b506102766104ed36600461147f565b610b81565b3480156104fe57600080fd5b5061027661050d36600461147f565b610be2565b34801561051e57600080fd5b5061030f610c43565b34801561053357600080fd5b5061027661054236600461147f565b610c53565b34801561055357600080fd5b5061030f610d29565b34801561056857600080fd5b50610276610577366004611513565b610d39565b34801561058857600080fd5b5061027661059736600461147f565b610da3565b3480156105a857600080fd5b506102766105b736600461147f565b610e6a565b3480156105c857600080fd5b506102ad6105d736600461149b565b610ecb565b3480156105e857600080fd5b506102766105f736600461147f565b610ef6565b60606003805461060b90611a1f565b80601f016020809104026020016040519081016040528092919081815260200182805461063790611a1f565b80156106845780601f1061065957610100808354040283529160200191610684565b820191906000526020600020905b81548152906001019060200180831161066757829003601f168201915b5050505050905090565b600080610699610f67565b90506106a6818585610f6b565b5060019392505050565b6106b8610f67565b6001600160a01b03166106c96109d8565b6001600160a01b0316146106f85760405162461bcd60e51b81526004016106ef90611780565b60405180910390fd5b6010805460ff909216600160a01b0260ff60a01b19909216919091179055565b610720610f67565b6001600160a01b03166107316109d8565b6001600160a01b0316146107575760405162461bcd60e51b81526004016106ef90611780565b6001600160a01b03811661077d5760405162461bcd60e51b81526004016106ef9061161a565b601080546001600160a01b0319166001600160a01b038316179055600c5433600090815260076020526040812080549091906107ba908490611a08565b9091555050600c546010546001600160a01b0316600090815260076020526040812080549091906107ec90849061189a565b909155505050565b600a5490565b60116020526000908152604090205460ff1681565b60006106a684848461101f565b9392505050565b601054600160a81b900460ff1681565b61083b610f67565b6001600160a01b031661084c6109d8565b6001600160a01b0316146108725760405162461bcd60e51b81526004016106ef90611780565b6010805460ff909216600160b01b0260ff60b01b19909216919091179055565b601290565b6000806108a2610f67565b6001600160a01b038082166000908152600160209081526040808320938916835292905220549091506106a690829086906108de90879061189a565b610f6b565b6001600160a01b031660009081526012602052604090205460ff1690565b601054600160a01b900460ff1681565b610919610f67565b6001600160a01b031661092a6109d8565b6001600160a01b0316146109505760405162461bcd60e51b81526004016106ef90611780565b600e80546001600160a01b0319166001600160a01b0392909216919091179055565b6001600160a01b031660009081526007602052604090205490565b610995610f67565b6001600160a01b03166109a66109d8565b6001600160a01b0316146109cc5760405162461bcd60e51b81526004016106ef90611780565b6109d660006112d0565b565b6005546001600160a01b031690565b6109ef610f67565b6001600160a01b0316610a006109d8565b6001600160a01b031614610a265760405162461bcd60e51b81526004016106ef90611780565b600b55565b610a33610f67565b6001600160a01b0316610a446109d8565b6001600160a01b031614610a6a5760405162461bcd60e51b81526004016106ef90611780565b6010805460ff909216600160b81b0260ff60b81b19909216919091179055565b60606004805461060b90611a1f565b600080610aa4610f67565b6001600160a01b0380821660009081526001602090815260408083209389168352929052205490915083811015610aed5760405162461bcd60e51b81526004016106ef9061183e565b610afa8286868403610f6b565b506001949350505050565b6000610b19610b12610f67565b848461101f565b50600192915050565b610b2a610f67565b6001600160a01b0316610b3b6109d8565b6001600160a01b031614610b615760405162461bcd60e51b81526004016106ef90611780565b6010805460ff909216600160a81b0260ff60a81b19909216919091179055565b610b89610f67565b6001600160a01b0316610b9a6109d8565b6001600160a01b031614610bc05760405162461bcd60e51b81526004016106ef90611780565b600f80546001600160a01b0319166001600160a01b0392909216919091179055565b610bea610f67565b6001600160a01b0316610bfb6109d8565b6001600160a01b031614610c215760405162461bcd60e51b81526004016106ef90611780565b601080546001600160a01b0319166001600160a01b0392909216919091179055565b601054600160b01b900460ff1681565b610c5b610f67565b6001600160a01b0316610c6c6109d8565b6001600160a01b031614610c925760405162461bcd60e51b81526004016106ef90611780565b6001600160a01b03811660009081526012602052604090205460ff1615610ccb5760405162461bcd60e51b81526004016106ef9061171c565b6001600160a01b03811660009081526012602052604090819020805460ff19166001179055517f7e35d6b74d35c333860340884eeca4e63b18cb9d73ce17a147a1952654365b5e90610d1e9083906115a8565b60405180910390a150565b601054600160b81b900460ff1681565b610d41610f67565b6001600160a01b0316610d526109d8565b6001600160a01b031614610d785760405162461bcd60e51b81526004016106ef90611780565b6001600160a01b03919091166000908152601160205260409020805460ff1916911515919091179055565b610dab610f67565b6001600160a01b0316610dbc6109d8565b6001600160a01b031614610de25760405162461bcd60e51b81526004016106ef90611780565b6001600160a01b03811660009081526012602052604090205460ff16610e1a5760405162461bcd60e51b81526004016106ef906116e5565b6001600160a01b03811660009081526012602052604090819020805460ff19169055517fc782889d4eb26c6effaa6305a7075c22c2a6e2919ddf49a4a851fecf59cfc75f90610d1e9083906115a8565b610e72610f67565b6001600160a01b0316610e836109d8565b6001600160a01b031614610ea95760405162461bcd60e51b81526004016106ef90611780565b600d80546001600160a01b0319166001600160a01b0392909216919091179055565b6001600160a01b03918216600090815260016020908152604080832093909416825291909152205490565b610efe610f67565b6001600160a01b0316610f0f6109d8565b6001600160a01b031614610f355760405162461bcd60e51b81526004016106ef90611780565b6001600160a01b038116610f5b5760405162461bcd60e51b81526004016106ef9061165d565b610f64816112d0565b50565b3390565b6001600160a01b038316610f915760405162461bcd60e51b81526004016106ef906117fa565b6001600160a01b038216610fb75760405162461bcd60e51b81526004016106ef906116a3565b6001600160a01b0380841660008181526001602090815260408083209487168084529490915290819020849055517f8c5be1e5ebec7d5bd14f71427d1e84f3dd0314c0f7b2291e5b200ac8c7c3b92590611012908590611883565b60405180910390a3505050565b6001600160a01b0383166110455760405162461bcd60e51b81526004016106ef906117b5565b6001600160a01b03821661106b5760405162461bcd60e51b81526004016106ef9061161a565b6001600160a01b03831660009081526011602052604090205460ff161580156110ad57506001600160a01b03821660009081526011602052604090205460ff16155b6110c95760405162461bcd60e51b81526004016106ef90611753565b6001600160a01b038316600090815260126020526040812054600191906110f490849060ff16611322565b6001600160a01b03861660009081526012602052604090205490915060ff168061113657506001600160a01b03841660009081526012602052604090205460ff165b1561114057600091505b828215611221575060a08101516060820151600f546001600160a01b03166000908152600760205260408120805490919061117c90849061189a565b9091555050604080830151600e546001600160a01b0316600090815260076020529182208054919290916111b190849061189a565b909155505060808201516010546001600160a01b0316600090815260076020526040812080549091906111e590849061189a565b9091555050602080830151600d546001600160a01b0316600090815260079092526040822080549192909161121b90849061189a565b90915550505b6001600160a01b03861660009081526007602052604081208054869290611249908490611a08565b90915550506001600160a01b0385166000908152600760205260408120805483929061127690849061189a565b92505081905550846001600160a01b0316866001600160a01b03167fddf252ad1be2c89b69c2b068fc378daa952ba7f163c4a11628f55a4df523b3ef836040516112c09190611883565b60405180910390a3505050505050565b600580546001600160a01b038381166001600160a01b0319831681179093556040519116919082907f8be0079c531659141344cd1fd0a4f28419497f9722a3daafe3b4186f6b6457e090600090a35050565b61132a611449565b611332611449565b83815261081c8184801561134c57815160a083015261140d565b81516010546113679190600160a81b900460ff166000611411565b604083015281516010546113879190600160a01b900460ff166000611411565b602083015281516010546113a79190600160b01b900460ff166000611411565b606083015281516010546113c79190600160b81b900460ff166000611411565b6080830181905260608301516020840151604085015185516113e99190611a08565b6113f39190611a08565b6113fd9190611a08565b6114079190611a08565b60a08301525b5050565b6000606461142083600a611918565b61142d60ff8616876119e9565b61143791906118b2565b61144191906118b2565b949350505050565b6040518060c001604052806000815260200160008152602001600081526020016000815260200160008152602001600081525090565b600060208284031215611490578081fd5b813561081c81611a70565b600080604083850312156114ad578081fd5b82356114b881611a70565b915060208301356114c881611a70565b809150509250929050565b6000806000606084860312156114e7578081fd5b83356114f281611a70565b9250602084013561150281611a70565b929592945050506040919091013590565b60008060408385031215611525578182fd5b823561153081611a70565b9150602083013580151581146114c8578182fd5b60008060408385031215611556578182fd5b823561156181611a70565b946020939093013593505050565b600060208284031215611580578081fd5b5035919050565b600060208284031215611598578081fd5b813560ff8116811461081c578182fd5b6001600160a01b0391909116815260200190565b901515815260200190565b6000602080835283518082850152825b818110156115f3578581018301518582016040015282016115d7565b818111156116045783604083870101525b50601f01601f1916929092016040019392505050565b60208082526023908201527f45524332303a207472616e7366657220746f20746865207a65726f206164647260408201526265737360e81b606082015260800190565b60208082526026908201527f4f776e61626c653a206e6577206f776e657220697320746865207a65726f206160408201526564647265737360d01b606082015260800190565b60208082526022908201527f45524332303a20617070726f766520746f20746865207a65726f206164647265604082015261737360f01b606082015260800190565b6020808252601c908201527f4163636f756e7420697320616c726561647920696e636c756465642e00000000604082015260600190565b6020808252601c908201527f4163636f756e7420697320616c7265616479206578636c756465642e00000000604082015260600190565b602080825260139082015272426c61636b6c6973746564206164647265737360681b604082015260600190565b6020808252818101527f4f776e61626c653a2063616c6c6572206973206e6f7420746865206f776e6572604082015260600190565b60208082526025908201527f45524332303a207472616e736665722066726f6d20746865207a65726f206164604082015264647265737360d81b606082015260800190565b60208082526024908201527f45524332303a20617070726f76652066726f6d20746865207a65726f206164646040820152637265737360e01b606082015260800190565b60208082526025908201527f45524332303a2064656372656173656420616c6c6f77616e63652062656c6f77604082015264207a65726f60d81b606082015260800190565b90815260200190565b60ff91909116815260200190565b600082198211156118ad576118ad611a5a565b500190565b6000826118cd57634e487b7160e01b81526012600452602481fd5b500490565b80825b60018086116118e4575061190f565b8187048211156118f6576118f6611a5a565b8086161561190357918102915b9490941c9380026118d5565b94509492505050565b600061081c60001960ff8516846000826119345750600161081c565b816119415750600061081c565b816001811461195757600281146119615761198e565b600191505061081c565b60ff84111561197257611972611a5a565b6001841b91508482111561198857611988611a5a565b5061081c565b5060208310610133831016604e8410600b84101617156119c1575081810a838111156119bc576119bc611a5a565b61081c565b6119ce84848460016118d2565b8086048211156119e0576119e0611a5a565b02949350505050565b6000816000190483118215151615611a0357611a03611a5a565b500290565b600082821015611a1a57611a1a611a5a565b500390565b600281046001821680611a3357607f821691505b60208210811415611a5457634e487b7160e01b600052602260045260246000fd5b50919050565b634e487b7160e01b600052601160045260246000fd5b6001600160a01b0381168114610f6457600080fdfea2646970667358221220a6df3e76adfe8b5b7f69c8d8d8720b9842094068d0f6ec8a0d0c31f20866b2cb64736f6c634300080000338be0079c531659141344cd1fd0a4f28419497f9722a3daafe3b4186f6b6457e0",
  "linkReferences": {},
  "deployedLinkReferences": {}
}