{
  "_format": "hh-sol-artifact-1",
  "contractName": "PeachNode",
  "sourceName": "contracts/PeachToken.sol",
  "abi": [
    {
      "inputs": [
        {
          "internalType": "address payable",
          "name": "_liquidityPool",
          "type": "address"
        },
        {
          "internalType": "address payable",
          "name": "_rewardsPool",
          "type": "address"
        },
        {
          "internalType": "address payable",
          "name": "_treasuryPool",
          "type": "address"
        },
        {
          "internalType": "address payable",
          "name": "_teamPool",
          "type": "address"
        }
      ],
      "stateMutability": "nonpayable",
      "type": "constructor"
    },
    {
      "anonymous": false,
      "inputs": [
        {
          "indexed": true,
          "internalType": "address",
          "name": "owner",
          "type": "address"
        },
        {
          "indexed": true,
          "internalType": "address",
          "name": "spender",
          "type": "address"
        },
        {
          "indexed": false,
          "internalType": "uint256",
          "name": "value",
          "type": "uint256"
        }
      ],
      "name": "Approval",
      "type": "event"
    },
    {
      "anonymous": false,
      "inputs": [
        {
          "indexed": false,
          "internalType": "address",
          "name": "account",
          "type": "address"
        }
      ],
      "name": "ExcludeAccountFromFee",
      "type": "event"
    },
    {
      "anonymous": false,
      "inputs": [
        {
          "indexed": false,
          "internalType": "address",
          "name": "account",
          "type": "address"
        }
      ],
      "name": "IncludeAccountInFee",
      "type": "event"
    },
    {
      "anonymous": false,
      "inputs": [
        {
          "indexed": true,
          "internalType": "address",
          "name": "previousOwner",
          "type": "address"
        },
        {
          "indexed": true,
          "internalType": "address",
          "name": "newOwner",
          "type": "address"
        }
      ],
      "name": "OwnershipTransferred",
      "type": "event"
    },
    {
      "anonymous": false,
      "inputs": [
        {
          "indexed": true,
          "internalType": "address",
          "name": "from",
          "type": "address"
        },
        {
          "indexed": true,
          "internalType": "address",
          "name": "to",
          "type": "address"
        },
        {
          "indexed": false,
          "internalType": "uint256",
          "name": "value",
          "type": "uint256"
        }
      ],
      "name": "Transfer",
      "type": "event"
    },
    {
      "inputs": [
        {
          "internalType": "address",
          "name": "",
          "type": "address"
        }
      ],
      "name": "_isBlacklisted",
      "outputs": [
        {
          "internalType": "bool",
          "name": "",
          "type": "bool"
        }
      ],
      "stateMutability": "view",
      "type": "function"
    },
    {
      "inputs": [
        {
          "internalType": "address",
          "name": "owner",
          "type": "address"
        },
        {
          "internalType": "address",
          "name": "spender",
          "type": "address"
        }
      ],
      "name": "allowance",
      "outputs": [
        {
          "internalType": "uint256",
          "name": "",
          "type": "uint256"
        }
      ],
      "stateMutability": "view",
      "type": "function"
    },
    {
      "inputs": [
        {
          "internalType": "address",
          "name": "spender",
          "type": "address"
        },
        {
          "internalType": "uint256",
          "name": "amount",
          "type": "uint256"
        }
      ],
      "name": "approve",
      "outputs": [
        {
          "internalType": "bool",
          "name": "",
          "type": "bool"
        }
      ],
      "stateMutability": "nonpayable",
      "type": "function"
    },
    {
      "inputs": [
        {
          "internalType": "address",
          "name": "account",
          "type": "address"
        }
      ],
      "name": "balanceOf",
      "outputs": [
        {
          "internalType": "uint256",
          "name": "",
          "type": "uint256"
        }
      ],
      "stateMutability": "view",
      "type": "function"
    },
    {
      "inputs": [
        {
          "internalType": "address",
          "name": "account",
          "type": "address"
        },
        {
          "internalType": "bool",
          "name": "value",
          "type": "bool"
        }
      ],
      "name": "blacklistMalicious",
      "outputs": [],
      "stateMutability": "nonpayable",
      "type": "function"
    },
    {
      "inputs": [],
      "name": "decimals",
      "outputs": [
        {
          "internalType": "uint8",
          "name": "",
          "type": "uint8"
        }
      ],
      "stateMutability": "view",
      "type": "function"
    },
    {
      "inputs": [
        {
          "internalType": "address",
          "name": "spender",
          "type": "address"
        },
        {
          "internalType": "uint256",
          "name": "subtractedValue",
          "type": "uint256"
        }
      ],
      "name": "decreaseAllowance",
      "outputs": [
        {
          "internalType": "bool",
          "name": "",
          "type": "bool"
        }
      ],
      "stateMutability": "nonpayable",
      "type": "function"
    },
    {
      "inputs": [
        {
          "internalType": "address",
          "name": "account",
          "type": "address"
        }
      ],
      "name": "excludeAccountFromFee",
      "outputs": [],
      "stateMutability": "nonpayable",
      "type": "function"
    },
    {
      "inputs": [
        {
          "internalType": "address",
          "name": "account",
          "type": "address"
        }
      ],
      "name": "includeAccountInFee",
      "outputs": [],
      "stateMutability": "nonpayable",
      "type": "function"
    },
    {
      "inputs": [
        {
          "internalType": "address",
          "name": "spender",
          "type": "address"
        },
        {
          "internalType": "uint256",
          "name": "addedValue",
          "type": "uint256"
        }
      ],
      "name": "increaseAllowance",
      "outputs": [
        {
          "internalType": "bool",
          "name": "",
          "type": "bool"
        }
      ],
      "stateMutability": "nonpayable",
      "type": "function"
    },
    {
      "inputs": [
        {
          "internalType": "address",
          "name": "account",
          "type": "address"
        }
      ],
      "name": "isExcludedFromFee",
      "outputs": [
        {
          "internalType": "bool",
          "name": "",
          "type": "bool"
        }
      ],
      "stateMutability": "view",
      "type": "function"
    },
    {
      "inputs": [],
      "name": "liquidityPoolFee",
      "outputs": [
        {
          "internalType": "uint8",
          "name": "",
          "type": "uint8"
        }
      ],
      "stateMutability": "view",
      "type": "function"
    },
    {
      "inputs": [
        {
          "internalType": "address payable",
          "name": "recipient",
          "type": "address"
        }
      ],
      "name": "lockInTeamWallet",
      "outputs": [],
      "stateMutability": "nonpayable",
      "type": "function"
    },
    {
      "inputs": [],
      "name": "name",
      "outputs": [
        {
          "internalType": "string",
          "name": "",
          "type": "string"
        }
      ],
      "stateMutability": "view",
      "type": "function"
    },
    {
      "inputs": [],
      "name": "owner",
      "outputs": [
        {
          "internalType": "address",
          "name": "",
          "type": "address"
        }
      ],
      "stateMutability": "view",
      "type": "function"
    },
    {
      "inputs": [],
      "name": "renounceOwnership",
      "outputs": [],
      "stateMutability": "nonpayable",
      "type": "function"
    },
    {
      "inputs": [],
      "name": "rewardsFee",
      "outputs": [
        {
          "internalType": "uint8",
          "name": "",
          "type": "uint8"
        }
      ],
      "stateMutability": "view",
      "type": "function"
    },
    {
      "inputs": [],
      "name": "symbol",
      "outputs": [
        {
          "internalType": "string",
          "name": "",
          "type": "string"
        }
      ],
      "stateMutability": "view",
      "type": "function"
    },
    {
      "inputs": [],
      "name": "teamFee",
      "outputs": [
        {
          "internalType": "uint8",
          "name": "",
          "type": "uint8"
        }
      ],
      "stateMutability": "view",
      "type": "function"
    },
    {
      "inputs": [],
      "name": "totalSupply",
      "outputs": [
        {
          "internalType": "uint256",
          "name": "",
          "type": "uint256"
        }
      ],
      "stateMutability": "view",
      "type": "function"
    },
    {
      "inputs": [
        {
          "internalType": "address",
          "name": "recipient",
          "type": "address"
        },
        {
          "internalType": "uint256",
          "name": "amount",
          "type": "uint256"
        }
      ],
      "name": "transfer",
      "outputs": [
        {
          "internalType": "bool",
          "name": "",
          "type": "bool"
        }
      ],
      "stateMutability": "nonpayable",
      "type": "function"
    },
    {
      "inputs": [
        {
          "internalType": "address",
          "name": "sender",
          "type": "address"
        },
        {
          "internalType": "address",
          "name": "recipient",
          "type": "address"
        },
        {
          "internalType": "uint256",
          "name": "amount",
          "type": "uint256"
        }
      ],
      "name": "transferFrom",
      "outputs": [
        {
          "internalType": "bool",
          "name": "",
          "type": "bool"
        }
      ],
      "stateMutability": "nonpayable",
      "type": "function"
    },
    {
      "inputs": [
        {
          "internalType": "address",
          "name": "newOwner",
          "type": "address"
        }
      ],
      "name": "transferOwnership",
      "outputs": [],
      "stateMutability": "nonpayable",
      "type": "function"
    },
    {
      "inputs": [],
      "name": "treasuryFee",
      "outputs": [
        {
          "internalType": "uint8",
          "name": "",
          "type": "uint8"
        }
      ],
      "stateMutability": "view",
      "type": "function"
    },
    {
      "inputs": [
        {
          "internalType": "uint8",
          "name": "value",
          "type": "uint8"
        }
      ],
      "name": "updateLiquidityFee",
      "outputs": [],
      "stateMutability": "nonpayable",
      "type": "function"
    },
    {
      "inputs": [
        {
          "internalType": "address payable",
          "name": "pool",
          "type": "address"
        }
      ],
      "name": "updateLiquidityPool",
      "outputs": [],
      "stateMutability": "nonpayable",
      "type": "function"
    },
    {
      "inputs": [
        {
          "internalType": "uint8",
          "name": "value",
          "type": "uint8"
        }
      ],
      "name": "updateRewardsFee",
      "outputs": [],
      "stateMutability": "nonpayable",
      "type": "function"
    },
    {
      "inputs": [
        {
          "internalType": "address payable",
          "name": "pool",
          "type": "address"
        }
      ],
      "name": "updateRewardsPool",
      "outputs": [],
      "stateMutability": "nonpayable",
      "type": "function"
    },
    {
      "inputs": [
        {
          "internalType": "uint256",
          "name": "val",
          "type": "uint256"
        }
      ],
      "name": "updateTeamPoolAlloc",
      "outputs": [],
      "stateMutability": "nonpayable",
      "type": "function"
    },
    {
      "inputs": [
        {
          "internalType": "uint8",
          "name": "value",
          "type": "uint8"
        }
      ],
      "name": "updateTreasuryFee",
      "outputs": [],
      "stateMutability": "nonpayable",
      "type": "function"
    },
    {
      "inputs": [
        {
          "internalType": "address payable",
          "name": "pool",
          "type": "address"
        }
      ],
      "name": "updateTreasuryPool",
      "outputs": [],
      "stateMutability": "nonpayable",
      "type": "function"
    },
    {
      "inputs": [
        {
          "internalType": "uint8",
          "name": "value",
          "type": "uint8"
        }
      ],
      "name": "updateteamFee",
      "outputs": [],
      "stateMutability": "nonpayable",
      "type": "function"
    },
    {
      "inputs": [
        {
          "internalType": "address payable",
          "name": "pool",
          "type": "address"
        }
      ],
      "name": "updateteamPool",
      "outputs": [],
      "stateMutability": "nonpayable",
      "type": "function"
    },
    {
      "stateMutability": "payable",
      "type": "receive"
    }
  ],
  "bytecode": "0x6080604052621e84806007556008805460ff1916601217908190556200002a9060ff16600a62000696565b6007546200003991906200078e565b600955620186a0600a908155600854620000599160ff9091169062000696565b600a546200006891906200078e565b600b556010805460ff60a01b1916600160a21b1760ff60a81b1916600360aa1b1760ff60b01b1916600f60b11b1760ff60b81b1916600160ba1b179055348015620000b257600080fd5b50604051620022e4380380620022e4833981016040819052620000d59162000507565b604080518082018252600a8152695045414348204e4f444560b01b6020808301918252835180850190945260058452640a08a8286960db1b908401528151919291620001249160039162000444565b5080516200013a90600490602084019062000444565b50505062000157620001516200030e60201b60201c565b62000312565b6001600655600954600c81905560116000620001726200030e565b6001600160a01b03168152602081019190915260400160002055620001973362000353565b620001a23062000353565b601054620001b9906001600160a01b031662000353565b600d80546001600160a01b03199081166001600160a01b038781169190911792839055600e80548316878316179055600f80548316868316179055601080549092168482161790915516158015906200021c5750600e546001600160a01b031615155b8015620002335750600f546001600160a01b031615155b80156200024a57506010546001600160a01b031615155b620002725760405162461bcd60e51b8152600401620002699062000577565b60405180910390fd5b6200027c6200030e565b6001600160a01b031660006001600160a01b03167fddf252ad1be2c89b69c2b068fc378daa952ba7f163c4a11628f55a4df523b3ef600954604051620002c3919062000640565b60405180910390a3620002d56200030e565b6001600160a01b031660006001600160a01b0316600080516020620022c483398151915260405160405180910390a35050505062000803565b3390565b600580546001600160a01b038381166001600160a01b031983168117909355604051911691908290600080516020620022c483398151915290600090a35050565b6200035d6200030e565b6001600160a01b03166200037062000435565b6001600160a01b031614620003995760405162461bcd60e51b815260040162000269906200060b565b6001600160a01b03811660009081526013602052604090205460ff1615620003d55760405162461bcd60e51b81526004016200026990620005d4565b6001600160a01b03811660009081526013602052604090819020805460ff19166001179055517f7e35d6b74d35c333860340884eeca4e63b18cb9d73ce17a147a1952654365b5e906200042a90839062000563565b60405180910390a150565b6005546001600160a01b031690565b8280546200045290620007b0565b90600052602060002090601f016020900481019282620004765760008555620004c1565b82601f106200049157805160ff1916838001178555620004c1565b82800160010185558215620004c1579182015b82811115620004c1578251825591602001919060010190620004a4565b50620004cf929150620004d3565b5090565b5b80821115620004cf5760008155600101620004d4565b80516001600160a01b03811681146200050257600080fd5b919050565b600080600080608085870312156200051d578384fd5b6200052885620004ea565b93506200053860208601620004ea565b92506200054860408601620004ea565b91506200055860608601620004ea565b905092959194509250565b6001600160a01b0391909116815260200190565b6020808252603b908201527f4c49515549444954592f524557415244532f54524541535552592f7465616d2060408201527f504f4f4c20414444524553532043414e4e4f54204245205a45524f0000000000606082015260800190565b6020808252601c908201527f4163636f756e7420697320616c7265616479206578636c756465642e00000000604082015260600190565b6020808252818101527f4f776e61626c653a2063616c6c6572206973206e6f7420746865206f776e6572604082015260600190565b90815260200190565b80825b60018086116200065d57506200068d565b818704821115620006725762000672620007ed565b808616156200068057918102915b9490941c9380026200064c565b94509492505050565b6000620006aa60001960ff851684620006b1565b9392505050565b600082620006c257506001620006aa565b81620006d157506000620006aa565b8160018114620006ea5760028114620006f55762000729565b6001915050620006aa565b60ff841115620007095762000709620007ed565b6001841b915084821115620007225762000722620007ed565b50620006aa565b5060208310610133831016604e8410600b841016171562000761575081810a838111156200075b576200075b620007ed565b620006aa565b62000770848484600162000649565b808604821115620007855762000785620007ed565b02949350505050565b6000816000190483118215151615620007ab57620007ab620007ed565b500290565b600281046001821680620007c557607f821691505b60208210811415620007e757634e487b7160e01b600052602260045260246000fd5b50919050565b634e487b7160e01b600052601160045260246000fd5b611ab180620008136000396000f3fe6080604052600436106101f25760003560e01c80638da5cb5b1161010d578063c76cf14a116100a0578063d89293421161006f578063d89293421461055c578063daa933411461057c578063dd3cdf6c1461059c578063dd62ed3e146105bc578063f2fde38b146105dc576101f9565b8063c76cf14a146104f2578063cc32d17614610512578063d6b4212b14610527578063d7c94efd14610547576101f9565b8063a457c2d7116100dc578063a457c2d714610472578063a9059cbb14610492578063addacb9e146104b2578063b14a1e8e146104d2576101f9565b80638da5cb5b146103fb5780638f859c551461041d578063904d8f681461043d57806395d89b411461045d576101f9565b80632deef2841161018557806354f12f1f1161015457806354f12f1f146103915780636653a340146103a657806370a08231146103c6578063715018a6146103e6576101f9565b80632deef2841461031c578063313ce5671461033c57806339509351146103515780635342acb414610371576101f9565b806318160ddd116101c157806318160ddd146102985780631cdd3be3146102ba57806323b872dd146102da5780632bb14e1d146102fa576101f9565b806306fdde03146101fe578063095ea7b3146102295780631519f1f01461025657806315d957d314610278576101f9565b366101f957005b600080fd5b34801561020a57600080fd5b506102136105fc565b60405161022091906115bd565b60405180910390f35b34801561023557600080fd5b5061024961024436600461153a565b61068e565b60405161022091906115b2565b34801561026257600080fd5b5061027661027136600461157d565b6106ab565b005b34801561028457600080fd5b50610276610293366004611475565b610713565b3480156102a457600080fd5b506102ad6107ef565b6040516102209190611879565b3480156102c657600080fd5b506102496102d5366004611475565b6107f5565b3480156102e657600080fd5b506102496102f53660046114c9565b61080a565b34801561030657600080fd5b5061030f610822565b6040516102209190611882565b34801561032857600080fd5b5061027661033736600461157d565b610832565b34801561034857600080fd5b5061030f610891565b34801561035d57600080fd5b5061024961036c36600461153a565b610896565b34801561037d57600080fd5b5061024961038c366004611475565b6108e2565b34801561039d57600080fd5b5061030f610900565b3480156103b257600080fd5b506102766103c1366004611475565b610910565b3480156103d257600080fd5b506102ad6103e1366004611475565b610971565b3480156103f257600080fd5b5061027661098c565b34801561040757600080fd5b506104106109d7565b604051610220919061159e565b34801561042957600080fd5b50610276610438366004611565565b6109e6565b34801561044957600080fd5b5061027661045836600461157d565b610a2a565b34801561046957600080fd5b50610213610a89565b34801561047e57600080fd5b5061024961048d36600461153a565b610a98565b34801561049e57600080fd5b506102496104ad36600461153a565b610b04565b3480156104be57600080fd5b506102766104cd36600461157d565b610b18565b3480156104de57600080fd5b506102766104ed366004611475565b610b77565b3480156104fe57600080fd5b5061027661050d366004611475565b610bd8565b34801561051e57600080fd5b5061030f610c39565b34801561053357600080fd5b50610276610542366004611475565b610c49565b34801561055357600080fd5b5061030f610d1f565b34801561056857600080fd5b50610276610577366004611509565b610d2f565b34801561058857600080fd5b50610276610597366004611475565b610d99565b3480156105a857600080fd5b506102766105b7366004611475565b610e60565b3480156105c857600080fd5b506102ad6105d7366004611491565b610ec1565b3480156105e857600080fd5b506102766105f7366004611475565b610eec565b60606003805461060b90611a15565b80601f016020809104026020016040519081016040528092919081815260200182805461063790611a15565b80156106845780601f1061065957610100808354040283529160200191610684565b820191906000526020600020905b81548152906001019060200180831161066757829003601f168201915b5050505050905090565b60006106a261069b610f5d565b8484610f61565b50600192915050565b6106b3610f5d565b6001600160a01b03166106c46109d7565b6001600160a01b0316146106f35760405162461bcd60e51b81526004016106ea90611776565b60405180910390fd5b6010805460ff909216600160a01b0260ff60a01b19909216919091179055565b61071b610f5d565b6001600160a01b031661072c6109d7565b6001600160a01b0316146107525760405162461bcd60e51b81526004016106ea90611776565b6001600160a01b0381166107785760405162461bcd60e51b81526004016106ea90611610565b601080546001600160a01b0319166001600160a01b038316179055600b5433600090815260116020526040812080549091906107b59084906119fe565b9091555050600b546010546001600160a01b0316600090815260116020526040812080549091906107e7908490611890565b909155505050565b60095490565b60126020526000908152604090205460ff1681565b6000610817848484611015565b5060015b9392505050565b601054600160a81b900460ff1681565b61083a610f5d565b6001600160a01b031661084b6109d7565b6001600160a01b0316146108715760405162461bcd60e51b81526004016106ea90611776565b6010805460ff909216600160b01b0260ff60b01b19909216919091179055565b601290565b6000806108a1610f5d565b6001600160a01b0380821660009081526001602090815260408083209389168352929052205490915061081790829086906108dd908790611890565b610f61565b6001600160a01b031660009081526013602052604090205460ff1690565b601054600160a01b900460ff1681565b610918610f5d565b6001600160a01b03166109296109d7565b6001600160a01b03161461094f5760405162461bcd60e51b81526004016106ea90611776565b600e80546001600160a01b0319166001600160a01b0392909216919091179055565b6001600160a01b031660009081526011602052604090205490565b610994610f5d565b6001600160a01b03166109a56109d7565b6001600160a01b0316146109cb5760405162461bcd60e51b81526004016106ea90611776565b6109d560006112c6565b565b6005546001600160a01b031690565b6109ee610f5d565b6001600160a01b03166109ff6109d7565b6001600160a01b031614610a255760405162461bcd60e51b81526004016106ea90611776565b600a55565b610a32610f5d565b6001600160a01b0316610a436109d7565b6001600160a01b031614610a695760405162461bcd60e51b81526004016106ea90611776565b6010805460ff909216600160b81b0260ff60b81b19909216919091179055565b60606004805461060b90611a15565b600080610aa3610f5d565b6001600160a01b0380821660009081526001602090815260408083209389168352929052205490915083811015610aec5760405162461bcd60e51b81526004016106ea90611834565b610af98286868403610f61565b506001949350505050565b60006106a2610b11610f5d565b8484611015565b610b20610f5d565b6001600160a01b0316610b316109d7565b6001600160a01b031614610b575760405162461bcd60e51b81526004016106ea90611776565b6010805460ff909216600160a81b0260ff60a81b19909216919091179055565b610b7f610f5d565b6001600160a01b0316610b906109d7565b6001600160a01b031614610bb65760405162461bcd60e51b81526004016106ea90611776565b600f80546001600160a01b0319166001600160a01b0392909216919091179055565b610be0610f5d565b6001600160a01b0316610bf16109d7565b6001600160a01b031614610c175760405162461bcd60e51b81526004016106ea90611776565b601080546001600160a01b0319166001600160a01b0392909216919091179055565b601054600160b01b900460ff1681565b610c51610f5d565b6001600160a01b0316610c626109d7565b6001600160a01b031614610c885760405162461bcd60e51b81526004016106ea90611776565b6001600160a01b03811660009081526013602052604090205460ff1615610cc15760405162461bcd60e51b81526004016106ea90611712565b6001600160a01b03811660009081526013602052604090819020805460ff19166001179055517f7e35d6b74d35c333860340884eeca4e63b18cb9d73ce17a147a1952654365b5e90610d1490839061159e565b60405180910390a150565b601054600160b81b900460ff1681565b610d37610f5d565b6001600160a01b0316610d486109d7565b6001600160a01b031614610d6e5760405162461bcd60e51b81526004016106ea90611776565b6001600160a01b03919091166000908152601260205260409020805460ff1916911515919091179055565b610da1610f5d565b6001600160a01b0316610db26109d7565b6001600160a01b031614610dd85760405162461bcd60e51b81526004016106ea90611776565b6001600160a01b03811660009081526013602052604090205460ff16610e105760405162461bcd60e51b81526004016106ea906116db565b6001600160a01b03811660009081526013602052604090819020805460ff19169055517fc782889d4eb26c6effaa6305a7075c22c2a6e2919ddf49a4a851fecf59cfc75f90610d1490839061159e565b610e68610f5d565b6001600160a01b0316610e796109d7565b6001600160a01b031614610e9f5760405162461bcd60e51b81526004016106ea90611776565b600d80546001600160a01b0319166001600160a01b0392909216919091179055565b6001600160a01b03918216600090815260016020908152604080832093909416825291909152205490565b610ef4610f5d565b6001600160a01b0316610f056109d7565b6001600160a01b031614610f2b5760405162461bcd60e51b81526004016106ea90611776565b6001600160a01b038116610f515760405162461bcd60e51b81526004016106ea90611653565b610f5a816112c6565b50565b3390565b6001600160a01b038316610f875760405162461bcd60e51b81526004016106ea906117f0565b6001600160a01b038216610fad5760405162461bcd60e51b81526004016106ea90611699565b6001600160a01b0380841660008181526001602090815260408083209487168084529490915290819020849055517f8c5be1e5ebec7d5bd14f71427d1e84f3dd0314c0f7b2291e5b200ac8c7c3b92590611008908590611879565b60405180910390a3505050565b6001600160a01b03831661103b5760405162461bcd60e51b81526004016106ea906117ab565b6001600160a01b0382166110615760405162461bcd60e51b81526004016106ea90611610565b6001600160a01b03831660009081526012602052604090205460ff161580156110a357506001600160a01b03821660009081526012602052604090205460ff16155b6110bf5760405162461bcd60e51b81526004016106ea90611749565b6001600160a01b038316600090815260136020526040812054600191906110ea90849060ff16611318565b6001600160a01b03861660009081526013602052604090205490915060ff168061112c57506001600160a01b03841660009081526013602052604090205460ff165b1561113657600091505b828215611217575060a08101516060820151600f546001600160a01b031660009081526011602052604081208054909190611172908490611890565b9091555050604080830151600e546001600160a01b0316600090815260116020529182208054919290916111a7908490611890565b909155505060808201516010546001600160a01b0316600090815260116020526040812080549091906111db908490611890565b9091555050602080830151600d546001600160a01b03166000908152601190925260408220805491929091611211908490611890565b90915550505b6001600160a01b0386166000908152601160205260408120805486929061123f9084906119fe565b90915550506001600160a01b0385166000908152601160205260408120805483929061126c908490611890565b92505081905550846001600160a01b0316866001600160a01b03167fddf252ad1be2c89b69c2b068fc378daa952ba7f163c4a11628f55a4df523b3ef836040516112b69190611879565b60405180910390a3505050505050565b600580546001600160a01b038381166001600160a01b0319831681179093556040519116919082907f8be0079c531659141344cd1fd0a4f28419497f9722a3daafe3b4186f6b6457e090600090a35050565b61132061143f565b61132861143f565b83815261081b8184801561134257815160a0830152611403565b815160105461135d9190600160a81b900460ff166000611407565b6040830152815160105461137d9190600160a01b900460ff166000611407565b6020830152815160105461139d9190600160b01b900460ff166000611407565b606083015281516010546113bd9190600160b81b900460ff166000611407565b6080830181905260608301516020840151604085015185516113df91906119fe565b6113e991906119fe565b6113f391906119fe565b6113fd91906119fe565b60a08301525b5050565b6000606461141683600a61190e565b61142360ff8616876119df565b61142d91906118a8565b61143791906118a8565b949350505050565b6040518060c001604052806000815260200160008152602001600081526020016000815260200160008152602001600081525090565b600060208284031215611486578081fd5b813561081b81611a66565b600080604083850312156114a3578081fd5b82356114ae81611a66565b915060208301356114be81611a66565b809150509250929050565b6000806000606084860312156114dd578081fd5b83356114e881611a66565b925060208401356114f881611a66565b929592945050506040919091013590565b6000806040838503121561151b578182fd5b823561152681611a66565b9150602083013580151581146114be578182fd5b6000806040838503121561154c578182fd5b823561155781611a66565b946020939093013593505050565b600060208284031215611576578081fd5b5035919050565b60006020828403121561158e578081fd5b813560ff8116811461081b578182fd5b6001600160a01b0391909116815260200190565b901515815260200190565b6000602080835283518082850152825b818110156115e9578581018301518582016040015282016115cd565b818111156115fa5783604083870101525b50601f01601f1916929092016040019392505050565b60208082526023908201527f45524332303a207472616e7366657220746f20746865207a65726f206164647260408201526265737360e81b606082015260800190565b60208082526026908201527f4f776e61626c653a206e6577206f776e657220697320746865207a65726f206160408201526564647265737360d01b606082015260800190565b60208082526022908201527f45524332303a20617070726f766520746f20746865207a65726f206164647265604082015261737360f01b606082015260800190565b6020808252601c908201527f4163636f756e7420697320616c726561647920696e636c756465642e00000000604082015260600190565b6020808252601c908201527f4163636f756e7420697320616c7265616479206578636c756465642e00000000604082015260600190565b602080825260139082015272426c61636b6c6973746564206164647265737360681b604082015260600190565b6020808252818101527f4f776e61626c653a2063616c6c6572206973206e6f7420746865206f776e6572604082015260600190565b60208082526025908201527f45524332303a207472616e736665722066726f6d20746865207a65726f206164604082015264647265737360d81b606082015260800190565b60208082526024908201527f45524332303a20617070726f76652066726f6d20746865207a65726f206164646040820152637265737360e01b606082015260800190565b60208082526025908201527f45524332303a2064656372656173656420616c6c6f77616e63652062656c6f77604082015264207a65726f60d81b606082015260800190565b90815260200190565b60ff91909116815260200190565b600082198211156118a3576118a3611a50565b500190565b6000826118c357634e487b7160e01b81526012600452602481fd5b500490565b80825b60018086116118da5750611905565b8187048211156118ec576118ec611a50565b808616156118f957918102915b9490941c9380026118cb565b94509492505050565b600061081b60001960ff85168460008261192a5750600161081b565b816119375750600061081b565b816001811461194d576002811461195757611984565b600191505061081b565b60ff84111561196857611968611a50565b6001841b91508482111561197e5761197e611a50565b5061081b565b5060208310610133831016604e8410600b84101617156119b7575081810a838111156119b2576119b2611a50565b61081b565b6119c484848460016118c8565b8086048211156119d6576119d6611a50565b02949350505050565b60008160001904831182151516156119f9576119f9611a50565b500290565b600082821015611a1057611a10611a50565b500390565b600281046001821680611a2957607f821691505b60208210811415611a4a57634e487b7160e01b600052602260045260246000fd5b50919050565b634e487b7160e01b600052601160045260246000fd5b6001600160a01b0381168114610f5a57600080fdfea2646970667358221220f63289020bcb059fb98741d30a34fd92bbe527085ac912cd42c3c5fdfd7273d964736f6c634300080000338be0079c531659141344cd1fd0a4f28419497f9722a3daafe3b4186f6b6457e0",
  "linkReferences": {},
  "deployedLinkReferences": {}
}