{
  "_format": "hh-sol-artifact-1",
  "contractName": "PeachToken",
  "sourceName": "contracts/PeachToken.sol",
  "abi": [
    {
      "inputs": [
        {
          "internalType": "address payable",
          "name": "_liquidityPool",
          "type": "address"
        },
        {
          "internalType": "address payable",
          "name": "_rewardsPool",
          "type": "address"
        },
        {
          "internalType": "address payable",
          "name": "_treasuryPool",
          "type": "address"
        },
        {
          "internalType": "address payable",
          "name": "_teamPool",
          "type": "address"
        }
      ],
      "stateMutability": "nonpayable",
      "type": "constructor"
    },
    {
      "anonymous": false,
      "inputs": [
        {
          "indexed": true,
          "internalType": "address",
          "name": "owner",
          "type": "address"
        },
        {
          "indexed": true,
          "internalType": "address",
          "name": "spender",
          "type": "address"
        },
        {
          "indexed": false,
          "internalType": "uint256",
          "name": "value",
          "type": "uint256"
        }
      ],
      "name": "Approval",
      "type": "event"
    },
    {
      "anonymous": false,
      "inputs": [
        {
          "indexed": false,
          "internalType": "address",
          "name": "account",
          "type": "address"
        }
      ],
      "name": "ExcludeAccountFromFee",
      "type": "event"
    },
    {
      "anonymous": false,
      "inputs": [
        {
          "indexed": false,
          "internalType": "address",
          "name": "account",
          "type": "address"
        }
      ],
      "name": "IncludeAccountInFee",
      "type": "event"
    },
    {
      "anonymous": false,
      "inputs": [
        {
          "indexed": true,
          "internalType": "address",
          "name": "previousOwner",
          "type": "address"
        },
        {
          "indexed": true,
          "internalType": "address",
          "name": "newOwner",
          "type": "address"
        }
      ],
      "name": "OwnershipTransferred",
      "type": "event"
    },
    {
      "anonymous": false,
      "inputs": [
        {
          "indexed": true,
          "internalType": "address",
          "name": "from",
          "type": "address"
        },
        {
          "indexed": true,
          "internalType": "address",
          "name": "to",
          "type": "address"
        },
        {
          "indexed": false,
          "internalType": "uint256",
          "name": "value",
          "type": "uint256"
        }
      ],
      "name": "Transfer",
      "type": "event"
    },
    {
      "inputs": [
        {
          "internalType": "address",
          "name": "",
          "type": "address"
        }
      ],
      "name": "_isBlacklisted",
      "outputs": [
        {
          "internalType": "bool",
          "name": "",
          "type": "bool"
        }
      ],
      "stateMutability": "view",
      "type": "function"
    },
    {
      "inputs": [
        {
          "internalType": "address",
          "name": "owner",
          "type": "address"
        },
        {
          "internalType": "address",
          "name": "spender",
          "type": "address"
        }
      ],
      "name": "allowance",
      "outputs": [
        {
          "internalType": "uint256",
          "name": "",
          "type": "uint256"
        }
      ],
      "stateMutability": "view",
      "type": "function"
    },
    {
      "inputs": [
        {
          "internalType": "address",
          "name": "spender",
          "type": "address"
        },
        {
          "internalType": "uint256",
          "name": "amount",
          "type": "uint256"
        }
      ],
      "name": "approve",
      "outputs": [
        {
          "internalType": "bool",
          "name": "",
          "type": "bool"
        }
      ],
      "stateMutability": "nonpayable",
      "type": "function"
    },
    {
      "inputs": [
        {
          "internalType": "address",
          "name": "account",
          "type": "address"
        }
      ],
      "name": "balanceOf",
      "outputs": [
        {
          "internalType": "uint256",
          "name": "",
          "type": "uint256"
        }
      ],
      "stateMutability": "view",
      "type": "function"
    },
    {
      "inputs": [
        {
          "internalType": "address",
          "name": "account",
          "type": "address"
        },
        {
          "internalType": "bool",
          "name": "value",
          "type": "bool"
        }
      ],
      "name": "blacklistMalicious",
      "outputs": [],
      "stateMutability": "nonpayable",
      "type": "function"
    },
    {
      "inputs": [],
      "name": "decimals",
      "outputs": [
        {
          "internalType": "uint8",
          "name": "",
          "type": "uint8"
        }
      ],
      "stateMutability": "view",
      "type": "function"
    },
    {
      "inputs": [
        {
          "internalType": "address",
          "name": "spender",
          "type": "address"
        },
        {
          "internalType": "uint256",
          "name": "subtractedValue",
          "type": "uint256"
        }
      ],
      "name": "decreaseAllowance",
      "outputs": [
        {
          "internalType": "bool",
          "name": "",
          "type": "bool"
        }
      ],
      "stateMutability": "nonpayable",
      "type": "function"
    },
    {
      "inputs": [
        {
          "internalType": "address",
          "name": "account",
          "type": "address"
        }
      ],
      "name": "excludeAccountFromFee",
      "outputs": [],
      "stateMutability": "nonpayable",
      "type": "function"
    },
    {
      "inputs": [
        {
          "internalType": "address",
          "name": "account",
          "type": "address"
        }
      ],
      "name": "includeAccountInFee",
      "outputs": [],
      "stateMutability": "nonpayable",
      "type": "function"
    },
    {
      "inputs": [
        {
          "internalType": "address",
          "name": "spender",
          "type": "address"
        },
        {
          "internalType": "uint256",
          "name": "addedValue",
          "type": "uint256"
        }
      ],
      "name": "increaseAllowance",
      "outputs": [
        {
          "internalType": "bool",
          "name": "",
          "type": "bool"
        }
      ],
      "stateMutability": "nonpayable",
      "type": "function"
    },
    {
      "inputs": [
        {
          "internalType": "address",
          "name": "account",
          "type": "address"
        }
      ],
      "name": "isExcludedFromFee",
      "outputs": [
        {
          "internalType": "bool",
          "name": "",
          "type": "bool"
        }
      ],
      "stateMutability": "view",
      "type": "function"
    },
    {
      "inputs": [],
      "name": "liquidityPoolFee",
      "outputs": [
        {
          "internalType": "uint8",
          "name": "",
          "type": "uint8"
        }
      ],
      "stateMutability": "view",
      "type": "function"
    },
    {
      "inputs": [
        {
          "internalType": "address payable",
          "name": "recipient",
          "type": "address"
        }
      ],
      "name": "lockInTeamWallet",
      "outputs": [],
      "stateMutability": "nonpayable",
      "type": "function"
    },
    {
      "inputs": [],
      "name": "minTransfer",
      "outputs": [
        {
          "internalType": "uint256",
          "name": "",
          "type": "uint256"
        }
      ],
      "stateMutability": "view",
      "type": "function"
    },
    {
      "inputs": [],
      "name": "name",
      "outputs": [
        {
          "internalType": "string",
          "name": "",
          "type": "string"
        }
      ],
      "stateMutability": "view",
      "type": "function"
    },
    {
      "inputs": [],
      "name": "owner",
      "outputs": [
        {
          "internalType": "address",
          "name": "",
          "type": "address"
        }
      ],
      "stateMutability": "view",
      "type": "function"
    },
    {
      "inputs": [],
      "name": "renounceOwnership",
      "outputs": [],
      "stateMutability": "nonpayable",
      "type": "function"
    },
    {
      "inputs": [],
      "name": "rewardsFee",
      "outputs": [
        {
          "internalType": "uint8",
          "name": "",
          "type": "uint8"
        }
      ],
      "stateMutability": "view",
      "type": "function"
    },
    {
      "inputs": [],
      "name": "symbol",
      "outputs": [
        {
          "internalType": "string",
          "name": "",
          "type": "string"
        }
      ],
      "stateMutability": "view",
      "type": "function"
    },
    {
      "inputs": [],
      "name": "teamFee",
      "outputs": [
        {
          "internalType": "uint8",
          "name": "",
          "type": "uint8"
        }
      ],
      "stateMutability": "view",
      "type": "function"
    },
    {
      "inputs": [],
      "name": "totalSupply",
      "outputs": [
        {
          "internalType": "uint256",
          "name": "",
          "type": "uint256"
        }
      ],
      "stateMutability": "view",
      "type": "function"
    },
    {
      "inputs": [
        {
          "internalType": "address",
          "name": "recipient",
          "type": "address"
        },
        {
          "internalType": "uint256",
          "name": "amount",
          "type": "uint256"
        }
      ],
      "name": "transfer",
      "outputs": [
        {
          "internalType": "bool",
          "name": "",
          "type": "bool"
        }
      ],
      "stateMutability": "nonpayable",
      "type": "function"
    },
    {
      "inputs": [
        {
          "internalType": "address",
          "name": "sender",
          "type": "address"
        },
        {
          "internalType": "address",
          "name": "recipient",
          "type": "address"
        },
        {
          "internalType": "uint256",
          "name": "amount",
          "type": "uint256"
        }
      ],
      "name": "transferFrom",
      "outputs": [
        {
          "internalType": "bool",
          "name": "",
          "type": "bool"
        }
      ],
      "stateMutability": "nonpayable",
      "type": "function"
    },
    {
      "inputs": [
        {
          "internalType": "address",
          "name": "newOwner",
          "type": "address"
        }
      ],
      "name": "transferOwnership",
      "outputs": [],
      "stateMutability": "nonpayable",
      "type": "function"
    },
    {
      "inputs": [],
      "name": "treasuryFee",
      "outputs": [
        {
          "internalType": "uint8",
          "name": "",
          "type": "uint8"
        }
      ],
      "stateMutability": "view",
      "type": "function"
    },
    {
      "inputs": [
        {
          "internalType": "uint8",
          "name": "value",
          "type": "uint8"
        }
      ],
      "name": "updateLiquidityFee",
      "outputs": [],
      "stateMutability": "nonpayable",
      "type": "function"
    },
    {
      "inputs": [
        {
          "internalType": "address payable",
          "name": "pool",
          "type": "address"
        }
      ],
      "name": "updateLiquidityPool",
      "outputs": [],
      "stateMutability": "nonpayable",
      "type": "function"
    },
    {
      "inputs": [
        {
          "internalType": "uint8",
          "name": "value",
          "type": "uint8"
        }
      ],
      "name": "updateRewardsFee",
      "outputs": [],
      "stateMutability": "nonpayable",
      "type": "function"
    },
    {
      "inputs": [
        {
          "internalType": "address payable",
          "name": "pool",
          "type": "address"
        }
      ],
      "name": "updateRewardsPool",
      "outputs": [],
      "stateMutability": "nonpayable",
      "type": "function"
    },
    {
      "inputs": [
        {
          "internalType": "uint256",
          "name": "val",
          "type": "uint256"
        }
      ],
      "name": "updateTeamPoolAlloc",
      "outputs": [],
      "stateMutability": "nonpayable",
      "type": "function"
    },
    {
      "inputs": [
        {
          "internalType": "uint8",
          "name": "value",
          "type": "uint8"
        }
      ],
      "name": "updateTreasuryFee",
      "outputs": [],
      "stateMutability": "nonpayable",
      "type": "function"
    },
    {
      "inputs": [
        {
          "internalType": "address payable",
          "name": "pool",
          "type": "address"
        }
      ],
      "name": "updateTreasuryPool",
      "outputs": [],
      "stateMutability": "nonpayable",
      "type": "function"
    },
    {
      "inputs": [
        {
          "internalType": "uint8",
          "name": "value",
          "type": "uint8"
        }
      ],
      "name": "updateteamFee",
      "outputs": [],
      "stateMutability": "nonpayable",
      "type": "function"
    },
    {
      "inputs": [
        {
          "internalType": "address payable",
          "name": "pool",
          "type": "address"
        }
      ],
      "name": "updateteamPool",
      "outputs": [],
      "stateMutability": "nonpayable",
      "type": "function"
    },
    {
      "stateMutability": "payable",
      "type": "receive"
    }
  ],
  "bytecode": "0x6080604052621e84806008556009805460ff1916601217908190556200002a9060ff16600a62000790565b60085462000039919062000888565b600a908155620186a0600b55600954620000599160ff9091169062000790565b600b5462000068919062000888565b600c556010805460ff60a01b1916600160a21b1760ff60a81b1916600360aa1b1760ff60b01b1916600f60b11b1760ff60b81b1916600160ba1b1790556032601155348015620000b757600080fd5b506040516200251038038062002510833981016040819052620000da91620005af565b604080518082018252600a8152695045414348204e4f444560b01b6020808301918252835180850190945260058452640a08a8286960db1b9084015281519192916200012991600391620004ec565b5080516200013f906004906020840190620004ec565b5050506200015c62000156620002e960201b60201c565b620002ed565b6001600655600d80546001600160a01b03199081166001600160a01b038781169190911792839055600e80548316878316179055600f8054831686831617905560108054909216848216179091551615801590620001c45750600e546001600160a01b031615155b8015620001db5750600f546001600160a01b031615155b8015620001f257506010546001600160a01b031615155b6200021a5760405162461bcd60e51b815260040162000211906200061f565b60405180910390fd5b6200023162000228620002e9565b600a546200032e565b6200023c33620003f6565b6200024730620003f6565b6010546200025e906001600160a01b0316620003f6565b62000268620002e9565b6001600160a01b031660006001600160a01b0316600080516020620024f0833981519152600a546040516200029e91906200071f565b60405180910390a3620002b0620002e9565b6001600160a01b031660006001600160a01b0316600080516020620024d083398151915260405160405180910390a350505050620008fd565b3390565b600580546001600160a01b038381166001600160a01b031983168117909355604051911691908290600080516020620024d083398151915290600090a35050565b6001600160a01b038216620003575760405162461bcd60e51b81526004016200021190620006e8565b6200036560008383620004d8565b806002600082825462000379919062000728565b90915550506001600160a01b03821660009081526020819052604081208054839290620003a890849062000728565b90915550506040516001600160a01b03831690600090600080516020620024f083398151915290620003dc9085906200071f565b60405180910390a3620003f260008383620004d8565b5050565b62000400620002e9565b6001600160a01b031662000413620004dd565b6001600160a01b0316146200043c5760405162461bcd60e51b81526004016200021190620006b3565b6001600160a01b03811660009081526013602052604090205460ff1615620004785760405162461bcd60e51b815260040162000211906200067c565b6001600160a01b03811660009081526013602052604090819020805460ff19166001179055517f7e35d6b74d35c333860340884eeca4e63b18cb9d73ce17a147a1952654365b5e90620004cd9083906200060b565b60405180910390a150565b505050565b6005546001600160a01b031690565b828054620004fa90620008aa565b90600052602060002090601f0160209004810192826200051e576000855562000569565b82601f106200053957805160ff191683800117855562000569565b8280016001018555821562000569579182015b82811115620005695782518255916020019190600101906200054c565b50620005779291506200057b565b5090565b5b808211156200057757600081556001016200057c565b80516001600160a01b0381168114620005aa57600080fd5b919050565b60008060008060808587031215620005c5578384fd5b620005d08562000592565b9350620005e06020860162000592565b9250620005f06040860162000592565b9150620006006060860162000592565b905092959194509250565b6001600160a01b0391909116815260200190565b6020808252603b908201527f4c49515549444954592f524557415244532f54524541535552592f5445414d2060408201527f504f4f4c20414444524553532043414e4e4f54204245205a45524f0000000000606082015260800190565b6020808252601c908201527f4163636f756e7420697320616c7265616479206578636c756465642e00000000604082015260600190565b6020808252818101527f4f776e61626c653a2063616c6c6572206973206e6f7420746865206f776e6572604082015260600190565b6020808252601f908201527f45524332303a206d696e7420746f20746865207a65726f206164647265737300604082015260600190565b90815260200190565b600082198211156200073e576200073e620008e7565b500190565b80825b600180861162000757575062000787565b8187048211156200076c576200076c620008e7565b808616156200077a57918102915b9490941c93800262000746565b94509492505050565b6000620007a460001960ff851684620007ab565b9392505050565b600082620007bc57506001620007a4565b81620007cb57506000620007a4565b8160018114620007e45760028114620007ef5762000823565b6001915050620007a4565b60ff841115620008035762000803620008e7565b6001841b9150848211156200081c576200081c620008e7565b50620007a4565b5060208310610133831016604e8410600b84101617156200085b575081810a83811115620008555762000855620008e7565b620007a4565b6200086a848484600162000743565b8086048211156200087f576200087f620008e7565b02949350505050565b6000816000190483118215151615620008a557620008a5620008e7565b500290565b600281046001821680620008bf57607f821691505b60208210811415620008e157634e487b7160e01b600052602260045260246000fd5b50919050565b634e487b7160e01b600052601160045260246000fd5b611bc3806200090d6000396000f3fe6080604052600436106101fd5760003560e01c80638f859c551161010d578063c76cf14a116100a0578063d89293421161006f578063d89293421461057c578063daa933411461059c578063dd3cdf6c146105bc578063dd62ed3e146105dc578063f2fde38b146105fc57610204565b8063c76cf14a14610512578063cc32d17614610532578063d6b4212b14610547578063d7c94efd1461056757610204565b8063a4f35b65116100dc578063a4f35b651461049d578063a9059cbb146104b2578063addacb9e146104d2578063b14a1e8e146104f257610204565b80638f859c5514610428578063904d8f681461044857806395d89b4114610468578063a457c2d71461047d57610204565b80632deef2841161019057806354f12f1f1161015f57806354f12f1f1461039c5780636653a340146103b157806370a08231146103d1578063715018a6146103f15780638da5cb5b1461040657610204565b80632deef28414610327578063313ce56714610347578063395093511461035c5780635342acb41461037c57610204565b806318160ddd116101cc57806318160ddd146102a35780631cdd3be3146102c557806323b872dd146102e55780632bb14e1d1461030557610204565b806306fdde0314610209578063095ea7b3146102345780631519f1f01461026157806315d957d31461028357610204565b3661020457005b600080fd5b34801561021557600080fd5b5061021e61061c565b60405161022b9190611689565b60405180910390f35b34801561024057600080fd5b5061025461024f366004611606565b6106ae565b60405161022b919061167e565b34801561026d57600080fd5b5061028161027c366004611649565b6106d0565b005b34801561028f57600080fd5b5061028161029e366004611541565b610738565b3480156102af57600080fd5b506102b86107d2565b60405161022b919061198b565b3480156102d157600080fd5b506102546102e0366004611541565b6107d8565b3480156102f157600080fd5b50610254610300366004611595565b6107ed565b34801561031157600080fd5b5061031a610826565b60405161022b9190611994565b34801561033357600080fd5b50610281610342366004611649565b610836565b34801561035357600080fd5b5061031a610895565b34801561036857600080fd5b50610254610377366004611606565b61089a565b34801561038857600080fd5b50610254610397366004611541565b6108e6565b3480156103a857600080fd5b5061031a610904565b3480156103bd57600080fd5b506102816103cc366004611541565b610914565b3480156103dd57600080fd5b506102b86103ec366004611541565b610975565b3480156103fd57600080fd5b50610281610990565b34801561041257600080fd5b5061041b6109db565b60405161022b919061166a565b34801561043457600080fd5b50610281610443366004611631565b6109ea565b34801561045457600080fd5b50610281610463366004611649565b610a2e565b34801561047457600080fd5b5061021e610a8d565b34801561048957600080fd5b50610254610498366004611606565b610a9c565b3480156104a957600080fd5b506102b8610b08565b3480156104be57600080fd5b506102546104cd366004611606565b610b0e565b3480156104de57600080fd5b506102816104ed366004611649565b610b2b565b3480156104fe57600080fd5b5061028161050d366004611541565b610b8a565b34801561051e57600080fd5b5061028161052d366004611541565b610beb565b34801561053e57600080fd5b5061031a610c4c565b34801561055357600080fd5b50610281610562366004611541565b610c5c565b34801561057357600080fd5b5061031a610d32565b34801561058857600080fd5b506102816105973660046115d5565b610d42565b3480156105a857600080fd5b506102816105b7366004611541565b610dac565b3480156105c857600080fd5b506102816105d7366004611541565b610e73565b3480156105e857600080fd5b506102b86105f736600461155d565b610ed4565b34801561060857600080fd5b50610281610617366004611541565b610eff565b60606003805461062b90611b27565b80601f016020809104026020016040519081016040528092919081815260200182805461065790611b27565b80156106a45780601f10610679576101008083540402835291602001916106a4565b820191906000526020600020905b81548152906001019060200180831161068757829003601f168201915b5050505050905090565b6000806106b9610f70565b90506106c6818585610f74565b5060019392505050565b6106d8610f70565b6001600160a01b03166106e96109db565b6001600160a01b0316146107185760405162461bcd60e51b815260040161070f90611888565b60405180910390fd5b6010805460ff909216600160a01b0260ff60a01b19909216919091179055565b610740610f70565b6001600160a01b03166107516109db565b6001600160a01b0316146107775760405162461bcd60e51b815260040161070f90611888565b6001600160a01b03811661079d5760405162461bcd60e51b815260040161070f906116dc565b601080546001600160a01b0319166001600160a01b038381169190911791829055600c546107ce9290911690610b0e565b5050565b600a5490565b60126020526000908152604090205460ff1681565b60006107f7610f70565b6001600160a01b0316846001600160a01b03161461081457600080fd5b6106c6848484611028565b9392505050565b601054600160a81b900460ff1681565b61083e610f70565b6001600160a01b031661084f6109db565b6001600160a01b0316146108755760405162461bcd60e51b815260040161070f90611888565b6010805460ff909216600160b01b0260ff60b01b19909216919091179055565b601290565b6000806108a5610f70565b6001600160a01b038082166000908152600160209081526040808320938916835292905220549091506106c690829086906108e19087906119a2565b610f74565b6001600160a01b031660009081526013602052604090205460ff1690565b601054600160a01b900460ff1681565b61091c610f70565b6001600160a01b031661092d6109db565b6001600160a01b0316146109535760405162461bcd60e51b815260040161070f90611888565b600e80546001600160a01b0319166001600160a01b0392909216919091179055565b6001600160a01b031660009081526020819052604090205490565b610998610f70565b6001600160a01b03166109a96109db565b6001600160a01b0316146109cf5760405162461bcd60e51b815260040161070f90611888565b6109d9600061125f565b565b6005546001600160a01b031690565b6109f2610f70565b6001600160a01b0316610a036109db565b6001600160a01b031614610a295760405162461bcd60e51b815260040161070f90611888565b600b55565b610a36610f70565b6001600160a01b0316610a476109db565b6001600160a01b031614610a6d5760405162461bcd60e51b815260040161070f90611888565b6010805460ff909216600160b81b0260ff60b81b19909216919091179055565b60606004805461062b90611b27565b600080610aa7610f70565b6001600160a01b0380821660009081526001602090815260408083209389168352929052205490915083811015610af05760405162461bcd60e51b815260040161070f90611946565b610afd8286868403610f74565b506001949350505050565b60115481565b6000610b22610b1b610f70565b8484611028565b50600192915050565b610b33610f70565b6001600160a01b0316610b446109db565b6001600160a01b031614610b6a5760405162461bcd60e51b815260040161070f90611888565b6010805460ff909216600160a81b0260ff60a81b19909216919091179055565b610b92610f70565b6001600160a01b0316610ba36109db565b6001600160a01b031614610bc95760405162461bcd60e51b815260040161070f90611888565b600f80546001600160a01b0319166001600160a01b0392909216919091179055565b610bf3610f70565b6001600160a01b0316610c046109db565b6001600160a01b031614610c2a5760405162461bcd60e51b815260040161070f90611888565b601080546001600160a01b0319166001600160a01b0392909216919091179055565b601054600160b01b900460ff1681565b610c64610f70565b6001600160a01b0316610c756109db565b6001600160a01b031614610c9b5760405162461bcd60e51b815260040161070f90611888565b6001600160a01b03811660009081526013602052604090205460ff1615610cd45760405162461bcd60e51b815260040161070f90611824565b6001600160a01b03811660009081526013602052604090819020805460ff19166001179055517f7e35d6b74d35c333860340884eeca4e63b18cb9d73ce17a147a1952654365b5e90610d2790839061166a565b60405180910390a150565b601054600160b81b900460ff1681565b610d4a610f70565b6001600160a01b0316610d5b6109db565b6001600160a01b031614610d815760405162461bcd60e51b815260040161070f90611888565b6001600160a01b03919091166000908152601260205260409020805460ff1916911515919091179055565b610db4610f70565b6001600160a01b0316610dc56109db565b6001600160a01b031614610deb5760405162461bcd60e51b815260040161070f90611888565b6001600160a01b03811660009081526013602052604090205460ff16610e235760405162461bcd60e51b815260040161070f906117a7565b6001600160a01b03811660009081526013602052604090819020805460ff19169055517fc782889d4eb26c6effaa6305a7075c22c2a6e2919ddf49a4a851fecf59cfc75f90610d2790839061166a565b610e7b610f70565b6001600160a01b0316610e8c6109db565b6001600160a01b031614610eb25760405162461bcd60e51b815260040161070f90611888565b600d80546001600160a01b0319166001600160a01b0392909216919091179055565b6001600160a01b03918216600090815260016020908152604080832093909416825291909152205490565b610f07610f70565b6001600160a01b0316610f186109db565b6001600160a01b031614610f3e5760405162461bcd60e51b815260040161070f90611888565b6001600160a01b038116610f645760405162461bcd60e51b815260040161070f9061171f565b610f6d8161125f565b50565b3390565b6001600160a01b038316610f9a5760405162461bcd60e51b815260040161070f90611902565b6001600160a01b038216610fc05760405162461bcd60e51b815260040161070f90611765565b6001600160a01b0380841660008181526001602090815260408083209487168084529490915290819020849055517f8c5be1e5ebec7d5bd14f71427d1e84f3dd0314c0f7b2291e5b200ac8c7c3b9259061101b90859061198b565b60405180910390a3505050565b6001600160a01b03831661104e5760405162461bcd60e51b815260040161070f906118bd565b6001600160a01b0382166110745760405162461bcd60e51b815260040161070f906116dc565b6001600160a01b03831660009081526012602052604090205460ff161580156110b657506001600160a01b03821660009081526012602052604090205460ff16155b6110d25760405162461bcd60e51b815260040161070f9061185b565b6001600160a01b03831660009081526013602052604090205460ff166111015760115481101561110157600080fd5b6001600160a01b0383166000908152601360205260408120546001919061112c90849060ff166112b1565b6001600160a01b03861660009081526013602052604090205490915060ff168061116e57506001600160a01b03841660009081526013602052604090205460ff165b1561117857600091505b828215611201575060a0810151600f5460608301516111a49188916001600160a01b03909116906112ce565b600e5460408301516111c39188916001600160a01b03909116906112ce565b60105460808301516111e29188916001600160a01b03909116906112ce565b600d5460208301516112019188916001600160a01b03909116906112ce565b61120c8686836112ce565b846001600160a01b0316866001600160a01b03167fddf252ad1be2c89b69c2b068fc378daa952ba7f163c4a11628f55a4df523b3ef8360405161124f919061198b565b60405180910390a3505050505050565b600580546001600160a01b038381166001600160a01b0319831681179093556040519116919082907f8be0079c531659141344cd1fd0a4f28419497f9722a3daafe3b4186f6b6457e090600090a35050565b6112b961150b565b6112c161150b565b83815261081f81846113f8565b6001600160a01b0383166112f45760405162461bcd60e51b815260040161070f906118bd565b6001600160a01b03821661131a5760405162461bcd60e51b815260040161070f906116dc565b6113258383836114ce565b6001600160a01b0383166000908152602081905260409020548181101561135e5760405162461bcd60e51b815260040161070f906117de565b6001600160a01b038085166000908152602081905260408082208585039055918516815290812080548492906113959084906119a2565b92505081905550826001600160a01b0316846001600160a01b03167fddf252ad1be2c89b69c2b068fc378daa952ba7f163c4a11628f55a4df523b3ef846040516113df919061198b565b60405180910390a36113f28484846114ce565b50505050565b801561140a57815160a08301526107ce565b81516010546114259190600160a81b900460ff1660006114d3565b604083015281516010546114459190600160a01b900460ff1660006114d3565b602083015281516010546114659190600160b01b900460ff1660006114d3565b606083015281516010546114859190600160b81b900460ff1660006114d3565b6080830181905260608301516020840151604085015185516114a79190611b10565b6114b19190611b10565b6114bb9190611b10565b6114c59190611b10565b60a08301525050565b505050565b600060646114e283600a611a20565b6114ef60ff861687611af1565b6114f991906119ba565b61150391906119ba565b949350505050565b6040518060c001604052806000815260200160008152602001600081526020016000815260200160008152602001600081525090565b600060208284031215611552578081fd5b813561081f81611b78565b6000806040838503121561156f578081fd5b823561157a81611b78565b9150602083013561158a81611b78565b809150509250929050565b6000806000606084860312156115a9578081fd5b83356115b481611b78565b925060208401356115c481611b78565b929592945050506040919091013590565b600080604083850312156115e7578182fd5b82356115f281611b78565b91506020830135801515811461158a578182fd5b60008060408385031215611618578182fd5b823561162381611b78565b946020939093013593505050565b600060208284031215611642578081fd5b5035919050565b60006020828403121561165a578081fd5b813560ff8116811461081f578182fd5b6001600160a01b0391909116815260200190565b901515815260200190565b6000602080835283518082850152825b818110156116b557858101830151858201604001528201611699565b818111156116c65783604083870101525b50601f01601f1916929092016040019392505050565b60208082526023908201527f45524332303a207472616e7366657220746f20746865207a65726f206164647260408201526265737360e81b606082015260800190565b60208082526026908201527f4f776e61626c653a206e6577206f776e657220697320746865207a65726f206160408201526564647265737360d01b606082015260800190565b60208082526022908201527f45524332303a20617070726f766520746f20746865207a65726f206164647265604082015261737360f01b606082015260800190565b6020808252601c908201527f4163636f756e7420697320616c726561647920696e636c756465642e00000000604082015260600190565b60208082526026908201527f45524332303a207472616e7366657220616d6f756e7420657863656564732062604082015265616c616e636560d01b606082015260800190565b6020808252601c908201527f4163636f756e7420697320616c7265616479206578636c756465642e00000000604082015260600190565b602080825260139082015272426c61636b6c6973746564206164647265737360681b604082015260600190565b6020808252818101527f4f776e61626c653a2063616c6c6572206973206e6f7420746865206f776e6572604082015260600190565b60208082526025908201527f45524332303a207472616e736665722066726f6d20746865207a65726f206164604082015264647265737360d81b606082015260800190565b60208082526024908201527f45524332303a20617070726f76652066726f6d20746865207a65726f206164646040820152637265737360e01b606082015260800190565b60208082526025908201527f45524332303a2064656372656173656420616c6c6f77616e63652062656c6f77604082015264207a65726f60d81b606082015260800190565b90815260200190565b60ff91909116815260200190565b600082198211156119b5576119b5611b62565b500190565b6000826119d557634e487b7160e01b81526012600452602481fd5b500490565b80825b60018086116119ec5750611a17565b8187048211156119fe576119fe611b62565b80861615611a0b57918102915b9490941c9380026119dd565b94509492505050565b600061081f60001960ff851684600082611a3c5750600161081f565b81611a495750600061081f565b8160018114611a5f5760028114611a6957611a96565b600191505061081f565b60ff841115611a7a57611a7a611b62565b6001841b915084821115611a9057611a90611b62565b5061081f565b5060208310610133831016604e8410600b8410161715611ac9575081810a83811115611ac457611ac4611b62565b61081f565b611ad684848460016119da565b808604821115611ae857611ae8611b62565b02949350505050565b6000816000190483118215151615611b0b57611b0b611b62565b500290565b600082821015611b2257611b22611b62565b500390565b600281046001821680611b3b57607f821691505b60208210811415611b5c57634e487b7160e01b600052602260045260246000fd5b50919050565b634e487b7160e01b600052601160045260246000fd5b6001600160a01b0381168114610f6d57600080fdfea26469706673582212207986eb4ef46c6e0bfb24e536adc938a03e3ddf46c1341486d9fbf777be4f98ea64736f6c634300080000338be0079c531659141344cd1fd0a4f28419497f9722a3daafe3b4186f6b6457e0ddf252ad1be2c89b69c2b068fc378daa952ba7f163c4a11628f55a4df523b3ef",
  "linkReferences": {},
  "deployedLinkReferences": {}
}